:020000040800F2
:1000000088ED0020110300081D0300081F030008ED
:100010002103000823030008250300080000000056
:10002000000000000000000000000000270300089E
:1000300029030008000000002B030008ADF60008AB
:100040002F0300082F0300082F0300082F030008C8
:100050002F0300082F0300082F0300082F030008B8
:100060002F0300082F0300082F0300082F030008A8
:100070002F0300082F0300082F0300082F03000898
:100080002F0300082F0300082F0300082F03000888
:100090002F0300082F0300082F0300082F03000878
:1000A0002F0300082F0300082F0300082F03000868
:1000B0002F0300082F0300082F0300082F03000858
:1000C0002F0300082F0300082F0300082F03000848
:1000D0002F0300082F030008850001089100010884
:1000E0002F0300082F0300082F0300082F03000828
:1000F0002F0300082F0300082F0300082F03000818
:100100002F0300082F0300082F0300082F03000807
:1001100009FE00082F0300082F0300082F03000822
:100120002F03000825710008AD7100082F03000897
:100130003D7200082F0300082F0300082F0300085A
:100140002F0300082F0300082F0300082F030008C7
:100150002F0300082F0300082F030008990001084F
:100160002F0300082F0300082F0300082F030008A7
:100170002F0300082F0300082F03000800000000D1
:100180002F0300082F0300082F03000829FE000892
:100190002F0300082F0300082F03000800000000B1
:1001A0002F0300082F0300082F03000800F002F8B7
:1001B00000F09EF80AA090E8000C82448344AAF163
:1001C0000107DA4501D100F093F8AFF2090EBAE861
:1001D0000F0013F0010F18BFFB1A43F0010318477B
:1001E000EC3902000C3A0200103A24BF78C878C1FA
:1001F000FAD8520724BF30C830C144BF04680C602D
:10020000704700000023002400250026103A28BF74
:1002100078C1FBD8520728BF30C148BF0B60704778
:100220006E2900F0AF84702900F00B8666291CF05F
:10023000268765291CF0238767291CF02087612900
:100240001CF01F8703681B0A28BF41F08001692941
:1002500000F05C84642900F05984752900F056840C
:100260006F2900F09985782900F0D785E92900F0F9
:100270003385E42900F03085F52900F02D85EF293C
:1002800000F09685F82900F0D6850368DB0928BFC1
:1002900041F08001632901F00583732901F00A838D
:1002A000E32901F01583F32901F01A830020704738
:1002B0001FB51CF0D2FE9DE8030000F08FFB00F09C
:1002C0009FFE0400002000211CF0F0F8401C60603C
:1002D000002000211CF000F9E060AFF30080AFF3D4
:1002E000008001F005FB1FBD10B501F06AFB10BDD9
:1002F00001F0CCFB1146FFF7DBFF19F077FC01F0B2
:1003000049FE03B4FFF7F0FF03BC10F049FF000003
:100310000A4880470A4880470A480047FEE7FEE748
:10032000FEE7FEE7FEE7FEE7FEE7FEE7FEE7FEE7A5
:1003300005480649064A074B70470000C5F6000805
:10034000FDC30008AD01000808AD002088ED0020C5
:1003500088AD002088AD0020704770B5064600F0DB
:1003600021FB056806F10B0020F00704B4429CBF96
:10037000002070BD2B466A68BAB11068A04210D345
:1003800004F1080188423CBF5068586007D35168A7
:10039000101941601168091B016058601460101D3C
:1003A00070BD13465268002AE7D12146284600F066
:1003B00001FB0028DED170BD70B50446051F00F0BA
:1003C000F1FA0068002C14BF446870BD002C18BFFF
:1003D000AC423CBF20466468F8D301680A18AA42C0
:1003E00018BF456003D12A6805461144016028689A
:1003F0004119A1421CBF6C6070BD616869602168D1
:100400000844286070BD53EA020C00F069802DE9B1
:10041000F04B4FF00006002B1FBFB3FA83F503FA31
:1004200005F424FA05F65E4012BF1643B2FA82F5CF
:1004300002FA05F4C5F120051EBF22FA05FC44EAC4
:100440000C04203556EA044C4FEA144418BF641CCF
:100450004FF000084FF00009904271EB030C39D3C4
:10046000002919BFB1FA81F701FA07F6B0FA80F74F
:1004700000FA07F6C7F120071EBF20FA07FC46EA7C
:100480000C062037B6FBF4FCA7EB0507103F07F07E
:100490001F0BCBF120062CFA06F60CFA0BFB44BF1F
:1004A000B3460026202FA4BF5E464FF0000B5BEA48
:1004B000060C08BF4FF0010B19EB0B0948EB0608BF
:1004C000ABFB027C06FB02CC0BFB03CCC01B71EB2D
:1004D0000C01C1E70B46024641464846BDE8F08B99
:1004E00013B5084318BF4FF0FF300146AFF300804B
:1004F000BDE81C40704710B5044600F04BFA006898
:10050000005D000704D5DF2C02D0A4F1200010BD4F
:10051000204610BD0FB4044910B503AA029800F09C
:100520006BFB10BC5DF814FB540200200A46014925
:1005300000F062BB540200200FB41CB5084B06AAA1
:100540007B4469460090059800F035FB0446002086
:10055000694600F043FB20461CBC5DF814FB00001C
:10056000990600000FB47CB50C0009AA009001D0D8
:100570002044401E084B7B4469460190089800F0D7
:100580001AFB05461CB10020694600F027FB2846EF
:100590007CBC5DF814FB00006D0600000EB505463E
:1005A00014460E4613A001F0B1FE284601F0AEFE3F
:1005B00016A001F0ABFE304601F0A8FE15A001F038
:1005C000A5FE00218DF80B100A210DF10A008DF80F
:1005D0000A1008E094FBF1F201FB124294FBF1F4E3
:1005E000303200F8012D002CF4DC01F08FFE00F019
:1005F000F7FC00002A2A2A20617373657274696F00
:100600006E206661696C65643A2000002C20666982
:100610006C6520002C206C696E65200030B50346A7
:100620001D781DB10A4603E0AC4201D1181A30BD55
:1006300012F8014B002CF7D15B1CF1E730B50346F3
:100640001D783DB10A4612F8014B1CB1AC42FAD1FB
:100650005B1CF5E7181A30BD40EA010310B59B0793
:100660000FD1042A0DD310C808C9121F9C42F8D01C
:1006700020BA19BA884201D9012010BD4FF0FF30CD
:1006800010BD1AB1D30703D0521C07E0002010BDE3
:1006900010F8013B11F8014B1B1B07D110F8013B6F
:1006A00011F8014B1B1B01D1921EF1D1184610BD50
:1006B00010B5431C02E010F8011B71B18107FAD19B
:1006C0004FF0013202C88C1A8C4314EAC211F9D0DF
:1006D000C01A0A0603D0C01E10BDC01A10BD0A04FD
:1006E00001D0801E10BD0902FCD0401E10BD032A9F
:1006F00040F2308010F0030C00F0158011F8013B3F
:10070000BCF1020F624498BF11F801CB00F8013B25
:1007100038BF11F8013BA2F1040298BF00F801CBE9
:1007200038BF00F8013B11F0030300F02580083AC0
:10073000C0F0088051F8043B083A51F804CBA0E817
:100740000810F5E7121D5CBF51F8043B40F8043B6C
:10075000AFF30080D20724BF11F8013B11F801CBA1
:1007600048BF11F8012B24BF00F8013B00F801CB72
:1007700048BF00F8012B704710B5203AC0F00B803D
:10078000B1E81850A0E81850B1E81850A0E8185087
:10079000203ABFF4F5AF5FEA027C24BFB1E81850FD
:1007A000A0E8185044BF18C918C0BDE810405FEA5F
:1007B000827C24BF51F8043B40F8043B08BF7047DB
:1007C000D20728BF31F8023B48BF11F8012B28BFE0
:1007D00020F8023B48BF00F8012B704702F0FF03EE
:1007E00043EA032242EA024200F002B84FF000025C
:1007F0000429C0F0128010F0030C00F01B80CCF133
:10080000040CBCF1020F18BF00F8012BA8BF20F8A0
:10081000022BA1EB0C0100F00DB85FEAC17C24BFF4
:1008200000F8012B00F8012B48BF00F8012B70479E
:100830004FF0000200B5134694469646203922BF79
:10084000A0E80C50A0E80C50B1F12001BFF4F7AFC4
:10085000090728BFA0E80C5048BF0CC05DF804EBA6
:10086000890028BF40F8042B08BF704748BF20F814
:10087000022B11F0804F18BF00F8012B704710B504
:10088000044610F0030F08BF11F0030F40F015806D
:100890004FF0013E121FC0F20E8051F8043BA3EB53
:1008A0000E0C2CEA030C1CEACE1C08BF40F8043BDB
:1008B000F0D0A1F1040102F10402521E08DB11F88C
:1008C000013B00F8013B002BF7D11146FFF78EFFEB
:1008D000204610BD70B50C46016800204A1C3ED071
:1008E0003C22B1FBF2F302FB1313B1FBF2F12360E4
:1008F000B1FBF2F302FB1313B1FBF2F118226360B8
:10090000B1FBF2F302FB1313B1FBF2F146F2E0325A
:100910000A440721A360B2FBF1F301FB132140F26B
:10092000B553B2FBF3F5A161B2FBF3F103FB152262
:100930008900B2F5B77F08D39B10521EB2FBF3F5C6
:100940002944B2FBF3F503FB15220F4BE261616111
:1009500089077B440CD03B2A0AD3521C08E02C2187
:100960002046FFF765FF0120E0600AE0521A401CB4
:10097000195C9142FAD9521CC4E903204FF0FF30B0
:100980002062204670BD000073C7010070477047A9
:100990007047704710B500F033FB001D10BD00BF5D
:1009A0000DBB0100004870470403002070477047EA
:1009B0007047704738B504460A4600206946AFF3D1
:1009C0000080002808BF38BD02460099204600F08C
:1009D0001BFB012038BD012001F051B8F8B5AFF381
:1009E0000080054600200C46102000BF0646A819CE
:1009F000A0420DD9324669460020AFF300800700BF
:100A000008BF01F03CF80098A04218BF0546C41981
:100A1000FFF7C8FF05600746F01D20F007004619E4
:100A2000284600F00AF8B44208BFF8BDA21B3146C0
:100A30003868BDE8F84000F0E7BA00210160C0E97D
:100A4000011070471020704770B504468569006832
:100A5000C10601D5302600E02026C00707D070BDB2
:100A6000D4E9012130469047206A401C20626D1E67
:100A7000F6D570BD70B5044685690078C00707D10A
:100A800070BDD4E9012120209047206A401C2062DB
:100A90006D1EF6D570BD09684A0501D540B2704794
:100AA000C905FCD500B2704709684A0501D5C0B236
:100AB0007047C905FCD580B2704770B50C46054635
:100AC000012A05D02878800600D5EA69002302E0D3
:100AD000012305E05B1C934202D2E05C0028F9D1BF
:100AE000A869E618C01AA861286A1844286228462E
:100AF000FFF7AAFF04E0D5E9012114F8010B9047A4
:100B0000B442F8D32846FFF7B5FF70BD2DE9F04198
:100B10000646002410687529314616A510D0FFF747
:100B2000BAFF002802DA404213A507E031688A07BD
:100B300001D512A502E0490704D511A5012401E061
:100B4000FFF7B2FF00210A2206F1240709E0B0FBFB
:100B5000F2FCB0FBF2F302FB1C0030307854184674
:100B6000491C0028F3D123462A463046BDE8F0410F
:100B700000F0A9BA000000002D0000002B000000CA
:100B80002000000011680268006A530501D5087052
:100B90000AE0D30501D5088006E0130603D5C21785
:100BA000C1E9000200E008600120704701694A1CA9
:100BB00002610878704700B58FB0CDE9013100219E
:100BC000059105497944CDE903101146684600F0C6
:100BD00043F90FB000BD0000E5FFFFFF0A6802F80F
:100BE000010B0A607047D1E900239A4202D2531CDC
:100BF0000B60107070470000074B70B50D467B44CA
:100C0000FFF7D9FF0446284600F06EFE10B14FF002
:100C1000FF3070BD204670BD91B801002DE9FF5F27
:100C200015468A460446DFF8AC80F8440027D8E928
:100C300000103E46CDE9001010E03AF816106A4662
:100C400002A800F0F1FE411C07D02178890603D5E7
:100C5000E269391891420DD80744761C2078800645
:100C600002D5E069B84205DDAE42E6DB3AF816008F
:100C70000028E2D1A069C01BA0612046FFF7E4FE76
:100C8000D8E90010CDE90010002017E03AF818105C
:100C90006A4602A800F0C8FEB0F1FF3F81460BD0C3
:100CA00000250DF1080B05E0D4E901211BF8050032
:100CB00090476D1C4D45F7D308F10100B0428046C6
:100CC000E4DB206A384420622046FFF7D3FEBDE80B
:100CD000FF9F00005AC401002DE9F0418046D21D5B
:100CE00022F007020025D2E90002F52915A614D04A
:100CF000011E72F1000106DA0023D0EB030063EB62
:100D0000020211A608E0D8F800108B0701D50FA643
:100D100002E0490701D50EA601251146002408F17D
:100D2000240704E000F08AF930323A55641C50EA96
:100D30000102F7D12B46324621464046BDE8F0413C
:100D400000F0C1B9000000002D0000002B000000E1
:100D50002000000030B4002100F1240408E002F07B
:100D60000705D208303542EA4372DB086554491C56
:100D700052EA0305F3D10468002310A2250708D521
:100D800004F020040C4304D0C46901230CA2641EA7
:100D9000C46130BC00F097B910B504462146106814
:100DA000FFF782FE02462046BDE810400023D1E74F
:100DB000D21D22F00701D1E90023CBE7000000009B
:100DC00030000000F0B40D460188090502D5214C21
:100DD0007C4402E01F4C7C440E34002100F12406C8
:100DE00008E002F00F071209E75D42EA03721B09EF
:100DF0007754491C52EA0307F3D102780023120703
:100E000004D5702D06D009B1022311342246F0BC5E
:100E100000F059B901231034F8E770B504460D46C7
:100E200021461068FFF740FE024629462046BDE8ED
:100E300070400023C6E7D21D22F00703D3E9002348
:100E4000C0E70368126843F0200303600823C3610E
:100E50000023B7E7BCC201002DE9F05F89460446D4
:100E60004FF0000ADFF874B1FB44C0F820A0204620
:100E7000E1688847002874D0252806D0D4E90121EC
:100E80009047206A401C2062F1E700265F4620461A
:100E9000E16888472028054607DB312D05D27819FF
:100EA00010F8200C08B10643F1E7B00701D526F091
:100EB0000406C4F81CA00027C4F818A02A2D09D0E5
:100EC00028461BF0DFFA38B304EB8708303DC8F83A
:100ED000185019E059F8041B204604EB8702916171
:100EE000E1688847012F054618D1E069002820DA1B
:100EF00026F020061DE0D8F8180000EB800005EB76
:100F000040003038C8F818002046E1688847054698
:100F10001BF0B8FA0028EED1012F0AD02E2D08D1EF
:100F20002046E16888477F1C0546022F46F02006D0
:100F3000C4DBA069002803DA404246F00106A06144
:100F4000F00701D026F010066C2D0BD0682D09D0CB
:100F50004C2D39D06A2D35D0742D35D07A2D33D023
:100F600016E038E0E1682F4620468847B84205463B
:100F700009D16C2F26D04FF48060E16806432046EB
:100F80008847054604E06C2F1AD04FF48070064362
:100F90000DB3A5F14100192802D8203546F40066AA
:100FA0004A462946204626604E46FFF739F980B169
:100FB00001280BD0F61D26F0070000F1080956E7BE
:100FC0004020E4E78020D8E70020D6E706F10409B6
:100FD0004DE7284652E7206ABDE8F09F4CC2010069
:100FE00010B5002000F044FDFFF77EF9BDE8104089
:100FF000012010F0D5B8000000487047FC02002026
:10100000004870471C030020034640688C460028B7
:1010100018BF88423CBF03464068F8D3186818449C
:10102000884207D00CF1030020F00700001D411A90
:10103000521A0146081D0A60FFF7BEB930B5B0F17B
:101040000A0271F100034FEA900E4EEA817EB0EB86
:101050000E0061EB91014FEA101E4EEA017E10EB8B
:101060000E0041EB11114FEA102E4EEA016E10EB0B
:101070000E0041EB11214FEA104E4EEA014E10EBEB
:101080000E0041EB1141401841F100014FEAD00040
:1010900040EA41704FEAD1014FEA810444EA90747A
:1010A00010EB800544EB01046D1944EB0404521B62
:1010B000A3414FF0000348BF0A3200D530BD401CA9
:1010C00041F1000130BD2DE9F0470D4699469246A9
:1010D000044600F124080168880604D5E06921F07F
:1010E0001001216000E00120A84201DD471B00E063
:1010F0000027A1697A1902EB0900081AA06120787B
:10110000C00602D42046FFF79FFC002608E0D4E981
:1011100001211AF806009047206A401C761C2062C4
:101120004E45F4DB2078C0060AD52046FFF78CFC3C
:1011300006E0D4E9012130209047206A401C20625B
:10114000381EA7F10107F4DC07E0D4E9012118F803
:1011500005009047206A401C2062281EA5F1010569
:10116000F3DC2046FFF786FC2078000602D502203B
:10117000BDE8F0870120FBE72DE9FF4F0C461E4636
:101180004FF0FF378BB0D2E90001DDF860800A90A4
:101190008A46C1F30A5505B93D46002108464FF07D
:1011A0000000BAF1000F00F4400005DA00EB800007
:1011B0004FF4400101EA50004FEA9059B9F1010F94
:1011C00000DDB9460A9850EA4A000ED044F61050A5
:1011D000A5F2FF3545432F14B8F1000F1ED075421C
:1011E000291E1EDDC9F100021CE0B8F1010F4FF00D
:1011F000000001D0302103E0F24305E02154401CFF
:10120000B042FBDB30460022002121540B99C1F88B
:101210000880C1E900200FB0BDE8F08FBD1B6D1C38
:10122000DEE74A4600DA694206A800F095FC06AB04
:1012300093E8070003AB83E8070050460A991AF0C9
:1012400040FD8DE80700A0F500501F38009003987E
:10125000002D0ADD42F21F014A460844002303A97B
:10126000039068461AF0AAFF09E0A0F500504A462C
:101270001F38002303A9039068461AF0B4FF8DE8D5
:1012800007000004000C03D04FF0FF30410800E0DD
:101290001046B8F1000F03D00022009215461EE060
:1012A000751E05D4FFF7CAFE303262556D1EF9D5A2
:1012B000B3460122084302D000227F1C04E02078BC
:1012C000302801D100227F1E002A099784D01DE01A
:1012D000112D07DAFFF7B2FE303262556D1C50EA6D
:1012E0000102F5D1084302D00098C8B10EE00021F8
:1012F000681E05E0235C625C63542254401E491C56
:101300008142F7DBAB46A81B401E0990002004F881
:101310000B000B98099AC0F80880C0E9002B7AE707
:1013200011264FF0000857E72DE9F04F8846044694
:10133000D21D22F0070191B0D1E90001CDE90A01E7
:101340001BF088F802460B98C00F01D02D2007E053
:101350002068810701D52B2002E0202101EAC0008E
:10136000032A099001D0072A05DB0346414620469F
:1013700000F0B2FB0BE12078800601D5E06900E0C7
:101380000620B8F1650F814606D0B8F1660F18D077
:10139000B8F1670F70D131E00020B9F1110F009062
:1013A00001DB112301E009F101030AAA01A90CA83C
:1013B000FFF7E2FEDDE90C70002609F10105834626
:1013C00047E001204B4600904FF000470AAA01A9D0
:1013D0000CA8FFF7D1FEDDE90DB00C995D460026A3
:1013E00010B909F101000D18B9EB050003D4C0F1E3
:1013F000FF3609F10105A5EB09002BE0B9F1010F5A
:1014000001DA4FF001090020B9F1110F00904846B0
:1014100001DD112300E003460AAA01A90CA8FFF789
:10142000ABFEDDE90C704D460026834620780007B0
:101430000AD4AB4500DA5D4601A8012D04DD41194F
:1014400011F8011C302907D04F4502DA17F1040FBB
:1014500004DA012082460FE06D1EEEE7002F02DC69
:10146000ED1B3E4403E0781CA84200DD7D1CB81B48
:1014700000F1010A4FF000472078000703D4AA4585
:1014800001DB4FF0FF3A0021B7F1004F0DF14308A7
:101490008DF8431024D002202B23002F01DA7F4245
:1014A0002D230A21021EA0F1010000DC5FB197FB91
:1014B000F1FC97FBF1F201FB1C7C17460CF1300CA0
:1014C00008F801CDEEE7A8F10100037021880905B5
:1014D00001D5452100E06521A0F1010800F8011CBB
:1014E00009980FA9A1EB0807FF1D00B101204119C0
:1014F00001EBEA70A1693844081A401EA061207807
:10150000C00602D42046FFF79FFA099828B1D4E913
:1015100001219047206A401C20622078C00622D515
:101520002046FFF791FA1EE0002E04DBB34502DDF2
:1015300001A8805D00E03020D4E901219047206AB5
:10154000401C2062761CAAF101005FEA000A0AD161
:10155000FFF756FDC0680168405CD4E9012190475F
:10156000206A401C2062281EA5F10105DCDC07E092
:10157000D4E9012118F8010B9047206A401C206231
:10158000381EA7F10107F3DC2046FFF773FA0320AA
:1015900011B041E62DE9F04F04460D46D21D22F070
:1015A000070089B0D0E90097484639461AF052FF43
:1015B0000246F80F01D02D2307E02068810701D5EE
:1015C0002B2302E0202101EAC0038DF820300BB16B
:1015D000012000E00020032A824601D0072A04DB14
:1015E0002946204600F078FA3FE12078800601D4B1
:1015F0000D2500E0E569C7F30A560D2D49DA0021F3
:101600004FEA175B08464FF00000002F00F440003F
:1016100007DA00EB80004FF4400100EBD07001EAE4
:1016200060008115012901DD4FF0FF3100224FEAF2
:10163000850CBCF1180F06D31346ACF118004FF01F
:101640008052C24003E04FF4801323FA0CF30CF1F4
:101650000C0CBCF1200F04D3ACF1200C09FA0CF0F7
:1016600001E007FA0CF000294FF0004801DD18B93D
:101670000FE00ED140450CD319EB02095F4121B9AF
:10168000404502D19F4329EA0209BBEB175F00D016
:10169000761C2088000502D57B48784402E07A4811
:1016A0007844193808AA302302F80A30037C0AF17A
:1016B0000101002E0AF1020A53546A4602DC4FF07F
:1016C000300101E04FF031014FF001088DF80010BA
:1016D00002D0A6F2FF3603E059EA470100D06B4E74
:1016E000002D02DC2178090704D54FF002082E21D5
:1016F0008DF80110C44600210BE0C7F303433F01FE
:10170000C35C491C6D1E02F80830052908F1010868
:1017100001DA002DF1DC00210CE000EB1973491C0B
:101720001B786D1E082902F808304FEA091908F1E4
:10173000010801DA002DF0DC21688B0602D516E0E5
:10174000A8F10108E04505DD02EB080313F8013CB0
:10175000302BF5D0B8F1000F09DD02EB080313F8C8
:10176000013C2E2B03D1090701D4A8F10108002D5B
:1017700005DD3E2102F808106D1E08F10108407CCD
:10178000002E02F8080008F1010804DA2D20764244
:1017900002F8080002E02B2002F808000A214FF4AA
:1017A0007A70864208F101080BDB96FBF0F33033C8
:1017B00002F8083096FBF0F308F1010800FB13660D
:1017C00001E0642E0CDB642096FBF0F3303302F86A
:1017D000083096FBF0F308F1010800FB136601E006
:1017E0000A2E06DB96FBF1F0303002F8080008F113
:1017F000010896FBF1F001FB1060303002F80800A0
:10180000A16908F1010808EB050202EB0A00081AB9
:10181000A0612078C00602D42046FFF715F9216A9E
:1018200008AE01EB0A00206204E0D4E9012116F8B9
:10183000010B9047BAF1010AF7D22078C00602D511
:101840002046FFF701F96E4609E016F8010B3E2825
:101850000FD0D4E901219047206A401C2062B8F1E2
:101860000108F2D22046FFF705F909B00320BDE8D0
:10187000F08F206A2844206203E0D4E9012130205F
:1018800090476D1EEBD3F8E74ABA010002FCFFFF58
:1018900010B5436913B1AFF3008001E0FFF70DF914
:1018A000012010BD127800F124010A7000224A7054
:1018B0000122EDE711684FF0FF32E9E710B5436907
:1018C00013B1AFF3008001E0FFF7A8F9012010BDCC
:1018D000128800F1240182840022C2840122EDE7F3
:1018E00011684FF0FF32E9E7007B00F0800070479D
:1018F00010B542485421FEF79BFF41485421FEF7A2
:1019000097FF40485421FEF793FF3F493B483C4A2C
:101910003F4B08603D490A603A491960531C036512
:10192000481C1065012008653B48344A39A17844B9
:1019300000F092FA20B9384878440A3800F050FB99
:1019400037482F4A35A1784400F086FA20B9344848
:1019500078440A3800F044FB32482A4A2FA17844E0
:1019600000F07AFA20B92F4878440A3800F038FBA2
:1019700040232248DC000021224600F04AFA20B130
:1019800025487844543800F02BFB1D48224640235C
:10199000002100F03EFA20B121487844543800F08C
:1019A0001FFB184822461023002100F032FA0028BD
:1019B00006D01C487844BDE81040563800F010BBF3
:1019C00010BD104870B5006D20F001040B4800F008
:1019D000BBFA0B4800F0B8FA0A4800F0B5FA09E083
:1019E000206D20F00105204600F0AEFA2046FEF7FB
:1019F000E3FC2C46002CF3D170BD00000002002057
:101A000054020020A8020020000000200400002052
:101A10000800002072000000BA00020077000000F9
:101A2000A6000200860002002DE9F04116460C4691
:101A30000546FEF7AFFF036893F80101012807D0C0
:101A4000FF2C12D8185D80B101202C70BDE8F08108
:101A5000D3F807013246214603F20713C718284678
:101A6000BC46BDE8F041002360474FF0FF30EDE792
:101A700010B500F09DFABDE8104000F094BA10B522
:101A800000F0B6FABDE8104000F08DBA7546FFF7D9
:101A9000B3FAAE4605006946534620F00700854676
:101AA00018B020B5FEF744FCBDE820404FF000061A
:101AB0004FF000074FF000084FF0000BAC46ACE8C9
:101AC000C009ACE8C009ACE8C009ACE8C00921F025
:101AD00007018D46704700002DE9F0411F4604467E
:101AE00003260168072A01F4006004DB08B116A58B
:101AF00005E016A503E008B115A500E015A521F045
:101B000010002060A069C01EA0610FB1401EA0613E
:101B10002046FEF799FF4FB1D4E90121384690479E
:101B2000206A401C2062C01C206206E0206AFAE79E
:101B3000D4E9012115F8010B9047761EF8D2204612
:101B4000FEF798FFBDE8F0814E414E006E616E00D9
:101B5000494E4600696E66002DE9F04781461646FB
:101B60008AB0354878440DC88DE80D003248784475
:101B7000801C03AC0DC884E80D0041F69B3008447E
:101B8000372190FBF1F290FBF1F5A5F1800501FB07
:101B900012041B3C02D56442012000E00020DFF863
:101BA00098A080460027FA44AAF1BE0A0EE0E0079A
:101BB0000AD03246684607EB470101230AEB810150
:101BC0001AF011FB8DE8070064107F1C002CEED189
:101BD000194F7F44AE3F19E0E80715D007EB04101A
:101BE0000DF1180A90E80E008AE80E00C068F04275
:101BF00001D1981908903246012306A903A81AF0CA
:101C0000F2FA03AB83E807006D10641C002DE3D1EA
:101C10004FF0010332466946B8F1000F03A802D025
:101C20001AF0CCFA01E01AF0DEFAC9E90001C9F8AD
:101C300008200AB0BDE8F08710B601002DE9F04792
:101C400005460C46C86820F4201040F48000C860A7
:101C5000800602D5084600F004FBE06841F28201EC
:101C60004FF0FF390140022903D0204600F0A2FACC
:101C7000B5E000F42041B1F5004F0FD1C00306D507
:101C80006168E06A884200D80846606006E0206922
:101C9000E062606060690FF087FAA061A0680022CE
:101CA000EEB200280DDAE1688B050AD4C043A060CB
:101CB00041F490302260E0606068411C6160067011
:101CC000A5E0E0689046226040F40050E0602069A2
:101CD00068BB60690FF06EFA012704F12405A0B11A
:101CE000A08910F4407F08D0E069FEF736FB206140
:101CF00018B1E06840F4006016E0E7612561E06833
:101D000020F4407040F480600EE0E069FEF725FBAF
:101D100000282061F1D0E06840F4006010F4407FBA
:101D2000E06002D140F48070E06020696060E068AB
:101D300025696FF0010AC1051FD56168E06A884214
:101D400000D80846411B04D02246284600F03CFA41
:101D5000F0BBE068010203D5E562C4E9015854E034
:101D6000691CE1626160E16940F48030491EC4E9A8
:101D7000021030462E70BDE8F087010202D500F453
:101D800080320AE06068411C61600670E0680A2EDB
:101D900040F48030E06006D00022E16A6068814251
:101DA00003D90B4602E00122F7E70346A7895B1B34
:101DB0007F0503D4E7699F4200DDE2B1814200D88C
:101DC0000146E5620F1AC4E90158002B09DD00E065
:101DD00005E022461946284600F0F6F908B14846C3
:101DE000C9E747B1A069E5626560C01BA061E06812
:101DF00040F01000E060E068000208D56168A0696A
:101E0000E562491B08446560A0615046B3E730466F
:101E1000B1E770B5C468A50713D0650211D4B2F557
:101E2000807F09D0B2F5007F06D0B2F5806F08D16F
:101E3000012300F1240106E05D1E6FF07F46B542EC
:101E400001D3012070BD0161C361416024F4706160
:101E50001143C160002070BD2DE9F0410C461646CB
:101E6000070047D0104600F06FF82078611C612809
:101E70000AD0722802D077283CD102E00125002444
:101E800005E00225042402E0082448F2020511F8C6
:101E9000010B2B2806D0622809D011F8010C7428F8
:101EA0000AD00BE045F0030544F00204EFE745F0EB
:101EB000040544F00104EAE744F0100438462146E2
:101EC0000FF07EF9411C15D00021316171604FF493
:101ED0000071F560F1617061200704D5304602227F
:101EE000002100F0EBF8306D40F001003065304625
:101EF000BDE8F0810020FBE72DE9F0410D460646E4
:101F0000104C206DC10704D0410804D020F001041A
:101F1000F7E722460EE05420FEF71FFA07000ED026
:101F2000206D47F001010843542120653846FEF733
:101F30007FFC3A4629463046BDE8F0418CE7002058
:101F4000D6E70000000200202DE9F04704464FF0DC
:101F500000094FF0FF37C568D4E90486A80707D009
:101F6000204600F05BF930460FF014F9002802DA41
:101F70003846BDE8F087280502D54046FEF71CFA32
:101F80004C212046FEF754FC206D20F00100206516
:101F90004846EEE710B50446AFF300802046BDE8A2
:101FA0001040FEF7AEB9002801D00FF0F9B8704725
:101FB00010B5002102A000F075F9012010BD00004D
:101FC000534947414252543A2041626E6F726D61EB
:101FD0006C207465726D696E6174696F6E000000CB
:101FE00010B500F079F9BDE81040FFF7DCBF000044
:101FF00010B5012805D0002103A000F053F90120FD
:1020000010BD09A1F8E7000053494752544D454D12
:102010003A204F7574206F662068656170206D6589
:102020006D6F7279000000003A2048656170206D84
:10203000656D6F727920636F72727570746564007C
:1020400030B44FF0013C50F8042B51F8043BCCFA6B
:1020500052F4D51A20D1FCB950F8042B51F8043BA6
:10206000CCFA52F4D51A17D1B4B950F8042B51F860
:10207000043BCCFA52F4D51A0ED16CB950F8042BAB
:1020800051F8043BCCFA52F4D51A05D1002CDAD021
:1020900030BC4FF00000704729BAB1FA81F111F05D
:1020A0001801D1F120008440F2D1CA40CB4012F097
:1020B000FF0213F0FF0330BCD01A70472DE9F04146
:1020C000044616460D464769007B80072ED03846E9
:1020D0000FF070F850BB3EB3012E02D0022E25D176
:1020E00004E0204600F061F905441DE038460FF099
:1020F0005BF8E168002841F01001E16005DA204654
:1021000000F058F80120BDE8F081C9030BD56268E2
:10211000E16A914200D81146A26911442269891AE4
:10212000814200DD08460544002D01DA0220EAE77D
:10213000E16A6068E268814206D29103E06203D5F9
:1021400022F4003141F01002A6690027AE4213DCF0
:10215000E16A814201D90B4600E0034603EB060C1D
:102160002369ACEB030CAC4506DD814201D98C46FA
:1021700000E084469C4505D1A760276042F020001E
:10218000A5620DE0AD1BE669AE1B8142A66000D9D9
:102190000846C01A281A20605819606022F02000F2
:1021A00003490840E060002084F84870ABE7000075
:1021B000BFCFD7FFC16821F4001141F08001C16099
:1021C00000218160016070472DE9F0478146144687
:1021D0000E464FF0FF383248D5685769054209D09E
:1021E0003846A1690EF0F2FF002811DB2C48C043ED
:1021F0000540E5602B463246494638460EF0EEFF74
:10220000A16920F00042B21A11440028A16103D054
:102210002046FFF7CFFF4046BDE8F08770B5044683
:102220000569C06A6168884200D80846E16821F4FF
:102230002011E160C90312D5A84208D02246411BF3
:102240002846FFF7C1FF10B14FF0FF3070BD0020EE
:10225000E562C4E90150E06820F48030E0600020CD
:1022600070BD10B50446C06820F02000E060A16A8F
:10227000A06988420DD02046FFF7D0FFE06820F427
:10228000405040F01000E060A06AA0612069E06268
:10229000606044F24001E0688843E06010BD0000E7
:1022A0001000020070B505460C460A2000E06D1CC7
:1022B0000EF09CFF35B128780028F8D102E0641CAC
:1022C0000EF094FF14B120780028F8D1BDE87040DA
:1022D0000A200EF08BBF000010B5014602A0FFF7E8
:1022E000E1FF012010BD00005349475254524544BC
:1022F0003A2052656469726563743A2063616E279F
:1023000074206F70656E3A200000000010B504491B
:1023100000F03AF8BDE81040014800F01EB8000097
:10232000A802002070B50446C068810713D080065B
:1023300001D5A56A04E0A169606808442169451ACD
:102340002046FFF76BFF0022064629462046FFF78E
:10235000B5FE304670BD002070BD70B510B1BDE84F
:102360007040DFE70025074C6E1E07E02046FFF7B0
:10237000D9FF00B13546206D20F00104002CF5D1C5
:10238000284670BD0002002070B50D46044604E0EA
:1023900029461AF07EF8401C04D014F8010B0028DE
:1023A000F6D170BD4FF0FF3070BD10B50146C26868
:1023B000900703D0900607D5886A0AE000F016F867
:1023C00001210160881E10BD8B69486818440B69A3
:1023D000C01A91F848301BB191F84910401A10BD4D
:1023E0001103FCD50028FADD401E10BD00487047DF
:1023F000FC02002080B5A0B08DF87F001E91FF2068
:102400008DF877001E9842F24C11C0F602011B9124
:102410008022FEF734FA1B991E98803010221A92FF
:10242000FEF72DFA1A9A1B991E989030FEF727FA9C
:102430001B991E98A0302022FEF721FA1E98D0305A
:1024400041F63841C0F602010422FEF718FA1E993F
:102450000020C1F8C0001E99C1F8C4001E99C1F83F
:10246000C8001E99C1F8CC009DF97F0001461C915F
:10247000342800F2CE841C99DFE811F035006A00A0
:102480009F00D30035006A009F00D30035006A002A
:102490009F00D30035006A009F00D30035006A001A
:1024A0009F00D30035006A009F00D30035006A000A
:1024B0009F00D30035006A009F00D300070135015B
:1024C00063019101BF01ED011B0249027702A502E0
:1024D000D30201032F035D038B03B903E703150444
:1024E000430471049F041E989DF97F108B1041F6E0
:1024F0008452C0F602028021FEF734F81E98803024
:1025000041F63B41C0F6020110221992FEF7B7F9DD
:10251000199A1E98903042F65E01C0F60201FEF74D
:10252000AEF91E98A0309DF97F108B1041F66352D2
:10253000C0F602022021FEF715F81E990020C1F80E
:10254000C0001E994FF0BF40C1F8C40000F065BC48
:102550001E989DF97F108B1041F67152C0F6020251
:102560008021FDF7FFFF1E98803041F63B41C0F609
:10257000020110221892FEF782F9189A1E989030E4
:1025800042F65E01C0F60201FEF779F91E98A0300E
:102590009DF97F108B1041F65552C0F602022021A2
:1025A000FDF7E0FF1E990020C1F8C0001E994FF012
:1025B000BF40C1F8C40000F030BC1E989DF97F10E8
:1025C0008B1041F64252C0F602028021FDF7CAFF8D
:1025D0001E98803041F63B41C0F60201102217924E
:1025E000FEF74DF9179A1E98903042F65E01C0F63C
:1025F0000201FEF744F91E98A0309DF97F108B1060
:1026000041F62152C0F602022021FDF7ABFF1E99D0
:102610000020C1F8C0001E994FF0BF40C1F8C400AF
:10262000FBE31E989DF97F108B1041F62F52C0F6E8
:1026300002028021FDF796FF1E98803041F63B4153
:10264000C0F6020110221692FEF719F9169A1E988A
:10265000903042F65E01C0F60201FEF710F91E98B6
:10266000A0309DF97F108B1041F61352C0F6020284
:102670002021FDF777FF1E990020C1F8C0001E99A8
:102680004FF0BF40C1F8C400C7E31E9841F6234194
:10269000C0F602018022FEF7F2F81E98803042F266
:1026A0004C11C0F6020110221592FEF7E8F8159AB7
:1026B0001E98903042F65E01C0F60201FEF7DFF888
:1026C0001E98A03041F6FE31C0F602012022FEF72E
:1026D000D6F81E990020C1F8C0001E994FF0BF40E7
:1026E000C1F8C40099E31E9841F60E41C0F60201FC
:1026F0008022FEF7C4F81E98803042F24C11C0F6DA
:10270000020110221492FEF7BAF8149A1E98903023
:1027100042F65E01C0F60201FEF7B1F81E98A03045
:1027200041F6EE31C0F602012022FEF7A8F81E990C
:102730000020C1F8C0001E994FF0BF40C1F8C4008E
:102740006BE31E9841F6B941C0F602018022FEF704
:1027500096F81E98803042F24C11C0F60201102209
:102760001392FEF78CF8139A1E98903042F65E0191
:10277000C0F60201FEF783F81E98A03041F696419C
:10278000C0F602012022FEF77AF81E990020C1F857
:10279000C0001E994FF0BF40C1F8C4003DE31E9831
:1027A00041F6A541C0F602018022FEF768F81E98A6
:1027B000803042F24C11C0F6020110221292FEF754
:1027C0005EF8129A1E98903042F65E01C0F6020141
:1027D000FEF755F81E98A03041F68741C0F6020179
:1027E0002022FEF74CF81E990020C1F8C0001E9967
:1027F0004FF0BF40C1F8C4000FE31E9841F6FF41FF
:10280000C0F602018022FEF73AF81E98803042F2AC
:102810004C11C0F6020110221192FEF730F8119A05
:102820001E98903042F65E01C0F60201FEF727F8CE
:102830001E98A03041F6DC41C0F602012022FEF7CE
:102840001EF81E990020C1F8C0001E994FF0BF402D
:10285000C1F8C400E1E21E9841F6EB41C0F6020166
:102860008022FEF70CF81E98803042F24C11C0F620
:10287000020110221092FEF702F8109A1E98903072
:1028800042F65E01C0F60201FDF7F9FF1E98A03086
:1028900041F6CD41C0F602012022FDF7F0FF1E995E
:1028A0000020C1F8C0001E994FF0BF40C1F8C4001D
:1028B000B3E21E9841F67241C0F602018022FDF794
:1028C000DEFF1E98803042F24C11C0F60201102249
:1028D0000F92FDF7D4FF0F9A1E98903042F65E01DA
:1028E000C0F60201FDF7CBFF1E98A03041F64D4126
:1028F000C0F602012022FDF7C2FF1E990020C1F898
:10290000C0001E994FF0BF40C1F8C40085E21E9878
:1029100041F65D41C0F602018022FDF7B0FF1E982E
:10292000803042F24C11C0F6020110220E92FDF7E7
:10293000A6FF0E9A1E98903042F65E01C0F6020184
:10294000FDF79DFF1E98A03041F63D41C0F6020103
:102950002022FDF794FF1E990020C1F8C0001E99A7
:102960004FF0BF40C1F8C40057E21E9841F6EB514A
:10297000C0F602018022FDF782FF1E98803042F2ED
:102980004C11C0F6020110220D92FDF778FF0D9A4E
:102990001E98903042F65E01C0F60201FDF76FFF0F
:1029A0001E98A03041F6B251C0F602012022FDF778
:1029B00066FF1E990020C1F8C0001E994FF0BF406D
:1029C000C1F8C40029E21E9841F6D951C0F60201AF
:1029D0008022FDF754FF1E98803042F24C11C0F661
:1029E000020110220C92FDF74AFF0C9A1E989030BB
:1029F00042F65E01C0F60201FDF741FF1E98A030CD
:102A000041F6A551C0F602012022FDF738FF1E99BC
:102A10000020C1F8C0001E994FF0BF40C1F8C400AB
:102A2000FBE11E9841F65D61C0F602018022FDF7D0
:102A300026FF1E98803042F24C11C0F6020110228F
:102A40000B92FDF71CFF0B9A1E98903042F65E0128
:102A5000C0F60201FDF713FF1E98A03041F62C616D
:102A6000C0F602012022FDF70AFF1E990020C1F8DE
:102A7000C0001E994FF0BF40C1F8C400CDE11E98C0
:102A800041F64D61C0F602018022FDF7F8FE1E9866
:102A9000803042F24C11C0F6020110220A92FDF77A
:102AA000EEFE0A9A1E98903042F65E01C0F60201D0
:102AB000FDF7E5FE1E98A03041F62161C0F6020147
:102AC0002022FDF7DCFE1E990020C1F8C0001E99EF
:102AD0004FF0BF40C1F8C4009FE11E9841F6BB31E2
:102AE000C0F602018022FDF7CAFE1E98803042F235
:102AF0004C11C0F6020110220992FDF7C0FE099A9E
:102B00001E98903042F65E01C0F60201FDF7B7FE56
:102B10001E98A03041F68631C0F602012022FDF752
:102B2000AEFE1E990020C1F8C0001E994FF0BF40B4
:102B3000C1F8C40071E11E9841F6AA31C0F6020145
:102B40008022FDF79CFE1E98803042F24C11C0F6A8
:102B5000020110220892FDF792FE089A1E9890300A
:102B600042F65E01C0F60201FDF789FE1E98A03014
:102B700041F67A31C0F602012022FDF780FE1E994F
:102B80000020C1F8C0001E994FF0BF40C1F8C4003A
:102B900043E11E9841F60F61C0F602018022FDF765
:102BA0006EFE1E98803042F24C11C0F602011022D7
:102BB0000792FDF764FE079A1E98903042F65E0178
:102BC000C0F60201FDF75BFE1E98A03041F6CC5125
:102BD000C0F602012022FDF752FE1E990020C1F826
:102BE000C0001E994FF0BF40C1F8C40015E11E9807
:102BF00041F6FD51C0F602018022FDF740FE1E980D
:102C0000803042F24C11C0F6020110220692FDF70C
:102C100036FE069A1E98903042F65E01C0F602011A
:102C2000FDF72DFE1E98A03041F6BF51C0F60201FF
:102C30002022FDF724FE1E990020C1F8C0001E9935
:102C40004FF0BF40C1F8C400E7E01E9841F67D6137
:102C5000C0F602018022FDF712FE1E98803042F27B
:102C60004C11C0F6020110220592FDF708FE059AEC
:102C70001E98903042F65E01C0F60201FDF7FFFD9E
:102C80001E98A03041F64261C0F602012022FDF7F5
:102C9000F6FD1E990020C1F8C0001E994FF0BF40FC
:102CA000C1F8C400B9E01E9841F66D61C0F602019A
:102CB0008022FDF7E4FD1E98803042F24C11C0F6F0
:102CC000020110220492FDF7DAFD049A1E9890305A
:102CD00042F65E01C0F60201FDF7D1FD1E98A0305C
:102CE00041F63761C0F602012022FDF7C8FD1E99AA
:102CF0000020C1F8C0001E994FF0BF40C1F8C400C9
:102D00008BE01E9841F6DD31C0F602018022FDF70E
:102D1000B6FD1E98803042F24C11C0F6020110221E
:102D20000392FDF7ACFD039A1E98903042F65E01C7
:102D3000C0F60201FDF7A3FD1E98A03041F69E31BA
:102D4000C0F602012022FDF79AFD1E990020C1F86D
:102D5000C0001E994FF0BF40C1F8C4005DE01E984E
:102D600041F6CC31C0F602018022FDF788FD1E98A5
:102D7000803042F24C11C0F6020110220292FDF79F
:102D80007EFD029A1E98903042F65E01C0F6020166
:102D9000FDF775FD1E98A03041F69231C0F6020194
:102DA0002022FDF76CFD1E990020C1F8C0001E997D
:102DB0004FF0BF40C1F8C4002FE01E9841F6975174
:102DC000C0F6020101918022FDF759FD1E98803066
:102DD00042F65301C0F6020110220092FDF74FFDAA
:102DE000009A1E98903042F65E01C0F60201FDF78F
:102DF00046FD01991E98A0302022FDF740FD1E9946
:102E00000020C1F8C0001E994FF0BF40C1F8C400B7
:102E100003E005208DF87700FFE79DF9770020B0EB
:102E200080BD000080B596B08DF857001491FF204A
:102E30008DF84F00149842F24C11C0F60201119126
:102E40008022FDF71CFD11991498803010221092F9
:102E5000FDF715FD109A119914989030FDF70FFDAC
:102E600011991498A0302022FDF709FD1498D03054
:102E700041F63841C0F602010422FDF700FD149925
:102E80000020C1F8C0001499C1F8C4001499C1F819
:102E9000C8001499C1F8CC009DF957000146129161
:102EA000212800F2DE841299DFE811F022004E00A2
:102EB0004E004E004E004E004E004E004E0083006D
:102EC000A700D600040130015E018C01BA01F201B5
:102ED00020024E027C02B402E0020C0338036403B9
:102EE0008D03B603E1030204230451047F04AD04FF
:102EF000149842F27A01C0F602010F918022FDF788
:102F0000BEFC1498803041F63B41C0F6020110220D
:102F10000E92FDF7B4FC0E9A1498903043F2C6510D
:102F2000C0F60201FDF7ABFC0F991498A0302022E7
:102F3000FDF7A5FC14990120C1F8C8001499FE20E2
:102F4000C1F8CC0000F091BC14989DF957104B1EAD
:102F500041F6CC72C0F602028021FDF703FB149803
:102F6000803041F63B41C0F6020110220D92FDF780
:102F700086FC0D9A1498903042F27741C0F6020117
:102F8000FDF77DFC1498A0309DF957104B1E41F6BB
:102F9000D472C0F602022021FDF7E4FA14994FF032
:102FA000FF30C1F8C80014990020C1F8CC0000F02F
:102FB0005CBC149841F68371C0F602018022FDF7D3
:102FC0005EFC1498903041F69471C0F60201102214
:102FD000FDF755FC1498A03041F68C71C0F6020143
:102FE0002022FDF74CFC14990020C1F8C800149968
:102FF000FF20C1F8CC0000F038BC149841F669718C
:10300000C0F602018022FDF73AFC1498903041F698
:103010009B71C0F602011022FDF731FC1498A0301C
:1030200041F67571C0F602012022FDF728FC1498C4
:10303000D03041F68071C0F602010422FDF71FFC7A
:1030400014994FF00040C1F8C80014996FF0004087
:10305000C1F8CC0000F009BC149842F26C01C0F633
:1030600002018022FDF70BFC1498903041F69B7111
:10307000C0F602011022FDF702FC1498A03042F2C3
:103080000011C0F602012022FDF7F9FB1498D030A0
:1030900041F68071C0F602010422FDF7F0FB14999D
:1030A0004FF00040C1F8C80014996FF00040C1F81B
:1030B000CC00DAE3149842F21901C0F602010C9137
:1030C0008022FDF7DCFB1498903041F69B71C0F62E
:1030D00002011022FDF7D3FB0C991498A030202296
:1030E000FDF7CDFB1498D03041F68071C0F6020197
:1030F0000422FDF7C4FB14994FF00040C1F8C8004A
:1031000014996FF00040C1F8CC00AEE3149841F67A
:103110009C61C0F602018022FDF7B1FB149890304B
:1031200041F69B71C0F602011022FDF7A8FB14982E
:10313000A03041F68D61C0F602012022FDF79FFB11
:103140001498D03041F68071C0F602010422FDF7D8
:1031500096FB14994FF00040C1F8C80014996FF025
:103160000040C1F8CC0080E3149841F6C861C0F675
:1031700002018022FDF783FB1498903041F69B7189
:10318000C0F602011022FDF77AFB1498A03041F638
:10319000F061C0F602012022FDF771FB1498D030D7
:1031A00041F68071C0F602010422FDF768FB149914
:1031B0004FF00040C1F8C80014996FF00040C1F80A
:1031C000CC0052E3149841F6BC61C0F602018022A3
:1031D000FDF755FB1498903041F69B71C0F6020143
:1031E0001022FDF74CFB1498A03041F6E561C0F6C3
:1031F00002012022FDF743FB1498D03041F6807184
:10320000C0F602010422FDF73AFB14994FF000408A
:10321000C1F8C80014996FF00040C1F8CC0024E355
:10322000149841F6AD61C0F602018022FDF727FB3C
:103230001498803042F24A11C0F6020110220B921B
:10324000FDF71DFB0B9A1498903043F2C651C0F65F
:103250000201FDF714FB1498A03041F6DB61C0F6C3
:1032600002012022FDF70BFB1498D03041F680714B
:10327000C0F602010422FDF702FB14994FF0004052
:10328000C1F8C80014996FF00040C1F8CC00ECE21E
:10329000149841F60A71C0F602018022FDF7EFFA98
:1032A0001498903041F69B71C0F602011022FDF790
:1032B000E6FA1498A03041F6FB61C0F60201202224
:1032C000FDF7DDFA1498D03041F68071C0F60201A6
:1032D0000422FDF7D4FA14994FF00040C1F8C80059
:1032E00014996FF00040C1F8CC00BEE2149841F68A
:1032F0003671C0F602018022FDF7C1FA14989030B1
:1033000041F69B71C0F602011022FDF7B8FA14983D
:10331000A03041F65E71C0F602012022FDF7AFFA3F
:103320001498D03041F68071C0F602010422FDF7F6
:10333000A6FA14994FF00040C1F8C80014996FF034
:103340000040C1F8CC0090E2149841F62A71C0F612
:1033500002018022FDF793FA1498903041F69B7198
:10336000C0F602011022FDF78AFA1498A03041F647
:103370005371C0F602012022FDF781FA1498D03073
:1033800041F68071C0F602010422FDF778FA149923
:103390004FF00040C1F8C80014996FF00040C1F828
:1033A000CC0062E2149841F61B71C0F60201802243
:1033B000FDF765FA1498803042F24A11C0F6020116
:1033C00010220A92FDF75BFA0A9A1498903043F2A1
:1033D000C651C0F60201FDF752FA1498A03041F62A
:1033E0004971C0F602012022FDF749FA1498D03045
:1033F00041F68071C0F602010422FDF740FA1499EB
:103400004FF00040C1F8C80014996FF00040C1F8B7
:10341000CC002AE2149842F28201C0F6020109911E
:103420008022FDF72CFA1498903043F2C651C0F672
:1034300002011022FDF723FA09991498A0302022E6
:10344000FDF71DFA1498D03041F68071C0F60201E4
:103450000422FDF714FA14994FF00040C1F8C80097
:1034600014996FF00040C1F8CC00FEE1149842F2CC
:103470003C11C0F6020108918022FDF700FA149871
:10348000903043F2C651C0F602011022FDF7F7F961
:1034900008991498A0302022FDF7F1F91498D03043
:1034A00041F68071C0F602010422FDF7E8F9149993
:1034B0004FF00040C1F8C80014996FF00040C1F807
:1034C000CC00D2E1149842F24401C0F602018022FD
:1034D000FDF7D5F91498903043F2C651C0F60201B9
:1034E0001022FDF7CCF91498A03042F22B01C0F65F
:1034F00002012022FDF7C3F91498D03041F6807103
:10350000C0F602010422FDF7BAF914990020C1F8AF
:10351000C80014990320C1F8CC00A6E1149842F227
:103520003501C0F602018022FDF7A9F91498903008
:1035300043F2C651C0F602011022FDF7A0F914981B
:10354000A03042F22001C0F602012022FDF797F9D7
:103550001498D03041F68071C0F602010422FDF7C4
:103560008EF914990020C1F8C80014990320C1F8FD
:10357000CC007AE1149842F22721C0F602010791AB
:103580008022FDF77CF91498903043F2C651C0F6C2
:1035900002011022FDF773F907991498A030202238
:1035A000FDF76DF91498D03041F68071C0F6020134
:1035B0000422FDF764F914990020C1F8C800149999
:1035C000C1F8CC0051E1149842F24971C0F60201F1
:1035D00006918022FDF753F91498903043F2C651BA
:1035E000C0F602011022FDF74AF906991498A0309E
:1035F0002022FDF744F91498D03041F68071C0F6CE
:1036000002010422FDF73BF914990020C1F8C8001B
:103610001499C1F8CC0028E1149841F6DB71C0F68A
:1036200002018022FDF72BF91498903043F2C65125
:10363000C0F602011022FDF722F91498A03042F2E0
:103640002A11C0F602012022FDF719F91498D03092
:1036500041F68071C0F602010422FDF710F91499B9
:103660000020C1F8C8001499C1F8CC00FDE01498FE
:1036700042F25201C0F6020105918022FDF7FFF8E7
:103680001498903042F27741C0F602011022FDF703
:10369000F6F805991498A0302022FDF7F0F8149957
:1036A0000020C1F8C80014990120C1F8CC00DCE06A
:1036B000149842F25F01C0F6020104918022FDF7E6
:1036C000DEF81498903042F27741C0F602011022E1
:1036D000FDF7D5F804991498A0302022FDF7CFF813
:1036E00014990020C1F8C80014990120C1F8CC0039
:1036F000BBE0149842F20401C0F602018022FDF7FB
:10370000BEF81498803042F20711C0F60201102270
:103710000392FDF7B4F8039A1498903042F277417F
:10372000C0F60201FDF7ABF81498A03041F6F17134
:10373000C0F602012022FDF7A2F81498D03041F61D
:103740008071C0F602010422FDF799F88DE014980B
:1037500042F2E101C0F602018022FDF790F81498D0
:10376000803042F24C11C0F6020110220292FDF7A5
:1037700086F8029A1498903042F27741C0F602011E
:10378000FDF77DF81498A03042F2A701C0F60201BF
:103790002022FDF774F81498D03041F68071C0F6FD
:1037A00002010422FDF76BF85FE0149842F2C201B7
:1037B000C0F602018022FDF762F81498803042F2D0
:1037C0004C11C0F6020110220192FDF758F8019A3F
:1037D0001498903042F27741C0F60201FDF74FF89D
:1037E0001498A03042F28B01C0F602012022FDF7AE
:1037F00046F81498D03041F68071C0F602010422D8
:10380000FDF73DF831E0149841F6A271C0F60201CF
:103810008022FDF734F81498803042F24C11C0F643
:10382000020110220092FDF72AF8009A14989030B5
:1038300042F27741C0F60201FDF721F81498A0305A
:1038400042F20D11C0F602012022FDF718F814987B
:10385000D03041F68071C0F602010422FDF70FF866
:1038600003E005208DF84F00FFE79DF94F0016B0EB
:1038700080BD000080B5CEB08DF837014C91FF209F
:103880008DF82F014C9842F24C11C0F6020149917B
:103890008022FCF7F4FF49994C988030102248921E
:1038A000FCF7EDFF489A49994C989030FCF7E7FFF8
:1038B00049994C98A0302022FCF7E1FF4C98D03079
:1038C00041F68071C0F602010422FCF7D8FF4C9942
:1038D0000020C1F8C0004C99C1F8C4009DF937011F
:1038E00001464A91522801F283854A99DFE811F096
:1038F000530094005300940053009400530094002C
:10390000530094005300940053009400530094001B
:10391000D40007013A016D01A101D50109023D0260
:103920007102A502D70209033B036B039B03C80383
:10393000F60321044E047F04B004E1041305450599
:103940007705A905DB050D063D066D069D06CF062C
:10395000FC062D075E078F07C107F30725085608E9
:103960008708B808E808180948097A099D09C009B4
:10397000E409080A3B0A6E0AA10ACF0AFD0A2E0BC7
:103980005F0B900BC10BF20B230C540C850CB60C87
:10399000E70C1A0D4D0D4C989DF937114B1042F262
:1039A0006B42C0F602028021FCF7DCFD4C988030AF
:1039B00042F65301C0F6020110224792FCF75FFF66
:1039C000479A4C98903042F29C41C0F60201FCF7B5
:1039D00056FF4C98A0309DF937114B1042F26042CF
:1039E000C0F602022021FCF7BDFD4C98D03042F217
:1039F0004C11C0F602010422FCF741FF4C99002053
:103A0000C4F26010C1F8C0004C990020C4F2A010AC
:103A1000C1F8C40001F0F0BC4C989DF937114B106F
:103A200042F25042C0F602028021FCF79BFD4C9806
:103A3000803042F65301C0F6020110224692FCF794
:103A40001EFF469A4C98903042F29C41C0F602010B
:103A5000FCF715FF4C98A0309DF937114B1042F23E
:103A60004542C0F602022021FCF77CFD4C98D03084
:103A700042F24C11C0F602010422FCF700FF4C99FF
:103A80004FF08140C1F8C0004C990020C4F22010D2
:103A9000C1F8C40001F0B0BC4C9842F21221C0F64B
:103AA00002018022FCF7EBFE4C98803042F6530175
:103AB000C0F6020110224592FCF7E1FE459A4C98AF
:103AC000903042F29C41C0F60201FCF7D8FE4C98BF
:103AD000A03042F29311C0F602012022FCF7CFFE83
:103AE0004C9946F26660C4F24600C1F8C0004C9999
:103AF0000020C4F26000C1F8C40001F07DBC4C9805
:103B000042F20021C0F602018022FCF7B8FE4C9878
:103B1000803042F65301C0F6020110224492FCF7B5
:103B2000AEFE449A4C98903042F29C41C0F602019D
:103B3000FCF7A5FE4C98A03042F28811C0F60201B5
:103B40002022FCF79CFE4C9946F26660C4F24600C7
:103B5000C1F8C0004C990020C4F26000C1F8C40054
:103B600001F04ABC4C9842F2EE11C0F602018022EC
:103B7000FCF785FE4C98803042F65301C0F60201F6
:103B800010224392FCF77BFE439A4C98903042F20D
:103B90009C41C0F60201FCF772FE4C98A03042F244
:103BA0007D11C0F602012022FCF769FE4C9946F215
:103BB0006660C4F24600C1F8C0004C990020C4F20F
:103BC0006000C1F8C40001F017BC4C9842F2D0313B
:103BD000C0F602018022FCF752FE4C98803042F67B
:103BE0005301C0F6020110224292FCF748FE429AAD
:103BF0004C98903042F29C41C0F60201FCF73FFE27
:103C00004C98A03042F2E031C0F602012022FCF7CD
:103C100036FE4C9949F69A10CCF2A900C1F8C000C2
:103C20004C9946F26660CCF29600C1F8C40001F0EF
:103C3000E3BB4C9842F2C031C0F602018022FCF78F
:103C40001EFE4C98803042F65301C0F6020110224D
:103C50004192FCF714FE419A4C98903042F29C41FC
:103C6000C0F60201FCF70BFE4C98A03042F2A431E2
:103C7000C0F602012022FCF702FE4C9949F69A1088
:103C8000CCF2A900C1F8C0004C9946F26660CCF2B3
:103C90009600C1F8C40001F0AFBB4C9842F2B031BD
:103CA000C0F602018022FCF7EAFD4C98803042F613
:103CB0005301C0F6020110224092FCF7E0FD409A49
:103CC0004C98903042F29C41C0F60201FCF7D7FDBF
:103CD0004C98A03042F29831C0F602012022FCF745
:103CE000CEFD4C9949F69A10CCF2A900C1F8C0005B
:103CF0004C9946F26660CCF29600C1F8C40001F01F
:103D00007BBB4C9842F22441C0F602018022FCF7B2
:103D1000B6FD4C98803042F65301C0F602011022E5
:103D20003F92FCF7ACFD3F9A4C98903042F29C4198
:103D3000C0F60201FCF7A3FD4C98A03042F23441DA
:103D4000C0F602012022FCF79AFD4C9946F266600B
:103D5000C4F29600C1F8C0004C9949F69A10C4F21A
:103D6000A900C1F8C40001F047BB4C9842F21441CD
:103D7000C0F602018022FCF782FD4C98803042F6AA
:103D80005301C0F6020110223E92FCF778FD3E9AE4
:103D90004C98903042F29C41C0F60201FCF76FFD56
:103DA0004C98A03042F2F831C0F602012022FCF714
:103DB00066FD4C9946F26660C4F29600C1F8C000F8
:103DC0004C9949F69A10C4F2A900C1F8C40001F058
:103DD00013BB4C9842F20441C0F602018022FCF76A
:103DE0004EFD4C98803042F65301C0F6020110227D
:103DF0003D92FCF744FD3D9A4C98903042F29C4134
:103E0000C0F60201FCF73BFD4C98A03042F2EC31C9
:103E1000C0F602012022FCF732FD4C9946F26660A2
:103E2000C4F29600C1F8C0004C9949F69A10C4F249
:103E3000A900C1F8C40001F0DFBA4C9842F27A310F
:103E4000C0F602018022FCF71AFD4C98803042F641
:103E50005301C0F6020110223C92FCF710FD3C9A7F
:103E60004C98903042F29741C0F60201FCF707FDF2
:103E70004C98A03042F28B31C0F602012022FCF7B0
:103E8000FEFC4C990020C4F2C010C1F8C0004C994F
:103E90000020C4F2C410C1F8C40001F0ADBA4C98BF
:103EA00042F26931C0F602018022FCF7E8FC4C982E
:103EB000803042F65301C0F6020110223B92FCF71B
:103EC000DEFC3B9A4C98903042F29741C0F60201DA
:103ED000FCF7D5FC4C98A03042F24B31C0F6020101
:103EE0002022FCF7CCFC4C990020C4F2C010C1F891
:103EF000C0004C990020C4F2C410C1F8C40001F005
:103F00007BBA4C9842F25831C0F602018022FCF78D
:103F1000B6FC4C98803042F65301C0F602011022E4
:103F20003A92FCF7ACFC3A9A4C98903042F29741A6
:103F3000C0F60201FCF7A3FC4C98A03042F23E31DF
:103F4000C0F602012022FCF79AFC4C990020C4F232
:103F5000C010C1F8C0004C990020C4F2C410C1F8D0
:103F6000C40001F049BA4C9842F2B341C0F60201D4
:103F700039918022FCF783FC4C98803042F24A1140
:103F8000C0F6020110223892FCF779FC389A4C985E
:103F9000903042F29741C0F60201FCF770FC39996B
:103FA0004C98A0302022FCF76AFC4C990020CCF2FF
:103FB0002020C1F8C0004C990020C4F2AA20C1F80A
:103FC000C40001F019BA4C9842F24041C0F6020117
:103FD00037918022FCF753FC4C98803042F2ED710F
:103FE000C0F6020110223692FCF749FC369A4C9832
:103FF000903042F29241C0F60201FCF740FC379942
:104000004C98A0302022FCF73AFC4C990020C4F2D6
:104010002F40C1F8C0004C990020C4F24840C1F8BC
:10402000C40001F0E9B94C9842F28B41C0F602019C
:1040300035918022FCF723FC4C98803042F20B1122
:10404000C0F6020110223492FCF719FC349A4C9805
:10405000903042F29741C0F60201FCF710FC35990E
:104060004C98A0302022FCF70AFC4C990020C1F8A3
:10407000C0004C994FF0BF40C1F8C40001F0BCB97A
:104080004C9842F23121C0F6020133918022FCF7B4
:10409000F6FB4C98803041F63B41C0F602011022FD
:1040A0003292FCF7ECFB329A4C98903042F29241FB
:1040B000C0F60201FCF7E3FB33994C98A0302022B4
:1040C000FCF7DDFB4C990020C1F8C0004C990020A2
:1040D000C4F24000C1F8C40001F08EB94C9842F21D
:1040E000A641C0F6020131918022FCF7C8FB4C9832
:1040F000803041F63B41C0F6020110223092FCF7BD
:10410000BEFB309A4C98903042F29241C0F60201C8
:10411000FCF7B5FB31994C98A0302022FCF7AFFB9F
:104120004C990020C1F8C0004C99C1F8C40001F0BE
:1041300063B94C9842F27A41C0F602012F91802275
:10414000FCF79DFB4C98803042F20B11C0F6020147
:1041500010222E92FCF793FB2E9A4C98903042F24C
:104160009241C0F60201FCF78AFB2F994C98A030CF
:104170002022FCF784FB4C990020C1F8C0004C9928
:104180004FF0BF40C1F8C40001F036B94C9842F27C
:10419000D061C0F602018022FCF771FB4C988030A0
:1041A00042F29E11C0F6020110222D92FCF767FB2D
:1041B0002D9A4C98903042F2A141C0F60201FCF7D2
:1041C0005EFB4C98A03042F25F61C0F602012022F3
:1041D000FCF755FB4C990020C1F8C0004C994CF6F7
:1041E000CD40C3F6CC60C1F8C40001F005B94C98CD
:1041F00042F2AE61C0F602018022FCF740FB4C980F
:10420000803042F29E11C0F6020110222C92FCF77F
:1042100036FB2C9A4C98903042F2A141C0F6020134
:10422000FCF72DFB4C98A03042F24561C0F602012C
:104230002022FCF724FB4C990020C1F8C0004C99C7
:104240004CF6CD40C3F6CC60C1F8C40001F0D4B840
:104250004C9842F28C61C0F602018022FCF70FFB01
:104260004C98803042F29E11C0F6020110222B922F
:10427000FCF705FB2B9A4C98903042F2A141C0F616
:104280000201FCF7FCFA4C98A03042F22B61C0F618
:1042900002012022FCF7F3FA4C990020C1F8C0007B
:1042A0004C994CF6CD40C3F6CC60C1F8C40001F087
:1042B000A3B84C9842F2AB51C0F602018022FCF741
:1042C000DEFA4C98803042F65301C0F6020110220B
:1042D0002A92FCF7D4FA2A9A4C98903042F29741ED
:1042E000C0F60201FCF7CBFA4C98A03042F2BB7149
:1042F000C0F602012022FCF7C2FA4C990020C4F259
:104300009810C1F8C0004C990020C4F2E810C1F820
:10431000C40001F071B84C9842F29351C0F602010A
:104320008022FCF7ACFA4C98803042F65301C0F67C
:10433000020110222992FCF7A2FA299A4C98903097
:1043400042F29741C0F60201FCF799FA4C98A0306E
:1043500042F24951C0F602012022FCF790FA4C9932
:104360000020C4F29810C1F8C0004C990020C4F29B
:10437000E810C1F8C40001F03FB84C9842F27B51FC
:10438000C0F602018022FCF77AFA4C98803042F69F
:104390005301C0F6020110222892FCF770FA289A05
:1043A0004C98903042F29741C0F60201FCF767FA50
:1043B0004C98A03042F24E21C0F602012022FCF7B8
:1043C0005EFA4C990020C4F29810C1F8C0004C99D4
:1043D0000020C4F2E810C1F8C40001F00DB84C98F8
:1043E00042F2D411C0F602018022FCF748FA4C9840
:1043F000803042F65301C0F6020110222792FCF7EA
:104400003EFA279A4C98903042F29C41C0F6020145
:10441000FCF735FA4C98A03042F2A171C0F60201C7
:104420002022FCF72CFA4C990020C4F22010C1F88D
:10443000C0004C990020C4F25810C1F8C40000F02C
:10444000DBBF4C9842F2BA11C0F602018022FCF7A1
:1044500016FA4C98803042F65301C0F60201102241
:104460002692FCF70CFA269A4C98903042F29C4126
:10447000C0F60201FCF703FA4C98A03042F22F512B
:10448000C0F602012022FCF7FAF94C990020C4F290
:104490002010C1F8C0004C990020C4F25810C1F897
:1044A000C40000F0A9BF4C9842F2A011C0F602016E
:1044B0008022FCF7E4F94C98803042F65301C0F6B4
:1044C000020110222592FCF7DAF9259A4C989030D7
:1044D00042F29C41C0F60201FCF7D1F94C98A030A1
:1044E00042F23421C0F602012022FCF7C8F94C99AF
:1044F0000020C4F22010C1F8C0004C990020C4F282
:104500005810C1F8C40000F077BF4C9842F2877190
:10451000C0F602018022FCF7B2F94C98803041F6D7
:104520003941C0F6020110222492FCF7A8F9249A1E
:104530004C98903042F29741C0F60201FCF79FF987
:104540004C98A03042F2D371C0F602012022FCF751
:1045500096F94C990020C1F8C0004C990020C4F293
:10456000E000C1F8C40000F047BF4C9842F26D7102
:10457000C0F602018022FCF782F94C98803041F6A7
:104580003941C0F6020110222392FCF778F9239AF0
:104590004C98903042F29741C0F60201FCF76FF957
:1045A0004C98A03042F26151C0F602012022FCF783
:1045B00066F94C990020C1F8C0004C990020C4F263
:1045C000E000C1F8C40000F017BF4C9842F25371EC
:1045D000C0F602018022FCF752F94C98803041F677
:1045E0003941C0F6020110222292FCF748F9229AC2
:1045F0004C98903042F29741C0F60201FCF73FF927
:104600004C98A03042F28221C0F602012022FCF731
:1046100036F94C990020C1F8C0004C990020C4F232
:10462000E000C1F8C40000F0E7BE4C9842F204611B
:10463000C0F602018022FCF722F94C98803042F249
:10464000EC11C0F6020110222192FCF718F9219A10
:104650004C98903042F29741C0F60201FCF70FF9F6
:104660004C98A03042F26621C0F602012022FCF7ED
:1046700006F94C990020CCF22020C1F8C0004C99DA
:104680000020C4F2AA20C1F8C40000F0B5BE4C98C6
:1046900042F28641C0F6020120918022FCF7EFF839
:1046A0004C98803042F20B11C0F6020110221F928A
:1046B000FCF7E5F81F9A4C98903042F29241C0F610
:1046C0000201FCF7DCF820994C98A0302022FCF77E
:1046D000D6F84C990020C1F8C0004C994FF0BF406B
:1046E000C1F8C40000F088BE4C9842F2E161C0F607
:1046F00002018022FCF7C3F84C98803042F29E11F0
:10470000C0F6020110221E92FCF7B9F81E9A4C98CE
:10471000903042F2A141C0F60201FCF7B0F84C988B
:10472000A03042F26C61C0F602012022FCF7A7F82B
:104730004C990020C1F8C0004C994CF6CD40C3F60E
:10474000CC60C1F8C40000F057BE4C9842F2BF6183
:10475000C0F602018022FCF792F84C98803042F2B9
:104760009E11C0F6020110221D92FCF788F81D9AD6
:104770004C98903042F2A141C0F60201FCF77FF85C
:104780004C98A03042F25261C0F602012022FCF7A0
:1047900076F84C990020C1F8C0004C994CF6CD40F9
:1047A000C3F6CC60C1F8C40000F026BE4C9842F2BB
:1047B0009D61C0F602018022FCF761F84C988030C0
:1047C00042F29E11C0F6020110221C92FCF757F82B
:1047D0001C9A4C98903042F2A141C0F60201FCF7BD
:1047E0004EF84C98A03042F23861C0F60201202207
:1047F000FCF745F84C990020C1F8C0004C994CF6E4
:10480000CD40C3F6CC60C1F8C40000F0F5BD4C98B3
:1048100042F2B751C0F602018022FCF730F84C9802
:10482000803042F65301C0F6020110221B92FCF7C1
:1048300026F81B9A4C98903042F29741C0F602013C
:10484000FCF71DF84C98A03042F2C771C0F6020187
:104850002022FCF714F84C990020C4F29010C1F803
:10486000C0004C990020C4F2F010C1F8C40000F060
:10487000C3BD4C9842F29F51C0F602018022FBF763
:10488000FEFF4C98803042F65301C0F60201102220
:104890001A92FBF7F4FF1A9A4C98903042F2974123
:1048A000C0F60201FBF7EBFF4C98A03042F25551E5
:1048B000C0F602012022FBF7E2FF4C990020C4F26F
:1048C0009010C1F8C0004C990020C4F2F010C1F85B
:1048D000C40000F091BD4C9842F28751C0F602012D
:1048E0008022FBF7CCFF4C98803042F65301C0F693
:1048F000020110221992FBF7C2FF199A4C989030CE
:1049000042F29741C0F60201FBF7B9FF4C98A03084
:1049100042F25A21C0F602012022FBF7B0FF4C9967
:104920000020C4F29010C1F8C0004C990020C4F2DD
:10493000F010C1F8C40000F05FBD4C9842F2E111E4
:10494000C0F602018022FBF79AFF4C98803042F6B5
:104950005301C0F6020110221892FBF790FF189A3B
:104960004C98903042F29C41C0F60201FBF787FF61
:104970004C98A03042F2AE71C0F602012022FBF743
:104980007EFF4C990020C4F2E000C1F8C0004C99B1
:104990004FF08240C1F8C40000F02EBD4C9842F2A6
:1049A000C711C0F602018022FBF769FF4C988030E6
:1049B00042F65301C0F6020110221792FBF75FFF87
:1049C000179A4C98903042F29C41C0F60201FBF7D6
:1049D00056FF4C98A03042F23C51C0F60201202212
:1049E000FBF74DFF4C990020C4F2E000C1F8C00075
:1049F0004C994FF08240C1F8C40000F0FDBC4C98C7
:104A000042F2AD11C0F602018022FBF738FF4C984C
:104A1000803042F65301C0F6020110221692FBF7D5
:104A20002EFF169A4C98903042F29C41C0F602013B
:104A3000FBF725FF4C98A03042F24121C0F602015D
:104A40002022FBF71CFF4C990020C4F2E000C1F8C3
:104A5000C0004C994FF08240C1F8C40000F0CCBCBB
:104A60004C9842F29471C0F602018022FBF707FFD6
:104A70004C98803041F63941C0F60201102215925F
:104A8000FBF7FDFE159A4C98903042F29741C0F624
:104A90000201FBF7F4FE4C98A03042F2E071C0F640
:104AA00002012022FBF7EBFE4C990020C1F8C00068
:104AB0004C990020C4F2E000C1F8C40000F09CBC96
:104AC0004C9842F27A71C0F602018022FBF7D7FEC1
:104AD0004C98803041F63941C0F602011022149200
:104AE000FBF7CDFE149A4C98903042F29741C0F6F5
:104AF0000201FBF7C4FE4C98A03042F26E51C0F6A2
:104B000002012022FBF7BBFE4C990020C1F8C00037
:104B10004C990020C4F2E000C1F8C40000F06CBC65
:104B20004C9842F26071C0F602018022FBF7A7FEAA
:104B30004C98803041F63941C0F6020110221392A0
:104B4000FBF79DFE139A4C98903042F29741C0F6C5
:104B50000201FBF794FE4C98A03042F28F21C0F680
:104B600002012022FBF78BFE4C990020C1F8C00007
:104B70004C990020C4F2E000C1F8C40000F03CBC35
:104B80004C9842F21261C0F602018022FBF777FED8
:104B90004C98803042F2EC11C0F6020110221292C1
:104BA000FBF76DFE129A4C98903042F29741C0F696
:104BB0000201FBF764FE4C98A03042F27421C0F66B
:104BC00002012022FBF75BFE4C990020CCF2202052
:104BD000C1F8C0004C990020C4F2AA20C1F8C4005A
:104BE00000F00ABC4C9842F22051C0F6020180222B
:104BF000FBF745FE4C98903042F29241C0F602011C
:104C00001022FBF73CFE4C98A03042F22B01C0F67C
:104C100002012022FBF733FE4C990020C1F8C800A6
:104C20004C990320C1F8CC00E6E34C9842F21051B5
:104C3000C0F602018022FBF722FE4C98903042F22F
:104C40009241C0F602011022FBF719FE4C98A030E9
:104C500042F22001C0F602012022FBF710FE4C991F
:104C60000020C1F8C8004C990320C1F8CC00C3E370
:104C70004C9842F25711C0F602018022FBF7FFFD6B
:104C80004C98903042F29741C0F602011022FBF797
:104C9000F6FD4C98A03042F24D11C0F602012022E0
:104CA000FBF7EDFD4C990020C1F8C8004C994FF47A
:104CB0007A70C1F8CC009FE34C9842F26F11C0F6B5
:104CC00002018022FBF7DBFD4C98903042F29741C5
:104CD000C0F602011022FBF7D2FD4C98A03042F240
:104CE0006511C0F602012022FBF7C9FD4C99002096
:104CF000C1F8C8004C994FF47A70C1F8CC007BE33E
:104D00004C9842F22721C0F602018022FBF7B7FD42
:104D10004C98803041F63B41C0F6020110221192BE
:104D2000FBF7ADFD119A4C98903042F29241C0F6DB
:104D30000201FBF7A4FD4C98A03042F22421C0F6FA
:104D400002012022FBF79BFD4C994CF6CD40CBF69F
:104D50004C50C1F8C0004C994CF6CD40C3F64C50B5
:104D6000C1F8C40048E34C9842F24971C0F6020110
:104D70008022FBF784FD4C98803041F63B41C0F621
:104D8000020110221092FBF77AFD109A4C98903095
:104D900042F29241C0F60201FBF771FD4C98A0303F
:104DA00042F24671C0F602012022FBF768FD4C99E1
:104DB0004CF6CD40CBF64C50C1F8C0004C994CF6A7
:104DC000CD40C3F64C50C1F8C40015E34C9841F6F1
:104DD000DB71C0F602018022FBF751FD4C98803058
:104DE00041F63B41C0F6020110220F92FBF747FD4E
:104DF0000F9A4C98903042F29241C0F60201FBF7B4
:104E00003EFD4C98A03042F27961C0F602012022AA
:104E1000FBF735FD4C994CF6CD40CBF64C50C1F824
:104E2000C0004C994CF6CD40C3F64C50C1F8C400BC
:104E3000E2E24C9842F2F261C0F602018022FBF7F6
:104E40001EFD4C98803041F63B41C0F60201102215
:104E50000E92FBF714FD0E9A4C98903042F292415C
:104E6000C0F60201FBF70BFD4C98A03042F208712E
:104E7000C0F602012022FBF702FD4C990020C1F888
:104E8000C0004C994FF0BF40C1F8C400B4E24C9848
:104E900042F21D71C0F602018022FBF7F0FC4C9833
:104EA000803041F63B41C0F6020110220D92FBF723
:104EB000E6FC0D9A4C98903042F29241C0F6020105
:104EC000FBF7DDFC4C98A03042F23271C0F60201D3
:104ED0002022FBF7D4FC4C990020C1F8C0004C996B
:104EE0004FF0BF40C1F8C40086E24C9842F2F8513E
:104EF000C0F602018022FBF7C2FC4C98803042F2DF
:104F0000EC11C0F6020110220C92FBF7B8FC0C9ACF
:104F10004C98903042F29741C0F60201FBF7AFFC8B
:104F20004C98A03042F22061C0F602012022FBF72B
:104F3000A6FC4C990020CCF22020C1F8C0004C996E
:104F40000020C4F2AA20C1F8C40055E24C9842F2F5
:104F5000EE51C0F602018022FBF791FC4C988030A4
:104F600042F2EC11C0F6020110220B92FBF787FC13
:104F70000B9A4C98903042F29741C0F60201FBF731
:104F80007EFC4C98A03042F2D351C0F602012022A0
:104F9000FBF775FC4C990020CCF22020C1F8C00032
:104FA0004C990020C4F2AA20C1F8C40024E24C9815
:104FB00042F2DC51C0F602018022FBF760FC4C9803
:104FC000803042F2EC11C0F6020110220A92FBF787
:104FD00056FC0A9A4C98903042F29741C0F6020172
:104FE000FBF74DFC4C98A03042F2C351C0F60201D1
:104FF0002022FBF744FC4C990020CCF22020C1F881
:10500000C0004C990020C4F2AA20C1F8C400F3E10A
:105010004C9842F2E551C0F602018022FBF72FFCCA
:105020004C98803042F2EC11C0F602011022099235
:10503000FBF725FC099A4C98903042F29741C0F654
:105040000201FBF71CFC4C98A03042F2CB51C0F699
:1050500002012022FBF713FC4C990020CCF2202007
:10506000C1F8C0004C990020C4F2AA20C1F8C400C5
:10507000C2E14C9842F22431C0F602018022FBF7D3
:10508000FEFB4C98803042F65301C0F6020110221C
:105090000892FBF7F4FB089A4C98903042F2974143
:1050A000C0F60201FBF7EBFB4C98A03042F2333123
:1050B000C0F602012022FBF7E2FB4C990020C4F26B
:1050C000E000C1F8C0004C990020C4F21010C1F8F3
:1050D000C40091E14C9842F21531C0F602018022E1
:1050E000FBF7CDFB4C98803042F65301C0F602012D
:1050F00010220792FBF7C3FB079A4C98903042F2BC
:105100009741C0F60201FBF7BAFB4C98A03042F27F
:10511000FB21C0F602012022FBF7B1FB4C990020D5
:10512000C4F2E000C1F8C0004C990020C4F2101095
:10513000C1F8C40060E14C9842F20631C0F60201A9
:105140008022FBF79CFB4C98803042F65301C0F65E
:10515000020110220692FBF792FB069A4C989030BF
:1051600042F29741C0F60201FBF789FB4C98A03050
:1051700042F2F021C0F602012022FBF780FB4C999D
:105180000020C4F2E000C1F8C0004C990020C4F235
:105190001010C1F8C4002FE14C9842F2D421C0F69F
:1051A00002018022FBF76BFB4C98803042F65301E2
:1051B000C0F6020110220592FBF761FB059A4C989C
:1051C000903042F29741C0F60201FBF758FB4C9831
:1051D000A03042F2E421C0F602012022FBF74FFB8F
:1051E0004C990020C4F2D010C1F8C0004C990020A6
:1051F000C4F2F010C1F8C400FEE04C9842F2C421A1
:10520000C0F602018022FBF73AFB4C98803042F650
:105210005301C0F6020110220492FBF730FB049AFE
:105220004C98903042F29741C0F60201FBF727FB01
:105230004C98A03042F2A821C0F602012022FBF7D0
:105240001EFB4C990020C4F2D010C1F8C0004C994C
:105250000020C4F2F010C1F8C400CDE04C9842F236
:10526000B421C0F602018022FBF709FB4C98803084
:1052700042F65301C0F6020110220392FBF7FFFA37
:10528000039A4C98903042F29741C0F60201FBF726
:10529000F6FA4C98A03042F29C21C0F6020120227E
:1052A000FBF7EDFA4C990020C4F2D010C1F8C00011
:1052B0004C990020C4F2F010C1F8C4009CE04C9856
:1052C00042F2F441C0F602018022FBF7D8FA4C9872
:1052D000803042F65301C0F6020110220292FBF721
:1052E000CEFA029A4C98903042F29741C0F60201F1
:1052F000FBF7C5FA4C98A03042F20451C0F6020107
:105300002022FBF7BCFA4C994CF6CD40C4F20C00BD
:10531000C1F8C0004C994CF6CD40C4F22C00C1F845
:10532000C40069E04C9842F2E441C0F602018022D8
:10533000FBF7A5FA4C98803042F65301C0F6020103
:1053400010220192FBF79BFA019A4C98903042F29E
:105350009741C0F60201FBF792FA4C98A03042F256
:10536000C841C0F602012022FBF789FA4C994CF69D
:10537000CD40C4F20C00C1F8C0004C994CF6CD40B1
:10538000C4F22C00C1F8C40036E04C9842F2D4417B
:10539000C0F602018022FBF772FA4C98803042F688
:1053A0005301C0F6020110220092FBF768FA009A3E
:1053B0004C98903042F29741C0F60201FBF75FFA39
:1053C0004C98A03042F2BC41C0F602012022FBF70B
:1053D00056FA4C994CF6CD40C4F20C00C1F8C0000E
:1053E0004C994CF6CD40C4F22C00C1F8C40003E047
:1053F00005208DF82F01FFE79DF92F014EB080BDEC
:1054000080B588B08DF81F0006918DF81720FF2019
:105410008DF816009DF91F0001460491342800F212
:1054200076800499DFE801F01B341B341B341B34F5
:105430001B341B341B341B341B341B341B341B34F4
:105440001B341B341B341B341B341B341B341B34E4
:105450001B341B341B341B341B341B344C009DF891
:1054600017000146039160B1FFE703980138012856
:105470000CD8FFE79DF81700012801D1FFE706E0EF
:10548000FFE706994FF07E50086000E0FFE742E03A
:105490009DF817000146029160B1FFE702980138BC
:1054A00001280BD8FFE79DF81700012801D1FFE77D
:1054B00005E0FFE706990020086000E0FFE72AE02A
:1054C0009DF8170001460191B0B1FFE7019801383E
:1054D00001281AD8FFE7069800684AF6B321C2F2FD
:1054E0000001C1F8060009F055FC9DF817000128DD
:1054F00001D1FFE70AE0FFE74AF6B320C2F200005D
:10550000D0F806000699086000E0FFE703E00520F8
:105510008DF81600FFE79DF9160008B080BD000069
:1055200080B598B08DF85F0016918DF85720FF2058
:105530008DF856009DF95F0001461191212800F277
:10554000F8811199DFE811F022006500650065001F
:1055500065006500650065006500A500C200C20029
:10556000C200C200C200C200D700ED00ED00ED0095
:10557000ED00ED00ED00020118012E0146015E0173
:10558000760176019D01B301C901DF019DF8570045
:105590000146109170B3FFE710980138012836D802
:1055A000FFE716980068FF2804DBFFE71699FE2046
:1055B0000860FFE716980068002804DCFFE71699EA
:1055C00001200860FFE7169800680F9003F056F876
:1055D00002460F984AF6C721C2F2000101EB4201D0
:1055E000487109F0F3FB9DF85700012801D1FFE74E
:1055F0000EE0FFE703F042F801464AF6C720C2F288
:10560000000000EB410040791699086000E0FFE7D8
:1056100093E19DF8570001460E9160B3FFE70E98A5
:105620000138012833D8FFE71698006810F1020FFF
:1056300005DCFFE716994FF0FF300860FFE716988A
:105640000068012804DBFFE7169900200860FFE7E7
:10565000169800689DF95F104AF6B322C2F2000264
:105660001144487209F096FB9DF85700012801D1BA
:10567000FFE70DE0FFE79DF95F004AF6B321C2F2B4
:105680000001084490F909001699086000E0FFE75E
:1056900053E19DF8570001460D9180B1FFE70D9849
:1056A0000138012810D8FFE71698007809F0D8FBD8
:1056B0009DF85700012801D1FFE706E0FFE703F05E
:1056C0009DF81699086000E0FFE736E19DF8570065
:1056D00001460C9148B1FFE70C980138012808D821
:1056E000FFE70B208DF8560004E0169900200860B3
:1056F00000E0FFE721E19DF8570001460B9148B11A
:10570000FFE70B980138012809D8FFE70B208DF837
:10571000560005E003F08CF81699086000E0FFE7FA
:105720000BE19DF8570001460A9148B1FFE70A983E
:105730000138012808D8FFE70B208DF8560004E057
:1057400016990020086000E0FFE7F6E09DF857009A
:105750000146099148B1FFE709980138012809D8A5
:10576000FFE70B208DF8560005E003F0A1F916992C
:10577000086000E0FFE7E0E09DF85700014608916F
:1057800048B1FFE708980138012809D8FFE70B2046
:105790008DF8560005E002F0C1FE1699086000E0A1
:1057A000FFE7CAE09DF857000146079148B1FFE7BF
:1057B0000798013801280BD8FFE70B208DF8560019
:1057C00007E003F085F9149014981699086000E03A
:1057D000FFE7B2E09DF857000146069148B1FFE7A8
:1057E0000698013801280BD8FFE70B208DF85600EA
:1057F00007E003F0A1F9139013981699086000E0F0
:10580000FFE79AE09DF857000146059148B1FFE790
:105810000598013801280BD8FFE70B208DF85600BA
:1058200007E003F0B5F9129012981699086000E0AD
:10583000FFE782E09DF8570001460491B0B1FFE711
:105840000498013801281AD8FFE79DF85F001C383A
:1058500016990978C0B201F0DDFE09F09BFA9DF8B7
:105860005700012801D1FFE70AE0FFE79DF85F003C
:105870001C38C0B201F09CFD1699086000E0FFE7FB
:105880005BE09DF857000146039148B1FFE703989C
:105890000138012809D8FFE70B208DF8560005E0F4
:1058A00003F0ECF91699086000E0FFE745E09DF889
:1058B00057000146029148B1FFE7029801380128DC
:1058C00009D8FFE70B208DF8560005E002F0DEFF57
:1058D0001699086000E0FFE72FE09DF857000146A9
:1058E000019148B1FFE701980138012809D8FFE785
:1058F0000B208DF8560005E002F0C2FF16990860F3
:1059000000E0FFE719E09DF857000146009148B11B
:10591000FFE700980138012809D8FFE70B208DF830
:10592000560005E002F0A6FF1699086000E0FFE7C8
:1059300003E005208DF85600FFE79DF9560018B0EA
:1059400080BD000080B588B08DF81F000691FF2053
:105950008DF817009DF91F0001460191522800F2B1
:1059600088820199DFE811F053005A006100680055
:105970006F0076007D0084008B0092009900A000EB
:10598000A700AE00B500BC00C300CA00D100D8001B
:10599000DE00E400EA00F100F800FF0006010D015E
:1059A00014011B01210127012C013601400147018F
:1059B0004E0155015C0163016A01710178017F01AB
:1059C00086018D0194019B019F01A301A701AB01F9
:1059D000AF01B301B701BB01BF01C301C701CB01D7
:1059E000CF01D301DD01E701EE01F50100020B0259
:1059F000160220022A02310238023F0246024D02FC
:105A000054025B0262026902700277027E02002089
:105A100007F0F0FF069880ED000A2EE2012007F063
:105A2000E9FF069880ED000A27E2022007F0E2FF76
:105A3000069880ED000A20E2032007F0DBFF0698BD
:105A400080ED000A19E2042007F0D4FF069880EDEB
:105A5000000A12E2052007F0CDFF069880ED000A4B
:105A60000BE2062007F0C6FF069880ED000A04E26C
:105A7000072007F0BFFF069880ED000AFDE108202F
:105A800007F0B8FF069880ED000AF6E1092007F05C
:105A9000B1FF069880ED000AEFE10A2007F0AAFFA7
:105AA000069880ED000AE8E10B2007F0A3FF0698B6
:105AB00080ED000AE1E10C2007F09CFF069880EDE4
:105AC000000ADAE10D2007F095FF069880ED000A44
:105AD000D3E10E2007F08EFF069880ED000ACCE19E
