:020000040802F0
:1000000048E00020110302081D0302081F03020834
:100010002103020823030208250302080000000050
:10002000000000000000000000000000270302089C
:1000300029030208000000002B0302084DB5020846
:100040002F0302082F0302082F0302082F030208C0
:100050002F0302082F0302082F0302082F030208B0
:100060002F0302082F0302082F0302082F030208A0
:100070002F0302082F0302082F0302082F03020890
:100080002F0302082F0302082F0302082F03020880
:100090002F0302082F0302082F0302082F03020870
:1000A0002F0302082F0302082F0302082F03020860
:1000B0002F0302082F0302082F0302082F03020850
:1000C0002F0302082F0302082F0302082F03020840
:1000D0002F0302082F03020839BB020841BB0208A4
:1000E0002F0302082F0302082F0302082F03020820
:1000F0002F0302082F0302082F0302082F03020810
:100100002F0302082F0302082F0302082F030208FF
:100110004DBA02082F0302082F0302082F0302081A
:100120002F030208B95302081D5402082F030208C6
:10013000895402082F0302082F0302082F03020824
:100140002F0302082F0302082F0302082F030208BF
:100150002F0302082F0302082F0302081DBC020808
:100160002F0302082F0302082F0302082F0302089F
:100170002F0302082F0302082F03020800000000CB
:100180002F0302082F0302082F030208D1BA020826
:100190002F0302082F0302082F03020800000000AB
:1001A0002F0302082F0302082F03020800F002F8B1
:1001B00000F09EF80AA090E8000C82448344AAF163
:1001C0000107DA4501D100F093F8AFF2090EBAE861
:1001D0000F0013F0010F18BFFB1A43F0010318477B
:1001E00084B70100A4B70100103A24BF78C878C1D1
:1001F000FAD8520724BF30C830C144BF04680C602D
:10020000704700000023002400250026103A28BF74
:1002100078C1FBD8520728BF30C148BF0B60704778
:100220006E2900F02C86702900F08782662915F06F
:100230009A85652915F09785672915F094856129B8
:1002400015F0938503681B0A28BF41F080016929D6
:1002500000F0F881642900F0F581752900F0F28141
:100260006F2901F03B81782900F05382E92901F0E0
:10027000D580E42901F0D280F52901F0CF80EF2963
:1002800001F03881F82900F052820368DB0928BFA9
:1002900041F08001632901F04480732901F0498015
:1002A000E32901F06D83F32901F072830020704788
:1002B0001FB515F046FD9DE8030000F03FFD01F07D
:1002C00033F904000020002114F064FF401C60603A
:1002D0000020002114F074FFE060AFF30080AFF362
:1002E000008001F0CFFB1FBD10B501F034FC10BD44
:1002F00001F096FC1146FFF7DBFF13F0ABF801F0BD
:1003000067FE03B4FFF7F0FF03BC0BF005FF00002E
:100310000A4880470A4880470A480047FEE7FEE748
:10032000FEE7FEE7FEE7FEE7FEE7FEE7FEE7FEE7A5
:1003300005480649064A074B7047000065B50208A4
:10034000C5900208AD010208C89F002048E00020C7
:1003500048A0002048A00020704770B5064600F075
:10036000D1FC056806F10B0020F00704B4429CBFE5
:10037000002070BD2B466A68BAB11068A04210D345
:1003800004F1080188423CBF5068586007D35168A7
:10039000101941601168091B016058601460101D3C
:1003A00070BD13465268002AE7D12146284600F066
:1003B000B1FC0028DED170BD70B50446051F00F009
:1003C000A1FC0068002C14BF446870BD002C18BF4D
:1003D000AC423CBF20466468F8D301680A18AA42C0
:1003E00018BF456003D12A6805461144016028689A
:1003F0004119A1421CBF6C6070BD616869602168D1
:100400000844286070BD53EA020C00F069802DE9B1
:10041000F04B4FF00006002B1FBFB3FA83F503FA31
:1004200005F424FA05F65E4012BF1643B2FA82F5CF
:1004300002FA05F4C5F120051EBF22FA05FC44EAC4
:100440000C04203556EA044C4FEA144418BF641CCF
:100450004FF000084FF00009904271EB030C39D3C4
:10046000002919BFB1FA81F701FA07F6B0FA80F74F
:1004700000FA07F6C7F120071EBF20FA07FC46EA7C
:100480000C062037B6FBF4FCA7EB0507103F07F07E
:100490001F0BCBF120062CFA06F60CFA0BFB44BF1F
:1004A000B3460026202FA4BF5E464FF0000B5BEA48
:1004B000060C08BF4FF0010B19EB0B0948EB0608BF
:1004C000ABFB027C06FB02CC0BFB03CCC01B71EB2D
:1004D0000C01C1E70B46024641464846BDE8F08B99
:1004E00013B5084318BF4FF0FF300146AFF300804B
:1004F000BDE81C40704710B5044600F0FBFB0068E7
:10050000005D000704D5DF2C02D0A4F1200010BD4F
:10051000204610BD0A46014900F010BF54010020DA
:100520000FB4044910B503AA029800F007FF10BCED
:100530005DF814FB540100200FB41CB5084B06AA4B
:100540007B4469460090059800F0C1FE04460020F7
:10055000694600F0CFFE20461CBC5DF814FB00008D
:10056000B10D00000FB41CB50C0007AA009007D015
:100570004142A14202D32044401E01E04FF0FF302F
:10058000074B7B4469460190069800F0A0FE0021CD
:10059000002C01D0009A11701CBC5DF814FB000007
:1005A000790D000070B5044685690068C10601D563
:1005B000302600E02026C00707D070BDD4E9012115
:1005C00030469047206A401C20626D1EF6D570BDF3
:1005D00070B5044685690078C00707D170BDD4E9BD
:1005E000012120209047206A401C20626D1EF6D514
:1005F00070BD70B50C460546012A05D028788006E6
:1006000000D5EA69002302E0012305E05B1C934268
:1006100002D2E05C0028F9D1A869E618C01AA861E6
:10062000286A184428622846FFF7BCFF04E0D5E991
:10063000012114F8010B9047B442F8D32846FFF784
:10064000C7FF70BD2DE9F0410646002410687529EA
:10065000314616A510D000F0A7FB002802DA404270
:1006600013A507E031688A0701D512A502E0490702
:1006700004D511A5012401E000F09FFB00210A220E
:1006800006F1240709E0B0FBF2FCB0FBF2F302FB39
:100690001C00303078541846491C0028F3D12346FA
:1006A0002A463046BDE8F04100F090BB0000000053
:1006B0002D0000002B00000020000000F0B40D46CB
:1006C0000188090502D5214C7C4402E01F4C7C4482
:1006D0000E34002100F1240608E002F00F07120991
:1006E000E75D42EA03721B097754491C52EA03078B
:1006F000F3D102780023120704D5702D06D009B17A
:10070000022311342246F0BC00F060BB01231034F8
:10071000F8E770B504460D462146106800F04DFB21
:10072000024629462046BDE870400023C6E7D21D98
:1007300022F00703D3E90023C0E70368126843F0FF
:10074000200303600823C3610023B7E7A25601001A
:100750002DE9F05F894604464FF0000ADFF874B1D6
:10076000FB44C0F820A02046E1688847002874D0E8
:10077000252806D0D4E901219047206A401C206238
:10078000F1E700265F462046E168884720280546B5
:1007900007DB312D05D2781910F8200C08B106437B
:1007A000F1E7B00701D526F00406C4F81CA0002725
:1007B000C4F818A02A2D09D0284614F0D5FC38B367
:1007C00004EB8708303DC8F8185019E059F8041BAD
:1007D000204604EB87029161E1688847012F0546B6
:1007E00018D1E069002820DA26F020061DE0D8F8AC
:1007F000180000EB800005EB40003038C8F8180006
:100800002046E1688847054614F0AEFC0028EED18A
:10081000012F0AD02E2D08D12046E16888477F1C81
:100820000546022F46F02006C4DBA069002803DA43
:10083000404246F00106A061F00701D026F0100604
:100840006C2D0BD0682D09D04C2D39D06A2D35D0A8
:10085000742D35D07A2D33D016E038E0E1682F467C
:1008600020468847B842054609D16C2F26D04FF460
:100870008060E168064320468847054604E06C2F07
:100880001AD04FF4807006430DB3A5F1410019282A
:1008900002D8203546F400664A462946204626609E
:1008A0004E46FFF7BDFC80B101280BD0F61D26F0A7
:1008B000070000F1080956E74020E4E78020D8E768
:1008C0000020D6E706F104094DE7284652E7206AE2
:1008D000BDE8F09F325601000EB5054614460E469F
:1008E00013A001F03FFD284601F03CFD16A001F0E9
:1008F00039FD304601F036FD15A001F033FD002131
:100900008DF80B100A210DF10A008DF80A1008E08D
:1009100094FBF1F201FB124294FBF1F4303200F847
:10092000012D002CF4DC01F01DFD00F0EDFD0000B8
:100930002A2A2A20617373657274696F6E2066615A
:10094000696C65643A2000002C2066696C652000A3
:100950002C206C696E65200030B503461D781DB1F2
:100960000A4603E0AC4201D1181A30BD12F8014B1F
:10097000002CF7D15B1CF1E730B503461D783DB183
:100980000A4612F8014B1CB1AC42FAD15B1CF5E7E8
:10099000181A30BD40EA010310B59B070FD1042A95
:1009A0000DD310C808C9121F9C42F8D020BA19BA3A
:1009B000884201D9012010BD4FF0FF3010BD1AB19F
:1009C000D30703D0521C07E0002010BD10F8013BF4
:1009D00011F8014B1B1B07D110F8013B11F8014B1B
:1009E0001B1B01D1921EF1D1184610BD10B5431C3E
:1009F00002E010F8011B71B18107FAD14FF001320A
:100A000002C88C1A8C4314EAC211F9D0C01A0A0623
:100A100003D0C01E10BDC01A10BD0A0401D0801E34
:100A200010BD0902FCD0401E10BD032A40F23080E8
:100A300010F0030C00F0158011F8013BBCF1020F1F
:100A4000624498BF11F801CB00F8013B38BF11F8A0
:100A5000013BA2F1040298BF00F801CB38BF00F8B7
:100A6000013B11F0030300F02580083AC0F0088034
:100A700051F8043B083A51F804CBA0E80810F5E718
:100A8000121D5CBF51F8043B40F8043BAFF30080FB
:100A9000D20724BF11F8013B11F801CB48BF11F870
:100AA000012B24BF00F8013B00F801CB48BF00F840
:100AB000012B704710B5203AC0F00B80B1E81850F8
:100AC000A0E81850B1E81850A0E81850203ABFF438
:100AD000F5AF5FEA027C24BFB1E81850A0E81850D7
:100AE00044BF18C918C0BDE810405FEA827C24BF2B
:100AF00051F8043B40F8043B08BF7047D20728BFB9
:100B000031F8023B48BF11F8012B28BF20F8023B07
:100B100048BF00F8012B7047431A28BF9A427FF65E
:100B2000C9AF1044114410F0030F1EBF11F8013D6E
:100B3000521E00F8013D10F0030F7FF4F6AF103A9B
:100B4000C0F00A8010B531E9185020E91850103A69
:100B5000BFF4F9AFBDE81040530724BF31E90810D6
:100B600020E9081044BF51F8043D40F8043D12F05C
:100B7000030F08BF7047D20728BF31F8023D48BFB6
:100B800011F8012C28BF20F8023D48BF00F8012CC5
:100B9000704702F0FF0343EA032242EA024200F0F8
:100BA00002B84FF000020429C0F0128010F0030CCC
:100BB00000F01B80CCF1040CBCF1020F18BF00F850
:100BC000012BA8BF20F8022BA1EB0C0100F00DB8FF
:100BD0005FEAC17C24BF00F8012B00F8012B48BF5D
:100BE00000F8012B70474FF0000200B51346944601
:100BF0009646203922BFA0E80C50A0E80C50B1F175
:100C00002001BFF4F7AF090728BFA0E80C5048BF88
:100C10000CC05DF804EB890028BF40F8042B08BF26
:100C2000704748BF20F8022B11F0804F18BF00F822
:100C3000012B704770B50C46016800204A1C3ED05D
:100C40003C22B1FBF2F302FB1313B1FBF2F1236080
:100C5000B1FBF2F302FB1313B1FBF2F11822636054
:100C6000B1FBF2F302FB1313B1FBF2F146F2E032F7
:100C70000A440721A360B2FBF1F301FB132140F208
:100C8000B553B2FBF3F5A161B2FBF3F103FB1522FF
:100C90008900B2F5B77F08D39B10521EB2FBF3F563
:100CA0002944B2FBF3F503FB15220F4BE2616161AE
:100CB00089077B440CD03B2A0AD3521C08E02C2124
:100CC0002046FFF790FF0120E0600AE0521A401C26
:100CD000195C9142FAD9521CC4E903204FF0FF304D
:100CE0002062204670BD0000FA5001007047704736
:100CF0007047704710B500F017FC001D10BD00BF15
:100D00009544010000487047040200207047704776
:100D10007047704738B504460A4600206946AFF36D
:100D20000080002808BF38BD02460099204600F028
:100D3000FFFB012038BD012000F06BBFF8B5AFF319
:100D40000080054600200C46102000BF0646A8196A
:100D5000A0420DD9324669460020AFF3008007005B
:100D600008BF00F056FF0098A04218BF0546C419FE
:100D7000FFF7C8FF05600746F01D20F00700461981
:100D8000284600F00AF8B44208BFF8BDA21B31465D
:100D90003868BDE8F84000F0CBBB00210160C0E935
:100DA000011070471020704709684A0501D540B20C
:100DB0007047C905FCD500B2704709684A0501D5DE
:100DC000C0B27047C905FCD580B270472DE9F04725
:100DD0000D4699469246044600F1240801688806AB
:100DE00004D5E06921F01001216000E00120A84253
:100DF00001DD471B00E00027A1697A1902EB090019
:100E0000081AA0612078C00602D42046FFF7CAFB6A
:100E1000002608E0D4E901211AF806009047206A6C
:100E2000401C761C20624E45F4DB2078C0060AD5B3
:100E30002046FFF7B7FB06E0D4E9012130209047B8
:100E4000206A401C2062381EA7F10107F4DC07E08D
:100E5000D4E9012118F805009047206A401C20625F
:100E6000281EA5F10105F3DC2046FFF7B1FB207831
:100E7000000602D50220BDE8F0870120FBE71168DB
:100E80000268006A530501D508700AE0D30501D550
:100E9000088006E0130603D5C217C1E9000200E08E
:100EA0000860012070472DE9FF4F0C461E464FF0A9
:100EB000FF378BB0D2E90001DDF860800A908A46E6
:100EC000C1F30A5505B93D46002108464FF0000020
:100ED000BAF1000F00F4400005DA00EB80004FF497
:100EE000400101EA50004FEA9059B9F1010F00DDCD
:100EF000B9460A9850EA4A000ED044F61050A5F2BE
:100F0000FF3545432F14B8F1000F1ED07542291E3E
:100F10001EDDC9F100021CE0B8F1010F4FF0000026
:100F200001D0302103E0F24305E02154401CB042DF
:100F3000FBDB30460022002121540B99C1F80880C8
:100F4000C1E900200FB0BDE8F08FBD1B6D1CDEE7CE
:100F50004A4600DA694206A800F01EFD06AB93E897
:100F6000070003AB83E8070050460A9913F01CFD05
:100F70008DE80700A0F500501F3800900398002D61
:100F80000ADD42F21F014A460844002303A90390E8
:100F9000684613F085FF09E0A0F500504A461F3867
:100FA000002303A90390684613F08FFF8DE8070024
:100FB0000004000C03D04FF0FF30410800E0104661
:100FC000B8F1000F03D00022009215461EE0751EF6
:100FD00005D400F0C7FA303262556D1EF9D5B3461C
:100FE0000122084302D000227F1C04E02078302830
:100FF00001D100227F1E002A099784D01DE0112D07
:1010000007DA00F0AFFA303262556D1C50EA010287
:10101000F5D1084302D00098C8B10EE00021681E47
:1010200005E0235C625C63542254401E491C8142EB
:10103000F7DBAB46A81B401E0990002004F80B000C
:101040000B98099AC0F80880C0E9002B7AE71126AE
:101050004FF0000857E72DE9F04F88460446D21DAF
:1010600022F0070191B0D1E90001CDE90A0114F0A5
:1010700063F802460B98C00F01D02D2007E02068CE
:10108000810701D52B2002E0202101EAC000032ABC
:10109000099001D0072A05DB03464146204600F0AF
:1010A00025FC0BE12078800601D5E06900E00620F0
:1010B000B8F1650F814606D0B8F1660F18D0B8F1C7
:1010C000670F70D131E00020B9F1110F009001DB02
:1010D000112301E009F101030AAA01A90CA8FFF7F5
:1010E000E2FEDDE90C70002609F10105834647E0C8
:1010F00001204B4600904FF000470AAA01A90CA816
:10110000FFF7D1FEDDE90DB00C995D46002610B960
:1011100009F101000D18B9EB050003D4C0F1FF3649
:1011200009F10105A5EB09002BE0B9F1010F01DA86
:101130004FF001090020B9F1110F0090484601DD80
:10114000112300E003460AAA01A90CA8FFF7ABFE91
:10115000DDE90C704D4600268346207800070AD44E
:10116000AB4500DA5D4601A8012D04DD411911F8F7
:10117000011C302907D04F4502DA17F1040F04DAB9
:10118000012082460FE06D1EEEE7002F02DCED1B12
:101190003E4403E0781CA84200DD7D1CB81B00F132
:1011A000010A4FF000472078000703D4AA4501DB6D
:1011B0004FF0FF3A0021B7F1004F0DF143088DF8D1
:1011C000431024D002202B23002F01DA7F422D234D
:1011D0000A21021EA0F1010000DC5FB197FBF1FCC7
:1011E00097FBF1F201FB1C7C17460CF1300C08F860
:1011F00001CDEEE7A8F1010003702188090501D5B2
:10120000452100E06521A0F1010800F8011C0998C2
:101210000FA9A1EB0807FF1D00B10120411901EB47
:10122000EA70A1693844081A401EA0612078C006FF
:1012300002D42046FFF7B6F9099828B1D4E9012174
:101240009047206A401C20622078C00622D52046A4
:10125000FFF7A8F91EE0002E04DBB34502DD01A86C
:10126000805D00E03020D4E901219047206A401CD5
:101270002062761CAAF101005FEA000A0AD100F0A0
:1012800053F9C0680168405CD4E901219047206AA5
:10129000401C2062281EA5F10105DCDC07E0D4E932
:1012A000012118F8010B9047206A401C2062381E6B
:1012B000A7F10107F3DC2046FFF78AF9032011B0FC
:1012C00041E6000001694A1C02610878704700B5D8
:1012D0008FB0CDE901310021059105497944CDE96F
:1012E000031011466846FFF733FA0FB000BD000047
:1012F000E5FFFFFF0A6802F8010B0A607047D1E9B9
:1013000000239A4202D2531C0B601070704710B534
:10131000436913B1AFF3008001E0FFF76AF90120E0
:1013200010BD127800F124010A7000224A700122D7
:10133000EDE711684FF0FF32E9E70000074B70B5A9
:101340000D467B44FFF7C3FF0446284600F096FB9A
:1013500010B14FF0FF3070BD204670BD313E01002E
:101360002DE9FF5F15468A460446DFF8AC80F84455
:101370000027D8E900103E46CDE9001010E03AF809
:1013800016106A4602A800F019FC411C07D021780B
:10139000890603D5E269391891420DD80744761CB5
:1013A0002078800602D5E069B84205DDAE42E6DB72
:1013B0003AF816000028E2D1A069C01BA0612046BF
:1013C000FFF7F0F8D8E90010CDE90010002017E091
:1013D0003AF818106A4602A800F0F0FBB0F1FF3F9F
:1013E00081460BD000250DF1080B05E0D4E9012161
:1013F0001BF8050090476D1C4D45F7D308F101001F
:10140000B0428046E4DB206A384420622046FFF781
:10141000DFF8BDE8FF9F0000364A01002DE9F041EA
:101420008046D21D22F007020025D2E90002F529EC
:1014300015A614D0011E72F1000106DA0023D0EBCC
:10144000030063EB020211A608E0D8F800108B0736
:1014500001D50FA602E0490701D50EA601251146C8
:10146000002408F1240704E000F07CF830323A55FB
:10147000641C50EA0102F7D12B4632462146404611
:10148000BDE8F041FFF7A2BC000000002D00000005
:101490002B0000002000000030B4002100F12404E3
:1014A00008E002F00705D208303542EA4372DB0853
:1014B0006554491C52EA0305F3D10468002310A2C5
:1014C000250708D504F020040C4304D0C469012387
:1014D0000CA2641EC46130BCFFF778BC10B5044692
:1014E00021461068FFF769FC02462046BDE810401F
:1014F0000023D1E7D21D22F00701D1E90023CBE779
:10150000000000003000000010B5002000F07AFB61
:10151000FEF7EAFEBDE8104001200AF0FDBD000024
:1015200000487047FC010020004870471C02002062
:10153000034640688C46002818BF88423CBF0346DB
:101540004068F8D318681844884207D00CF10300AB
:1015500020F00700001D411A521A0146081D0A60BA
:10156000FEF72ABF30B5B0F10A0271F100034FEA6D
:10157000900E4EEA817EB0EB0E0061EB91014FEAD6
:10158000101E4EEA017E10EB0E0041EB11114FEAE6
:10159000102E4EEA016E10EB0E0041EB11214FEAC6
:1015A000104E4EEA014E10EB0E0041EB1141401877
:1015B00041F100014FEAD00040EA41704FEAD10109
:1015C0004FEA810444EA907410EB800544EB010477
:1015D0006D1944EB0404521BA3414FF0000348BFB4
:1015E0000A3200D530BD401C41F1000130BD000081
:1015F0002DE9F04F04460D46D21D22F0070089B0B8
:10160000D0E900974846394613F096FD0246F80F98
:1016100001D02D2307E02068810701D52B2302E0AC
:10162000202101EAC0038DF820300BB1012000E039
:101630000020032A824601D0072A04DB29462046DF
:1016400000F054F93FE12078800601D40D2500E038
:10165000E569C7F30A560D2D49DA00214FEA175BF9
:1016600008464FF00000002F00F4400007DA00EBBE
:1016700080004FF4400100EBD07001EA600081155A
:10168000012901DD4FF0FF3100224FEA850CBCF14A
:10169000180F06D31346ACF118004FF08052C24029
:1016A00003E04FF4801323FA0CF30CF10C0CBCF1A3
:1016B000200F04D3ACF1200C09FA0CF001E007FA7A
:1016C0000CF000294FF0004801DD18B90FE00ED1F1
:1016D00040450CD319EB02095F4121B9404502D1C5
:1016E0009F4329EA0209BBEB175F00D0761C2088D4
:1016F000000502D57B48784402E07A4878441938DE
:1017000008AA302302F80A30037C0AF10101002EF6
:101710000AF1020A53546A4602DC4FF0300101E03C
:101720004FF031014FF001088DF8001002D0A6F201
:10173000FF3603E059EA470100D06B4E002D02DC72
:101740002178090704D54FF002082E218DF80110E9
:10175000C44600210BE0C7F303433F01C35C491CAF
:101760006D1E02F80830052908F1010801DA002D84
:10177000F1DC00210CE000EB1973491C1B786D1E95
:10178000082902F808304FEA091908F1010801DABE
:10179000002DF0DC21688B0602D516E0A8F10108C7
:1017A000E04505DD02EB080313F8013C302BF5D0D2
:1017B000B8F1000F09DD02EB080313F8013C2E2BF2
:1017C00003D1090701D4A8F10108002D05DD3E2150
:1017D00002F808106D1E08F10108407C002E02F886
:1017E000080008F1010804DA2D20764202F808000A
:1017F00002E02B2002F808000A214FF47A7086429A
:1018000008F101080BDB96FBF0F3303302F80830E7
:1018100096FBF0F308F1010800FB136601E0642E6B
:101820000CDB642096FBF0F3303302F8083096FBB3
:10183000F0F308F1010800FB136601E00A2E06DB55
:1018400096FBF1F0303002F8080008F1010896FB31
:10185000F1F001FB1060303002F80800A16908F1D6
:10186000010808EB050202EB0A00081AA0612078C3
:10187000C00602D42046FEF795FE216A08AE01EBB1
:101880000A00206204E0D4E9012116F8010B904718
:10189000BAF1010AF7D22078C00602D52046FEF739
:1018A00081FE6E4609E016F8010B3E280FD0D4E900
:1018B00001219047206A401C2062B8F10108F2D251
:1018C0002046FEF785FE09B00320BDE8F08F206AB0
:1018D0002844206203E0D4E90121302090476D1EA6
:1018E000EBD3F8E7D546010002FCFFFF2DE9F041FC
:1018F0001F46044603260168072A01F4006004DB42
:1019000008B116A505E016A503E008B115A500E08D
:1019100015A521F010002060A069C01EA0610FB1C4
:10192000401EA0612046FEF73DFE4FB1D4E90121E3
:1019300038469047206A401C2062C01C206206E0A6
:10194000206AFAE7D4E9012115F8010B9047761EC9
:10195000F8D22046FEF73CFEBDE8F0814E414E0035
:101960006E616E00494E4600696E660010B54369AF
:1019700013B1AFF3008001E0FFF7F2FC012010BDCE
:10198000128800F1240182840022C2840122EDE742
:1019900011684FF0FF32E9E72DE9F047814616461E
:1019A0008AB0354878440DC88DE80D003248784437
:1019B000801C03AC0DC884E80D0041F69B30084440
:1019C000372190FBF1F290FBF1F5A5F1800501FBC9
:1019D00012041B3C02D56442012000E00020DFF825
:1019E00098A080460027FA44AAF1BE0A0EE0E0075C
:1019F0000AD03246684607EB470101230AEB810112
:101A000013F063FA8DE8070064107F1C002CEED100
:101A1000194F7F44AE3F19E0E80715D007EB0410DB
:101A20000DF1180A90E80E008AE80E00C068F04236
:101A300001D1981908903246012306A903A813F092
:101A400044FA03AB83E807006D10641C002DE3D15A
:101A50004FF0010332466946B8F1000F03A802D0E7
:101A600013F01EFA01E013F030FAC9E90001C9F8D9
:101A700008200AB0BDE8F087B8440100007B00F000
:101A80008000704710B542485421FFF7ACF8414838
:101A90005421FFF7A8F840485421FFF7A4F83F4924
:101AA0003B483C4A3F4B08603D490A603A4919604F
:101AB000531C0365481C1065012008653B48344AE7
:101AC00039A1784400F0E6F920B9384878440A385A
:101AD00000F0A4FA37482F4A35A1784400F0DAF92B
:101AE00020B9344878440A3800F098FA32482A4A33
:101AF0002FA1784400F0CEF920B92F4878440A3855
:101B000000F08CFA40232248DC000021224600F03D
:101B10009DF920B125487844543800F07FFA1D48DB
:101B200022464023002100F091F920B12148784459
:101B3000543800F073FA184822461023002100F0B0
:101B400085F9002806D01C487844BDE81040563876
:101B500000F064BA10BD104870B5006D20F00104AB
:101B60000B4800F00FFA0B4800F00CFA0A4800F09E
:101B700009FA09E0206D20F00105204600F002FA84
:101B80002046FEF719FC2C46002CF3D170BD000056
:101B90000001002054010020A801002000000020C6
:101BA000040000200800002072000000268F0100C1
:101BB00077000000128F0100F28E01002DE9F04144
:101BC00016460C460546FFF795F8036893F80101A1
:101BD000012807D0FF2C12D8185D80B101202C708D
:101BE000BDE8F081D3F807013246214603F207131E
:101BF000C7182846BC46BDE8F041002360474FF0B7
:101C0000FF30EDE710B500F0F1F9BDE8104000F04D
:101C1000E8B910B500F00AFABDE8104000F0E1B9EB
:101C20007546FFF77DFCAE4605006946534620F039
:101C30000700854618B020B5FEF77AFBBDE82040C6
:101C40004FF000064FF000074FF000084FF0000B78
:101C5000AC46ACE8C009ACE8C009ACE8C009ACE8E7
:101C6000C00921F007018D4670472DE9F05F054658
:101C700017460C46C86820F4201040F48000C86065
:101C8000800602D5084600F018FBE06841F28201A8
:101C90004FF0FF3A0140022903D0204600F0AAFA93
:101CA000B9E000F42041B1F5004F0FD1C00306D5D3
:101CB0006168E06A884200D80846606006E02069F2
:101CC000E062606060690AF029FAA061A068002201
:101CD000EEB200280DDAE1688B050AD4C043A0609B
:101CE00041F490302260E0606068411C61600670E1
:101CF000AAE0E0689146226040F40050E06020696C
:101D000078BB60690AF00EFA04F124054FF001086F
:101D1000A8B1A08910F4407F08D0E069FEF71DFB50
:101D2000206118B1E06840F4006017E0C4F81C803E
:101D30002561E06820F4407040F480600EE0E069C6
:101D4000FEF70BFB00282061F0D0E06840F4006053
:101D500010F4407FE06002D140F48070E0602069C0
:101D60006060E06825696FF0010BC1051ED56168F0
:101D7000E06A884200D80846411B04D02246284623
:101D800000F042FAE8BB1FB1E562C4E9015959E02D
:101D9000681CE0626060E069401EA060E06840F49A
:101DA0008030E06030462E70BDE8F09F17B100F43F
:101DB00080320AE06068411C61600670E0680A2EAB
:101DC00040F48030E06006D00022E16A6068814221
:101DD00003D90B4602E00122F7E70346B4F80CC032
:101DE0005B1B5FEA4C5C04D4D4F81CC09C4500DD4E
:101DF00002B3814200D80146002BA1EB0008E56246
:101E000000E008E0C4E9015907DD224619462846EA
:101E100000F0FAF908B15046C6E7B8F1000F09D052
:101E2000A169E5626560A1EB0800A061E06840F08F
:101E30001000E06047B16168A069E562491B084491
:101E40006560A0615846AFE73046ADE770B5C4683D
:101E5000A50713D0650211D4B2F5807F09D0B2F581
:101E6000007F06D0B2F5806F08D1012300F1240174
:101E700006E05D1E6FF07F46B54201D3012070BDC4
:101E80000161C361416024F470611143C1600020AD
:101E900070BD00002DE9F0410C461646070047D002
:101EA000104600F06FF82078611C61280AD0722873
:101EB00002D077283CD102E00125002405E002256C
:101EC000042402E0082448F2020511F8010B2B2833
:101ED00006D0622809D011F8010C74280AD00BE052
:101EE00045F0030544F00204EFE745F0040544F033
:101EF0000104EAE744F01004384621460AF014F9D8
:101F0000411C15D00021316171604FF40071F56002
:101F1000F1617061200704D530460222002100F0F3
:101F2000EDF8306D40F0010030653046BDE8F081DD
:101F30000020FBE72DE9F0410D460646104C206DD0
:101F4000C10704D0410804D020F00104F7E722467D
:101F50000EE05420FEF701FA07000ED0206D47F086
:101F600001010843542120653846FEF73CFE3A46FD
:101F700029463046BDE8F0418CE70020D6E7000056
:101F8000000100202DE9F04704464FF0FF380026FD
:101F9000C568D4E90497A80718D0204600F06AF96C
:101FA00038460AF0B7F8002800DA4646280502D578
:101FB0004846FEF701FA4C212046FEF714FE206D3C
:101FC00020F0010020653046BDE8F0874046FBE781
:101FD00010B50446AFF300802046BDE81040FEF780
:101FE00090B9002801D00AF097B8704710B50021C9
:101FF00002A000F083F9012010BD000053494741C1
:102000004252543A2041626E6F726D616C20746569
:10201000726D696E6174696F6E00000010B500F03A
:1020200087F9BDE81040FFF7DCBF000010B50128BC
:1020300005D0002103A000F061F9012010BD09A125
:10204000F8E7000053494752544D454D3A204F752B
:1020500074206F662068656170206D656D6F7279A0
:10206000000000003A2048656170206D656D6F7258
:102070007920636F727275707465640000000000EF
:1020800030B44FF0013C50F8042B51F8043BCCFA2B
:1020900052F4D51A20D1FCB950F8042B51F8043B66
:1020A000CCFA52F4D51A17D1B4B950F8042B51F820
:1020B000043BCCFA52F4D51A0ED16CB950F8042B6B
:1020C00051F8043BCCFA52F4D51A05D1002CDAD0E1
:1020D00030BC4FF00000704729BAB1FA81F111F01D
:1020E0001801D1F120008440F2D1CA40CB4012F057
:1020F000FF0213F0FF0330BCD01A70472DE9F04106
:10210000044616460D464769007B80072ED03846A8
:102110000AF008F850BB3EB3012E02D0022E25D1A2
:1021200004E0204600F06DF905441DE0384609F052
:10213000F5FFE168002841F01001E16005DA204672
:1021400000F058F80120BDE8F081C9030BD56268A2
:10215000E16A914200D81146A26911442269891AA4
:10216000814200DD08460544002D01DA0220EAE73D
:10217000E16A6068E268814206D29103E06203D5B9
:1021800022F4003141F01002A6690027AE4213DCB0
:10219000E16A814201D90B4600E0034603EB060CDD
:1021A0002369ACEB030CAC4506DD814201D98C46BA
:1021B00000E084469C4505D1A760276042F02000DE
:1021C000A5620DE0AD1BE669AE1B8142A66000D999
:1021D0000846C01A281A20605819606022F02000B2
:1021E00003490840E060002084F84870ABE7000035
:1021F000BFCFD7FFC16821F4001141F08001C16059
:1022000000218160016070472DE9F74F15460C46AB
:102210004FF0FF3B3848D768D2F814A0074209D0E6
:102220005046A96909F082FF002819DB3248C043F3
:102230000740EF604FF000496FF000484C4501D374
:10224000464600E0264600993B465046324609F095
:1022500071FFA96920F00042B21A1144A96128B1A6
:102260002846FFF7C7FF5846BDE8FE8FA41BE5D1FF
:102270000020F9E770B504460569C06A61688842C4
:1022800000D80846E16821F42011E160C90312D5A5
:10229000A84208D02246411B2846FFF7B5FF10B1DF
:1022A0004FF0FF3070BD0020E562C4E90150E068E6
:1022B00020F48030E060002070BD10B50446C06896
:1022C00020F02000E060A16AA06988420DD020467D
:1022D000FFF7D0FFE06820F4405040F01000E060CD
:1022E000A06AA0612069E062606044F24001E06899
:1022F0008843E06010BD00001000020070B5054684
:102300000C460A2000E06D1C09F016FF35B1287854
:102310000028F8D102E0641C09F00EFF14B1207807
:102320000028F8D1BDE870400A2009F005BF000080
:1023300010B5014602A0FFF7E1FF012010BD00002B
:1023400053494752545245443A2052656469726574
:1023500063743A2063616E2774206F70656E3A2053
:102360000000000010B5044900F03AF8BDE8104044
:10237000014800F01EB80000A801002070B5044616
:10238000C068810713D0800601D5A56A04E0A16961
:10239000606808442169451A2046FFF76BFF002258
:1023A000064629462046FFF7A9FE304670BD0020AC
:1023B00070BD70B510B1BDE87040DFE70025074C77
:1023C0006E1E07E02046FFF7D9FF00B13546206DAD
:1023D00020F00104002CF5D1284670BD000100203A
:1023E00070B50D46044604E0294612F0C4FE401CB8
:1023F00004D014F8010B0028F6D170BD4FF0FF3067
:1024000070BD10B50146C268900703D0900607D58D
:10241000886A0AE000F016F801210160881E10BDEC
:102420008B69486818440B69C01A91F848301BB191
:1024300091F84910401A10BD1103FCD50028FADDAF
:10244000401E10BD00487047FC0100202DE9F041FE
:102450000C4606460846C021FEF7A3FB45F2527023
:10246000C4F8D0000020342EC4E93000C4F8C800FD
:10247000C4F8CC0000F2AE8004F1800504F19007AE
:1024800004F1A008DFE816F0360052006E008A0062
:10249000360052006E008A00360052006E008A003C
:1024A000360052006E008A00360052006E008A002C
:1024B000360052006E008A00360052006E008A001C
:1024C000360052006E008A00AA00C200DA00F20054
:1024D0000A0122013A0152016A0182019A01B20104
:1024E000CA01E201FA0112022A0242025A027002F1
:1024F000860200BFB6084AF61932C0F6030220462B
:1025000080213346FEF72EF85F204AF6F822286035
:10251000002046F22561C0F603026860A860E8600A
:1025200039607860B860F8604EE000BFB6084AF6DF
:102530000632C0F60302204680213346FEF712F829
:102540005F202860002046F225614AF6EA22686092
:10255000A860E86039607860B860F860C0F603028F
:1025600032E000BFB6084AF6D722C0F60302204682
:1025700080213346FDF7F6FF5F202860002046F2F9
:1025800025614AF6C9226860A860E8603960786011
:10259000B860F860C0F6030216E000BFB6080FF29C
:1025A000A442204680213346FDF7DCFF5F202860EF
:1025B000002046F225616860A860E86039607860B4
:1025C000B860F8600FF29042404620213346FDF794
:1025D000C9FFF8E1052040B2BDE8F08146F2DC31E8
:1025E000C0F6030120468022FEF71FFA46F225615D
:1025F0000020396046F2E44128606860A860E86025
:102600007860B860F860C0F60301D8E146F28C212A
:10261000C0F6030120468022FEF707FA46F2256144
:102620000020396046F2943128606860A860E86054
:102630007860B860F860C0F60301C0E146F2C011EE
:10264000C0F6030120468022FEF7EFF946F225612D
:102650000020396046F2682128606860A860E86060
:102660007860B860F860C0F60301A8E146F2940112
:10267000C0F6030120468022FEF7D7F946F2256115
:102680000020396046F29C1128606860A860E8600C
:102690007860B860F860C0F6030190E145F64471D7
:1026A000C0F6030120468022FEF7BFF946F22561FD
:1026B0000020396046F24C0128606860A860E8603C
:1026C0007860B860F860C0F6030178E145F678619B
:1026D000C0F6030120468022FEF7A7F946F22561E5
:1026E0000020396045F6207128606860A860E860C5
:1026F0007860B860F860C0F6030160E14AF2B46146
:10270000C0F6030120468022FEF78FF946F22561CC
:10271000002039604AF25C7128606860A860E86057
:102720007860B860F860C0F6030148E14AF2885169
:10273000C0F6030120468022FEF777F946F22561B4
:10274000002039604AF2906128606860A860E86003
:102750007860B860F860C0F6030130E14AF23841B1
:10276000C0F6030120468022FEF75FF946F225619C
:10277000002039604AF2405128606860A860E86033
:102780007860B860F860C0F6030118E14AF26C3175
:10279000C0F6030120468022FEF747F946F2256184
:1027A000002039604AF2144128606860A860E8603F
:1027B0007860B860F860C0F6030100E14AF21C21BD
:1027C000C0F6030120468022FEF72FF946F225616C
:1027D000002039604AF2C42128606860A860E8607F
:1027E0007860B860F860C0F60301E8E04AF2F001F2
:1027F000C0F6030120468022FEF717F946F2256154
:10280000002039604AF2F81128606860A860E8602A
:102810007860B860F860C0F60301D0E049F6A071B6
:10282000C0F6030120468022FEF7FFF846F225613C
:10283000002039604AF2A80128606860A860E8605A
:102840007860B860F860C0F60301B8E049F65061FE
:10285000C0F6030120468022FEF7E7F846F2256124
:102860000020396049F6587128606860A860E86007
:102870007860B860F860C0F60301A0E049F6005146
:10288000C0F6030120468022FEF7CFF846F225610C
:102890000020396049F6086128606860A860E86037
:1028A0007860B860F860C0F6030188E049F634410A
:1028B000C0F6030120468022FEF7B7F846F22561F4
:1028C0000020396049F6DC4128606860A860E86053
:1028D0007860B860F860C0F6030170E049F608312E
:1028E000C0F6030120468022FEF79FF846F22561DC
:1028F0000020396049F6104128606860A860E860EF
:102900007860B860F860C0F6030158E049F6DC1161
:10291000C0F6030120468022FEF787F846F22561C3
:102920000020396049F6E42128606860A860E8600A
:102930007860B860F860C0F6030140E049F65811CD
:10294000C0F6030120468022FEF76FF8002046F211
:10295000256128606860A860E86039607860B860C8
:10296000F8602FA12BE000BF49F65001C0F603012B
:1029700020468022FEF759F8002046F225612860A3
:102980006860A860E86039607860B860F8601BA192
:1029900015E000BF49F24871C0F6030120468022CD
:1029A000FEF743F8562046F2256128600020396082
:1029B00009A16860A860E8607860B860F860404687
:1029C0002022FEF732F800204FF0BF41C4E9300169
:1029D000FF2040B2BDE8F0814943504D696E566F0B
:1029E0006C746167650000000000000000000000DA
:1029F00000000000000000000000000043414C41C6
:102A00004D535032564343000000000000000000C8
:102A100000000000000000000000000000000000B6
:102A200043414C4D4D53503256434300000000008B
:102A30000000000000000000000000000000000096
:102A40000000000043414C5F4144445F4144435F08
:102A50004D6F6E4E2564000043414C414144434D4F
:102A60006F6E4E25640000002DE9F04381B00C46E6
:102A700006460846C021FEF794F845F25270C4F8A5
:102A8000D0000020212EC4E93000C4F8C800C4F8EA
:102A9000CC0051D804F1800504F1900904F1A0089C
:102AA000DFE816F05000220022002200220022005F
:102AB00022002200220074009A00B600D200EE002C
:102AC0000A012601420160017C019801B401D20192
:102AD000EA011402260248025A026C029202A4027F
:102AE000C802EA0204031E03013E0FF2AC62204654
:102AF00080213346FDF736FD5F20286046F22540F1
:102B00000027C9F800000FF29862404620213346A2
:102B10006F60AF60EF60C9F80470C9F80870C9F859
:102B20000C70FDF71FFD4FF0FF30C4E93207FF20A6
:102B300040B201B0BDE8F083052040B201B0BDE86D
:102B4000F08300BF46F62451C0F6030120468022E0
:102B5000FDF76BFF5F2047F2255128600020C9F880
:102B6000001046F6CC516860A860E860C9F804001F
:102B7000C9F80800C9F80C00C0F60301404620223D
:102B8000FDF753FF0120FE2199E100BF46F67431A5
:102B9000C0F6030120468022FDF747FF47F63000CC
:102BA000C3F22500C9F8000045F6320046F67C4124
:102BB000C9F804000025C0F6030140462022C9F8E8
:102BC0000850C9F80C50FDF730FFFF20C4E932501F
:102BD00040B201B0BDE8F08346F64821C0F60301DB
:102BE00020468022FDF721FF47F63000C3F2250082
:102BF000C9F8000045F63800C9F80400002046F680
:102C00005031C9F80800C9F80C00C0F603014AE1C8
:102C100046F61C11C0F6030120468022FDF705FF91
:102C200047F63000C3F22500C9F8000045F6380029
:102C3000C9F80400002046F62421C9F80800C9F8A4
:102C40000C00C0F603012EE146F67401C0F6030144
:102C500020468022FDF7E9FE47F63000C3F225004A
:102C6000C9F8000045F63800C9F80400002046F60F
:102C7000F801C9F80800C9F80C00C0F6030112E118
:102C800046F2CC71C0F6030120468022FDF7CDFE4E
:102C900047F63000C3F22500C9F8000045F63800B9
:102CA000C9F80400002046F65001C9F80800C9F828
:102CB0000C00C0F60301F6E046F22471C0F60301F1
:102CC00020468022FDF7B1FE47F63000C3F2250012
:102CD000C9F8000045F63800C9F80400002046F2A3
:102CE000A871C9F80800C9F80C00C0F60301DAE0C1
:102CF00046F27C61C0F6030120468022FDF795FE76
:102D000047F63000C3F22500C9F8000045F6380048
:102D1000C9F80400002046F20071C9F80800C9F89B
:102D20000C00C0F60301BEE046F2D451C0F6030128
:102D300020468022FDF779FE4AF2D01047F2255155
:102D400028600020C9F8001046F258616860A86049
:102D5000E860C9F80400C9F80800C9F80C00C0F61A
:102D60000301A0E046F22C51C0F603012046802268
:102D7000FDF75BFE47F63000C3F22500C9F80000FE
:102D800045F63800C9F80400002046F2B051C9F8F1
:102D90000800C9F80C00C0F6030184E046F2604167
:102DA000C0F6030120468022FDF73FFE47F63000C3
:102DB000C3F22500C9F8000045F63800C9F8040040
:102DC000002046F20851C9F80800C9F80C00C0F606
:102DD000030168E046F21031C0F60301204680226C
:102DE000FDF723FE47F63000C3F22500C9F80000C6
:102DF00045F63800C9F80400002046F2B831C9F899
:102E00000800C9F80C00C0F603014CE046F21811A6
:102E1000C0F6030120468022FDF707FE4AF2D010DB
:102E200047F2255128600020C9F8001046F24421DD
:102E30006860A860E860C9F80400C9F80800C9F82B
:102E40000C00C0F603012EE045F6C871C0F6030180
:102E500020468022FDF7E9FD47F22550C9F8000021
:102E6000002046F27001C9F80400C9F80800C9F84A
:102E70000C00C0F6030116E04AF28071C0F60301AF
:102E800020468022FDF7D1FD47F22550C9F8000009
:102E9000002045F6FC61C9F80400C9F80800C9F82B
:102EA0000C00C0F6030140462022FDF7BEFD44F6AB
:102EB0005270C4F8D0004FF000406FF00041C4E9F8
:102EC0003201FF2040B201B0BDE8F0834AF20C614C
:102ED000C0F6030120468022FDF7A7FD47F22550EA
:102EE0004AF23871C9F800000025C0F6030110E06D
:102EF0004AF2BC41C0F6030120468022FDF795FD51
:102F000047F225504AF26451C9F800000025C0F686
:102F1000030140462022C9F80450C9F80850C9F8F6
:102F20000C50FDF782FD44F65270C4F8D000032027
:102F300078E000BF4AF2E821C0F603012046802273
:102F4000FDF773FD47F225504AF2F031C9F8000051
:102F50000025C0F6030122E04AF27411C0F6030115
:102F600020468022FDF761FD47F225504AF2A0215C
:102F7000C9F800000025C0F6030110E04AF2240160
:102F8000C0F6030120468022FDF74FFD47F2255091
:102F90004AF2CC01C9F800000025C0F60301404602
:102FA0002022C9F80450C9F80850C9F80C50FDF7A0
:102FB0003CFD44F65270C4F8D000C4E93255FF20FD
:102FC00040B201B0BDE8F08349F6D461C0F6030118
:102FD00020468022FDF729FD46F2254049F67C7106
:102FE000C9F800000025C0F6030110E049F684513D
:102FF000C0F6030120468022FDF717FD46F225406A
:1030000049F62C61C9F800000025C0F603014046CE
:103010002022C9F80450C9F80850C9F80C50FDF72F
:1030200004FD0120C4E93250FF2040B201B0BDE8E8
:10303000F08300BF49F68C31C0F6030120468022A0
:10304000FDF7F3FC46F66870C7F275202860732020
:1030500046F2254168600020C9F8001049F6B841E1
:10306000A860E860C9F80400C9F80800C9F80C00B5
:10307000C0F603014CE000BF49F66021C0F6030131
:1030800020468022FDF7D1FC002046F22541286031
:103090006860A860E860C9F80010C9F80400C9F8C1
:1030A0000800C9F80C0033A132E000BF49F6D40192
:1030B000C0F6030120468022FDF7B7FC002046F24F
:1030C000254128606860A860E860C9F80010C9F868
:1030D0000400C9F80800C9F80C001DA118E000BFE1
:1030E00049F2CC71C0F6030120468022FDF79DFC19
:1030F000002046F2254128606860A860E860C9F8B1
:103100000010C9F80400C9F80800C9F80C0007A1AC
:1031100040462022FDF789FC44F65270C4F8D000E6
:10312000FF2040B201B0BDE8F08300BF4E756D6274
:1031300065724572726F725772697465446576691B
:103140006365557353746174000000000000000053
:103150004E756D6265724F664170706C6963617423
:10316000696F6E4C61756E636865730000000000E6
:10317000000000004E756D6265724F66426F6F749D
:103180006C6F616465724C61756E63686573000095
:1031900000000000000000004B755F4F50256400E8
:1031A0004B754F50256400002DE9F04381B00C466B
:1031B00006460846C021FDF7F4FC44F65270C4F8F8
:1031C000D0000020522EC4F8C000C4F8C40000F2A1
:1031D000AF8004F1800504F1900904F1A008DFE854
:1031E00016F053007D0053007D0053007D00530016
:1031F0007D0053007D0053007D0053007D0053008F
:103200007D00AD00CD00ED001901390159018501A6
:10321000A501C501F101110231025B027D02AB0281
:10322000C302EB0215032D03430359036F038F03FE
:10323000AF03D903F9031904430459046F04850447
:10324000A504BB04D104E7040F052F054F0577053E
:103250009705B705DF05F5050B063106510665062E
:1032600085069906BF06DF06FF062B0741076D0797
:103270008D07AD07CD07F7072B084B087508950894
:10328000B508DF08FB08170976084AF62C32C0F6A5
:103290000302204680213346FDF764F9562028605A
:1032A00042F62560C6F232600027C9F800000FF62A
:1032B00060724046202133466F60AF60EF60C9F80E
:1032C0000470C9F80870C9F80C70FDF74BF90020BC
:1032D0000021C4F26010C4F2A01125E076080FF6B8
:1032E0003C72204680213346FDF73CF95620286089
:1032F00042F62560C6F232600027C9F800000FF6DA
:103300002C724046202133466F60AF60EF60C9F8F1
:103310000470C9F80870C9F80C70FDF723F9002192
:103320004FF08140C4F22011C4F8D07001F097B87A
:10333000052040B201B0BDE8F08300BF49F2A061B2
:10334000C0F6030120468022FDF76FFB42F625619F
:103350005620C6F2326128600020C9F8001049F2F8
:1033600024716860A860E860C9F80400C9F8080022
:10337000C9F80C00C0F603013EE000BF49F2F85165
:10338000C0F6030120468022FDF74FFB42F625617F
:103390005620C6F2326128600020C9F8001049F2B8
:1033A0007C616860A860E860C9F80400C9F808009A
:1033B000C9F80C00C0F603011EE000BF49F25051ED
:1033C000C0F6030120468022FDF72FFB42F625615F
:1033D0005620C6F2326128600020C9F8001049F278
:1033E000D4516860A860E860C9F80400C9F8080012
:1033F000C9F80C00C0F6030140462022FDF715FB7A
:1034000046F266600021C4F24600C4F2600101F099
:1034100026B800BF49F2A841C0F603012046802229
:10342000FDF703FB42F625615620C6F232612860A3
:103430000020C9F8001049F22C516860A860E860CB
:10344000C9F80400C9F80800C9F80C00C0F6030167
:103450003EE000BF49F20041C0F603012046802251
:10346000FDF7E3FA42F625615620C6F23261286084
:103470000020C9F8001049F284416860A860E86043
:10348000C9F80400C9F80800C9F80C00C0F6030127
:103490001EE000BF49F25831C0F6030120468022E9
:1034A000FDF7C3FA42F625615620C6F23261286064
:1034B0000020C9F8001049F2DC316860A860E860BB
:1034C000C9F80400C9F80800C9F80C00C0F60301E7
:1034D00040462022FDF7A9FA49F69A1046F26661A5
:1034E000CCF2A900CCF2960100F0B9BF49F2B021AC
:1034F000C0F6030120468022FDF797FA42F62561C7
:103500005620C6F2326128600020C9F8001049F246
:1035100034316860A860E860C9F80400C9F80800A0
:10352000C9F80C00C0F603013EE000BF49F20821D3
:10353000C0F6030120468022FDF777FA42F62561A6
:103540005620C6F2326128600020C9F8001049F206
:103550008C216860A860E860C9F80400C9F8080018
:10356000C9F80C00C0F603011EE000BF49F260116B
:10357000C0F6030120468022FDF757FA42F6256186
:103580005620C6F2326128600020C9F8001049F2C6
:10359000E4116860A860E860C9F80400C9F8080090
:1035A000C9F80C00C0F6030140462022FDF73DFAA1
:1035B00046F2666049F69A11C4F29600C4F2A90177
:1035C00000F04DBF49F2B801C0F603012046802249
:1035D000FDF72BFA42F625615620C6F231612860CC
:1035E0000020C9F8001049F23C116860A860E8604A
:1035F000C9F80400C9F80800C9F80C00C0F60301B6
:103600003EE000BF49F21001C0F6030120468022CF
:10361000FDF70BFA42F625615620C6F231612860AB
:103620000020C9F8001049F294016860A860E860C1
:10363000C9F80400C9F80800C9F80C00C0F6030175
:103640001EE000BF48F66871C0F6030120468022E4
:10365000FDF7EBF942F625615620C6F2316128608C
:103660000020C9F8001048F6EC716860A860E860B6
:10367000C9F80400C9F80800C9F80C00C0F6030135
:1036800040462022FDF7D1F900200021C4F2C010ED
:10369000C4F2C41100F0E3BE48F6C061C0F60301F5
:1036A00020468022FDF7C1F942F625614AF2D0108A
:1036B000C6F2316128600020C9F8001048F6447154
:1036C0006860A860E860C9F80400C9F80800C9F893
:1036D0000C00C0F6030100F06FBD00BF48F6186192
:1036E000C0F6030120468022FDF79FF944F66B00E7
:1036F00042F62561C0F27A00C6F2306128600020EF
:10370000C9F8001048F69C616860A860E860C9F8D4
:103710000400C9F80800C9F80C00C0F603014046CF
:103720002022FDF782F900200021C4F22F40C4F2CC
:10373000484100F094BE00BF48F67051C0F6030146
:1037400020468022FDF771F97320286042F625603B
:10375000C6F2316048F6F4510026C9F80000C0F600
:10376000030100F094BC00BF48F6C841C0F6030155
:1037700020468022FDF759F95F20286042F6256037
:10378000C6F2306048F64C510026C9F80000C0F679
:103790000301404620226E60AE60EE60C9F804600E
:1037A000C9F80860C9F80C60FDF73FF90020C4F2C1
:1037B000400000F07BBC00BF48F62041C0F603018A
:1037C00020468022FDF731F95F20286042F625600F
:1037D000C6F2306048F6A4410026C9F80000C0F6E1
:1037E0000301404620226E60AE60EE60C9F80460BE
:1037F000C9F80860C9F80C60FDF717F9C4E930662C
:10380000FF2040B201B0BDE8F08300BF48F6783138
:10381000C0F6030120468022FDF707F973202860D7
:1038200042F62560C6F2306048F6FC310026C9F841
:103830000000C0F6030100F02ABC00BF48F6D0210A
:10384000C0F6030120468022FDF7EFF841202860F2
:1038500042F62560C6F2336048F654310026C9F8B6
:103860000000C0F60301B8E148F62821C0F60301C4
:1038700020468022FDF7D9F84120286042F62560D5
:10388000C6F2336048F6AC210026C9F80000C0F645
:103890000301A2E148F68011C0F603012046802210
:1038A000FDF7C3F84120286042F62560C6F2336078
:1038B00048F604210026C9F80000C0F603018CE197
:1038C00048F6D801C0F6030120468022FDF7ADF886
:1038D00042F625615620C6F2316128600020C9F801
:1038E000001048F65C116860A860E860C9F8040040
:1038F000C9F80800C9F80C00C0F603013EE000BF9B
:1039000048F63001C0F6030120468022FDF78DF80D
:1039100042F625615620C6F2316128600020C9F8C0
:10392000001048F6B4016860A860E860C9F80400B7
:10393000C9F80800C9F80C00C0F603011EE000BF7A
:1039400048F28871C0F6030120468022FDF76DF829
:1039500042F625615620C6F2316128600020C9F880
:10396000001048F60C016860A860E860C9F804001F
:10397000C9F80800C9F80C00C0F60301404620222F
:10398000FDF753F800200021C4F29810C4F2E811AA
:1039900000F065BD48F2E061C0F6030120468022D8
:1039A000FDF743F842F625615620C6F232612860E1
:1039B0000020C9F8001048F264716860A860E860EF
:1039C000C9F80400C9F80800C9F80C00C0F60301E2
:1039D0003EE000BF48F23861C0F603012046802275
:1039E000FDF723F842F625615620C6F232612860C1
:1039F0000020C9F8001048F2BC616860A860E86067
:103A0000C9F80400C9F80800C9F80C00C0F60301A1
:103A10001EE000BF48F29051C0F60301204680220C
:103A2000FDF703F842F625615620C6F232612860A0
:103A30000020C9F8001048F214616860A860E860CE
:103A4000C9F80400C9F80800C9F80C00C0F6030161
:103A500040462022FCF7E9FF00200021C4F220109C
:103A6000C4F2581100F0FBBC48F2E841C0F6030173
:103A700020468022FCF7D9FF5720286042F62560B7
:103A8000C6F2316048F26C510026C9F80000C0F659
:103A90000301C6E148F24041C0F6030120468022FE
:103AA000FCF7C3FF5720286042F62560C6F231605C
:103AB00048F2C4410026C9F80000C0F60301B0E195
:103AC00048F29831C0F6030120468022FCF7ADFF92
:103AD0005720286042F62560C6F2316048F21C414A
:103AE0000026C9F80000C0F603019AE148F2F0216F
:103AF000C0F6030120468022FCF797FF42F62561BD
:103B00004320C6F2316128600020C9F8001048F255
:103B100074316860A860E860C9F80400C9F808005A
:103B2000C9F80C00C0F6030146E300BF48F2482183
:103B3000C0F6030120468022FCF777FF732028603F
:103B400042F62560C6F2306048F2CC210026C9F862
:103B50000000C0F603019AE248F2A011C0F603018A
:103B600020468022FCF761FF4120286042F6256054
:103B7000C6F2336048F224210026C9F80000C0F6DE
:103B800003012AE048F2F801C0F603012046802232
:103B9000FCF74BFF4120286042F62560C6F23360F7
:103BA00048F27C110026C9F80000C0F6030114E0B9
:103BB00048F25001C0F6030120468022FCF735FF91
:103BC0004120286042F62560C6F2336048F2D401F5
:103BD0000026C9F80000C0F60301404620226E60AE
:103BE000AE60EE60C9F80460C9F80860C9F80C60FE
:103BF000FCF71BFF4CF6CD40C3F6CC6056E200BF8D
:103C000047F6A871C0F6030120468022FCF70DFF9D
:103C100042F625615620C6F2316128600020C9F8BD
:103C2000001048F22C016860A860E860C9F8040040
:103C3000C9F80800C9F80C00C0F603013EE000BF57
:103C400047F60071C0F6030120468022FCF7EDFE26
:103C500042F625615620C6F2316128600020C9F87D
:103C6000001047F684716860A860E860C9F8040035
:103C7000C9F80800C9F80C00C0F603011EE000BF37
:103C800047F65861C0F6030120468022FCF7CDFEBE
:103C900042F625615620C6F2316128600020C9F83D
:103CA000001047F6DC616860A860E860C9F80400AD
:103CB000C9F80800C9F80C00C0F6030140462022EC
:103CC000FCF7B3FE00200021C4F2901064E300BFB3
:103CD00047F6B051C0F6030120468022FCF7A5FE4E
:103CE00042F625615620C6F2326128600020C9F8EC
:103CF000001047F634616860A860E860C9F8040005
:103D0000C9F80800C9F80C00C0F603013EE000BF86
:103D100047F60851C0F6030120468022FCF785FED5
:103D200042F625615620C6F2326128600020C9F8AB
:103D3000001047F68C516860A860E860C9F804007C
:103D4000C9F80800C9F80C00C0F603011EE000BF66
:103D500047F66041C0F6030120468022FCF765FE6D
:103D600042F625615620C6F2326128600020C9F86B
:103D7000001047F6E4416860A860E860C9F80400F4
:103D8000C9F80800C9F80C00C0F60301404620221B
:103D9000FCF74BFE0020C4F2E0004FF082415EE3EE
:103DA00047F6B831C0F6030120468022FCF73DFEFD
:103DB0005720286042F62560C6F2316047F63C4144
:103DC0000026C9F80000C0F603012AE047F61031CA
:103DD000C0F6030120468022FCF727FE572028600A
:103DE00042F62560C6F2316047F694310026C9F8E4
:103DF0000000C0F6030114E047F66821C0F6030195
:103E000020468022FCF711FE5720286042F62560EC
:103E1000C6F2316047F6EC210026C9F80000C0F672
:103E20000301404620226E60AE60EE60C9F8046077
:103E3000C9F80860C9F80C60FCF7F7FD0020C4F26F
:103E4000E00033E147F6C011C0F6030120468022AE
:103E5000FCF7EBFD42F625614320C6F23161286094
:103E60000020C9F8001047F644216860A860E860A7
:103E7000C9F80400C9F80800C9F80C00C0F603012D
:103E80009AE100BF47F61811C0F6030120468022D0
:103E9000FCF7CBFD42F62560C6F2306047F69C1178
:103EA000C9F800000025C0F6030112E047F67001D2
:103EB000C0F6030120468022FCF7B7FD42F62560DC
:103EC000C6F2306047F6F401C9F800000025C0F6DC
:103ED000030140462022C9F80450C9F80850C9F827
:103EE0000C50FCF7A2FD032033E000BF47F2C8717D
:103EF000C0F6030120468022FCF797FD42F62560BC
:103F0000C6F2316047F64C01C9F800000025C0F642
:103F1000030112E047F22071C0F60301204680221F
:103F2000FCF783FD42F62560C6F2316047F2A471CA
:103F3000C9F800000025C0F6030140462022C9F858
:103F40000450C9F80850C9F80C50FCF76EFD4FF446
:103F50007A70C4E93250FF2040B201B0BDE8F0836E
:103F600047F27861C0F6030120468022FCF75DFD30
:103F700042F625615F20C6F2306128600020C9F852
:103F8000001047F2FC616860A860E860C9F80400AE
:103F9000C9F80800C9F80C00C0F603013EE000BFF4
:103FA00047F2D051C0F6030120468022FCF73DFDC8
:103FB00042F625615F20C6F2306128600020C9F812
:103FC000001047F254616860A860E860C9F8040016
:103FD000C9F80800C9F80C00C0F603011EE000BFD4
:103FE00047F22851C0F6030120468022FCF71DFD50
:103FF00042F625615F20C6F2306128600020C9F8D2
:10400000001047F2AC516860A860E860C9F804008D
:10401000C9F80800C9F80C00C0F603014046202288
:10402000FCF703FD4CF6CD404CF6CD41CBF64C50A1
:10403000C3F64C5113E200BF47F28041C0F60301C2
:1040400020468022FCF7F1FC5F20286042F62560C4
:10405000C6F2306047F204510026C9F80000C0F6ED
:10406000030114E047F2D831C0F603012046802254
:10407000FCF7DBFC5F20286042F62560C6F230606A
:1040800047F25C410026C9F80000C0F60301404633
:1040900020226E60AE60EE60C9F80460C9F8086066
:1040A000C9F80C60FCF7C1FC4FF0BF40C4E93060B8
:1040B000FF2040B201B0BDE8F08300BF47F23031CD
:1040C000C0F6030120468022FCF7AFFC42F62561D2
:1040D0004320C6F2316128600020C9F8001047F281
:1040E000B4316860A860E860C9F80400C9F8080045
:1040F000C9F80C00C0F603015EE000BF47F288215A
:10410000C0F6030120468022FCF78FFC42F62561B1
:104110004320C6F2316128600020C9F8001047F240
:104120000C316860A860E860C9F80400C9F80800AC
:10413000C9F80C00C0F603013EE000BF47F2E011F1
:10414000C0F6030120468022FCF76FFC42F6256191
:104150004320C6F2316128600020C9F8001047F200
:1041600064216860A860E860C9F80400C9F8080024
:10417000C9F80C00C0F603011EE000BF47F2381179
:10418000C0F6030120468022FCF74FFC42F6256171
:104190004320C6F2316128600020C9F8001047F2C0
:1041A000BC116860A860E860C9F80400C9F808009C
:1041B000C9F80C00C0F6030140462022FCF735FC8C
:1041C00000200021CCF22020C4F2AA2147E100BF48
:1041D00047F29001C0F6030120468022FCF725FC3F
:1041E00042F625615620C6F2316128600020C9F8E8
:1041F000001047F214116860A860E860C9F8040074
:10420000C9F80800C9F80C00C0F6030152E000BF6D
:104210004144435F41766750256400004144435F59
:10422000417667205F4D6F6E4E2564004144435FC9
:104230004176674E2564000046F6E871C0F603013A
:1042400020468022FCF7F1FB42F625615620C6F29B
:10425000316128600020C9F8001047F26C016860E5
:10426000A860E860C9F80400C9F80800C9F80C00A3
:10427000C0F603011EE000BF46F64071C0F6030120
:1042800020468022FCF7D1FB42F625615620C6F27B
:10429000316128600020C9F8001046F6C4716860DA
:1042A000A860E860C9F80400C9F80800C9F80C0063
:1042B000C0F6030140462022FCF7B7FB0020002196
:1042C000C4F2E000C4F21011C9E000BF46F69861E4
:1042D000C0F6030120468022FCF7A7FB42F62561C9
:1042E0005620C6F2316128600020C9F8001046F659
:1042F0001C716860A860E860C9F80400C9F808008B
:10430000C9F80C00C0F603013EE000BF46F6F051CC
:10431000C0F6030120468022FCF787FB42F62561A8
:104320005620C6F2316128600020C9F8001046F618
:1043300074616860A860E860C9F80400C9F8080002
:10434000C9F80C00C0F603011EE000BF46F6A0410C
:10435000C0F6030120468022FCF767FB42F6256188
:104360005620C6F2316128600020C9F8001046F6D8
:10437000A8516860A860E860C9F80400C9F808009E
:10438000C9F80C00C0F6030140462022FCF74DFBA3
:1043900000200021C4F2D010C4F2F0115FE000BF91
:1043A00046F6F831C0F6030120468022FCF73DFBBB
:1043B000562042F6256128600020C6F2316168600F
:1043C000A860E860C9F80010C9F80400C9F808003E
:1043D000C9F80C0037A136E046F6CC21C0F603013F
:1043E00020468022FCF721FB562042F625612860FA
:1043F0000020C6F231616860A860E860C9F800106A
:10440000C9F80400C9F80800C9F80C0020A11AE096
:1044100046F6A011C0F6030120468022FCF705FBFA
:10442000562042F6256128600020C6F2316168609E
:10443000A860E860C9F80010C9F80400C9F80800CD
:10444000C9F80C0009A140462022FCF7EEFA4CF610
:10445000CD404CF6CD41C4F20C00C4F22C01C4E9AD
:104460003001FF2040B201B0BDE8F0834144435F1A
:10447000417667566F636D00000000000000000089
:10448000000000000000000000000000000000002C
:104490004144435F4D696E566F636D00000000003C
:1044A000000000000000000000000000000000000C
:1044B000000000004144435F4D6178566F636D001A
:1044C00000000000000000000000000000000000EC
:1044D000000000000000000070B5342800F24480A5
:1044E0000C461546DFE800F01C241C241C241C2468
:1044F0001C241C241C241C241C241C241C241C24BC
:104500001C241C241C241C241C241C241C241C24AB
:104510001C241C241C241C241C241C24300000BF2C
:1045200045F0020002280BD1B7EE000A06E000BFFA
:1045300045F00200022803D19FED110A84ED000A24
:10454000FF2040B270BD00BF681E40F2D046022876
:10455000C2F200060CD22068C6F8060006F088FEFB
:10456000012DEDD006E000BF052040B270BD00BFB8
:10457000002DE5D1D6F8060000EE100ADEE700BFF8
:1045800000000000F0B581B0212800F27D800C46CB
:104590001546DFE810F07D002300230023002300F0
:1045A00023002300230023008B002D002D002D006D
:1045B0002D002D002D00950035003500350035000B
:1045C000350035009D00A500AD00B500BD004900D7
:1045D0004900C500CD00D500DD0000BF691E0229DD
:1045E0001ED22168B1F1FF3F2EDA4FF0FF312EE0ED
:1045F000681E02280CD20B2040B201B0F0BD00BFF3
:10460000681E022804D20B2040B201B0F0BD00BFEA
:10461000002D04BF00202060FF2040B201B0F0BD9B
:104620000DBB461E24E000BF691E022980F0988061
:104630002178A0F11C06F0B201F032F906F018FE64
:10464000012D10D091E000BF012901DB0021216084
:10465000461E40F2D040C2F200003044817206F0A3
:1046600007FE012D04D1FF2040B201B0F0BD00BF14
:1046700040F2D040C2F20000304490F90A002060BD
:10468000FF2040B201B0F0BD052040B201B0F0BD46
:10469000681E40F2F8560228C2F200066AD2276865
:1046A000FE2F40F3AD80FE27ADE000BF681E02285C
:1046B00064D2207806F02AFE012DD4D061E000BF3C
:1046C000681E022860D20B2040B201B0F0BD00BFCE
:1046D000681E02285ED20B2040B201B0F0BD00BFC0
:1046E000681E02285CD20B2040B201B0F0BD00BFB2
:1046F000681E02285AD20B2040B201B0F0BD00BFA4
:10470000681E022858D20B2040B201B0F0BD00BF95
:10471000681E022856D20B2040B201B0F0BD00BF87
:10472000681E022854D20B2040B201B0F0BD00BF79
:10473000681E022852D20B2040B201B0F0BD00BF6B
:10474000681E022850D20B2040B201B0F0BD00BF5D
:10475000681E02284ED20B2040B201B0F0BD00BF4F
:10476000002D7FF480AFA0F11C06F0B200F0E2FE55
:1047700085E700BF002D51D075E700BF002D7FF405
:1047800072AF02F01BF97AE7002D7FF46CAF02F0F4
:1047900035F974E7002D7FF466AF02F087F96EE714
:1047A000002D7FF460AF02F0C3F868E7002D7FF4BE
:1047B0005AAF02F087F962E7002D7FF454AF02F0A0
:1047C00093F95CE7002D7FF44EAF02F09BF956E7BA
:1047D000002D7FF448AF02F02FFA50E7002D7FF450
:1047E00042AF02F031F94AE7002D7FF43CAF02F00E
:1047F00025F944E7002D7FF436AF02F019F93EE7C2
:10480000002F01DC0127276002F0A4F806EB40002E
:10481000477106F03FFD012D3FF425AF02F09AF8F5
:1048200006EB400040792AE7522800F25D8010B57F
:104830000C46B9EE040ADFE810F05B005F0063008D
:1048400067006B006F00730077007B007F008300C0
:1048500087008B008F00930097009B009F00A300B0
:104860005C015C015C01A500A900AD00AF00B300D4
:10487000B700B900BD00C100C500C900CD00D1001E
:10488000D500D900DD00E100E500E900ED00F10010
:10489000F500F900FD0001015300530053005300DF
:1048A0005300530053005300530053005300530070
:1048B00053005300050109010D01110115011901F2
:1048C0001D01210125012D013101350139013D0174
:1048D0004101450147014B014F015101550159016A
:1048E0009FED870A05E100BF052040B2704700BF79
:1048F000002005F053F9FCE0012005F04FF9F8E045
:10490000022005F04BF9F4E0032005F047F9F0E050
:10491000042005F043F9ECE0052005F03FF9E8E05C
:10492000062005F03BF9E4E0072005F037F9E0E068
:10493000082005F033F9DCE0092005F02FF9D8E074
:104940000A2005F02BF9D4E00B2005F027F9D0E080
:104950000C2005F023F9CCE00D2005F01FF9C8E08C
:104960000E2005F01BF9C4E00F2005F017F9C0E098
:10497000002005F033F9BCE0002005F03FF9B8E075
:104980000020B4E0012005F029F9B2E0012005F093
:1049900035F9AEE00120AAE0032005F01FF9A8E0F8
:1049A000032005F02BF9A4E00320A0E0002005F08F
:1049B000E5F89EE09FED530A9BE000BF07F048FF3B
:1049C00097E000BFB7EE000A93E000BF02F042F8A4
:1049D0005AE000BF02F024F856E000BF082002F0C1
:1049E00015F886E0062002F011F882E0072002F0B8
:1049F0000DF87EE0052002F009F87AE0032002F0CD
:104A000005F876E0042002F001F872E00E2001F0D3
:104A1000FDFF6EE00C2001F0F9FF6AE00D2001F0CF
:104A2000F5FF66E00B2001F0F1FF62E0092001F0E4
:104A3000EDFF5EE00A2001F0E9FF5AE0122001F0EC
:104A4000E5FF56E002F032F81EE000BF01F070FF13
:104A50001AE000BF002001F0A7FF4AE0012001F0AA
:104A6000A3FF46E002F03AF80EE000BF02F044F87F
:104A70000AE000BF02F04EF806E000BF03F0FAFBC8
:104A800002E000BF03F020FC00EE100AB8EE400A7E
:104A90002FE000BF012000F099FD2AE0002000F087
:104AA00095FD26E0002000F0AFFD22E0012000F09F
:104AB000ABFD1EE0022005F091F81AE0022005F09F
:104AC0009DF816E0022012E0042005F087F810E0BF
:104AD000042005F093F80CE0042008E0052005F020
:104AE0007DF806E0052005F089F802E0052005F0D4
:104AF00065F884ED000AFF20BDE8104040B2704721
:104B0000000000000000484470B500294FF6FF7314
:104B100000F0B780012901F0010C05D10021BCF1A2
:104B2000000F00F0AE8077E021F00101C1F1000E2E
:104B30006FF0010141F221024418A578E47883EA7C
:104B400005231DB25E00002D48BF82EA430633B242
:104B50007500002B48BF82EA46052BB26E00002B81
:104B600048BF82EA450633B27500002B48BF82EA8F
:104B700046052BB26E00002B48BF82EA450633B2D1
:104B80007500002B48BF82EA46052BB26E00002B51
:104B900048BF82EA450633B27500002B48BF82EA5F
:104BA000460585EA04231CB25D00002C48BF82EA5A
:104BB00043052BB26C00002B48BF82EA450423B2A8
:104BC0006500002B48BF82EA44052BB26C00002B25
:104BD00048BF82EA450423B26500002B48BF82EA41
:104BE00044052BB26C00002B48BF82EA450423B277
:104BF0006500002B48BF82EA44052CB202316B00ED
:104C0000002C0EEB010448BF82EA4503023493D125
:104C10000231BCF1000F34D0405C83EA00210AB2BB
:104C20004B0041F22100002A48BF80EA410319B23B
:104C30005A00002948BF80EA430211B253000029FC
:104C400048BF80EA420319B25A00002948BF80EAEF
:104C5000430211B25300002948BF80EA420319B24F
:104C60005A00002948BF80EA430211B256000029C9
:104C700048BF80EA420631B27300002948BF80EA8B
:104C8000460398B270BD0000002904BF00207047A1
:104C90004AF6010C024601440020C0F6030C0EE067
:104CA00012F8013B58401CF800008A4228BF7047A8
:104CB00012F8013B58401CF800008A420ED212F84C
:104CC000013BC0B258401CF800008A4206D212F8DC
:104CD000013B58401CF800008A42E1D370470000B5
:104CE000B0B584B003281FD24AF6BC11C0F6030148
:104CF00051F82050684601F0C9FF40F234619DE848
:104D00001D00C2F2000141F8030F4A604FF0FF306E
:104D10001022CC608B600FF09BFC294610220FF014
:104D200097FCC04304B0B0BD4AF606404AF6F231E3
:104D3000C0F60300C0F60301A722FBF7CDFD00007B
:104D400091B12DE9F0434A1E032A01F0030C0FD262
:104D5000002100220024BCF1000F4DD181F0FF00A2
:104D6000BDE8F043C0B27047FF20C0B2704700BF3B
:104D700021F00301C1F1000E00F1010800246FF0E1
:104D800003034FF0010900BF08EB0305EE782F790C
:104D90003444E6B259FA84F16A79AD79FF2E08BF3E
:104DA0000121FF2C98BF21463944CCB259FA81F633
:104DB000FF2C08BF0126FF2998BF0E46B118CAB2C2
:104DC00059FA81F4FF2A08BF0124FF2998BF0C4635
:104DD0006119CAB259FA81F4FF2A08BF01240433C9
:104DE000FF2998BF0C460EEB03010431CCD1E1B290
:104DF0001A1DBCF1000FB1D0815C6718FEB2012111
:104E000051FA87F3FF2E08BF0123FF2F98BF3B46BF
:104E1000BCF1010F06D1D9B281F0FF00BDE8F0432B
:104E2000C0B27047104442781A44D3B251FA82F1AA
:104E3000FF2B08BF0121FF2A98BF1146BCF1020FCA
:104E400006D1C9B281F0FF00BDE8F043C0B270479F
:104E500080780844B0F5807FC1B2FFF47FAF0122B3
:104E6000FF2952FA80F108BF012181F0FF00BDE85F
:104E7000F043C0B270470000B0B52DED048B40F296
:104E8000A025C2F20005287800287DD0D5E90201CE
:104E900001F09EFA002873D001F0DCFD044601F019
:104EA0008DFD844203D0686840F0010068600420F2
:104EB00001F0ACFDB3EE0D8AB4EE480AF1EE10FA43
:104EC00020DCB3EE039AB4EE490AF1EE10FA19DBD6
:104ED000032001F09BFDB4EE480AF1EE10FA11DC5C
:104EE000B4EE490AF1EE10FA0CDB052001F08EFD5C
:104EF000B4EE480AF1EE10FA04DCB4EE490AF1EE21
:104F000010FA03DA686840F004006860002000F0DE
:104F10007BFB10EE100A00F0FF40B0F1FF4F0BD00A
:104F20009FED1F1AB4EE410AF1EE10FA1ADCB5EE4D
:104F3000400AF1EE10FA15DB012000F065FB10EEDF
:104F4000100A00F0FF40B0F1FF4F0FD09FED141A90
:104F5000B4EE410AF1EE10FA04DCB5EE400AF1EECF
:104F600010FA03DA686840F020006860686800F0B2
:104F7000250068604FF4027006F004FAC5E90201EA
:104F8000BDEC048BB0BD00BF43F6982006F0FAF9E3
:104F9000C5E9020101202870BDEC048BB0BD00BF43
:104FA0000000B44270B592B040F2F856C2F200066A
:104FB000706A07A9069006A8FBF73CFE40B1DDE940
:104FC0000B01032801F26C7304D21CA514E000BF8E
:104FD000002418E0C11E032902D219A50CE000BF6D
:104FE000811F032902D217A506E000BF093817A5C3
:104FF00015A1032838BF0D4603AC15A220460C218D
:105000000095FBF7AFFAB08D4AF6F411C0F6030134
:105010004AF60026CDE9000149F6C8504AF63B326F
:10502000C0F60306C2F20000C0F603028021234648
:105030000296FBF797FA12B070BD00BF490000005E
:105040004949000049494900495600005F000000F5
:105050002564202573000000F0B585B00E46497820
:105060001446A1F143020546BC2A4FF0040000F2A9
:10507000DF80DFE812F0CD00CD00CD00CD0084014F
:1050800084018401840184018401840184018401F8
:1050900084018401840184018401840184018401E8
:1050A00084018401840184018401840184018401D8
:1050B00084018401840184018401840184018401C8
:1050C00084018401840184018401840184018401B8
:1050D00084018401840184018401840184018401A8
:1050E0008401840184018401840184018401840198
:1050F0008401840184018401840184018401840188
:105100008401840184018401840184018401840177
:105110008401840184018401840184018401840167
:105120008401840184018401840184018401840157
:105130008401840184018401840184018401840147
:105140008401840184018401840184018401840137
:105150008401840184018401840184018401840127
:105160008401840184018401840184018401840117
:105170008401840184018401840184018401840107
:1051800084018401840184018401840184018401F7
:1051900084018401840184018401840184018401E7
:1051A00084018401840184018401840184018401D7
:1051B000EB00BD00C500D500BD00C500D500BD0099
:1051C000C500D500BD00C500BD00C5008401840137
:1051D00084018401840184018401840184018401A7
:1051E00084018401FF0039011301840184016101FC
:1051F000B21C2846234605B0BDE8F04001F08EBA47
:10520000B21C2846234605B0BDE8F04002F03ABC87
:10521000B21C2846234605B0BDE8F04001F0A0B915
:10522000B21C2846234605B0BDE8F04006F098BA07
:10523000072900F0A780062940F0A18021680220FC
:10524000122908BF0B2005B0F0BD00BF206802285E
:1052500040F0AE80B01C352103F028FFB01D2221A4
:1052600003F024FF06F10A00532103F01FFF0E2074
:105270009AE000BF2068062840F09A80B01C03F036
:1052800009FF41F23421C5F2AA51884250D10220CF
:105290002060284603F0DAF887E000BF20680A287B
:1052A00040F08680B01C03F0F5FE45F27861C1F253
:1052B000342101F1113188423AD1B01D03F0EAFEE8
:1052C0000021B1EB104F33D1FF2181EA1022C1B28E
:1052D0008A422DD100294FF0050050D0FF294ED031
:1052E000284605F0E9FF60E020680A2860D1B01C7C
:1052F00003F0D0FE45F27861C1F23421884217D123
:10530000B01D03F0C7FE01460020B0EB114F0FD1D6
:1053100001F0FE0009284FF0050030D8FF2282EA94
:105320001122C9B28A422AD1284606F079F83CE017
:10533000052005B0F0BD00BF2068022838D142F238
:105340000300C0F20100C6F8020040F21000C2F2F1
:105350000000056806362846FBF748FB0746421C56
:1053600030462946FBF761FB062010FA87F02060E3
:1053700049F64830C2F2000001210170FF2005B05B
:10538000F0BD00BF2068022812D101A801F07EFC08
:1053900001AB0BCB049AC6F802001220C6F80E200F
:1053A000C6F80A30C6F806102060FF2005B0F0BD30
:1053B000022005B0F0BD000010B546F20044C4F272
:1053C000020420460121202207F0D4F8012816D13A
:1053D00020460121202207F0B1F82046012107F0E4
:1053E0002FFA40F6084140F6C842C2F20001C2F26C
:1053F0000002002808BF1146084600F077FD20464D
:105400000121012207F0B6F8012818BF10BD20467F
:1054100001210122BDE8104007F090B810B546F216
:105420000044C4F2020405F077FF20460221202246
:1054300007F0A0F8012816D120460221202207F00B
:105440007DF82046022107F0FBF940F2887140F612
:105450008812C2F20001C2F20002002808BF114601
:10546000084600F07FFB20460221012207F082F867
:10547000012804D120460221012207F05FF8BDE88F
:10548000104004F05FBB000010B546F20044C4F2C7
:10549000020420460421202207F06CF8012816D1CE
:1054A00020460421202207F049F82046042107F075
:1054B000C7F940F2087140F24872C2F20001C2F22C
:1054C0000002002808BF1146084600F027FA2046CF
:1054D0000421012207F04EF8012818BF10BD204614
:1054E00004210122BDE8104007F028B801280DD89A
:1054F00040F2483100EB8002C2F2000101EBC2022F
:10550000126902F0FF42B2F1FF4F01D10020704753
:1055100000EB800001EBC000007E14288FBF01204B
:105520004FF6FC71C0F20F0121FA00F098BF00F0B5
:1055300001007047012884BF0020704740F2D0412D
:10554000C2F20001084400797047000040F2483080
:10555000C2F20000017E9FED1C0A012917D0142918
:1055600015D090ED041A9FED180A11EE101AB4EE42
:10557000401A01F0FF41F1EE10FAB0EE402AC8BF28
:10558000B0EE412AB1F1FF4F18BFB0EE420A90F8D9
:105590004010012916D0142908BF704790ED0E1A4B
:1055A000B0EE402A11EE100AB4EE401A00F0FF40AF
:1055B000F1EE10FAC8BFB0EE412AB0F1FF4F18BFAC
:1055C000B0EE420A704700BF000080FF40F2D041B9
:1055D000C2F200010A79824202D1002007E000BF36
:1055E000497981421CBF9FED070A7047012040F2B4
:1055F000483100EB8000C2F2000101EBC00090EDE9
:10560000040A7047EC9188C340F2483100EB8000F7
:10561000C2F2000101EBC000017E012906D014296D
:105620000CBF9FED050A90ED040A70479FED010A3B
:10563000704700BF000080FF0000807FF0B581B0A0
:1056400040F24836C2F20006307800EB800006EBEC
:10565000C004274617F8180F0238122800F21181EB
:10566000A7F11005DFE810F0F80022001400140084
:10567000340038004C005800640070007E00920036
:105680009600A000AE00C200CC00D600F20000BF21
:105690000DF1030003F058F9002800F0F7809DF8A1
:1056A00003001021002808BF1421E0E00DF10300E1
:1056B00003F04AF9002800F0E9809DF80300072173
:1056C000002808BF0221397040F0E080D9E000BF17
:1056D00003F098FB0421CAE0552004F8210F54F888
:1056E000080C54F8041CC4F80100C4F80510204646
:1056F000092103F0C7FA0221002818BF1221B6E0E1
:10570000442004F8210F2046012103F0BBFA0221B6
:10571000002818BF0921AAE004F12100002103F0AC
:1057200001F8002800F0B28040F28A209AE000BF21
:10573000D5E9000100F04CFE002800F0A78003F03E
:1057400055FB0B2193E000BF0DF1020003F0D8F8E8
:10575000002800F09B809DF80200002800F0808067
:10576000062184E0BE2004F8210F4FF0FF30C5F879
:105770001A00C5F81E0085F8220020460A2103F011
:1057800081FA0221002818BF0E2170E003F02EFBE1
:105790000F216CE004F121000A2102F0C3FF002870
:1057A00074D0132163E000BF0DF1020003F0A8F8EC
:1057B00000286BD09DF8020000285BD003F022FB8C
:1057C000052154E0552004F8210F54F8080C54F832
:1057D000041CC4F80100C4F805102046092103F098
:1057E00051FA0221002818BF112140E004F12100E4
:1057F000002102F097FF002848D00C2137E000BFBD
:1058000004F12100002102F08DFF00283ED0082184
:105810002DE000BF04F122052846082103F052FBC9
:1058200094F82A1088422AD194F8230029789FED11
:105830001B1A41EA002000B200EE100AB8EEC00ABE
:1058400020EE010A022084ED040A19E060694FF09D
:10585000FF410130C4E9041003F0D4FA032106E04B
:105860004FF4AF7005F08EFDC5E900010A213078D4
:1058700039700CE0D5E9000100F0AAFD30B1142028
:10588000387030780130307001E000BF3078C0B23D
:10589000022824BF0020307001B0F0BD0000803D20
:1058A000012888BF704740F2D042C2F20002104483
:1058B00001717047B0B503F075FB40F24835C2F294
:1058C000000500202C46002244F8190F0121CFF6D4
:1058D000807204F8011C606044F8092C84F82710D9
:1058E000E062A062C4F81F2003F052F8204603F0E3
:1058F00059F890B1687E282804BF0220287605F167
:10590000410003F04FF8002808BFB0BD95F84100F2
:10591000282804BF022085F84000B0BD2DE9F04FD3
:1059200089B040F2A03400230121C2F2000400BF7C
:10593000089104EB4301B1F808C030F8137004EB90
:105940008302674584BF0F81BC460C8A0792926B25
:10595000A74205923CBF0F823C4643F0020230F85A
:10596000122043F01A06624584BF0A819446A2427F
:105970003CBF0A821446049243F0040230F812201D
:10598000624584BF0A819446A2423CBF0A82144603
:10599000039243F0060230F81220624584BF0A8168
:1059A0009446A2423CBF0A821446029243F0080287
:1059B00030F81220624584BF0A819446A2423CBF5F
:1059C0000A821446019243F00A0230F8122062451E
:1059D00084BF0A819446A2423CBF0A8214460092C8
:1059E00043F00C0230F8128043F00E02E04584BF11
:1059F000A1F80880C4460697A0453CBFA1F81080D6
:105A0000444630F812E043F01002E64584BFA1F8A6
:105A100008E0F446A6453CBFA1F810E0744630F813
:105A2000129043F01202E14584BFA1F80890CC46E1
:105A3000A1453CBFA1F810904C4630F812A043F0AD
:105A40001402E24584BFA1F808A0D446A2453CBF99
:105A5000A1F810A0544630F812B043F01602E34506
:105A600084BFA1F808B0DC46A3453CBFA1F810B044
:105A70005C4630F8125043F01802654584BF0D8132
:105A8000AC46A5423CBF0D822C4630F8122043F0B4
:105A90001C07624584BF0A819446A2423CBF0A8229
:105AA000144630F8166043F01E03664584BF0E812D
:105AB000B446A6423CBF0E82344630F817706745A4
:105AC00084BF0F81BC46A7423CBF0F823C4630F8E2
:105AD0001330634588BF0B81A34238BF0B82DDE9D9
