:020000040800F2
:1000000088ED0020110300081D0300081F030008ED
:100010002103000823030008250300080000000056
:10002000000000000000000000000000270300089E
:1000300029030008000000002B0300081DEC000845
:100040002F0300082F0300082F0300082F030008C8
:100050002F0300082F0300082F0300082F030008B8
:100060002F0300082F0300082F0300082F030008A8
:100070002F0300082F0300082F0300082F03000898
:100080002F0300082F0300082F0300082F03000888
:100090002F0300082F0300082F0300082F03000878
:1000A0002F0300082F0300082F0300082F03000868
:1000B0002F0300082F0300082F0300082F03000858
:1000C0002F0300082F0300082F0300082F03000848
:1000D0002F0300082F030008F5F5000801F60008BB
:1000E0002F0300082F0300082F0300082F03000828
:1000F0002F0300082F0300082F0300082F03000818
:100100002F0300082F0300082F0300082F03000807
:1001100079F300082F0300082F0300082F030008BD
:100120002F03000839700008C17000082F03000871
:10013000517100082F0300082F0300082F03000847
:100140002F0300082F0300082F0300082F030008C7
:100150002F0300082F0300082F03000809F60008EA
:100160002F0300082F0300082F0300082F030008A7
:100170002F0300082F0300082F03000800000000D1
:100180002F0300082F0300082F03000899F300082D
:100190002F0300082F0300082F03000800000000B1
:1001A0002F0300082F0300082F03000800F002F8B7
:1001B00000F09EF80AA090E8000C82448344AAF163
:1001C0000107DA4501D100F093F8AFF2090EBAE861
:1001D0000F0013F0010F18BFFB1A43F0010318477B
:1001E0009CE80100BCE80100103A24BF78C878C13F
:1001F000FAD8520724BF30C830C144BF04680C602D
:10020000704700000023002400250026103A28BF74
:1002100078C1FBD8520728BF30C148BF0B60704778
:100220006E2900F09184702900F0ED8566291CF09C
:10023000528165291CF04F8167291CF04C8161298E
:100240001CF04B8103681B0A28BF41F0800169291B
:1002500000F03E84642900F03B84752900F0388466
:100260006F2900F07B85782900F0B985E92900F035
:100270001585E42900F01285F52900F00F85EF2996
:1002800000F07885F82900F0B8850368DB0928BFFD
:1002900041F08001632901F0E782732901F0EC82CB
:1002A000E32901F0F782F32901F0FC820020704776
:1002B0001FB51CF0FEF89DE8030000F071FB00F094
:1002C00081FE0400002000211BF01CFB401C60602C
:1002D000002000211BF02CFBE060AFF30080AFF3A7
:1002E000008001F0E7FA1FBD10B501F04CFB10BD16
:1002F00001F0AEFB1146FFF7DBFF18F09FFE01F0A7
:100300002BFE03B4FFF7F0FF03BC10F021F900004F
:100310000A4880470A4880470A480047FEE7FEE748
:10032000FEE7FEE7FEE7FEE7FEE7FEE7FEE7FEE7A5
:1003300005480649064A074B7047000035EC00089F
:10034000A5BF0008AD01000808AD002088ED002021
:1003500088AD002088AD0020704770B5064600F0DB
:1003600003FB056806F10B0020F00704B4429CBFB4
:10037000002070BD2B466A68BAB11068A04210D345
:1003800004F1080188423CBF5068586007D35168A7
:10039000101941601168091B016058601460101D3C
:1003A00070BD13465268002AE7D12146284600F066
:1003B000E3FA0028DED170BD70B50446051F00F0D9
:1003C000D3FA0068002C14BF446870BD002C18BF1D
:1003D000AC423CBF20466468F8D301680A18AA42C0
:1003E00018BF456003D12A6805461144016028689A
:1003F0004119A1421CBF6C6070BD616869602168D1
:100400000844286070BD53EA020C00F069802DE9B1
:10041000F04B4FF00006002B1FBFB3FA83F503FA31
:1004200005F424FA05F65E4012BF1643B2FA82F5CF
:1004300002FA05F4C5F120051EBF22FA05FC44EAC4
:100440000C04203556EA044C4FEA144418BF641CCF
:100450004FF000084FF00009904271EB030C39D3C4
:10046000002919BFB1FA81F701FA07F6B0FA80F74F
:1004700000FA07F6C7F120071EBF20FA07FC46EA7C
:100480000C062037B6FBF4FCA7EB0507103F07F07E
:100490001F0BCBF120062CFA06F60CFA0BFB44BF1F
:1004A000B3460026202FA4BF5E464FF0000B5BEA48
:1004B000060C08BF4FF0010B19EB0B0948EB0608BF
:1004C000ABFB027C06FB02CC0BFB03CCC01B71EB2D
:1004D0000C01C1E70B46024641464846BDE8F08B99
:1004E00013B5084318BF4FF0FF300146AFF300804B
:1004F000BDE81C40704710B5044600F02DFA0068B6
:10050000005D000704D5DF2C02D0A4F1200010BD4F
:10051000204610BD0FB4044910B503AA029800F09C
:100520004DFB10BC5DF814FB540200200A46014943
:1005300000F044BB540200200FB41CB5084B06AABF
:100540007B4469460090059800F017FB04460020A4
:10055000694600F025FB20461CBC5DF814FB00003A
:100560005D0600000FB47CB50C0009AA009001D014
:100570002044401E084B7B4469460190089800F0D7
:10058000FCFA05461CB10020694600F009FB28462C
:100590007CBC5DF814FB0000310600000EB505467A
:1005A00014460E4613A001F095FE284601F092FE77
:1005B00016A001F08FFE304601F08CFE15A001F070
:1005C00089FE00218DF80B100A210DF10A008DF82B
:1005D0000A1008E094FBF1F201FB124294FBF1F4E3
:1005E000303200F8012D002CF4DC01F073FE00F035
:1005F000D9FC00002A2A2A20617373657274696F1E
:100600006E206661696C65643A2000002C20666982
:100610006C6520002C206C696E65200030B50346A7
:100620001D781DB10A4603E0AC4201D1181A30BD55
:1006300012F8014B002CF7D15B1CF1E730B50346F3
:100640001D783DB10A4612F8014B1CB1AC42FAD1FB
:100650005B1CF5E7181A30BD40EA010310B59B0793
:100660000FD1042A0DD310C808C9121F9C42F8D01C
:1006700020BA19BA884201D9012010BD4FF0FF30CD
:1006800010BD1AB1D30703D0521C07E0002010BDE3
:1006900010F8013B11F8014B1B1B07D110F8013B6F
:1006A00011F8014B1B1B01D1921EF1D1184610BD50
:1006B000032A40F2308010F0030C00F0158011F88E
:1006C000013BBCF1020F624498BF11F801CB00F866
:1006D000013B38BF11F8013BA2F1040298BF00F8BA
:1006E00001CB38BF00F8013B11F0030300F0258077
:1006F000083AC0F0088051F8043B083A51F804CB9E
:10070000A0E80810F5E7121D5CBF51F8043B40F863
:10071000043BAFF30080D20724BF11F8013B11F86E
:1007200001CB48BF11F8012B24BF00F8013B00F8B2
:1007300001CB48BF00F8012B704710B5203AC0F03C
:100740000B80B1E81850A0E81850B1E81850A0E8A4
:100750001850203ABFF4F5AF5FEA027C24BFB1E83D
:100760001850A0E8185044BF18C918C0BDE8104080
:100770005FEA827C24BF51F8043B40F8043B08BF89
:100780007047D20728BF31F8023B48BF11F8012B50
:1007900028BF20F8023B48BF00F8012B704702F049
:1007A000FF0343EA032242EA024200F002B84FF09C
:1007B00000020429C0F0128010F0030C00F01B802E
:1007C000CCF1040CBCF1020F18BF00F8012BA8BF3C
:1007D00020F8022BA1EB0C0100F00DB85FEAC17C00
:1007E00024BF00F8012B00F8012B48BF00F8012BB3
:1007F00070474FF0000200B51346944696462039E4
:1008000022BFA0E80C50A0E80C50B1F12001BFF4C9
:10081000F7AF090728BFA0E80C5048BF0CC05DF82F
:1008200004EB890028BF40F8042B08BF704748BF7D
:1008300020F8022B11F0804F18BF00F8012B7047F1
:1008400010B5044610F0030F08BF11F0030F40F07D
:1008500015804FF0013E121FC0F20E8051F8043B8C
:10086000A3EB0E0C2CEA030C1CEACE1C08BF40F8CC
:10087000043BF0D0A1F1040102F10402521E08DB96
:1008800011F8013B00F8013B002BF7D11146FFF7AF
:100890008EFF204610BD000070B50C460168002098
:1008A0004A1C3ED03C22B1FBF2F302FB1313B1FB16
:1008B000F2F12360B1FBF2F302FB1313B1FBF2F18F
:1008C00018226360B1FBF2F302FB1313B1FBF2F1E8
:1008D00046F2E0320A440721A360B2FBF1F301FBC8
:1008E000132140F2B553B2FBF3F5A161B2FBF3F172
:1008F00003FB15228900B2F5B77F08D39B10521E67
:10090000B2FBF3F52944B2FBF3F503FB15220F4BC1
:10091000E261616189077B440CD03B2A0AD3521CF7
:1009200008E02C212046FFF764FF0120E0600AE088
:10093000521A401C195C9142FAD9521CC4E9032096
:100940004FF0FF302062204670BD000007BC010060
:10095000704770477047704710B500F033FB001DBB
:1009600010BD00BFA1AF0100004870470403002084
:10097000704770477047704738B504460A460020F4
:100980006946AFF30080002808BF38BD02460099D1
:10099000204600F01BFB012038BD012001F051B8BA
:1009A000F8B5AFF30080054600200C46102000BFCC
:1009B0000646A819A0420DD9324669460020AFF379
:1009C0000080070008BF01F03CF80098A04218BF63
:1009D0000546C419FFF7C8FF05600746F01D20F063
:1009E00007004619284600F00AF8B44208BFF8BDCF
:1009F000A21B31463868BDE8F84000F0E7BA002194
:100A00000160C0E9011070471020704770B50446BE
:100A100085690068C10601D5302600E02026C007A0
:100A200007D070BDD4E9012130469047206A401CB0
:100A300020626D1EF6D570BD70B5044685690078DC
:100A4000C00707D170BDD4E9012120209047206A5A
:100A5000401C20626D1EF6D570BD09684A0501D59F
:100A600040B27047C905FCD500B2704709684A0515
:100A700001D5C0B27047C905FCD580B2704770B5CA
:100A80000C460546012A05D02878800600D5EA697B
:100A9000002302E0012305E05B1C934202D2E05CEC
:100AA0000028F9D1A869E618C01AA861286A184474
:100AB00028622846FFF7AAFF04E0D5E9012114F8CF
:100AC000010B9047B442F8D32846FFF7B5FF70BD3D
:100AD0002DE9F0410646002410687529314616A517
:100AE00010D0FFF7BAFF002802DA404213A507E052
:100AF00031688A0701D512A502E0490704D511A57E
:100B0000012401E0FFF7B2FF00210A2206F12407C9
:100B100009E0B0FBF2FCB0FBF2F302FB1C0030304A
:100B200078541846491C0028F3D123462A463046FB
:100B3000BDE8F04100F0A9BA000000002D0000005F
:100B40002B0000002000000011680268006A5305B5
:100B500001D508700AE0D30501D5088006E0130628
:100B600003D5C217C1E9000200E008600120704708
:100B700001694A1C02610878704700B58FB0CDE961
:100B800001310021059105497944CDE90310114651
:100B9000684600F043F90FB000BD0000E5FFFFFF1D
:100BA0000A6802F8010B0A607047D1E900239A42F3
:100BB00002D2531C0B60107070470000074B70B5D9
:100BC0000D467B44FFF7D9FF0446284600F06EFE31
:100BD00010B14FF0FF3070BD204670BD25AD010053
:100BE0002DE9FF5F15468A460446DFF8AC80F844DD
:100BF0000027D8E900103E46CDE9001010E03AF891
:100C000016106A4602A800F0F1FE411C07D02178B8
:100C1000890603D5E269391891420DD80744761C3C
:100C20002078800602D5E069B84205DDAE42E6DBF9
:100C30003AF816000028E2D1A069C01BA061204646
:100C4000FFF7E4FED8E90010CDE90010002017E01E
:100C50003AF818106A4602A800F0C8FEB0F1FF3F4B
:100C600081460BD000250DF1080B05E0D4E90121E8
:100C70001BF8050090476D1C4D45F7D308F10100A6
:100C8000B0428046E4DB206A384420622046FFF709
:100C9000D3FEBDE8FF9F0000EEB801002DE9F04152
:100CA0008046D21D22F007020025D2E90002F52974
:100CB00015A614D0011E72F1000106DA0023D0EB54
:100CC000030063EB020211A608E0D8F800108B07BE
:100CD00001D50FA602E0490701D50EA60125114650
:100CE000002408F1240704E000F08AF930323A5574
:100CF000641C50EA0102F7D12B4632462146404699
:100D0000BDE8F04100F0C1B9000000002D00000076
:100D10002B0000002000000030B4002100F124046A
:100D200008E002F00705D208303542EA4372DB08DA
:100D30006554491C52EA0305F3D10468002310A24C
:100D4000250708D504F020040C4304D0C46901230E
:100D50000CA2641EC46130BC00F097B910B5044603
:100D600021461068FFF782FE02462046BDE810408B
:100D70000023D1E7D21D22F00701D1E90023CBE700
:100D80000000000030000000F0B40D4601880905A5
:100D900002D5214C7C4402E01F4C7C440E340021DF
:100DA00000F1240608E002F00F071209E75D42EAAD
:100DB00003721B097754491C52EA0307F3D10278E6
:100DC0000023120704D5702D06D009B10223113477
:100DD0002246F0BC00F059B901231034F8E770B591
:100DE00004460D4621461068FFF740FE024629469C
:100DF0002046BDE870400023C6E7D21D22F007035D
:100E0000D3E90023C0E70368126843F020030360BE
:100E10000823C3610023B7E750B701002DE9F05F55
:100E2000894604464FF0000ADFF874B1FB44C0F86D
:100E300020A02046E1688847002874D0252806D0E5
:100E4000D4E901219047206A401C2062F1E7002686
:100E50005F462046E16888472028054607DB312D9C
:100E600005D2781910F8200C08B10643F1E7B00755
:100E700001D526F00406C4F81CA00027C4F818A069
:100E80002A2D09D028461AF029FD38B304EB87082B
:100E9000303DC8F8185019E059F8041B204604EBFF
:100EA00087029161E1688847012F054618D1E06902
:100EB000002820DA26F020061DE0D8F8180000EB04
:100EC000800005EB40003038C8F818002046E16883
:100ED000884705461AF002FD0028EED1012F0AD0FE
:100EE0002E2D08D12046E16888477F1C0546022F39
:100EF00046F02006C4DBA069002803DA404246F031
:100F00000106A061F00701D026F010066C2D0BD071
:100F1000682D09D04C2D39D06A2D35D0742D35D09F
:100F20007A2D33D016E038E0E1682F462046884716
:100F3000B842054609D16C2F26D04FF48060E16895
:100F4000064320468847054604E06C2F1AD04FF42C
:100F5000807006430DB3A5F14100192802D8203551
:100F600046F400664A462946204626604E46FFF76C
:100F700057F980B101280BD0F61D26F0070000F1CB
:100F8000080956E74020E4E78020D8E70020D6E7AC
:100F900006F104094DE7284652E7206ABDE8F09FB4
:100FA000E0B6010010B5002000F044FDFFF79CF909
:100FB000BDE8104001200FF0CBBA00000048704798
:100FC000FC020020004870471C03002003464068D4
:100FD0008C46002818BF88423CBF03464068F8D3BF
:100FE00018681844884207D00CF1030020F007006D
:100FF000001D411A521A0146081D0A60FFF7DCB9AC
:1010000030B5B0F10A0271F100034FEA900E4EEADA
:10101000817EB0EB0E0061EB91014FEA101E4EEAAB
:10102000017E10EB0E0041EB11114FEA102E4EEA3B
:10103000016E10EB0E0041EB11214FEA104E4EEA0B
:10104000014E10EB0E0041EB1141401841F100013F
:101050004FEAD00040EA41704FEAD1014FEA8104E3
:1010600044EA907410EB800544EB01046D1944EBE5
:101070000404521BA3414FF0000348BF0A3200D5BD
:1010800030BD401C41F1000130BD2DE9F0470D4657
:1010900099469246044600F124080168880604D562
:1010A000E06921F01001216000E00120A84201DD8B
:1010B000471B00E00027A1697A1902EB0900081A12
:1010C000A0612078C00602D42046FFF79FFC0026CE
:1010D00008E0D4E901211AF806009047206A401C74
:1010E000761C20624E45F4DB2078C0060AD52046E7
:1010F000FFF78CFC06E0D4E9012130209047206AFC
:10110000401C2062381EA7F10107F4DC07E0D4E997
:10111000012118F805009047206A401C2062281E13
:10112000A5F10105F3DC2046FFF786FC20780006D8
:1011300002D50220BDE8F0870120FBE72DE9FF4F33
:101140000C461E464FF0FF378BB0D2E90001DDF8A8
:1011500060800A908A46C1F30A5505B93D460021D0
:1011600008464FF00000BAF1000F00F4400005DA25
:1011700000EB80004FF4400101EA50004FEA905923
:10118000B9F1010F00DDB9460A9850EA4A000ED0C5
:1011900044F61050A5F2FF3545432F14B8F1000F67
:1011A0001ED07542291E1EDDC9F100021CE0B8F1F7
:1011B000010F4FF0000001D0302103E0F24305E0C1
:1011C0002154401CB042FBDB304600220021215458
:1011D0000B99C1F80880C1E900200FB0BDE8F08F7D
:1011E000BD1B6D1CDEE74A4600DA694206A800F026
:1011F00095FC06AB93E8070003AB83E80700504675
:101200000A9919F08AFF8DE80700A0F500501F38F1
:1012100000900398002D0ADD42F21F014A4608445F
:10122000002303A9039068461AF0F4F909E0A0F539
:1012300000504A461F38002303A9039068461AF05D
:10124000FEF98DE807000004000C03D04FF0FF30DA
:10125000410800E01046B8F1000F03D000220092D0
:1012600015461EE0751E05D4FFF7CAFE30326255E2
:101270006D1EF9D5B3460122084302D000227F1C1F
:1012800004E02078302801D100227F1E002A09972F
:1012900084D01DE0112D07DAFFF7B2FE303262551F
:1012A0006D1C50EA0102F5D1084302D00098C8B184
:1012B0000EE00021681E05E0235C625C635422544A
:1012C000401E491C8142F7DBAB46A81B401E09901B
:1012D000002004F80B000B98099AC0F80880C0E9B8
:1012E000002B7AE711264FF0000857E72DE9F04F61
:1012F00088460446D21D22F0070191B0D1E90001D1
:10130000CDE90A011AF0D2FA02460B98C00F01D0BB
:101310002D2007E02068810701D52B2002E0202145
:1013200001EAC000032A099001D0072A05DB034621
:101330004146204600F0B2FB0BE12078800601D543
:10134000E06900E00620B8F1650F814606D0B8F1EB
:10135000660F18D0B8F1670F70D131E00020B9F1F5
:10136000110F009001DB112301E009F101030AAA2A
:1013700001A90CA8FFF7E2FEDDE90C70002609F1D7
:101380000105834647E001204B4600904FF000479F
:101390000AAA01A90CA8FFF7D1FEDDE90DB00C994E
:1013A0005D46002610B909F101000D18B9EB0500E2
:1013B00003D4C0F1FF3609F10105A5EB09002BE0CC
:1013C000B9F1010F01DA4FF001090020B9F1110F55
:1013D0000090484601DD112300E003460AAA01A956
:1013E0000CA8FFF7ABFEDDE90C704D4600268346E6
:1013F000207800070AD4AB4500DA5D4601A8012D2C
:1014000004DD411911F8011C302907D04F4502DADB
:1014100017F1040F04DA012082460FE06D1EEEE79B
:10142000002F02DCED1B3E4403E0781CA84200DDE7
:101430007D1CB81B00F1010A4FF00047207800071F
:1014400003D4AA4501DB4FF0FF3A0021B7F1004F6A
:101450000DF143088DF8431024D002202B23002FD8
:1014600001DA7F422D230A21021EA0F1010000DCD7
:101470005FB197FBF1FC97FBF1F201FB1C7C174677
:101480000CF1300C08F801CDEEE7A8F10100037073
:101490002188090501D5452100E06521A0F1010859
:1014A00000F8011C09980FA9A1EB0807FF1D00B166
:1014B0000120411901EBEA70A1693844081A401E65
:1014C000A0612078C00602D42046FFF79FFA099851
:1014D00028B1D4E901219047206A401C206220787D
:1014E000C00622D52046FFF791FA1EE0002E04DB4D
:1014F000B34502DD01A8805D00E03020D4E9012180
:101500009047206A401C2062761CAAF101005FEA25
:10151000000A0AD1FFF756FDC0680168405CD4E9B3
:1015200001219047206A401C2062281EA5F1010578
:10153000DCDC07E0D4E9012118F8010B9047206AB0
:10154000401C2062381EA7F10107F3DC2046FFF79C
:1015500073FA032011B041E62DE9F04F04460D4621
:10156000D21D22F0070089B0D0E9009748463946DD
:101570001AF09CF90246F80F01D02D2307E02068ED
:10158000810701D52B2302E0202101EAC0038DF859
:1015900020300BB1012000E00020032A824601D058
:1015A000072A04DB2946204600F078FA3FE120783C
:1015B000800601D40D2500E0E569C7F30A560D2D1C
:1015C00049DA00214FEA175B08464FF00000002F70
:1015D00000F4400007DA00EB80004FF4400100EB1C
:1015E000D07001EA60008115012901DD4FF0FF3163
:1015F00000224FEA850CBCF1180F06D31346ACF15C
:1016000018004FF08052C24003E04FF4801323FAD9
:101610000CF30CF10C0CBCF1200F04D3ACF1200C3A
:1016200009FA0CF001E007FA0CF000294FF000482D
:1016300001DD18B90FE00ED140450CD319EB0209BA
:101640005F4121B9404502D19F4329EA0209BBEB22
:10165000175F00D0761C2088000502D57B487844AF
:1016600002E07A487844193808AA302302F80A3090
:10167000037C0AF10101002E0AF1020A53546A4662
:1016800002DC4FF0300101E04FF031014FF0010872
:101690008DF8001002D0A6F2FF3603E059EA4701A8
:1016A00000D06B4E002D02DC2178090704D54FF0E5
:1016B00002082E218DF80110C44600210BE0C7F36B
:1016C00003433F01C35C491C6D1E02F80830052925
:1016D00008F1010801DA002DF1DC00210CE000EB3B
:1016E0001973491C1B786D1E082902F808304FEA4F
:1016F000091908F1010801DA002DF0DC21688B06D8
:1017000002D516E0A8F10108E04505DD02EB08036B
:1017100013F8013C302BF5D0B8F1000F09DD02EBD6
:10172000080313F8013C2E2B03D1090701D4A8F1BB
:101730000108002D05DD3E2102F808106D1E08F19C
:101740000108407C002E02F8080008F1010804DAC4
:101750002D20764202F8080002E02B2002F8080053
:101760000A214FF47A70864208F101080BDB96FBE0
:10177000F0F3303302F8083096FBF0F308F101087B
:1017800000FB136601E0642E0CDB642096FBF0F393
:10179000303302F8083096FBF0F308F1010800FB43
:1017A000136601E00A2E06DB96FBF1F0303002F8FA
:1017B000080008F1010896FBF1F001FB10603030E1
:1017C00002F80800A16908F1010808EB050202EB24
:1017D0000A00081AA0612078C00602D42046FFF74C
:1017E00015F9216A08AE01EB0A00206204E0D4E991
:1017F000012116F8010B9047BAF1010AF7D22078BF
:10180000C00602D52046FFF701F96E4609E016F83A
:10181000010B3E280FD0D4E901219047206A401CDB
:101820002062B8F10108F2D22046FFF705F909B0AD
:101830000320BDE8F08F206A2844206203E0D4E949
:101840000121302090476D1EEBD3F8E7DEAE01009A
:1018500002FCFFFF10B5436913B1AFF3008001E054
:10186000FFF70DF9012010BD127800F124010A7074
:1018700000224A700122EDE711684FF0FF32E9E7DC
:1018800010B5436913B1AFF3008001E0FFF7A8F989
:10189000012010BD128800F1240182840022C2843C
:1018A0000122EDE711684FF0FF32E9E7007B00F01D
:1018B0008000704710B542485421FEF79AFF414816
:1018C0005421FEF796FF40485421FEF792FF3F490E
:1018D0003B483C4A3F4B08603D490A603A49196021
:1018E000531C0365481C1065012008653B48344AB9
:1018F00039A1784400F092FA20B9384878440A387F
:1019000000F050FB37482F4A35A1784400F086FAA2
:1019100020B9344878440A3800F044FB32482A4A57
:101920002FA1784400F07AFA20B92F4878440A3879
:1019300000F038FB40232248DC000021224600F062
:101940004AFA20B125487844543800F02BFB1D4852
:1019500022464023002100F03EFA20B1214878447D
:10196000543800F01FFB184822461023002100F0D5
:1019700032FA002806D01C487844BDE8104056389A
:1019800000F010BB10BD104870B5006D20F00104D0
:101990000B4800F0BBFA0B4800F0B8FA0A4800F018
:1019A000B5FA09E0206D20F00105204600F0AEFAFE
:1019B0002046FEF701FD2C46002CF3D170BD00003F
:1019C0000002002054020020A80200200000002095
:1019D00004000020080000207200000048AF010051
:1019E0007700000034AF010014AF01002DE9F04191
:1019F00016460C460546FEF7AFFF036893F8010153
:101A0000012807D0FF2C12D8185D80B101202C705E
:101A1000BDE8F081D3F807013246214603F20713EF
:101A2000C7182846BC46BDE8F041002360474FF088
:101A3000FF30EDE710B500F09DFABDE8104000F072
:101A400094BA10B500F0B6FABDE8104000F08DBAB7
:101A50007546FFF7B3FAAE4605006946534620F0D7
:101A60000700854618B020B5FEF762FCBDE82040AF
:101A70004FF000064FF000074FF000084FF0000B4A
:101A8000AC46ACE8C009ACE8C009ACE8C009ACE8B9
:101A9000C00921F007018D46704700002DE9F04193
:101AA0001F46044603260168072A01F4006004DB90
:101AB00008B116A505E016A503E008B115A500E0DC
:101AC00015A521F010002060A069C01EA0610FB113
:101AD000401EA0612046FEF799FF4FB1D4E90121D5
:101AE00038469047206A401C2062C01C206206E0F5
:101AF000206AFAE7D4E9012115F8010B9047761E18
:101B0000F8D22046FEF798FFBDE8F0814E414E0026
:101B10006E616E00494E4600696E66002DE9F04721
:101B2000814616468AB0354878440DC88DE80D00C8
:101B300032487844801C03AC0DC884E80D0041F69F
:101B40009B300844372190FBF1F290FBF1F5A5F1B1
:101B5000800501FB12041B3C02D56442012000E019
:101B60000020DFF898A080460027FA44AAF1BE0AB8
:101B70000EE0E0070AD03246684607EB4701012332
:101B80000AEB810119F05BFD8DE8070064107F1CF2
:101B9000002CEED1194F7F44AE3F19E0E80715D075
:101BA00007EB04100DF1180A90E80E008AE80E0009
:101BB000C068F04201D1981908903246012306A965
:101BC00003A819F03CFD03AB83E807006D10641C0B
:101BD000002DE3D14FF0010332466946B8F1000F02
:101BE00003A802D019F016FD01E019F028FDC9E99B
:101BF0000001C9F808200AB0BDE8F087A4AA0100D6
:101C00002DE9F04705460C46C86820F4201040F442
:101C10008000C860800602D5084600F006FBE06838
:101C200041F282014FF0FF390140022903D02046E2
:101C300000F0A4FAB5E000F42041B1F5004F0FD157
:101C4000C00306D56168E06A884200D80846606033
:101C500006E02069E062606060690EF07DFCA061D2
:101C6000A0680022EEB200280DDAE1688B050AD4E4
:101C7000C043A06041F490302260E0606068411C85
:101C800061600670A5E0E0689046226040F4005074
:101C9000E060206968BB60690EF064FC012704F114
:101CA0002405A0B1A08910F4407F08D0E069FEF7B8
:101CB00054FB206118B1E06840F4006016E0E76171
:101CC0002561E06820F4407040F480600EE0E06937
:101CD000FEF743FB00282061F1D0E06840F400608B
:101CE00010F4407FE06002D140F48070E060206931
:101CF0006060E06825696FF0010AC1051FD5616861
:101D0000E06A884200D80846411B04D02246284693
:101D100000F03EFAF0BBE068010203D5E562C4E9D9
:101D2000015854E0691CE1626160E16940F480306F
:101D3000491EC4E9021030462E70BDE8F08701024A
:101D400002D500F480320AE06068411C61600670D0
:101D5000E0680A2E40F48030E06006D00022E16A9C
:101D60006068814203D90B4602E00122F7E703468F
:101D7000A7895B1B7F0503D4E7699F4200DDE2B1C1
:101D8000814200D80146E5620F1AC4E90158002BD0
:101D900009DD00E005E022461946284600F0F8F982
:101DA00008B14846C9E747B1A069E5626560C01B54
:101DB000A061E06840F01000E060E068000208D533
:101DC0006168A069E562491B08446560A0615046EE
:101DD000B3E73046B1E770B5C468A50713D0650214
:101DE00011D4B2F5807F09D0B2F5007F06D0B2F5EC
:101DF000806F08D1012300F1240106E05D1E6FF021
:101E00007F46B54201D3012070BD0161C3614160CD
:101E100024F470611143C160002070BD2DE9F041D0
:101E20000C461646070047D0104600F06FF82078A1
:101E3000611C61280AD0722802D077283CD102E0C8
:101E40000125002405E00225042402E0082448F2CC
:101E5000020511F8010B2B2806D0622809D011F8D1
:101E6000010C74280AD00BE045F0030544F002048D
:101E7000EFE745F0040544F00104EAE744F01004FC
:101E8000384621460EF074FB411C15D0002131610B
:101E900071604FF40071F560F1617061200704D545
:101EA00030460222002100F0EDF8306D40F00100D4
:101EB00030653046BDE8F0810020FBE72DE9F041B8
:101EC0000D460646104C206DC10704D0410804D0D1
:101ED00020F00104F7E722460EE05420FEF73DFA19
:101EE00007000ED0206D47F0010108435421206502
:101EF0003846FEF77EFC3A4629463046BDE8F041BA
:101F00008CE70020D6E70000000200202DE9F04712
:101F100004464FF000094FF0FF37C568D4E9048646
:101F2000A80707D0204600F05DF930460EF00AFB06
:101F3000002802DA3846BDE8F087280502D5404679
:101F4000FEF73AFA4C212046FEF753FC206D20F0B4
:101F5000010020654846EEE710B50446AFF3008067
:101F60002046BDE81040FEF7CCB9002801D00EF0A5
:101F7000EFBA704710B5002102A000F077F90120F8
:101F800010BD0000534947414252543A2041626E0D
:101F90006F726D616C207465726D696E6174696FCA
:101FA0006E00000010B500F07BF9BDE81040FFF7AF
:101FB000DCBF000010B5012805D0002103A000F00F
:101FC00055F9012010BD09A1F8E700005349475217
:101FD000544D454D3A204F7574206F6620686561F9
:101FE00070206D656D6F7279000000003A204865C1
:101FF0006170206D656D6F727920636F727275709C
:10200000746564000000000030B44FF0013C50F8EB
:10201000042B51F8043BCCFA52F4D51A20D1FCB968
:1020200050F8042B51F8043BCCFA52F4D51A17D1CE
:10203000B4B950F8042B51F8043BCCFA52F4D51A39
:102040000ED16CB950F8042B51F8043BCCFA52F481
:10205000D51A05D1002CDAD030BC4FF00000704703
:1020600029BAB1FA81F111F01801D1F120008440B0
:10207000F2D1CA40CB4012F0FF0213F0FF0330BC94
:10208000D01A70472DE9F041044616460D464769BF
:10209000007B80072ED038460EF064FA50BB3EB36A
:1020A000012E02D0022E25D104E0204600F061F975
:1020B00005441DE038460EF04FFAE168002841F073
:1020C0001001E16005DA204600F058F80120BDE873
:1020D000F081C9030BD56268E16A914200D81146CC
:1020E000A26911442269891A814200DD084605442B
:1020F000002D01DA0220EAE7E16A6068E2688142C5
:1021000006D29103E06203D522F4003141F01002BF
:10211000A6690027AE4213DCE16A814201D90B4671
:1021200000E0034603EB060C2369ACEB030CAC4563
:1021300006DD814201D98C4600E084469C4505D1EC
:10214000A760276042F02000A5620DE0AD1BE669A4
:10215000AE1B8142A66000D90846C01A281A20602A
:102160005819606022F0200003490840E060002018
:1021700084F84870ABE70000BFCFD7FFC16821F4F7
:10218000001141F08001C160002181600160704751
:102190002DE9F047814614460E464FF0FF3832488D
:1021A000D5685769054209D03846A1690EF0E6F9AD
:1021B000002811DB2C48C0430540E5602B46324621
:1021C000494638460EF0E2F9A16920F00042B21A01
:1021D00011440028A16103D02046FFF7CFFF4046FD
:1021E000BDE8F08770B504460569C06A6168884239
:1021F00000D80846E16821F42011E160C90312D536
:10220000A84208D02246411B2846FFF7C1FF10B163
:102210004FF0FF3070BD0020E562C4E90150E06876
:1022200020F48030E060002070BD10B50446C06826
:1022300020F02000E060A16AA06988420DD020460D
:10224000FFF7D0FFE06820F4405040F01000E0605D
:10225000A06AA0612069E062606044F24001E06829
:102260008843E06010BD00001000020070B5054614
:102270000C460A2000E06D1C0EF090F935B128786C
:102280000028F8D102E0641C0EF088F914B120781F
:102290000028F8D1BDE870400A200EF07FB9000098
:1022A00010B5014602A0FFF7E1FF012010BD0000BC
:1022B00053494752545245443A2052656469726505
:1022C00063743A2063616E2774206F70656E3A20E4
:1022D0000000000010B5044900F03AF8BDE81040D5
:1022E000014800F01EB80000A802002070B50446A6
:1022F000C068810713D0800601D5A56A04E0A169F2
:10230000606808442169451A2046FFF76BFF0022E8
:10231000064629462046FFF7B5FE304670BD002030
:1023200070BD70B510B1BDE87040DFE70025074C07
:102330006E1E07E02046FFF7D9FF00B13546206D3D
:1023400020F00104002CF5D1284670BD00020020C9
:1023500070B50D46044604E0294619F0C6FA401C43
:1023600004D014F8010B0028F6D170BD4FF0FF30F7
:1023700070BD10B50146C268900703D0900607D51E
:10238000886A0AE000F016F801210160881E10BD7D
:102390008B69486818440B69C01A91F848301BB122
:1023A00091F84910401A10BD1103FCD50028FADD40
:1023B000401E10BD00487047FC02002080B5A0B050
:1023C0008DF87F001E91FF208DF877001E984CF647
:1023D000AC71C0F601011B918022FEF731FA1B9906
:1023E0001E98803010221A92FEF72AFA1A9A1B9928
:1023F0001E989030FEF724FA1B991E98A0302022D8
:10240000FEF71EFA1E98D0304CF68821C0F6010166
:102410000422FEF715FA1E990020C1F8C0001E998B
:10242000C1F8C4001E99C1F8C8001E99C1F8CC00BB
:102430009DF97F0001461C91342800F2CE841C993E
:10244000DFE811F035006A009F00D30035006A0014
:102450009F00D30035006A009F00D30035006A005A
:102460009F00D30035006A009F00D30035006A004A
:102470009F00D30035006A009F00D30035006A003A
:102480009F00D3000701350163019101BF01ED01F8
:102490001B0249027702A502D30201032F035D0349
:1024A0008B03B903E7031504430471049F041E98CA
:1024B0009DF97F108B104CF6D432C0F601028021BA
:1024C000FEF750F81E9880304CF68B21C0F60101C3
:1024D00010221992FEF7B4F9199A1E9890304DF215
:1024E000BE61C0F60101FEF7ABF91E98A0309DF960
:1024F0007F108B104CF6B332C0F601022021FEF79C
:1025000031F81E990020C1F8C0001E994FF0BF405D
:10251000C1F8C40000F065BC1E989DF97F108B10B7
:102520004CF6C132C0F601028021FEF71BF81E985E
:1025300080304CF68B21C0F6010110221892FEF774
:102540007FF9189A1E9890304DF2BE61C0F60101D5
:10255000FEF776F91E98A0309DF97F108B104CF68F
:10256000A532C0F601022021FDF7FCFF1E990020D4
:10257000C1F8C0001E994FF0BF40C1F8C40000F080
:1025800030BC1E989DF97F108B104CF69232C0F62D
:1025900001028021FDF7E6FF1E9880304CF68B216A
:1025A000C0F6010110221792FEF74AF9179A1E98F9
:1025B00090304DF2BE61C0F60101FEF741F91E9860
:1025C000A0309DF97F108B104CF67132C0F60102DD
:1025D0002021FDF7C7FF1E990020C1F8C0001E99F9
:1025E0004FF0BF40C1F8C400FBE31E989DF97F1077
:1025F0008B104CF67F32C0F601028021FDF7B2FF4E
:102600001E9880304CF68B21C0F6010110221692E4
:10261000FEF716F9169A1E9890304DF2BE61C0F67C
:102620000101FEF70DF91E98A0309DF97F108B1067
:102630004CF66332C0F601022021FDF793FF1E998C
:102640000020C1F8C0001E994FF0BF40C1F8C4007F
:10265000C7E31E984CF67321C0F601018022FEF7F5
:10266000EFF81E9880304CF6AC71C0F601011022D4
:102670001592FEF7E5F8159A1E9890304DF2BE615E
:10268000C0F60101FEF7DCF81E98A0304CF64E2192
:10269000C0F601012022FEF7D3F81E990020C1F8F0
:1026A000C0001E994FF0BF40C1F8C40099E31E98C6
:1026B0004CF65E21C0F601018022FEF7C1F81E989B
:1026C00080304CF6AC71C0F6010110221492FEF776
:1026D000B7F8149A1E9890304DF2BE61C0F6010111
:1026E000FEF7AEF81E98A0304CF63E21C0F6010170
:1026F0002022FEF7A5F81E990020C1F8C0001E99FF
:102700004FF0BF40C1F8C4006BE31E984CF609318E
:10271000C0F601018022FEF793F81E9880304CF637
:10272000AC71C0F6010110221392FEF789F8139ADA
:102730001E9890304DF2BE61C0F60101FEF780F8A0
:102740001E98A0304CF6E621C0F601012022FEF7CB
:1027500077F81E990020C1F8C0001E994FF0BF40C5
:10276000C1F8C4003DE31E984CF6F521C0F6010106
:102770008022FEF765F81E9880304CF6AC71C0F6EA
:10278000010110221292FEF75BF8129A1E98903007
:102790004DF2BE61C0F60101FEF752F81E98A0305E
:1027A0004CF6D721C0F601012022FEF749F81E9908
:1027B0000020C1F8C0001E994FF0BF40C1F8C4000E
:1027C0000FE31E984CF64F31C0F601018022FEF750
:1027D00037F81E9880304CF6AC71C0F6010110221B
:1027E0001192FEF72DF8119A1E9890304DF2BE61AD
:1027F000C0F60101FEF724F81E98A0304CF62C31EB
:10280000C0F601012022FEF71BF81E990020C1F836
:10281000C0001E994FF0BF40C1F8C400E1E21E980D
:102820004CF63B31C0F601018022FEF709F81E98F4
:1028300080304CF6AC71C0F6010110221092FDF709
:10284000FFFF109A1E9890304DF2BE61C0F6010154
:10285000FDF7F6FF1E98A0304CF61D31C0F60101C1
:102860002022FDF7EDFF1E990020C1F8C0001E993F
:102870004FF0BF40C1F8C400B3E21E984CF6C2212D
:10288000C0F601018022FDF7DBFF1E9880304CF678
:10289000AC71C0F6010110220F92FDF7D1FF0F9A23
:1028A0001E9890304DF2BE61C0F60101FDF7C8FFE1
:1028B0001E98A0304CF69D21C0F601012022FDF7A4
:1028C000BFFF1E990020C1F8C0001E994FF0BF4005
:1028D000C1F8C40085E21E984CF6AD21C0F6010196
:1028E0008022FDF7ADFF1E9880304CF6AC71C0F62B
:1028F000010110220E92FDF7A3FF0E9A1E98903050
:102900004DF2BE61C0F60101FDF79AFF1E98A0309E
:102910004CF68D21C0F601012022FDF791FF1E9992
:102920000020C1F8C0001E994FF0BF40C1F8C4009C
:1029300057E21E984CF63B41C0F601018022FDF79C
:102940007FFF1E9880304CF6AC71C0F6010110225A
:102950000D92FDF775FF0D9A1E9890304DF2BE61F5
:10296000C0F60101FDF76CFF1E98A0304CF6024145
:10297000C0F601012022FDF763FF1E990020C1F877
:10298000C0001E994FF0BF40C1F8C40029E21E9854
:102990004CF62941C0F601018022FDF751FF1E9837
:1029A00080304CF6AC71C0F6010110220C92FDF79C
:1029B00047FF0C9A1E9890304DF2BE61C0F601019F
:1029C000FDF73EFF1E98A0304CF6F531C0F6010130
:1029D0002022FDF735FF1E990020C1F8C0001E9986
:1029E0004FF0BF40C1F8C400FBE11E984CF6AD416A
:1029F000C0F601018022FDF723FF1E9880304CF6BF
:102A0000AC71C0F6010110220B92FDF719FF0B9A71
:102A10001E9890304DF2BE61C0F60101FDF710FF27
:102A20001E98A0304CF67C41C0F601012022FDF733
:102A300007FF1E990020C1F8C0001E994FF0BF404B
:102A4000C1F8C400CDE11E984CF69D41C0F60101CD
:102A50008022FDF7F5FE1E9880304CF6AC71C0F672
:102A6000010110220A92FDF7EBFE0A9A1E9890309F
:102A70004DF2BE61C0F60101FDF7E2FE1E98A030E6
:102A80004CF67141C0F601012022FDF7D9FE1E99D6
:102A90000020C1F8C0001E994FF0BF40C1F8C4002B
:102AA0009FE11E984CF60B21C0F601018022FDF734
:102AB000C7FE1E9880304CF6AC71C0F601011022A2
:102AC0000992FDF7BDFE099A1E9890304DF2BE6145
:102AD000C0F60101FDF7B4FE1E98A0304CF6D611E9
:102AE000C0F601012022FDF7ABFE1E990020C1F8BF
:102AF000C0001E994FF0BF40C1F8C40071E11E989C
:102B00004CF6FA11C0F601018022FDF799FE1E98DD
:102B100080304CF6AC71C0F6010110220892FDF72E
:102B20008FFE089A1E9890304DF2BE61C0F60101EA
:102B3000FDF786FE1E98A0304CF6CA11C0F60101C2
:102B40002022FDF77DFE1E990020C1F8C0001E99CD
:102B50004FF0BF40C1F8C40043E11E984CF65F41FE
:102B6000C0F601018022FDF76BFE1E9880304CF606
:102B7000AC71C0F6010110220792FDF761FE079AC1
:102B80001E9890304DF2BE61C0F60101FDF758FE6F
:102B90001E98A0304CF61C41C0F601012022FDF722
:102BA0004FFE1E990020C1F8C0001E994FF0BF4093
:102BB000C1F8C40015E11E984CF64D41C0F6010164
:102BC0008022FDF73DFE1E9880304CF6AC71C0F6B9
:102BD000010110220692FDF733FE069A1E989030EE
:102BE0004DF2BE61C0F60101FDF72AFE1E98A0302D
:102BF0004CF60F41C0F601012022FDF721FE1E997F
:102C00000020C1F8C0001E994FF0BF40C1F8C400B9
:102C1000E7E01E984CF6CD41C0F601018022FDF799
:102C20000FFE1E9880304CF6AC71C0F601011022E8
:102C30000592FDF705FE059A1E9890304DF2BE6193
:102C4000C0F60101FDF7FCFD1E98A0304CF6924144
:102C5000C0F601012022FDF7F3FD1E990020C1F806
:102C6000C0001E994FF0BF40C1F8C400B9E01E98E3
:102C70004CF6BD41C0F601018022FDF7E1FD1E9832
:102C800080304CF6AC71C0F6010110220492FDF7C1
:102C9000D7FD049A1E9890304DF2BE61C0F6010136
:102CA000FDF7CEFD1E98A0304CF68741C0F601011D
:102CB0002022FDF7C5FD1E990020C1F8C0001E9915
:102CC0004FF0BF40C1F8C4008BE01E984CF62D2198
:102CD000C0F601018022FDF7B3FD1E9880304CF64E
:102CE000AC71C0F6010110220392FDF7A9FD039A11
:102CF0001E9890304DF2BE61C0F60101FDF7A0FDB7
:102D00001E98A0304CF6EE11C0F601012022FDF70E
:102D100097FD1E990020C1F8C0001E994FF0BF40DA
:102D2000C1F8C4005DE01E984CF61C21C0F60101FC
:102D30008022FDF785FD1E9880304CF6AC71C0F600
:102D4000010110220292FDF77BFD029A1E9890303D
:102D50004DF2BE61C0F60101FDF772FD1E98A03074
:102D60004CF6E211C0F601012022FDF769FD1E9923
:102D70000020C1F8C0001E994FF0BF40C1F8C40048
:102D80002FE01E984CF6E731C0F601010191802238
:102D9000FDF756FD1E9880304DF2B361C0F601017B
:102DA00010220092FDF74CFD009A1E9890304DF2D3
:102DB000BE61C0F60101FDF743FD01991E98A030E8
:102DC0002022FDF73DFD1E990020C1F8C0001E998C
:102DD0004FF0BF40C1F8C40003E005208DF8770034
:102DE000FFE79DF9770020B080BD000080B598B066
:102DF0008DF85F001691FF208DF8570016984CF65D
:102E0000AC71C0F6010113918022FDF719FD1399F1
:102E10001698803010221292FDF712FD129A139923
:102E200016989030FDF70CFD13991698A0302022CB
:102E3000FDF706FD1698D0304CF68821C0F601014A
:102E40000422FDF7FDFC16990020C1F8C000169978
:102E5000C1F8C4001699C1F8C8001699C1F8CC0091
:102E60009DF95F0001461491222800F20B85149908
:102E7000DFE811F023004F004F004F004F004F00DC
:102E80004F004F004F008400A800D7000601320118
:102E900060018E01BC01F401220250027E02B602E2
:102EA000E2020E033A0366038F03B803E30304044C
:102EB000250453048104AF04DD0416984CF6D76151
:102EC000C0F6010111918022FDF7BAFC16988030FE
:102ED0004CF68B21C0F6010110221092FDF7B0FCD8
:102EE000109A169890304CF6A771C0F60101FDF7C4
:102EF000A7FC11991698A0302022FDF7A1FC169985
:102F00000120C1F8C8001699FE20C1F8CC0000F0DD
:102F1000BDBC16989DF95F104B1E4CF61C62C0F6A6
:102F200001028021FDF71EFB169880304CF68B21A4
:102F3000C0F6010110220F92FDF782FC0F9A16983D
:102F400090304DF2D721C0F60101FDF779FC1698BB
:102F5000A0309DF95F104B1E4CF62462C0F60102B2
:102F60002021FDF7FFFA16994FF0FF30C1F8C80095
:102F700016990020C1F8CC0000F088BC16984CF6D9
:102F8000D351C0F601018022FDF75AFC169890300B
:102F90004CF6E451C0F601011022FDF751FC1698E1
:102FA000A0304CF6DC51C0F601012022FDF748FCB0
:102FB00016990020C1F8C8001699FF20C1F8CC006E
:102FC00000F064BC16984CF6B951C0F6010180229D
:102FD000FDF736FC169890304CF6EB51C0F6010127
:102FE0001022FDF72DFC1698A0304CF6C551C0F606
:102FF00001012022FDF724FC1698D0304CF6D05168
:10300000C0F601010422FDF71BFC16994FF00040A9
:10301000C1F8C80016996FF00040C1F8CC0000F06C
:1030200035BC16984CF6C961C0F601018022FDF747
:1030300007FC169890304CF6EB51C0F601011022B7
:10304000FDF7FEFB1698A0304CF65D71C0F601014D
:103050002022FDF7F5FB1698D0304CF6D051C0F683
:1030600001010422FDF7ECFB16994FF00040C1F876
:10307000C80016996FF00040C1F8CC0000F006BC03
:1030800016984CF67661C0F601010E918022FDF78C
:10309000D7FB169890304CF6EB51C0F60101102288
:1030A000FDF7CEFB0E991698A0302022FDF7C8FB45
:1030B0001698D0304CF6D051C0F601010422FDF72D
:1030C000BFFB16994FF00040C1F8C80016996FF089
:1030D0000040C1F8CC00D9E316984CF6EC41C0F69C
:1030E00001018022FDF7ACFB169890304CF6EB51B5
:1030F000C0F601011022FDF7A3FB1698A0304CF694
:10310000DD41C0F601012022FDF79AFB1698D03070
:103110004CF6D051C0F601010422FDF791FB16993F
:103120004FF00040C1F8C80016996FF00040C1F898
:10313000CC00ABE316984CF61851C0F60101802282
:10314000FDF77EFB169890304CF6EB51C0F601016E
:103150001022FDF775FB1698A0304CF64051C0F6D2
:1031600001012022FDF76CFB1698D0304CF6D051AF
:10317000C0F601010422FDF763FB16994FF00040F1
:10318000C1F8C80016996FF00040C1F8CC007DE38B
:1031900016984CF60C51C0F601018022FDF750FB49
:1031A000169890304CF6EB51C0F601011022FDF755
:1031B00047FB1698A0304CF63551C0F6010120228D
:1031C000FDF73EFB1698D0304CF6D051C0F6010109
:1031D0000422FDF735FB16994FF00040C1F8C800F6
:1031E00016996FF00040C1F8CC004FE316984CF6EA
:1031F000FD41C0F601018022FDF722FB16988030C8
:103200004CF6AA71C0F6010110220D92FDF718FBD1
:103210000D9A169890304CF6A771C0F60101FDF793
:103220000FFB1698A0304CF62B51C0F6010120225E
:10323000FDF706FB1698D0304CF6D051C0F60101D0
:103240000422FDF7FDFA16994FF00040C1F8C800BE
:1032500016996FF00040C1F8CC0017E316984CF6B1
:103260005A51C0F601018022FDF7EAFA1698903013
:103270004CF6EB51C0F601011022FDF7E1FA169869
:10328000A0304CF64B51C0F601012022FDF7D8FAD0
:103290001698D0304CF6D051C0F601010422FDF74B
:1032A000CFFA16994FF00040C1F8C80016996FF098
:1032B0000040C1F8CC00E9E216984CF68651C0F601
:1032C00001018022FDF7BCFA169890304CF6EB51C4
:1032D000C0F601011022FDF7B3FA1698A0304CF6A3
:1032E000AE51C0F601012022FDF7AAFA1698D0309F
:1032F0004CF6D051C0F601010422FDF7A1FA16994F
:103300004FF00040C1F8C80016996FF00040C1F8B6
:10331000CC00BBE216984CF67A51C0F6010180222F
:10332000FDF78EFA169890304CF6EB51C0F601017D
:103330001022FDF785FA1698A0304CF6A351C0F67E
:1033400001012022FDF77CFA1698D0304CF6D051BE
:10335000C0F601010422FDF773FA16994FF0004000
:10336000C1F8C80016996FF00040C1F8CC008DE29A
:1033700016984CF66B51C0F601018022FDF760FAF9
:10338000169880304CF6AA71C0F6010110220C92FA
:10339000FDF756FA0C9A169890304CF6A771C0F6C5
:1033A0000101FDF74DFA1698A0304CF69951C0F680
:1033B00001012022FDF744FA1698D0304CF6D05186
:1033C000C0F601010422FDF73BFA16994FF00040C8
:1033D000C1F8C80016996FF00040C1F8CC0055E262
:1033E00016984CF6DF61C0F601010B918022FDF7C3
:1033F00027FA169890304CF6A771C0F601011022FA
:10340000FDF71EFA0B991698A0302022FDF718FA46
:103410001698D0304CF6D051C0F601010422FDF7C9
:103420000FFA16994FF00040C1F8C80016996FF0D6
:103430000040C1F8CC0029E216984CF69971C0F60C
:1034400001010A918022FDF7FBF9169890304CF6A5
:10345000A771C0F601011022FDF7F2F90A9916983A
:10346000A0302022FDF7ECF91698D0304CF6D05160
:10347000C0F601010422FDF7E3F916994FF0004070
:10348000C1F8C80016996FF00040C1F8CC00FDE10A
:1034900016984CF6A161C0F601018022FDF7D0F923
:1034A000169890304CF6A771C0F601011022FDF776
:1034B000C7F91698A0304CF68861C0F601012022A9
:1034C000FDF7BEF91698D0304CF6D051C0F6010188
:1034D0000422FDF7B5F916990020C1F8C800169925
:1034E0000320C1F8CC00D1E116984CF69261C0F6E9
:1034F00001018022FDF7A4F9169890304CF6A771CF
:10350000C0F601011022FDF79BF91698A0304CF689
:103510007D61C0F601012022FDF792F91698D030A6
:103520004CF6D051C0F601010422FDF789F9169935
:103530000020C1F8C80016990320C1F8CC00A5E10D
:1035400016984DF28701C0F6010109918022FDF71E
:1035500077F9169890304CF6A771C0F60101102249
:10356000FDF76EF909991698A0302022FDF768F949
:103570001698D0304CF6D051C0F601010422FDF768
:103580005FF916990020C1F8C8001699C1F8CC005F
:103590007CE116984DF2A951C0F6010108918022F4
:1035A000FDF74EF9169890304CF6A771C0F6010160
:1035B0001022FDF745F908991698A0302022FDF752
:1035C0003FF91698D0304CF6D051C0F601010422D4
:1035D000FDF736F916990020C1F8C8001699C1F810
:1035E000CC0053E116984CF63861C0F601018022F8
:1035F000FDF726F9169890304CF6A771C0F6010138
:103600001022FDF71DF91698A0304CF68771C0F610
:1036100001012022FDF714F91698D0304CF6D05154
:10362000C0F601010422FDF70BF916990020C1F83C
:10363000C8001699C1F8CC0028E116984CF6AF6185
:10364000C0F6010107918022FDF7FAF81698903034
:103650004DF2D721C0F601011022FDF7F1F80799CC
:103660001698A0302022FDF7EBF816990020C1F83B
:10367000C80016990120C1F8CC0007E116984CF655
:10368000BC61C0F6010106918022FDF7D9F81698B9
:1036900090304DF2D721C0F601011022FDF7D0F88D
:1036A00006991698A0302022FDF7CAF81699002036
:1036B000C1F8C80016990120C1F8CC00E6E01698C0
:1036C0004CF66161C0F601018022FDF7B9F8169849
:1036D00080304CF66471C0F6010110220592FDF7AE
:1036E000AFF8059A169890304DF2D721C0F6010137
:1036F000FDF7A6F81698A0304CF64E61C0F6010111
:103700002022FDF79DF81698D0304CF6D051C0F627
:1037100001010422FDF794F8B8E016984CF63E71CA
:10372000C0F601018022FDF78BF8169880304CF628
:10373000AC71C0F6010110220492FDF781F8049AE1
:10374000169890304DF2D721C0F60101FDF778F8B8
:103750001698A0304CF60471C0F601012022FDF746
:103760006FF81698D0304CF6D051C0F60101042203
:10377000FDF766F88AE016984CF61F71C0F6010155
:103780008022FDF75DF8169880304CF6AC71C0F6DB
:10379000010110220392FDF753F8039A1698903016
:1037A0004DF2D721C0F60101FDF74AF81698A03076
:1037B0004CF6E861C0F601012022FDF741F81698A9
:1037C000D0304CF6D051C0F601010422FDF738F894
:1037D0005CE016984CF6F251C0F601018022FDF72C
:1037E0002FF8169880304CF6AC71C0F6010110220B
:1037F0000292FDF725F8029A169890304DF2D721E3
:10380000C0F60101FDF71CF81698A0304CF66A715D
:10381000C0F601012022FDF713F81698D0304CF6BF
:10382000D051C0F601010422FDF70AF82EE01698E7
:103830004CF62B61C0F6010101918022FDF700F8E2
:10384000169880304CF68B21C0F6010110220092B0
:10385000FCF7F6FF009A169890304DF2D721C0F68B
:103860000101FCF7EDFF01991698A0302022FCF72A
:10387000E7FF16990020C1F8C80016990120C1F889
:10388000CC0003E005208DF85700FFE79DF95700B5
:1038900018B080BD80B5CEB08DF837014C91FF20B7
:1038A0008DF82F014C984CF6AC71C0F6010149918E
:1038B0008022FCF7C5FF49994C988030102248922D
:1038C000FCF7BEFF489A49994C989030FCF7B8FF36
:1038D00049994C98A0302022FCF7B2FF4C98D03088
:1038E0004CF6D051C0F601010422FCF7A9FF4C9917
:1038F0000020C1F8C0004C99C1F8C4009DF93701FF
:1039000001464A91522801F283854A99DFE811F075
:10391000530094005300940053009400530094000B
:1039200053009400530094005300940053009400FB
:10393000D40007013A016D01A101D50109023D0240
:103940007102A502D70209033B036B039B03C80363
:10395000F60321044E047F04B004E1041305450579
:103960007705A905DB050D063D066D069D06CF060C
:10397000FC062D075E078F07C107F30725085608C9
:103980008708B808E808180948097A099D09C00994
:10399000E409080A3B0A6E0AA10ACF0AFD0A2E0BA7
:1039A0005F0B900BC10BF20B230C540C850CB60C67
:1039B000E70C1A0D4D0D4C989DF937114B104DF237
:1039C000CB22C0F601028021FCF7CCFD4C98803060
:1039D0004DF2B361C0F6010110224792FCF730FFAF
:1039E000479A4C9890304DF2FC21C0F60101FCF74B
:1039F00027FF4C98A0309DF937114B104DF2C02293
:103A0000C0F601022021FCF7ADFD4C98D0304CF6F9
:103A1000AC71C0F601010422FCF712FF4C990020A2
:103A2000C4F26010C1F8C0004C990020C4F2A0108C
:103A3000C1F8C40001F0F0BC4C989DF937114B104F
:103A40004DF2B022C0F601028021FCF78BFD4C98AC
:103A500080304DF2B361C0F6010110224692FCF7AE
:103A6000EFFE469A4C9890304DF2FC21C0F60101D1
:103A7000FCF7E6FE4C98A0309DF937114B104DF243
:103A8000A522C0F601022021FCF76CFD4C98D03035
:103A90004CF6AC71C0F601010422FCF7D1FE4C9942
:103AA0004FF08140C1F8C0004C990020C4F22010B2
:103AB000C1F8C40001F0B0BC4C984DF27201C0F6E0
:103AC00001018022FCF7BCFE4C9880304DF2B361BE
:103AD000C0F6010110224592FCF7B2FE459A4C98BF
:103AE00090304DF2FC21C0F60101FCF7A9FE4C9884
:103AF000A0304CF6F371C0F601012022FCF7A0FEC5
:103B00004C9946F26660C4F24600C1F8C0004C9978
:103B10000020C4F26000C1F8C40001F07DBC4C98E4
:103B20004DF26001C0F601018022FCF789FE4C983D
:103B300080304DF2B361C0F6010110224492FCF7CF
:103B40007FFE449A4C9890304DF2FC21C0F6010162
:103B5000FCF776FE4C98A0304CF6E871C0F60101F7
:103B60002022FCF76DFE4C9946F26660C4F24600D6
:103B7000C1F8C0004C990020C4F26000C1F8C40034
:103B800001F04ABC4C984DF24E01C0F60101802272
:103B9000FCF756FE4C9880304DF2B361C0F601013F
:103BA00010224392FCF74CFE439A4C9890304DF211
:103BB000FC21C0F60101FCF743FE4C98A0304CF606
:103BC000DD71C0F601012022FCF73AFE4C9946F265
:103BD0006660C4F24600C1F8C0004C990020C4F2EF
:103BE0006000C1F8C40001F017BC4C984DF23021C0
:103BF000C0F601018022FCF723FE4C9880304DF284
:103C0000B361C0F6010110224292FCF719FE429AFC
:103C10004C9890304DF2FC21C0F60101FCF710FEEB
:103C20004C98A0304DF24021C0F601012022FCF753
:103C300007FE4C9949F69A10CCF2A900C1F8C000D1
:103C40004C9946F26660CCF29600C1F8C40001F0CF
:103C5000E3BB4C984DF22021C0F601018022FCF715
:103C6000EFFD4C9880304DF2B361C0F60101102297
:103C70004192FCF7E5FD419A4C9890304DF2FC21C1
:103C8000C0F60101FCF7DCFD4C98A0304DF2042198
:103C9000C0F601012022FCF7D3FD4C9949F69A1099
:103CA000CCF2A900C1F8C0004C9946F26660CCF293
:103CB0009600C1F8C40001F0AFBB4C984DF2102142
:103CC000C0F601018022FCF7BBFD4C9880304DF21C
:103CD000B361C0F6010110224092FCF7B1FD409A99
:103CE0004C9890304DF2FC21C0F60101FCF7A8FD84
:103CF0004C98A0304DF2F811C0F601012022FCF7DB
:103D00009FFD4C9949F69A10CCF2A900C1F8C00069
:103D10004C9946F26660CCF29600C1F8C40001F0FE
:103D20007BBB4C984DF28421C0F601018022FCF748
:103D300087FD4C9880304DF2B361C0F6010110222E
:103D40003F92FCF77DFD3F9A4C9890304DF2FC215C
:103D5000C0F60101FCF774FD4C98A0304DF294219F
:103D6000C0F601012022FCF76BFD4C9946F266601B
:103D7000C4F29600C1F8C0004C9949F69A10C4F2FA
:103D8000A900C1F8C40001F047BB4C984DF2742162
:103D9000C0F601018022FCF753FD4C9880304DF2B3
:103DA000B361C0F6010110223E92FCF749FD3E9A34
:103DB0004C9890304DF2FC21C0F60101FCF740FD1B
:103DC0004C98A0304DF25821C0F601012022FCF79A
:103DD00037FD4C9946F26660C4F29600C1F8C00007
:103DE0004C9949F69A10C4F2A900C1F8C40001F038
:103DF00013BB4C984DF26421C0F601018022FCF700
:103E00001FFD4C9880304DF2B361C0F601011022C5
:103E10003D92FCF715FD3D9A4C9890304DF2FC21F7
:103E2000C0F60101FCF70CFD4C98A0304DF24C217E
:103E3000C0F601012022FCF703FD4C9946F26660B2
:103E4000C4F29600C1F8C0004C9949F69A10C4F229
:103E5000A900C1F8C40001F0DFBA4C984DF2DA11A4
:103E6000C0F601018022FCF7EBFC4C9880304DF24B
:103E7000B361C0F6010110223C92FCF7E1FC3C9AD0
:103E80004C9890304DF2F721C0F60101FCF7D8FCB8
:103E90004C98A0304DF2EB11C0F601012022FCF746
:103EA000CFFC4C990020C4F2C010C1F8C0004C995E
:103EB0000020C4F2C410C1F8C40001F0ADBA4C989F
:103EC0004DF2C911C0F601018022FCF7B9FC4C98F3
:103ED00080304DF2B361C0F6010110223B92FCF735
:103EE000AFFC3B9A4C9890304DF2F721C0F601019F
:103EF000FCF7A6FC4C98A0304DF2AB11C0F60101C6
:103F00002022FCF79DFC4C990020C4F2C010C1F89F
:103F1000C0004C990020C4F2C410C1F8C40001F0E4
:103F20007BBA4C984DF2B811C0F601018022FCF723
:103F300087FC4C9880304DF2B361C0F6010110222D
:103F40003A92FCF77DFC3A9A4C9890304DF2F7216A
:103F5000C0F60101FCF774FC4C98A0304DF29E11A4
:103F6000C0F601012022FCF76BFC4C990020C4F242
:103F7000C010C1F8C0004C990020C4F2C410C1F8B0
:103F8000C40001F049BA4C984DF21331C0F601015A
:103F900039918022FCF754FC4C9880304CF6AA7181
:103FA000C0F6010110223892FCF74AFC389A4C986E
:103FB00090304DF2F721C0F60101FCF741FC399930
:103FC0004C98A0302022FCF73BFC4C990020CCF20E
:103FD0002020C1F8C0004C990020C4F2AA20C1F8EA
:103FE000C40001F019BA4C984DF2A021C0F60101AD
:103FF00037918022FCF724FC4C9880304DF24D61C3
:10400000C0F6010110223692FCF71AFC369A4C9841
:1040100090304DF2F221C0F60101FCF711FC379906
:104020004C98A0302022FCF70BFC4C990020C4F2E5
:104030002F40C1F8C0004C990020C4F24840C1F89C
:10404000C40001F0E9B94C984DF2EB21C0F6010132
:1040500035918022FCF7F4FB4C9880304CF6687167
:10406000C0F6010110223492FCF7EAFB349A4C9816
:1040700090304DF2F721C0F60101FCF7E1FB3599D4
:104080004C98A0302022FCF7DBFB4C990020C1F8B3
:10409000C0004C994FF0BF40C1F8C40001F0BCB95A
:1040A0004C984DF29101C0F6010133918022FCF74A
:1040B000C7FB4C9880304CF68B21C0F601011022D2
:1040C0003292FCF7BDFB329A4C9890304DF2F221BF
:1040D000C0F60101FCF7B4FB33994C98A0302022C4
:1040E000FCF7AEFB4C990020C1F8C0004C990020B1
:1040F000C4F24000C1F8C40001F08EB94C984DF2F2
:104100000631C0F6010131918022FCF799FB4C98F1
:1041100080304CF68B21C0F6010110223092FCF762
:104120008FFB309A4C9890304DF2F221C0F601018D
:10413000FCF786FB31994C98A0302022FCF780FBDD
:104140004C990020C1F8C0004C99C1F8C40001F09E
:1041500063B94C984DF2DA21C0F601012F9180220B
:10416000FCF76EFB4C9880304CF66871C0F601018C
:1041700010222E92FCF764FB2E9A4C9890304DF250
:10418000F221C0F60101FCF75BFB2F994C98A0309F
:104190002022FCF755FB4C990020C1F8C0004C9937
:1041A0004FF0BF40C1F8C40001F036B94C984DF251
:1041B0003051C0F601018022FCF742FB4C98803060
:1041C0004CF6FE71C0F6010110222D92FCF738FB6F
:1041D0002D9A4C9890304DF20131C0F60101FCF758
:1041E0002FFB4C98A0304DF2BF41C0F601012022B8
:1041F000FCF726FB4C990020C1F8C0004C994CF606
:10420000CD40C3F6CC60C1F8C40001F005B94C98AC
:104210004DF20E51C0F601018022FCF711FB4C98C3
:1042200080304CF6FE71C0F6010110222C92FCF792
:1042300007FB2C9A4C9890304DF20131C0F60101E9
:10424000FCF7FEFA4C98A0304DF2A541C0F60101F2
:104250002022FCF7F5FA4C990020C1F8C0004C99D7
:104260004CF6CD40C3F6CC60C1F8C40001F0D4B820
:104270004C984DF2EC41C0F601018022FCF7E0FAC7
:104280004C9880304CF6FE71C0F6010110222B9242
:10429000FCF7D6FA2B9A4C9890304DF20131C0F6CB
:1042A0000101FCF7CDFA4C98A0304DF28B41C0F6DD
:1042B00001012022FCF7C4FA4C990020C1F8C0008B
:1042C0004C994CF6CD40C3F6CC60C1F8C40001F067
:1042D000A3B84C984DF20B41C0F601018022FCF7C7
:1042E000AFFA4C9880304DF2B361C0F60101102254
:1042F0002A92FCF7A5FA2A9A4C9890304DF2F721B1
:10430000C0F60101FCF79CFA4C98A0304DF21B61FD
:10431000C0F601012022FCF793FA4C990020C4F268
:104320009810C1F8C0004C990020C4F2E810C1F800
:10433000C40001F071B84C984DF2F331C0F60101A0
:104340008022FCF77DFA4C9880304DF2B361C0F6C4
:10435000010110222992FCF773FA299A4C989030A7
:104360004DF2F721C0F60101FCF76AFA4C98A03033
:104370004DF2A931C0F601012022FCF761FA4C99F7
:104380000020C4F29810C1F8C0004C990020C4F27B
:10439000E810C1F8C40001F03FB84C984DF2DB3191
:1043A000C0F601018022FCF74BFA4C9880304DF2A8
:1043B000B361C0F6010110222892FCF741FA289A55
:1043C0004C9890304DF2F721C0F60101FCF738FA15
:1043D0004C98A0304DF2AE01C0F601012022FCF74E
:1043E0002FFA4C990020C4F29810C1F8C0004C99E3
:1043F0000020C4F2E810C1F8C40001F00DB84C98D8
:104400004DF23401C0F601018022FCF719FA4C98F4
:1044100080304DF2B361C0F6010110222792FCF703
:104420000FFA279A4C9890304DF2FC21C0F601010A
:10443000FCF706FA4C98A0304DF20161C0F601017C
:104440002022FCF7FDF94C990020C4F22010C1F89D
:10445000C0004C990020C4F25810C1F8C40000F00C
:10446000DBBF4C984DF21A01C0F601018022FCF727
:10447000E7F94C9880304DF2B361C0F6010110228B
:104480002692FCF7DDF9269A4C9890304DF2FC21EB
:10449000C0F60101FCF7D4F94C98A0304DF28F31F1
:1044A000C0F601012022FCF7CBF94C990020C4F2A0
:1044B0002010C1F8C0004C990020C4F25810C1F877
:1044C000C40000F0A9BF4C984DF20001C0F60101F4
:1044D0008022FCF7B5F94C9880304DF2B361C0F6FC
:1044E000010110222592FCF7ABF9259A4C989030E7
:1044F0004DF2FC21C0F60101FCF7A2F94C98A03066
:104500004DF29401C0F601012022FCF799F94C9973
:104510000020C4F22010C1F8C0004C990020C4F261
:104520005810C1F8C40000F077BF4C984DF2E75125
:10453000C0F601018022FCF783F94C9880304CF6DC
:104540008921C0F6010110222492FCF779F9249AFE
:104550004C9890304DF2F721C0F60101FCF770F94C
:104560004C98A0304DF23361C0F601012022FCF7D7
:1045700067F94C990020C1F8C0004C990020C4F2A2
:10458000E000C1F8C40000F047BF4C984DF2CD5197
:10459000C0F601018022FCF753F94C9880304CF6AC
:1045A0008921C0F6010110222392FCF749F9239AD0
:1045B0004C9890304DF2F721C0F60101FCF740F91C
:1045C0004C98A0304DF2C131C0F601012022FCF719
:1045D00037F94C990020C1F8C0004C990020C4F272
:1045E000E000C1F8C40000F017BF4C984DF2B35181
:1045F000C0F601018022FCF723F94C9880304CF67C
:104600008921C0F6010110222292FCF719F9229AA1
:104610004C9890304DF2F721C0F60101FCF710F9EB
:104620004C98A0304DF2E201C0F601012022FCF7C7
:1046300007F94C990020C1F8C0004C990020C4F241
:10464000E000C1F8C40000F0E7BE4C984DF26441B0
:10465000C0F601018022FCF7F3F84C9880304DF24F
:104660004C01C0F6010110222192FCF7E9F8219AD1
:104670004C9890304DF2F721C0F60101FCF7E0F8BC
:104680004C98A0304DF2C601C0F601012022FCF783
:10469000D7F84C990020CCF22020C1F8C0004C99EA
:1046A0000020C4F2AA20C1F8C40000F0B5BE4C98A6
:1046B0004DF2E621C0F6010120918022FCF7C0F8FE
:1046C0004C9880304CF66871C0F6010110221F92A0
:1046D000FCF7B6F81F9A4C9890304DF2F221C0F6D4
:1046E0000101FCF7ADF820994C98A0302022FCF78E
:1046F000A7F84C990020C1F8C0004C994FF0BF407A
:10470000C1F8C40000F088BE4C984DF24151C0F68B
:1047100001018022FCF794F84C9880304CF6FE7131
:10472000C0F6010110221E92FCF78AF81E9A4C98DE
:1047300090304DF20131C0F60101FCF781F84C9840
:10474000A0304DF2CC41C0F601012022FCF778F8F0
:104750004C990020C1F8C0004C994CF6CD40C3F6EE
:10476000CC60C1F8C40000F057BE4C984DF21F5108
:10477000C0F601018022FCF763F84C9880304CF6BB
:10478000FE71C0F6010110221D92FCF759F81D9A26
:104790004C9890304DF20131C0F60101FCF750F811
:1047A0004C98A0304DF2B241C0F601012022FCF736
:1047B00047F84C990020C1F8C0004C994CF6CD4008
:1047C000C3F6CC60C1F8C40000F026BE4C984DF290
:1047D000FD41C0F601018022FCF732F84C98803090
:1047E0004CF6FE71C0F6010110221C92FCF728F86D
:1047F0001C9A4C9890304DF20131C0F60101FCF743
:104800001FF84C98A0304DF29841C0F601012022CB
:10481000FCF716F84C990020C1F8C0004C994CF6F2
:10482000CD40C3F6CC60C1F8C40000F0F5BD4C9893
:104830004DF21741C0F601018022FCF701F84C98B7
:1048400080304DF2B361C0F6010110221B92FBF7DC
:10485000F7FF1B9A4C9890304DF2F721C0F60101FA
:10486000FBF7EEFF4C98A0304DF22761C0F6010136
:104870002022FBF7E5FF4C990020C4F29010C1F80C
:10488000C0004C990020C4F2F010C1F8C40000F040
:10489000C3BD4C984DF2FF31C0F601018022FBF7F9
:1048A000CFFF4C9880304DF2B361C0F60101102269
:1048B0001A92FBF7C5FF1A9A4C9890304DF2F721E7
:1048C000C0F60101FBF7BCFF4C98A0304DF2B531AA
:1048D000C0F601012022FBF7B3FF4C990020C4F27F
:1048E0009010C1F8C0004C990020C4F2F010C1F83B
:1048F000C40000F091BD4C984DF2E731C0F60101C3
:104900008022FBF79DFF4C9880304DF2B361C0F6DA
:10491000010110221992FBF793FF199A4C989030DD
:104920004DF2F721C0F60101FBF78AFF4C98A03049
:104930004DF2BA01C0F601012022FBF781FF4C992C
:104940000020C4F29010C1F8C0004C990020C4F2BD
:10495000F010C1F8C40000F05FBD4C984DF2410169
:10496000C0F601018022FBF76BFF4C9880304DF2BE
:10497000B361C0F6010110221892FBF761FF189A8B
:104980004C9890304DF2FC21C0F60101FBF758FF26
:104990004C98A0304DF20E61C0F601012022FBF7C9
:1049A0004FFF4C990020C4F2E000C1F8C0004C99C0
:1049B0004FF08240C1F8C40000F02EBD4C984DF27B
:1049C0002701C0F601018022FBF73AFF4C988030A6
:1049D0004DF2B361C0F6010110221792FBF730FFD0
:1049E000179A4C9890304DF2FC21C0F60101FBF76C
:1049F00027FF4C98A0304DF29C31C0F601012022D7
:104A0000FBF71EFF4C990020C4F2E000C1F8C00083
:104A10004C994FF08240C1F8C40000F0FDBC4C98A6
:104A20004DF20D01C0F601018022FBF709FF4C9801
:104A300080304DF2B361C0F6010110221692FBF7EF
:104A4000FFFE169A4C9890304DF2FC21C0F6010101
:104A5000FBF7F6FE4C98A0304DF2A101C0F6010123
:104A60002022FBF7EDFE4C990020C4F2E000C1F8D3
:104A7000C0004C994FF08240C1F8C40000F0CCBC9B
:104A80004C984DF2F451C0F601018022FBF7D8FE9C
:104A90004C9880304CF68921C0F601011022159205
:104AA000FBF7CEFE159A4C9890304DF2F721C0F6E8
:104AB0000101FBF7C5FE4C98A0304DF24061C0F6F5
:104AC00001012022FBF7BCFE4C990020C1F8C00078
:104AD0004C990020C4F2E000C1F8C40000F09CBC76
:104AE0004C984DF2DA51C0F601018022FBF7A8FE86
:104AF0004C9880304CF68921C0F6010110221492A6
:104B0000FBF79EFE149A4C9890304DF2F721C0F6B8
:104B10000101FBF795FE4C98A0304DF2CE31C0F666
:104B200001012022FBF78CFE4C990020C1F8C00047
:104B30004C990020C4F2E000C1F8C40000F06CBC45
:104B40004C984DF2C051C0F601018022FBF778FE6F
:104B50004C9880304CF68921C0F601011022139246
:104B6000FBF76EFE139A4C9890304DF2F721C0F689
:104B70000101FBF765FE4C98A0304DF2EF01C0F645
:104B800001012022FBF75CFE4C990020C1F8C00017
:104B90004C990020C4F2E000C1F8C40000F03CBC15
:104BA0004C984DF27241C0F601018022FBF748FE9D
:104BB0004C9880304DF24C01C0F601011022129247
:104BC000FBF73EFE129A4C9890304DF2F721C0F65A
:104BD0000101FBF735FE4C98A0304DF2D401C0F630
:104BE00001012022FBF72CFE4C990020CCF2202062
:104BF000C1F8C0004C990020C4F2AA20C1F8C4003A
:104C000000F00ABC4C984DF28031C0F601018022C0
:104C1000FBF716FE4C9890304DF2F221C0F60101E0
:104C20001022FBF70DFE4C98A0304CF68861C0F6C0
:104C300001012022FBF704FE4C990020C1F8C800B6
:104C40004C990320C1F8CC00E6E34C984DF270314A
:104C5000C0F601018022FBF7F3FD4C9890304DF235
:104C6000F221C0F601011022FBF7EAFD4C98A030BA
:104C70004CF67D61C0F601012022FBF7E1FD4C9965
:104C80000020C1F8C8004C990320C1F8CC00C3E350
:104C90004C984CF6B771C0F601018022FBF7D0FDAD
:104CA0004C9890304DF2F721C0F601011022FBF72D
:104CB000C7FD4C98A0304CF6AD71C0F60101202222
:104CC000FBF7BEFD4C990020C1F8C8004C994FF489
:104CD0007A70C1F8CC009FE34C984CF6CF71C0F6C7
:104CE00001018022FBF7ACFD4C9890304DF2F7218A
:104CF000C0F601011022FBF7A3FD4C98A0304CF642
:104D0000C571C0F601012022FBF79AFD4C990020E5
:104D1000C1F8C8004C994FF47A70C1F8CC007BE31D
:104D20004C984DF28701C0F601018022FBF788FD07
:104D30004C9880304CF68B21C0F601011022119264
:104D4000FBF77EFD119A4C9890304DF2F221C0F69F
:104D50000101FBF775FD4C98A0304DF28401C0F6BF
:104D600001012022FBF76CFD4C994CF6CD40CBF6AF
:104D70004C50C1F8C0004C994CF6CD40C3F64C5095
:104D8000C1F8C40048E34C984DF2A951C0F60101A6
:104D90008022FBF755FD4C9880304CF68B21C0F6F5
:104DA000010110221092FBF74BFD109A4C989030A5
:104DB0004DF2F221C0F60101FBF742FD4C98A03004
:104DC0004DF2A651C0F601012022FBF739FD4C99A6
:104DD0004CF6CD40CBF64C50C1F8C0004C994CF687
:104DE000CD40C3F64C50C1F8C40015E34C984CF6C6
:104DF0003861C0F601018022FBF722FD4C9880301B
:104E00004CF68B21C0F6010110220F92FBF718FD22
:104E10000F9A4C9890304DF2F221C0F60101FBF749
:104E20000FFD4C98A0304DF2D941C0F6010120226F
:104E3000FBF706FD4C994CF6CD40CBF64C50C1F833
:104E4000C0004C994CF6CD40C3F64C50C1F8C4009C
:104E5000E2E24C984DF25251C0F601018022FBF77C
:104E6000EFFC4C9880304CF68B21C0F601011022EB
:104E70000E92FBF7E5FC0E9A4C9890304DF2F22121
:104E8000C0F60101FBF7DCFC4C98A0304DF26851F4
:104E9000C0F601012022FBF7D3FC4C990020C1F899
:104EA000C0004C994FF0BF40C1F8C400B4E24C9828
:104EB0004DF27D51C0F601018022FBF7C1FC4C98F8
:104EC00080304CF68B21C0F6010110220D92FBF7C9
:104ED000B7FC0D9A4C9890304DF2F221C0F60101CA
:104EE000FBF7AEFC4C98A0304DF29251C0F6010198
:104EF0002022FBF7A5FC4C990020C1F8C0004C997A
:104F00004FF0BF40C1F8C40086E24C984DF25841C2
:104F1000C0F601018022FBF793FC4C9880304DF2E3
:104F20004C01C0F6010110220C92FBF789FC0C9A8F
:104F30004C9890304DF2F721C0F60101FBF780FC50
:104F40004C98A0304DF28041C0F601012022FBF7C1
:104F500077FC4C990020CCF22020C1F8C0004C997D
:104F60000020C4F2AA20C1F8C40055E24C984DF2CA
:104F70004E41C0F601018022FBF762FC4C98803064
:104F80004DF24C01C0F6010110220B92FBF758FCC8
:104F90000B9A4C9890304DF2F721C0F60101FBF7C7
:104FA0004FFC4C98A0304DF23341C0F60101202255
:104FB000FBF746FC4C990020CCF22020C1F8C00041
:104FC0004C990020C4F2AA20C1F8C40024E24C98F5
:104FD0004DF23C41C0F601018022FBF731FC4C98B8
:104FE00080304DF24C01C0F6010110220A92FBF70D
:104FF00027FC0A9A4C9890304DF2F721C0F6010137
:10500000FBF71EFC4C98A0304DF22341C0F6010185
:105010002022FBF715FC4C990020CCF22020C1F88F
:10502000C0004C990020C4F2AA20C1F8C400F3E1EA
:105030004C984DF24541C0F601018022FBF700FC7F
:105040004C9880304DF24C01C0F6010110220992BB
:10505000FBF7F6FB099A4C9890304DF2F721C0F619
:105060000101FBF7EDFB4C98A0304DF22B41C0F64F
:1050700001012022FBF7E4FB4C990020CCF2202018
:10508000C1F8C0004C990020C4F2AA20C1F8C400A5
:10509000C2E14C984DF28411C0F601018022FBF769
:1050A000CFFB4C9880304DF2B361C0F60101102265
:1050B0000892FBF7C5FB089A4C9890304DF2F72107
:1050C000C0F60101FBF7BCFB4C98A0304DF29311E8
:1050D000C0F601012022FBF7B3FB4C990020C4F27B
:1050E000E000C1F8C0004C990020C4F21010C1F8D3
:1050F000C40091E14C984DF27511C0F60101802277
:10510000FBF79EFB4C9880304DF2B361C0F6010175
:1051100010220792FBF794FB079A4C9890304DF2BF
:10512000F721C0F60101FBF78BFB4C98A0304DF244
:105130005B11C0F601012022FBF782FB4C99002095
:10514000C4F2E000C1F8C0004C990020C4F2101075
:10515000C1F8C40060E14C984DF26611C0F601013F
:105160008022FBF76DFB4C9880304DF2B361C0F6A6
:10517000010110220692FBF763FB069A4C989030CF
:105180004DF2F721C0F60101FBF75AFB4C98A03015
:105190004DF25011C0F601012022FBF751FB4C9952
:1051A0000020C4F2E000C1F8C0004C990020C4F215
:1051B0001010C1F8C4002FE14C984DF23411C0F624
:1051C00001018022FBF73CFB4C9880304DF2B3612B
:1051D000C0F6010110220592FBF732FB059A4C98AC
:1051E00090304DF2F721C0F60101FBF729FB4C98F6
:1051F000A0304DF24411C0F601012022FBF720FB44
:105200004C990020C4F2D010C1F8C0004C99002085
:10521000C4F2F010C1F8C400FEE04C984DF2241125
:10522000C0F601018022FBF70BFB4C9880304DF259
:10523000B361C0F6010110220492FBF701FB049A4E
:105240004C9890304DF2F721C0F60101FBF7F8FAC7
:105250004C98A0304DF20811C0F601012022FBF756
:10526000EFFA4C990020C4F2D010C1F8C0004C995C
:105270000020C4F2F010C1F8C400CDE04C984DF20B
:105280001411C0F601018022FBF7DAFA4C98803045
:105290004DF2B361C0F6010110220392FBF7D0FA80
:1052A000039A4C9890304DF2F721C0F60101FBF7BC
:1052B000C7FA4C98A0304DF2FC01C0F60101202243
:1052C000FBF7BEFA4C990020C4F2D010C1F8C00020
:1052D0004C990020C4F2F010C1F8C4009CE04C9836
:1052E0004DF25431C0F601018022FBF7A9FA4C9827
:1052F00080304DF2B361C0F6010110220292FBF73B
:105300009FFA029A4C9890304DF2F721C0F60101B5
:10531000FBF796FA4C98A0304DF26431C0F60101CB
:105320002022FBF78DFA4C994CF6CD40C4F20C00CC
:10533000C1F8C0004C994CF6CD40C4F22C00C1F825
:10534000C40069E04C984DF24431C0F6010180225E
:10535000FBF776FA4C9880304DF2B361C0F601014C
:1053600010220192FBF76CFA019A4C9890304DF2A2
:10537000F721C0F60101FBF763FA4C98A0304DF21B
:105380002831C0F601012022FBF75AFA4C994CF65D
:10539000CD40C4F20C00C1F8C0004C994CF6CD4091
:1053A000C4F22C00C1F8C40036E04C984DF2343100
:1053B000C0F601018022FBF743FA4C9880304DF291
:1053C000B361C0F6010110220092FBF739FA009A8E
:1053D0004C9890304DF2F721C0F60101FBF730FAFE
:1053E0004C98A0304DF21C31C0F601012022FBF791
:1053F00027FA4C994CF6CD40C4F20C00C1F8C0001D
:105400004C994CF6CD40C4F22C00C1F8C40003E026
:1054100005208DF82F01FFE79DF92F014EB080BDCB
:1054200080B588B08DF81F0006918DF81720FF20F9
:105430008DF816009DF91F0001460491342800F2F2
:1054400076800499DFE801F01B341B341B341B34D5
:105450001B341B341B341B341B341B341B341B34D4
:105460001B341B341B341B341B341B341B341B34C4
:105470001B341B341B341B341B341B344C009DF871
:1054800017000146039160B1FFE703980138012836
:105490000CD8FFE79DF81700012801D1FFE706E0CF
:1054A000FFE706994FF07E50086000E0FFE742E01A
:1054B0009DF817000146029160B1FFE7029801389C
:1054C00001280BD8FFE79DF81700012801D1FFE75D
:1054D00005E0FFE706990020086000E0FFE72AE00A
:1054E0009DF8170001460191B0B1FFE7019801381E
:1054F00001281AD8FFE7069800684AF6B321C2F2DD
:105500000001C1F8060008F0FDFE9DF81700012813
:1055100001D1FFE70AE0FFE74AF6B320C2F200003C
:10552000D0F806000699086000E0FFE703E00520D8
:105530008DF81600FFE79DF9160008B080BD000049
:1055400080B59AB08DF8670018918DF85F20FF2024
:105550008DF85E009DF9670001461391222800F244
:1055600031821399DFE811F02300660066006600BF
:1055700066006600660066006600A600C300C30001
:10558000C300C300C300C300D800EE00EE00EE006D
:10559000EE00EE00EE00030119012F0147015F014B
:1055A000770177019E01B401CA01E001F6019DF87F
:1055B0005F000146129170B3FFE71298013801288D
:1055C00036D8FFE718980068FF2804DBFFE7189932
:1055D000FE200860FFE718980068002804DCFFE759
:1055E000189901200860FFE718980068119002F0F0
:1055F00081FE024611984AF6C821C2F2000101EB71
:105600004201487108F09AFE9DF85F00012801D11F
:10561000FFE70EE0FFE702F06DFE01464AF6C82004
:10562000C2F2000000EB410040791899086000E0E8
:10563000FFE7CBE19DF85F000146109160B3FFE703
:1056400010980138012833D8FFE71898006810F146
:10565000020F05DCFFE718994FF0FF300860FFE705
:1056600018980068012804DBFFE7189900200860FB
:10567000FFE7189800689DF967104AF6B322C2F256
:1056800000021144487208F03DFE9DF85F000128B9
:1056900001D1FFE70DE0FFE79DF967004AF6B3216E
:1056A000C2F20001084490F909001899086000E06E
:1056B000FFE78BE19DF85F0001460F9180B1FFE7A6
:1056C0000F980138012810D8FFE71898007808F0E3
:1056D0007FFE9DF85F00012801D1FFE706E0FFE7AC
:1056E00002F0CEFE1899086000E0FFE76EE19DF839
:1056F0005F0001460E9148B1FFE70E98013801287E
:1057000008D8FFE70B208DF85E0004E01899002010
:10571000086000E0FFE759E19DF85F0001460D9148
:1057200048B1FFE70D980138012809D8FFE70B20A1
:105730008DF85E0005E002F0BDFE1899086000E0FB
:10574000FFE743E19DF85F0001460C9148B1FFE798
:105750000C980138012808D8FFE70B208DF85E006F
:1057600004E018990020086000E0FFE72EE19DF8B2
:105770005F0001460B9148B1FFE70B980138012803
:1057800009D8FFE70B208DF85E0005E002F0A0FFCE
:105790001899086000E0FFE718E19DF85F000146F6
:1057A0000A9148B1FFE70A980138012809D8FFE7B4
:1057B0000B208DF85E0005E002F000FD18990860EE
:1057C00000E0FFE702E19DF85F000146099148B162
:1057D000FFE70998013801280BD8FFE70B208DF867
:1057E0005E0007E002F084FF169016981899086092
:1057F00000E0FFE7EAE09DF85F000146089148B14C
:10580000FFE70898013801280BD8FFE70B208DF837
:105810005E0007E002F0A0FF159015981899086047
:1058200000E0FFE7D2E09DF85F000146079148B134
:10583000FFE70798013801280BD8FFE70B208DF808
:105840005E0007E002F0B4FF149014981899086005
:1058500000E0FFE7BAE09DF85F0001460691B0B1B5
:10586000FFE70698013801281AD8FFE79DF867007E
:105870001C3818990978C0B201F056FE08F042FDB4
:105880009DF85F00012801D1FFE70AE0FFE79DF8DE
:1058900067001C38C0B201F015FD1899086000E0DF
:1058A000FFE793E09DF85F000146059148B1FFE7EF
:1058B00005980138012809D8FFE70B208DF85E0014
:1058C00005E002F0EBFF1899086000E0FFE77DE0DB
:1058D0009DF85F000146049148B1FFE70498013844
:1058E000012809D8FFE70B208DF85E0005E002F0E3
:1058F0000FFE1899086000E0FFE767E09DF85F0081
:105900000146039148B1FFE703980138012809D8FF
:10591000FFE70B208DF85E0005E002F0F3FD18991B
:10592000086000E0FFE751E09DF85F00014602914A
:1059300048B1FFE702980138012809D8FFE70B209A
:105940008DF85E0005E002F0D7FD1899086000E0D0
:10595000FFE73BE09DF85F000146019140B3FFE7A0
:105960000198013801282BD8FFE718980068B0F19A
:10597000FF3F04DCFFE7189900200860FFE7189854
:105980000068022804DBFFE7189901200860FFE7A0
:10599000189800684AF6B321C2F20001887408F032
:1059A000B1FC9DF85F00012801D1FFE709E0FFE7A6
:1059B0004AF6B320C2F20000807C1899086000E02B
:1059C000FFE703E005208DF85E00FFE79DF95E002C
:1059D0001AB080BD80B588B08DF81F000691FF20F9
:1059E0008DF817009DF91F0001460191522800F221
:1059F00088820199DFE811F053005A0061006800C5
:105A00006F0076007D0084008B0092009900A0005A
:105A1000A700AE00B500BC00C300CA00D100D8008A
:105A2000DE00E400EA00F100F800FF0006010D01CD
:105A300014011B01210127012C01360140014701FE
:105A40004E0155015C0163016A01710178017F011A
:105A500086018D0194019B019F01A301A701AB0168
:105A6000AF01B301B701BB01BF01C301C701CB0146
:105A7000CF01D301DD01E701EE01F50100020B02C8
:105A8000160220022A02310238023F0246024D026B
:105A900054025B0262026902700277027E020020F9
:105AA00007F062FA069880ED000A2EE2012007F066
:105AB0005BFA069880ED000A27E2022007F054FA0C
:105AC000069880ED000A20E2032007F04DFA0698C0
:105AD00080ED000A19E2042007F046FA069880EDEE
