:020000040800F2
:1000000048E50020110300081D0300081F03000835
:100010002103000823030008250300080000000056
:10002000000000000000000000000000270300089E
:1000300029030008000000002B030008D5BE0008BB
:100040002F0300082F0300082F0300082F030008C8
:100050002F0300082F0300082F0300082F030008B8
:100060002F0300082F0300082F0300082F030008A8
:100070002F0300082F0300082F0300082F03000898
:100080002F0300082F0300082F0300082F03000888
:100090002F0300082F0300082F0300082F03000878
:1000A0002F0300082F0300082F0300082F03000868
:1000B0002F0300082F0300082F0300082F03000858
:1000C0002F0300082F0300082F0300082F03000848
:1000D0002F0300082F030008C9C40008D1C400087A
:1000E0002F0300082F0300082F0300082F03000828
:1000F0002F0300082F0300082F0300082F03000818
:100100002F0300082F0300082F0300082F03000807
:10011000DDC300082F0300082F0300082F03000889
:100120002F0300087D540008E15400082F03000845
:100130004D5500082F0300082F0300082F03000867
:100140002F0300082F0300082F0300082F030008C7
:100150002F0300082F0300082F030008ADC5000877
:100160002F0300082F0300082F0300082F030008A7
:100170002F0300082F0300082F03000800000000D1
:100180002F0300082F0300082F03000861C4000894
:100190002F0300082F0300082F03000800000000B1
:1001A0002F0300082F0300082F03000800F002F8B7
:1001B00000F09EF80AA090E8000C82448344AAF163
:1001C0000107DA4501D100F093F8AFF2090EBAE861
:1001D0000F0013F0010F18BFFB1A43F0010318477B
:1001E000ECC401000CC50100103A24BF78C878C1E6
:1001F000FAD8520724BF30C830C144BF04680C602D
:10020000704700000023002400250026103A28BF74
:1002100078C1FBD8520728BF30C148BF0B60704778
:100220006E2900F0EC85702900F08382662916F0B3
:100230006083652916F05D83672916F05A8361296A
:1002400016F0598303681B0A28BF41F08001692911
:1002500000F0F481642900F0F181752900F0EE814D
:100260006F2901F0FB80782900F04F82E92901F025
:100270009580E42901F09280F52901F08F80EF2923
:1002800001F0F880F82900F04E820368DB0928BFEE
:1002900041F08001632901F00480732901F0098095
:1002A000E32901F02D83F32901F032830020704708
:1002B0001FB516F00CFB9DE8030000F0FFFC01F0F9
:1002C000F3F804000020002115F02AFD401C6060B6
:1002D0000020002115F03AFDE060AFF30080AFF39D
:1002E000008001F08FFB1FBD10B501F0F4FB10BDC5
:1002F00001F056FC1146FFF7DBFF13F061FE01F041
:1003000021FE03B4FFF7F0FF03BC0CF0EBFC000090
:100310000A4880470A4880470A480047FEE7FEE748
:10032000FEE7FEE7FEE7FEE7FEE7FEE7FEE7FEE7A5
:1003300005480649064A074B70470000EDBE000815
:10034000C9950008AD010008C8A4002048E50020B8
:1003500048A5002048A50020704770B5064600F06B
:1003600091FC056806F10B0020F00704B4429CBF25
:10037000002070BD2B466A68BAB11068A04210D345
:1003800004F1080188423CBF5068586007D35168A7
:10039000101941601168091B016058601460101D3C
:1003A00070BD13465268002AE7D12146284600F066
:1003B00071FC0028DED170BD70B50446051F00F049
:1003C00061FC0068002C14BF446870BD002C18BF8D
:1003D000AC423CBF20466468F8D301680A18AA42C0
:1003E00018BF456003D12A6805461144016028689A
:1003F0004119A1421CBF6C6070BD616869602168D1
:100400000844286070BD53EA020C00F069802DE9B1
:10041000F04B4FF00006002B1FBFB3FA83F503FA31
:1004200005F424FA05F65E4012BF1643B2FA82F5CF
:1004300002FA05F4C5F120051EBF22FA05FC44EAC4
:100440000C04203556EA044C4FEA144418BF641CCF
:100450004FF000084FF00009904271EB030C39D3C4
:10046000002919BFB1FA81F701FA07F6B0FA80F74F
:1004700000FA07F6C7F120071EBF20FA07FC46EA7C
:100480000C062037B6FBF4FCA7EB0507103F07F07E
:100490001F0BCBF120062CFA06F60CFA0BFB44BF1F
:1004A000B3460026202FA4BF5E464FF0000B5BEA48
:1004B000060C08BF4FF0010B19EB0B0948EB0608BF
:1004C000ABFB027C06FB02CC0BFB03CCC01B71EB2D
:1004D0000C01C1E70B46024641464846BDE8F08B99
:1004E00013B5084318BF4FF0FF300146AFF300804B
:1004F000BDE81C40704710B5044600F0BBFB006827
:10050000005D000704D5DF2C02D0A4F1200010BD4F
:10051000204610BD0A46014900F0D0BE540200201A
:100520000FB4044910B503AA029800F0C7FE10BC2E
:100530005DF814FB540200200FB41CB5084B06AA4A
:100540007B4469460090059800F081FE0446002037
:10055000694600F08FFE20461CBC5DF814FB0000CD
:10056000310D00000FB47CB50C0009AA009001D039
:100570002044401E084B7B4469460190089800F0D7
:1005800066FE05461CB10020694600F073FE284651
:100590007CBC5DF814FB0000050D000070B504463E
:1005A00085690068C10601D5302600E02026C00715
:1005B00007D070BDD4E9012130469047206A401C25
:1005C00020626D1EF6D570BD70B504468569007851
:1005D000C00707D170BDD4E9012120209047206ACF
:1005E000401C20626D1EF6D570BD70B50C460546E8
:1005F000012A05D02878800600D5EA69002302E0A8
:10060000012305E05B1C934202D2E05C0028F9D193
:10061000A869E618C01AA861286A18442862284602
:10062000FFF7BCFF04E0D5E9012114F8010B904766
:10063000B442F8D32846FFF7C7FF70BD2DE9F0415B
:100640000646002410687529314616A510D000F022
:100650006BFB002802DA404213A507E031688A07E5
:1006600001D512A502E0490704D511A5012401E036
:1006700000F063FB00210A2206F1240709E0B0FB29
:10068000F2FCB0FBF2F302FB1C0030307854184649
:10069000491C0028F3D123462A463046BDE8F041E4
:1006A00000F054BB000000002D0000002B000000F3
:1006B00020000000F0B40D460188090502D5214C48
:1006C0007C4402E01F4C7C440E34002100F12406DF
:1006D00008E002F00F071209E75D42EA03721B0906
:1006E0007754491C52EA0307F3D10278002312071A
:1006F00004D5702D06D009B1022311342246F0BC76
:1007000000F024BB01231034F8E770B504460D4611
:100710002146106800F011FB024629462046BDE83C
:1007200070400023C6E7D21D22F00703D3E900235F
:10073000C0E70368126843F0200303600823C36125
:100740000023B7E7366201002DE9F05F89460446D1
:100750004FF0000ADFF874B1FB44C0F820A0204637
:10076000E1688847002874D0252806D0D4E9012103
:100770009047206A401C2062F1E700265F46204631
:10078000E16888472028054607DB312D05D2781916
:1007900010F8200C08B10643F1E7B00701D526F0A8
:1007A0000406C4F81CA00027C4F818A02A2D09D0FC
:1007B000284615F0A1FA38B304EB8708303DC8F895
:1007C000185019E059F8041B204604EB8702916188
:1007D000E1688847012F054618D1E069002820DA32
:1007E00026F020061DE0D8F8180000EB800005EB8D
:1007F00040003038C8F818002046E16888470546B0
:1008000015F07AFA0028EED1012F0AD02E2D08D14A
:100810002046E16888477F1C0546022F46F02006E7
:10082000C4DBA069002803DA404246F00106A0615B
:10083000F00701D026F010066C2D0BD0682D09D0E2
:100840004C2D39D06A2D35D0742D35D07A2D33D03A
:1008500016E038E0E1682F4620468847B842054652
:1008600009D16C2F26D04FF48060E1680643204602
:100870008847054604E06C2F1AD04FF48070064379
:100880000DB3A5F14100192802D8203546F40066C1
:100890004A462946204626604E46FFF7C1FC80B1F5
:1008A00001280BD0F61D26F0070000F1080956E7D5
:1008B0004020E4E78020D8E70020D6E706F10409CD
:1008C0004DE7284652E7206ABDE8F09FC661010067
:1008D0000EB5054614460E4613A001F0EFFC28465F
:1008E00001F0ECFC16A001F0E9FC304601F0E6FC5A
:1008F00015A001F0E3FC00218DF80B100A210DF189
:100900000A008DF80A1008E094FBF1F201FB124294
:1009100094FBF1F4303200F8012D002CF4DC01F0EE
:10092000CDFC00F0B1FD00002A2A2A206173736516
:100930007274696F6E206661696C65643A200000AC
:100940002C2066696C6520002C206C696E65200087
:1009500030B503461D781DB10A4603E0AC4201D113
:10096000181A30BD12F8014B002CF7D15B1CF1E7CF
:1009700030B503461D783DB10A4612F8014B1CB153
:10098000AC42FAD15B1CF5E7181A30BD40EA01030E
:1009900010B59B070FD1042A0DD310C808C9121F28
:1009A0009C42F8D020BA19BA884201D9012010BD62
:1009B0004FF0FF3010BD1AB1D30703D0521C07E02F
:1009C000002010BD10F8013B11F8014B1B1B07D193
:1009D00010F8013B11F8014B1B1B01D1921EF1D104
:1009E000184610BD10B5431C02E010F8011B71B190
:1009F0008107FAD14FF0013202C88C1A8C4314EAF5
:100A0000C211F9D0C01A0A0603D0C01E10BDC01A08
:100A100010BD0A0401D0801E10BD0902FCD0401E8A
:100A200010BD032A40F2308010F0030C00F0158056
:100A300011F8013BBCF1020F624498BF11F801CBE1
:100A400000F8013B38BF11F8013BA2F1040298BF46
:100A500000F801CB38BF00F8013B11F0030300F0B0
:100A60002580083AC0F0088051F8043B083A51F854
:100A700004CBA0E80810F5E7121D5CBF51F8043B59
:100A800040F8043BAFF30080D20724BF11F8013BCC
:100A900011F801CB48BF11F8012B24BF00F8013B2E
:100AA00000F801CB48BF00F8012B704710B5203A81
:100AB000C0F00B80B1E81850A0E81850B1E8185009
:100AC000A0E81850203ABFF4F5AF5FEA027C24BFDB
:100AD000B1E81850A0E8185044BF18C918C0BDE8C4
:100AE00010405FEA827C24BF51F8043B40F8043B8D
:100AF00008BF7047D20728BF31F8023B48BF11F842
:100B0000012B28BF20F8023B48BF00F8012B70479B
:100B100002F0FF0343EA032242EA024200F002B875
:100B20004FF000020429C0F0128010F0030C00F016
:100B30001B80CCF1040CBCF1020F18BF00F8012B94
:100B4000A8BF20F8022BA1EB0C0100F00DB85FEA62
:100B5000C17C24BF00F8012B00F8012B48BF00F82E
:100B6000012B70474FF0000200B51346944696469D
:100B7000203922BFA0E80C50A0E80C50B1F12001B0
:100B8000BFF4F7AF090728BFA0E80C5048BF0CC05E
:100B90005DF804EB890028BF40F8042B08BF7047BC
:100BA00048BF20F8022B11F0804F18BF00F8012B2E
:100BB0007047000070B50C46016800204A1C3ED00A
:100BC0003C22B1FBF2F302FB1313B1FBF2F1236001
:100BD000B1FBF2F302FB1313B1FBF2F118226360D5
:100BE000B1FBF2F302FB1313B1FBF2F146F2E03278
:100BF0000A440721A360B2FBF1F301FB132140F289
:100C0000B553B2FBF3F5A161B2FBF3F103FB15227F
:100C10008900B2F5B77F08D39B10521EB2FBF3F5E3
:100C20002944B2FBF3F503FB15220F4BE26161612E
:100C300089077B440CD03B2A0AD3521C08E02C21A4
:100C40002046FFF78FFF0120E0600AE0521A401CA7
:100C5000195C9142FAD9521CC4E903204FF0FF30CD
:100C60002062204670BD0000065D0100704770479D
:100C70007047704710B500F017FC001D10BD00BF95
:100C8000A1500100004870470403002070477047DE
:100C90007047704738B504460A4600206946AFF3EE
:100CA0000080002808BF38BD02460099204600F0A9
:100CB000FFFB012038BD012000F06BBFF8B5AFF39A
:100CC0000080054600200C46102000BF0646A819EB
:100CD000A0420DD9324669460020AFF300800700DC
:100CE00008BF00F056FF0098A04218BF0546C4197F
:100CF000FFF7C8FF05600746F01D20F00700461902
:100D0000284600F00AF8B44208BFF8BDA21B3146DD
:100D10003868BDE8F84000F0CBBB00210160C0E9B5
:100D2000011070471020704709684A0501D540B28C
:100D30007047C905FCD500B2704709684A0501D55E
:100D4000C0B27047C905FCD580B270472DE9F047A5
:100D50000D4699469246044600F12408016888062B
:100D600004D5E06921F01001216000E00120A842D3
:100D700001DD471B00E00027A1697A1902EB090099
:100D8000081AA0612078C00602D42046FFF706FCAE
:100D9000002608E0D4E901211AF806009047206AED
:100DA000401C761C20624E45F4DB2078C0060AD534
:100DB0002046FFF7F3FB06E0D4E9012130209047FD
:100DC000206A401C2062381EA7F10107F4DC07E00E
:100DD000D4E9012118F805009047206A401C2062E0
:100DE000281EA5F10105F3DC2046FFF7EDFB207876
:100DF000000602D50220BDE8F0870120FBE711685C
:100E00000268006A530501D508700AE0D30501D5D0
:100E1000088006E0130603D5C217C1E9000200E00E
:100E20000860012070472DE9FF4F0C461E464FF029
:100E3000FF378BB0D2E90001DDF860800A908A4666
:100E4000C1F30A5505B93D46002108464FF00000A0
:100E5000BAF1000F00F4400005DA00EB80004FF417
:100E6000400101EA50004FEA9059B9F1010F00DD4D
:100E7000B9460A9850EA4A000ED044F61050A5F23E
:100E8000FF3545432F14B8F1000F1ED07542291EBF
:100E90001EDDC9F100021CE0B8F1010F4FF00000A7
:100EA00001D0302103E0F24305E02154401CB04260
:100EB000FBDB30460022002121540B99C1F8088049
:100EC000C1E900200FB0BDE8F08FBD1B6D1CDEE74F
:100ED0004A4600DA694206A800F01EFD06AB93E818
:100EE000070003AB83E8070050460A9914F024FB7F
:100EF0008DE80700A0F500501F3800900398002DE2
:100F00000ADD42F21F014A460844002303A9039068
:100F1000684614F08DFD09E0A0F500504A461F38E0
:100F2000002303A90390684614F097FD8DE807009D
:100F30000004000C03D04FF0FF30410800E01046E1
:100F4000B8F1000F03D00022009215461EE0751E76
:100F500005D400F0C7FA303262556D1EF9D5B3469C
:100F60000122084302D000227F1C04E020783028B0
:100F700001D100227F1E002A099784D01DE0112D87
:100F800007DA00F0AFFA303262556D1C50EA010208
:100F9000F5D1084302D00098C8B10EE00021681EC8
:100FA00005E0235C625C63542254401E491C81426C
:100FB000F7DBAB46A81B401E0990002004F80B008D
:100FC0000B98099AC0F80880C0E9002B7AE711262F
:100FD0004FF0000857E72DE9F04F88460446D21D30
:100FE00022F0070191B0D1E90001CDE90A0114F026
:100FF0006BFE02460B98C00F01D02D2007E0206841
:10100000810701D52B2002E0202101EAC000032A3C
:10101000099001D0072A05DB03464146204600F02F
:1010200025FC0BE12078800601D5E06900E0062070
:10103000B8F1650F814606D0B8F1660F18D0B8F147
:10104000670F70D131E00020B9F1110F009001DB82
:10105000112301E009F101030AAA01A90CA8FFF775
:10106000E2FEDDE90C70002609F10105834647E048
:1010700001204B4600904FF000470AAA01A90CA896
:10108000FFF7D1FEDDE90DB00C995D46002610B9E1
:1010900009F101000D18B9EB050003D4C0F1FF36CA
:1010A00009F10105A5EB09002BE0B9F1010F01DA07
:1010B0004FF001090020B9F1110F0090484601DD01
:1010C000112300E003460AAA01A90CA8FFF7ABFE12
:1010D000DDE90C704D4600268346207800070AD4CF
:1010E000AB4500DA5D4601A8012D04DD411911F878
:1010F000011C302907D04F4502DA17F1040F04DA3A
:10110000012082460FE06D1EEEE7002F02DCED1B92
:101110003E4403E0781CA84200DD7D1CB81B00F1B2
:10112000010A4FF000472078000703D4AA4501DBED
:101130004FF0FF3A0021B7F1004F0DF143088DF851
:10114000431024D002202B23002F01DA7F422D23CD
:101150000A21021EA0F1010000DC5FB197FBF1FC47
:1011600097FBF1F201FB1C7C17460CF1300C08F8E0
:1011700001CDEEE7A8F1010003702188090501D532
:10118000452100E06521A0F1010800F8011C099843
:101190000FA9A1EB0807FF1D00B10120411901EBC8
:1011A000EA70A1693844081A401EA0612078C00680
:1011B00002D42046FFF7F2F9099828B1D4E90121B9
:1011C0009047206A401C20622078C00622D5204625
:1011D000FFF7E4F91EE0002E04DBB34502DD01A8B1
:1011E000805D00E03020D4E901219047206A401C56
:1011F0002062761CAAF101005FEA000A0AD100F021
:1012000053F9C0680168405CD4E901219047206A25
:10121000401C2062281EA5F10105DCDC07E0D4E9B2
:10122000012118F8010B9047206A401C2062381EEB
:10123000A7F10107F3DC2046FFF7C6F9032011B040
:1012400041E6000001694A1C02610878704700B558
:101250008FB0CDE901310021059105497944CDE9EF
:10126000031011466846FFF76FFA0FB000BD00008B
:10127000E5FFFFFF0A6802F8010B0A607047D1E939
:1012800000239A4202D2531C0B601070704710B5B5
:10129000436913B1AFF3008001E0FFF7A6F9012025
:1012A00010BD127800F124010A7000224A70012258
:1012B000EDE711684FF0FF32E9E70000074B70B52A
:1012C0000D467B44FFF7C3FF0446284600F096FB1B
:1012D00010B14FF0FF3070BD204670BD414A010093
:1012E0002DE9FF5F15468A460446DFF8AC80F844D6
:1012F0000027D8E900103E46CDE9001010E03AF88A
:1013000016106A4602A800F019FC411C07D021788B
:10131000890603D5E269391891420DD80744761C35
:101320002078800602D5E069B84205DDAE42E6DBF2
:101330003AF816000028E2D1A069C01BA06120463F
:10134000FFF72CF9D8E90010CDE90010002017E0D4
:101350003AF818106A4602A800F0F0FBB0F1FF3F1F
:1013600081460BD000250DF1080B05E0D4E90121E1
:101370001BF8050090476D1C4D45F7D308F101009F
:10138000B0428046E4DB206A384420622046FFF702
:101390001BF9BDE8FF9F0000425601002DE9F04116
:1013A0008046D21D22F007020025D2E90002F5296D
:1013B00015A614D0011E72F1000106DA0023D0EB4D
:1013C000030063EB020211A608E0D8F800108B07B7
:1013D00001D50FA602E0490701D50EA60125114649
:1013E000002408F1240704E000F07CF830323A557C
:1013F000641C50EA0102F7D12B4632462146404692
:10140000BDE8F041FFF7A2BC000000002D00000085
:101410002B0000002000000030B4002100F1240463
:1014200008E002F00705D208303542EA4372DB08D3
:101430006554491C52EA0305F3D10468002310A245
:10144000250708D504F020040C4304D0C469012307
:101450000CA2641EC46130BCFFF778BC10B5044612
:1014600021461068FFF769FC02462046BDE810409F
:101470000023D1E7D21D22F00701D1E90023CBE7F9
:10148000000000003000000010B5002000F07AFBE2
:10149000FEF72AFFBDE8104001200BF023BC00003E
:1014A00000487047FC020020004870471C030020E1
:1014B000034640688C46002818BF88423CBF03465C
:1014C0004068F8D318681844884207D00CF103002C
:1014D00020F00700001D411A521A0146081D0A603B
:1014E000FEF76ABF30B5B0F10A0271F100034FEAAE
:1014F000900E4EEA817EB0EB0E0061EB91014FEA57
:10150000101E4EEA017E10EB0E0041EB11114FEA66
:10151000102E4EEA016E10EB0E0041EB11214FEA46
:10152000104E4EEA014E10EB0E0041EB11414018F7
:1015300041F100014FEAD00040EA41704FEAD10189
:101540004FEA810444EA907410EB800544EB0104F7
:101550006D1944EB0404521BA3414FF0000348BF34
:101560000A3200D530BD401C41F1000130BD000001
:101570002DE9F04F04460D46D21D22F0070089B038
:10158000D0E900974846394614F09EFB0246F80F12
:1015900001D02D2307E02068810701D52B2302E02D
:1015A000202101EAC0038DF820300BB1012000E0BA
:1015B0000020032A824601D0072A04DB2946204660
:1015C00000F054F93FE12078800601D40D2500E0B9
:1015D000E569C7F30A560D2D49DA00214FEA175B7A
:1015E00008464FF00000002F00F4400007DA00EB3F
:1015F00080004FF4400100EBD07001EA60008115DB
:10160000012901DD4FF0FF3100224FEA850CBCF1CA
:10161000180F06D31346ACF118004FF08052C240A9
:1016200003E04FF4801323FA0CF30CF10C0CBCF123
:10163000200F04D3ACF1200C09FA0CF001E007FAFA
:101640000CF000294FF0004801DD18B90FE00ED171
:1016500040450CD319EB02095F4121B9404502D145
:101660009F4329EA0209BBEB175F00D0761C208854
:10167000000502D57B48784402E07A48784419385E
:1016800008AA302302F80A30037C0AF10101002E77
:101690000AF1020A53546A4602DC4FF0300101E0BD
:1016A0004FF031014FF001088DF8001002D0A6F282
:1016B000FF3603E059EA470100D06B4E002D02DCF3
:1016C0002178090704D54FF002082E218DF801106A
:1016D000C44600210BE0C7F303433F01C35C491C30
:1016E0006D1E02F80830052908F1010801DA002D05
:1016F000F1DC00210CE000EB1973491C1B786D1E16
:10170000082902F808304FEA091908F1010801DA3E
:10171000002DF0DC21688B0602D516E0A8F1010847
:10172000E04505DD02EB080313F8013C302BF5D052
:10173000B8F1000F09DD02EB080313F8013C2E2B72
:1017400003D1090701D4A8F10108002D05DD3E21D0
:1017500002F808106D1E08F10108407C002E02F806
:10176000080008F1010804DA2D20764202F808008A
:1017700002E02B2002F808000A214FF47A7086421A
:1017800008F101080BDB96FBF0F3303302F8083068
:1017900096FBF0F308F1010800FB136601E0642EEC
:1017A0000CDB642096FBF0F3303302F8083096FB34
:1017B000F0F308F1010800FB136601E00A2E06DBD6
:1017C00096FBF1F0303002F8080008F1010896FBB2
:1017D000F1F001FB1060303002F80800A16908F157
:1017E000010808EB050202EB0A00081AA061207844
:1017F000C00602D42046FEF7D1FE216A08AE01EBF6
:101800000A00206204E0D4E9012116F8010B904798
:10181000BAF1010AF7D22078C00602D52046FEF7B9
:10182000BDFE6E4609E016F8010B3E280FD0D4E944
:1018300001219047206A401C2062B8F10108F2D2D1
:101840002046FEF7C1FE09B00320BDE8F08F206AF4
:101850002844206203E0D4E90121302090476D1E26
:10186000EBD3F8E7E152010002FCFFFF2DE9F04164
:101870001F46044603260168072A01F4006004DBC2
:1018800008B116A505E016A503E008B115A500E00E
:1018900015A521F010002060A069C01EA0610FB145
:1018A000401EA0612046FEF779FE4FB1D4E9012128
:1018B00038469047206A401C2062C01C206206E027
:1018C000206AFAE7D4E9012115F8010B9047761E4A
:1018D000F8D22046FEF778FEBDE8F0814E414E007A
:1018E0006E616E00494E4600696E660010B5436930
:1018F00013B1AFF3008001E0FFF7F2FC012010BD4F
:10190000128800F1240182840022C2840122EDE7C2
:1019100011684FF0FF32E9E72DE9F047814616469E
:101920008AB0354878440DC88DE80D0032487844B7
:10193000801C03AC0DC884E80D0041F69B300844C0
:10194000372190FBF1F290FBF1F5A5F1800501FB49
:1019500012041B3C02D56442012000E00020DFF8A5
:1019600098A080460027FA44AAF1BE0A0EE0E007DC
:101970000AD03246684607EB470101230AEB810192
:1019800014F06BF88DE8070064107F1C002CEED17A
:10199000194F7F44AE3F19E0E80715D007EB04105C
:1019A0000DF1180A90E80E008AE80E00C068F042B7
:1019B00001D1981908903246012306A903A814F012
:1019C0004CF803AB83E807006D10641C002DE3D1D5
:1019D0004FF0010332466946B8F1000F03A802D068
:1019E00014F026F801E014F038F8C9E90001C9F84C
:1019F00008200AB0BDE8F087C4500100007B00F069
:101A00008000704710B542485421FFF7ABF84148B9
:101A10005421FFF7A7F840485421FFF7A3F83F49A6
:101A20003B483C4A3F4B08603D490A603A491960CF
:101A3000531C0365481C1065012008653B48344A67
:101A400039A1784400F0E0F920B9384878440A38E0
:101A500000F09EFA37482F4A35A1784400F0D4F9B7
:101A600020B9344878440A3800F092FA32482A4AB9
:101A70002FA1784400F0C8F920B92F4878440A38DB
:101A800000F086FA40232248DC000021224600F0C4
:101A900097F920B125487844543800F079FA1D4868
:101AA00022464023002100F08BF920B121487844E0
:101AB000543800F06DFA184822461023002100F037
:101AC0007FF9002806D01C487844BDE810405638FD
:101AD00000F05EBA10BD104870B5006D20F0010432
:101AE0000B4800F009FA0B4800F006FA0A4800F02B
:101AF00003FA09E0206D20F00105204600F0FCF912
:101B00002046FEF759FC2C46002CF3D170BD000096
:101B10000002002054020020A80200200000002043
:101B2000040000200800002072000000DA9B010081
:101B300077000000C69B0100A69B01002DE9F04143
:101B400016460C460546FFF795F8036893F8010121
:101B5000012807D0FF2C12D8185D80B101202C700D
:101B6000BDE8F081D3F807013246214603F207139E
:101B7000C7182846BC46BDE8F041002360474FF037
:101B8000FF30EDE710B500F0EBF9BDE8104000F0D4
:101B9000E2B910B500F004FABDE8104000F0DBB97E
:101BA0007546FFF77DFCAE4605006946534620F0BA
:101BB0000700854618B020B5FEF7BAFBBDE8204007
:101BC0004FF000064FF000074FF000084FF0000BF9
:101BD000AC46ACE8C009ACE8C009ACE8C009ACE868
:101BE000C00921F007018D4670472DE9F0470546F1
:101BF0000C46C86820F4201040F48000C8608006BD
:101C000002D5084600F005FBE06841F282014FF082
:101C1000FF390140022903D0204600F0A3FAB5E0C5
:101C200000F42041B1F5004F0FD1C00306D5616823
:101C3000E06A884200D80846606006E02069E062F9
:101C4000606060690BF050F8A061A0680022EEB2FD
:101C500000280DDAE1688B050AD4C043A06041F486
:101C600090302260E0606068411C61600670A5E011
:101C7000E0689046226040F40050E060206968BB54
:101C800060690BF035F8012704F12405A0B1A089A3
:101C900010F4407F08D0E069FEF75FFB206118B1C7
:101CA000E06840F4006016E0E7612561E06820F438
:101CB000407040F480600EE0E069FEF74EFB0028C3
:101CC0002061F1D0E06840F4006010F4407FE060F3
:101CD00002D140F48070E06020696060E0682569AE
:101CE0006FF0010AC1051FD56168E06A884200D81B
:101CF0000846411B04D02246284600F03DFAF0BBBE
:101D0000E068010203D5E562C4E9015854E0691CAA
:101D1000E1626160E16940F48030491EC4E902106B
:101D200030462E70BDE8F087010202D500F4803203
:101D30000AE06068411C61600670E0680A2E40F4A9
:101D40008030E06006D00022E16A6068814203D9F9
:101D50000B4602E00122F7E70346A7895B1B7F05DC
:101D600003D4E7699F4200DDE2B1814200D8014619
:101D7000E5620F1AC4E90158002B09DD00E005E017
:101D800022461946284600F0F7F908B14846C9E747
:101D900047B1A069E5626560C01BA061E06840F0E2
:101DA0001000E060E068000208D56168A069E562A3
:101DB000491B08446560A0615046B3E73046B1E76F
:101DC00070B5C468A50713D0650211D4B2F5807F41
:101DD00009D0B2F5007F06D0B2F5806F08D101239B
:101DE00000F1240106E05D1E6FF07F46B54201D38D
:101DF000012070BD0161C361416024F47061114331
:101E0000C160002070BD00002DE9F0410C4616466F
:101E1000070047D0104600F06FF82078611C612859
:101E20000AD0722802D077283CD102E00125002494
:101E300005E00225042402E0082448F2020511F816
:101E4000010B2B2806D0622809D011F8010C742848
:101E50000AD00BE045F0030544F00204EFE745F03B
:101E6000040544F00104EAE744F010043846214632
:101E70000AF040FF411C15D00021316171604FF420
:101E80000071F560F1617061200704D530460222CF
:101E9000002100F0EBF8306D40F001003065304675
:101EA000BDE8F0810020FBE72DE9F0410D46064634
:101EB000104C206DC10704D0410804D020F001046B
:101EC000F7E722460EE05420FEF747FA07000ED04F
:101ED000206D47F001010843542120653846FEF784
:101EE00041FE3A4629463046BDE8F0418CE70020E5
:101EF000D6E70000000200202DE9F04704464FF02D
:101F000000094FF0FF37C568D4E90486A80707D059
:101F1000204600F05BF930460AF0E2FE002802DAC3
:101F20003846BDE8F087280502D54046FEF744FA5A
:101F30004C212046FEF716FE206D20F001002065A2
:101F40004846EEE710B50446AFF300802046BDE8F2
:101F50001040FEF7D6B9002801D00AF0C3BE704782
:101F600010B5002102A000F075F9012010BD00009D
:101F7000534947414252543A2041626E6F726D613B
:101F80006C207465726D696E6174696F6E0000001B
:101F900010B500F079F9BDE81040FFF7DCBF000094
:101FA00010B5012805D0002103A000F053F901204D
:101FB00010BD09A1F8E7000053494752544D454D63
:101FC0003A204F7574206F662068656170206D65DA
:101FD0006D6F7279000000003A2048656170206DD5
:101FE000656D6F727920636F7272757074656400CD
:101FF00030B44FF0013C50F8042B51F8043BCCFABC
:1020000052F4D51A20D1FCB950F8042B51F8043BF6
:10201000CCFA52F4D51A17D1B4B950F8042B51F8B0
:10202000043BCCFA52F4D51A0ED16CB950F8042BFB
:1020300051F8043BCCFA52F4D51A05D1002CDAD071
:1020400030BC4FF00000704729BAB1FA81F111F0AD
:102050001801D1F120008440F2D1CA40CB4012F0E7
:10206000FF0213F0FF0330BCD01A70472DE9F04196
:10207000044616460D464769007B80072ED0384639
:102080000AF036FE50BB3EB3012E02D0022E25D1FF
:1020900004E0204600F061F905441DE038460AF0EE
:1020A00023FEE168002841F01001E16005DA2046D6
:1020B00000F058F80120BDE8F081C9030BD5626833
:1020C000E16A914200D81146A26911442269891A35
:1020D000814200DD08460544002D01DA0220EAE7CE
:1020E000E16A6068E268814206D29103E06203D54A
:1020F00022F4003141F01002A6690027AE4213DC41
:10210000E16A814201D90B4600E0034603EB060C6D
:102110002369ACEB030CAC4506DD814201D98C464A
:1021200000E084469C4505D1A760276042F020006E
:10213000A5620DE0AD1BE669AE1B8142A66000D929
:102140000846C01A281A20605819606022F0200042
:1021500003490840E060002084F84870ABE70000C5
:10216000BFCFD7FFC16821F4001141F08001C160E9
:1021700000218160016070472DE9F04781461446D7
:102180000E464FF0FF383248D5685769054209D0EE
:102190003846A1690AF0B0FD002811DB2C48C04385
:1021A0000540E5602B463246494638460AF0A8FD10
:1021B000A16920F00042B21A11440028A16103D0A5
:1021C0002046FFF7CFFF4046BDE8F08770B50446D4
:1021D0000569C06A6168884200D80846E16821F450
:1021E0002011E160C90312D5A84208D02246411B44
:1021F0002846FFF7C1FF10B14FF0FF3070BD00203F
:10220000E562C4E90150E06820F48030E06000201D
:1022100070BD10B50446C06820F02000E060A16ADF
:10222000A06988420DD02046FFF7D0FFE06820F477
:10223000405040F01000E060A06AA0612069E062B8
:10224000606044F24001E0688843E06010BD000037
:102250001000020070B505460C460A2000E06D1C17
:102260000AF050FD35B128780028F8D102E0641C4E
:102270000AF048FD14B120780028F8D1BDE870407C
:102280000A200AF03FBD000010B5014602A0FFF78A
:10229000E1FF012010BD000053494752545245440C
:1022A0003A2052656469726563743A2063616E27EF
:1022B00074206F70656E3A200000000010B504496C
:1022C00000F03AF8BDE81040014800F01EB80000E8
:1022D000A802002070B50446C068810713D08006AC
:1022E00001D5A56A04E0A169606808442169451A1E
:1022F0002046FFF76BFF0022064629462046FFF7DF
:10230000B5FE304670BD002070BD70B510B1BDE89F
:102310007040DFE70025074C6E1E07E02046FFF700
:10232000D9FF00B13546206D20F00104002CF5D115
:10233000284670BD0002002070B50D46044604E03A
:10234000294613F0E0FC401C04D014F8010B0028CF
:10235000F6D170BD4FF0FF3070BD10B50146C268B8
:10236000900703D0900607D5886A0AE000F016F8B7
:1023700001210160881E10BD8B69486818440B69F3
:10238000C01A91F848301BB191F84910401A10BD9D
:102390001103FCD50028FADD401E10BD004870472F
:1023A000FC0200202DE9F0410C4606460846C021FB
:1023B000FEF7B6FB45F25270C4F8D0000020342E70
:1023C000C4E93000C4F8C800C4F8CC0000F2AE8004
:1023D00004F1800504F1900704F1A008DFE816F08D
:1023E000360052006E008A00360052006E008A00ED
:1023F000360052006E008A00360052006E008A00DD
:10240000360052006E008A00360052006E008A00CC
:10241000360052006E008A00360052006E008A00BC
:10242000AA00C200DA00F2000A0122013A015201B8
:102430006A0182019A01B201CA01E201FA011202A3
:102440002A0242025A027002860200BFB6084BF20C
:102450006D72C0F60102204680213346FEF782F8F5
:102460005F204BF24C722860002046F22561C0F6D6
:1024700001026860A860E86039607860B860F86060
:102480004EE000BFB6084BF25A72C0F60102204679
:1024900080213346FEF766F85F202860002046F270
:1024A00025614BF23E726860A860E8603960786030
:1024B000B860F860C0F6010232E000BFB6084BF227
:1024C0002B72C0F60102204680213346FEF74AF8FF
:1024D0005F202860002046F225614BF21D72686083
:1024E000A860E86039607860B860F860C0F6010202
:1024F00016E000BFB6080FF2A44220468021334602
:10250000FEF730F85F202860002046F22561686001
:10251000A860E86039607860B860F8600FF29042B7
:10252000404620213346FEF71DF8F8E1052040B271
:10253000BDE8F08146F6C871C0F601012046802250
:10254000FEF76FFA46F225610020396047F270010C
:1025500028606860A860E8607860B860F860C0F6DD
:102560000101D8E146F69C61C0F6010120468022B7
:10257000FEF757FA46F225610020396046F6A4714D
:1025800028606860A860E8607860B860F860C0F6AD
:102590000101C0E146F6D051C0F60101204680227B
:1025A000FEF73FFA46F225610020396046F6786171
:1025B00028606860A860E8607860B860F860C0F67D
:1025C0000101A8E146F68041C0F6010120468022C3
:1025D000FEF727FA46F225610020396046F62851B9
:1025E00028606860A860E8607860B860F860C0F64D
:1025F000010190E146F65431C0F6010120468022E7
:10260000FEF70FFA46F225610020396046F65C417C
:1026100028606860A860E8607860B860F860C0F61C
:10262000010178E146F60421C0F60101204680222E
:10263000FEF7F7F946F225610020396046F60C31C5
:1026400028606860A860E8607860B860F860C0F6EC
:10265000010160E14BF26C31C0F60101204680229D
:10266000FEF7DFF946F22561002039604BF2144194
:1026700028606860A860E8607860B860F860C0F6BC
:10268000010148E14BF21C21C0F6010120468022E5
:10269000FEF7C7F946F22561002039604BF2C421EC
:1026A00028606860A860E8607860B860F860C0F68C
:1026B000010130E14BF2F001C0F601012046802219
:1026C000FEF7AFF946F22561002039604BF2F811B0
:1026D00028606860A860E8607860B860F860C0F65C
:1026E000010118E14AF6A071C0F6010120468022DE
:1026F000FEF797F946F22561002039604BF2A801F8
:1027000028606860A860E8607860B860F860C0F62B
:10271000010100E14AF6D461C0F6010120468022A1
:10272000FEF77FF946F22561002039604AF67C7198
:1027300028606860A860E8607860B860F860C0F6FB
:102740000101E8E04AF68451C0F6010120468022EA
:10275000FEF767F946F22561002039604AF62C61E0
:1027600028606860A860E8607860B860F860C0F6CB
:102770000101D0E04AF63441C0F601012046802232
:10278000FEF74FF946F22561002039604AF6DC4138
:1027900028606860A860E8607860B860F860C0F69B
:1027A0000101B8E04AF6E421C0F60101204680228A
:1027B000FEF737F946F22561002039604AF68C3180
:1027C00028606860A860E8607860B860F860C0F66B
:1027D0000101A0E04AF6B811C0F6010120468022AE
:1027E000FEF71FF946F22561002039604AF6C02144
:1027F00028606860A860E8607860B860F860C0F63B
:10280000010188E04AF6EC01C0F601012046802271
:10281000FEF707F946F22561002039604AF6941167
:1028200028606860A860E8607860B860F860C0F60A
:10283000010170E04AF2C071C0F601012046802219
:10284000FEF7EFF846F22561002039604AF64401B0
:1028500028606860A860E8607860B860F860C0F6DA
:10286000010158E04AF29461C0F60101204680223D
:10287000FEF7D7F846F22561002039604AF29C71D4
:1028800028606860A860E8607860B860F860C0F6AA
:10289000010140E04AF28C51C0F60101204680223D
:1028A000FEF7BFF8002046F2256128606860A86046
:1028B000E86039607860B860F8602FA12BE000BF55
:1028C0004AF20851C0F6010120468022FEF7A9F81D
:1028D000002046F2256128606860A860E8603960E1
:1028E0007860B860F8601BA115E000BF4AF20041B3
:1028F000C0F6010120468022FEF793F8562046F2EA
:10290000256128600020396009A16860A860E8603E
:102910007860B860F86040462022FEF782F8002018
:102920004FF0BF41C4E93001FF2040B2BDE8F08163
:102930004943504D696E566F6C74616765000000C5
:102940000000000000000000000000000000000087
:102950000000000043414C414D5350325643430068
:102960000000000000000000000000000000000067
:10297000000000000000000043414C4D4D53503218
:10298000564343000000000000000000000000006B
:1029900000000000000000000000000043414C5F08
:1029A0004144445F4144435F4D6F6E4E25640000D7
:1029B00043414C414144434D6F6E4E25640000003D
:1029C0002DE9F04381B00C4606460846C021FEF7CB
:1029D000A7F845F25270C4F8D0000020222EC4E9B6
:1029E0003000C4F8C800C4F8CC0053D804F1800506
:1029F00004F1900904F1A008DFE816F05200240069
:102A00002400240024002400240024002400760054
:102A10009C00B800D400F0000C01280144016201C0
:102A20007E019A01B601D401EC01160228024A0285
:102A30005C026E029402A602CA02EC0208032203A0
:102A4000480300BF013E0FF2FC622046802133465E
:102A5000FDF788FD5F20286046F225400027C9F871
:102A600000000FF2E8624046202133466F60AF60FD
:102A7000EF60C9F80470C9F80870C9F80C70FDF768
:102A800071FD4FF0FF30C4E93207FF2040B201B0C2
:102A9000BDE8F083052040B201B0BDE8F08300BF7F
:102AA00047F68421C0F6010120468022FDF7B9FFD8
:102AB0005F2047F2255128600020C9F8001047F632
:102AC000B0316860A860E860C9F80400C9F808007F
:102AD000C9F80C00C0F6010140462022FDF7A1FF15
:102AE0000120FE2199E100BF47F63411C0F6010133
:102AF00020468022FDF795FF47F63000C3F22500FF
:102B0000C9F8000045F6320047F6B811C9F80400CC
:102B10000025C0F6010140462022C9F80850C9F836
:102B20000C50FDF77EFFFF20C4E9325040B201B0E7
:102B3000BDE8F08347F60801C0F601012046802277
:102B4000FDF76FFF47F63000C3F22500C9F800001B
:102B500045F63800C9F80400002047F68C01C9F892
:102B60000800C9F80C00C0F601014AE147F2DC6137
:102B7000C0F6010120468022FDF753FF47F63000E2
:102B8000C3F22500C9F8000045F63800C9F8040072
:102B9000002047F26071C9F80800C9F80C00C0F6BF
:102BA00001012EE147F2B051C0F60101204680221A
:102BB000FDF737FF47F63000C3F22500C9F80000E3
:102BC00045F63800C9F80400002047F23461C9F81E
:102BD0000800C9F80C00C0F6010112E147F2844177
:102BE000C0F6010120468022FDF71BFF47F63000AA
:102BF000C3F22500C9F8000045F63800C9F8040002
:102C0000002047F20851C9F80800C9F80C00C0F6C6
:102C10000101F6E047F2DC31C0F6010120468022D6
:102C2000FDF7FFFE47F63000C3F22500C9F80000AB
:102C300045F63800C9F80400002047F26041C9F8A1
:102C40000800C9F80C00C0F60101DAE047F234319F
:102C5000C0F6010120468022FDF7E3FE47F6300072
:102C6000C3F22500C9F8000045F63800C9F8040091
:102C7000002047F2B831C9F80800C9F80C00C0F6C6
:102C80000101BEE047F28C21C0F6010120468022FE
:102C9000FDF7C7FE4AF2D01047F225512860002008
:102CA000C9F8001047F210316860A860E860C9F800
:102CB0000400C9F80800C9F80C00C0F60101A0E042
:102CC00047F2E411C0F6010120468022FDF7A9FE7B
:102CD00047F63000C3F22500C9F8000045F6380079
:102CE000C9F80400002047F26821C9F80800C9F8B3
:102CF0000C00C0F6010184E047F23C11C0F601016E
:102D000020468022FDF78DFE47F63000C3F22500F5
:102D1000C9F8000045F63800C9F80400002047F261
:102D2000C011C9F80800C9F80C00C0F6010168E03C
:102D300047F29401C0F6010120468022FDF771FEA2
:102D400047F63000C3F22500C9F8000045F6380008
:102D5000C9F80400002047F21811C9F80800C9F8A2
:102D60000C00C0F601014CE046F62071C0F60101EE
:102D700020468022FDF755FE4AF2D01047F2255139
:102D800028600020C9F8001047F24C016860A86074
:102D9000E860C9F80400C9F80800C9F80C00C0F6DA
:102DA00001012EE046F64C51C0F60101204680227A
:102DB000FDF737FE47F22550C9F80000002046F61F
:102DC0005461C9F80400C9F80800C9F80C00C0F63D
:102DD000010116E046F6D831C0F6010120468022F6
:102DE000FDF71FFE47F22550C9F80000002046F607
:102DF0000451C9F80400C9F80800C9F80C00C0F66D
:102E0000010140462022FDF70CFE44F65270C4F842
:102E1000D0004FF000406FF00041C4E93201FF20C4
:102E200040B201B0BDE8F08346F68821C0F601014A
:102E300020468022FDF7F5FD47F2255046F6303159
:102E4000C9F800000025C0F6010110E04BF2E821AE
:102E5000C0F6010120468022FDF7E3FD47F2255030
:102E60004BF2F031C9F800000025C0F601014046E0
:102E70002022C9F80450C9F80850C9F80C50FDF7D1
:102E8000D0FD44F65270C4F8D000032078E000BFB3
:102E90004BF27411C0F6010120468022FDF7C1FDFE
:102EA00047F225504BF2A021C9F800000025C0F6DA
:102EB000010122E04BF22401C0F6010120468022EC
:102EC000FDF7AFFD47F225504BF2CC01C9F80000E9
:102ED0000025C0F6010110E04AF65061C0F601017C
:102EE00020468022FDF79DFD47F225504AF6587195
:102EF000C9F800000025C0F6010140462022C9F8AB
:102F00000450C9F80850C9F80C50FDF78AFD44F682
:102F10005270C4F8D000C4E93255FF2040B201B06D
:102F2000BDE8F0834AF60051C0F601012046802238
:102F3000FDF777FD46F225404AF60861C9F8000022
:102F40000025C0F6010110E04AF6B031C0F60101DB
:102F500020468022FDF765FD46F225404AF6B8413D
:102F6000C9F800000025C0F6010140462022C9F83A
:102F70000450C9F80850C9F80C50FDF752FD012063
:102F8000C4E93250FF2040B201B0BDE8F08300BF79
:102F90004AF63C21C0F6010120468022FDF741FDA2
:102FA00046F66870C7F275202860732046F2254106
:102FB00068600020C9F800104AF66831A860E8602F
:102FC000C9F80400C9F80800C9F80C00C0F60101EE
:102FD0004EE000BF4AF66801C0F60101204680229B
:102FE000FDF71FFD46F225410020C9F800104AF602
:102FF000701128606860A860E860C9F80400C9F82A
:103000000800C9F80C00C0F6010131E04AF218715D
:10301000C0F6010120468022FDF703FD002046F2A4
:10302000254128606860A860E860C9F80010C9F808
:103030000400C9F80800C9F80C0039A118E000BF65
:103040004AF21061C0F6010120468022FDF7E9FC3A
:10305000002046F2254128606860A860E860C9F851
:103060000010C9F80400C9F80800C9F80C0023A131
:1030700040462022FDF7D5FC44F65270C4F8D0003B
:10308000FF2040B201B0BDE8F08300BF4AF28441A6
:10309000C0F6010120468022FDF7C3FC5F202860B6
:1030A00046F225400026C9F800000BA14046202228
:1030B0006E60AE60EE60C9F80460C9F80860C9F8D7
:1030C0000C60FDF7AEFC0120C4E93260FF2040B285
:1030D00001B0BDE8F08300BF50726F746F636F6C16
:1030E0004D6F64650000000000000000000000005B
:1030F0000000000000000000000000004E756D623E
:1031000065724572726F725772697465446576694B
:103110006365557353746174000000000000000083
:103120004E756D6265724F664170706C6963617453
:10313000696F6E4C61756E63686573000000000016
:10314000000000004B755F4F502564004B754F50D9
:10315000256400002DE9F04381B00C460646084680
:10316000C021FDF7DDFC44F65270C4F8D000002009
:10317000522EC4F8C000C4F8C40000F2AF8004F1BD
:10318000800504F1900904F1A008DFE816F053006F
:103190007D0053007D0053007D0053007D005300EF
:1031A0007D0053007D0053007D0053007D00AD0085
:1031B000CD00ED001901390159018501A501C501B5
:1031C000F101110231025B027D02AB02C302EB028C
:1031D00015032D03430359036F038F03AF03D90373
:1031E000F9031904430459046F048504A504BB04BE
:1031F000D104E7040F052F054F0577059705B7059F
:10320000DF05F5050B0631065106650685069906AC
:10321000BF06DF06FF062B0741076D078D07AD07C9
:10322000CD07F7072B084B0875089508B508DF0888
:10323000FB08170976084BF28072C0F6010220469F
:1032400080213346FDF78EF95620286042F625602E
:10325000C6F232600027C9F800000FF660724046DF
:10326000202133466F60AF60EF60C9F80470C9F881
:103270000870C9F80C70FDF775F900200021C4F240
:103280006010C4F2A01125E076080FF63C722046CB
:1032900080213346FDF766F95620286042F6256006
:1032A000C6F232600027C9F800000FF62C724046C3
:1032B000202133466F60AF60EF60C9F80470C9F831
:1032C0000870C9F80C70FDF74DF900214FF08140EE
:1032D000C4F22011C4F8D07001F097B8052040B2B4
:1032E00001B0BDE8F08300BF4AF25831C0F60101D9
:1032F00020468022FDF795FB42F625615620C6F256
:10330000326128600020C9F800104AF2DC316860A0
:10331000A860E860C9F80400C9F80800C9F80C0002
:10332000C0F601013EE000BF4AF2B021C0F6010143
:1033300020468022FDF775FB42F625615620C6F235
:10334000326128600020C9F800104AF23431686008
:10335000A860E860C9F80400C9F80800C9F80C00C2
:10336000C0F601011EE000BF4AF20821C0F60101CB
:1033700020468022FDF755FB42F625615620C6F215
:10338000326128600020C9F800104AF28C21686080
:10339000A860E860C9F80400C9F80800C9F80C0082
:1033A000C0F6010140462022FDF73BFB46F2666075
:1033B0000021C4F24600C4F2600101F026B800BF4B
:1033C0004AF26011C0F6010120468022FDF729FB78
:1033D00042F625615620C6F2326128600020C9F805
:1033E00000104AF2E4116860A860E860C9F80400BF
:1033F000C9F80800C9F80C00C0F601013EE000BFA2
:103400004AF2B801C0F6010120468022FDF709FB0F
:1034100042F625615620C6F2326128600020C9F8C4
:1034200000104AF23C116860A860E860C9F8040026
:10343000C9F80800C9F80C00C0F601011EE000BF81
:103440004AF21001C0F6010120468022FDF7E9FA98
:1034500042F625615620C6F2326128600020C9F884
:1034600000104AF294016860A860E860C9F804009E
:10347000C9F80800C9F80C00C0F601014046202236
:10348000FDF7CFFA49F69A1046F26661CCF2A90030
:10349000CCF2960100F0B9BF49F66871C0F601019F
:1034A00020468022FDF7BDFA42F625615620C6F27D
:1034B000326128600020C9F8001049F6EC7168609C
:1034C000A860E860C9F80400C9F80800C9F80C0051
:1034D000C0F601013EE000BF49F6C061C0F601013F
:1034E00020468022FDF79DFA42F625615620C6F25D
:1034F000326128600020C9F8001049F64471686004
:10350000A860E860C9F80400C9F80800C9F80C0010
:10351000C0F601011EE000BF49F61861C0F60101C6
:1035200020468022FDF77DFA42F625615620C6F23C
:10353000326128600020C9F8001049F69C6168607B
:10354000A860E860C9F80400C9F80800C9F80C00D0
:10355000C0F6010140462022FDF763FA46F266609C
:1035600049F69A11C4F29600C4F2A90100F04DBFC9
:1035700049F67051C0F6010120468022FDF751FA4C
:1035800042F625615620C6F2316128600020C9F854
:10359000001049F6F4516860A860E860C9F80400BA
:1035A000C9F80800C9F80C00C0F601013EE000BFF0
:1035B00049F6C841C0F6010120468022FDF731FAE4
:1035C00042F625615620C6F2316128600020C9F814
:1035D000001049F64C516860A860E860C9F8040022
:1035E000C9F80800C9F80C00C0F601011EE000BFD0
:1035F00049F62041C0F6010120468022FDF711FA6C
:1036000042F625615620C6F2316128600020C9F8D3
:10361000001049F6A4416860A860E860C9F8040099
:10362000C9F80800C9F80C00C0F601014046202284
:10363000FDF7F7F900200021C4F2C010C4F2C41154
:1036400000F0E3BE49F67831C0F601012046802241
:10365000FDF7E7F942F625614AF2D010C6F2316172
:1036600028600020C9F8001049F6FC316860A860A5
:10367000E860C9F80400C9F80800C9F80C00C0F6F1
:10368000010100F06FBD00BF49F6D021C0F6010175
:1036900020468022FDF7C5F944F66B0042F625610D
:1036A000C0F27A00C6F2306128600020C9F800102C
:1036B00049F654316860A860E860C9F80400C9F8A8
:1036C0000800C9F80C00C0F6010140462022FDF7B1
:1036D000A8F900200021C4F22F40C4F2484100F0B4
:1036E00094BE00BF49F62821C0F601012046802281
:1036F000FDF797F97320286042F62560C6F2316025
:1037000049F6AC210026C9F80000C0F6010100F01E
:1037100094BC00BF49F68011C0F60101204680220A
:10372000FDF77FF95F20286042F62560C6F2306021
:1037300049F604210026C9F80000C0F60101404600
:1037400020226E60AE60EE60C9F80460C9F80860BF
:10375000C9F80C60FDF765F90020C4F2400000F0E4
:103760007BBC00BF49F6D801C0F60101204680228B
:10377000FDF757F95F20286042F62560C6F23060F9
:1037800049F65C110026C9F80000C0F60101404668
:1037900020226E60AE60EE60C9F80460C9F808606F
:1037A000C9F80C60FDF73DF9C4E93066FF2040B26E
:1037B00001B0BDE8F08300BF49F63001C0F6010159
:1037C00020468022FDF72DF97320286042F62560FF
:1037D000C6F2306049F6B4010026C9F80000C0F610
:1037E000010100F02ABC00BF49F28871C0F6010156
:1037F00020468022FDF715F94120286042F6256019
:10380000C6F2336049F60C010026C9F80000C0F684
:103810000101B8E149F2E061C0F6010120468022D1
:10382000FDF7FFF84120286042F62560C6F23360BC
:1038300049F264710026C9F80000C0F60101A2E156
:1038400049F23861C0F6010120468022FDF7E9F80F
:103850004120286042F62560C6F2336049F2BC611F
:103860000026C9F80000C0F601018CE149F2905130
:10387000C0F6010120468022FDF7D3F842F625610B
:103880005620C6F2316128600020C9F8001049F2C4
:1038900014616860A860E860C9F80400C9F808000D
:1038A000C9F80C00C0F601013EE000BF49F2E84152
:1038B000C0F6010120468022FDF7B3F842F62561EB
:1038C0005620C6F2316128600020C9F8001049F284
:1038D0006C516860A860E860C9F80400C9F8080085
:1038E000C9F80C00C0F601011EE000BF49F24041DA
:1038F000C0F6010120468022FDF793F842F62561CB
:103900005620C6F2316128600020C9F8001049F243
:10391000C4416860A860E860C9F80400C9F80800FC
:10392000C9F80C00C0F6010140462022FDF779F8E5
:1039300000200021C4F29810C4F2E81100F065BD27
:1039400049F29831C0F6010120468022FDF769F85E
:1039500042F625615620C6F2326128600020C9F87F
:10396000001049F21C416860A860E860C9F80400D2
:10397000C9F80800C9F80C00C0F601013EE000BF1C
:1039800049F2F021C0F6010120468022FDF749F8F6
:1039900042F625615620C6F2326128600020C9F83F
:1039A000001049F274316860A860E860C9F804004A
:1039B000C9F80800C9F80C00C0F601011EE000BFFC
:1039C00049F24821C0F6010120468022FDF729F87E
:1039D00042F625615620C6F2326128600020C9F8FF
:1039E000001049F2CC216860A860E860C9F80400C2
:1039F000C9F80800C9F80C00C0F6010140462022B1
:103A0000FDF70FF800200021C4F22010C4F2581175
:103A100000F0FBBC49F2A011C0F601012046802253
:103A2000FCF7FFFF5720286042F62560C6F23160A0
:103A300049F224210026C9F80000C0F60101C6E1C0
:103A400049F2F801C0F6010120468022FCF7E9FFA7
:103A50005720286042F62560C6F2316049F27C1199
:103A60000026C9F80000C0F60101B0E149F250019A
:103A7000C0F6010120468022FCF7D3FF57202860C2
:103A800042F62560C6F2316049F2D4010026C9F839
:103A90000000C0F601019AE148F6A871C0F60101E4
:103AA00020468022FCF7BDFF42F625614320C6F286
:103AB000316128600020C9F8001049F22C016860CB
:103AC000A860E860C9F80400C9F80800C9F80C004B
:103AD000C0F6010146E300BF48F60071C0F60101DF
:103AE00020468022FCF79DFF7320286042F6256067
:103AF000C6F2306048F684710026C9F80000C0F6AE
:103B000001019AE248F65861C0F601012046802280
:103B1000FCF787FF4120286042F62560C6F233603B
:103B200048F6DC610026C9F80000C0F601012AE071
:103B300048F6B051C0F6010120468022FCF771FF23
:103B40004120286042F62560C6F2336048F63461B1
:103B50000026C9F80000C0F6010114E048F608513B
:103B6000C0F6010120468022FCF75BFF412028605F
:103B700042F62560C6F2336048F68C510026C9F83B
:103B80000000C0F60101404620226E60AE60EE608B
:103B9000C9F80460C9F80860C9F80C60FCF741FF77
:103BA0004CF6CD40C3F6CC6056E200BF48F660410B
:103BB000C0F6010120468022FCF733FF42F6256162
:103BC0005620C6F2316128600020C9F8001048F67E
:103BD000E4416860A860E860C9F80400C9F808001A
:103BE000C9F80C00C0F601013EE000BF48F6B8314C
:103BF000C0F6010120468022FCF713FF42F6256142
:103C00005620C6F2316128600020C9F8001048F63D
:103C10003C416860A860E860C9F80400C9F8080081
:103C2000C9F80C00C0F601011EE000BF48F61031D3
:103C3000C0F6010120468022FCF7F3FE42F6256122
:103C40005620C6F2316128600020C9F8001048F6FD
:103C500094316860A860E860C9F80400C9F80800F9
:103C6000C9F80C00C0F6010140462022FCF7D9FE3D
:103C700000200021C4F2901064E300BF48F66821E0
:103C8000C0F6010120468022FCF7CBFE42F62561FA
:103C90005620C6F2326128600020C9F8001048F6AC
:103CA000EC216860A860E860C9F80400C9F8080061
:103CB000C9F80C00C0F601013EE000BF48F6C01193
:103CC000C0F6010120468022FCF7ABFE42F62561DA
:103CD0005620C6F2326128600020C9F8001048F66C
:103CE00044216860A860E860C9F80400C9F80800C9
:103CF000C9F80C00C0F601011EE000BF48F618111B
:103D0000C0F6010120468022FCF78BFE42F62561B9
:103D10005620C6F2326128600020C9F8001048F62B
:103D20009C116860A860E860C9F80400C9F8080040
:103D3000C9F80C00C0F6010140462022FCF771FED4
:103D40000020C4F2E0004FF082415EE348F67001CB
:103D5000C0F6010120468022FCF763FE5720286050
:103D600042F62560C6F2316048F6F4010026C9F833
:103D70000000C0F601012AE048F2C871C0F6010156
:103D800020468022FCF74DFE5720286042F6256031
:103D9000C6F2316048F64C010026C9F80000C0F6B2
:103DA000010114E048F22071C0F601012046802292
:103DB000FCF737FE5720286042F62560C6F23160D6
:103DC00048F2A4710026C9F80000C0F6010140467F
:103DD00020226E60AE60EE60C9F80460C9F8086029
:103DE000C9F80C60FCF71DFE0020C4F2E00033E1CE
:103DF00048F27861C0F6010120468022FCF711FEEE
:103E000042F625614320C6F2316128600020C9F8DE
:103E1000001048F2FC616860A860E860C9F804001E
:103E2000C9F80800C9F80C00C0F601019AE100BF0A
:103E300048F2D051C0F6010120468022FCF7F1FD86
:103E400042F62560C6F2306048F25461C9F80000BD
:103E50000025C0F6010112E048F22851C0F6010128
:103E600020468022FCF7DDFD42F62560C6F2306078
:103E700048F2AC51C9F800000025C0F601014046E7
:103E80002022C9F80450C9F80850C9F80C50FCF7B2
:103E9000C8FD032033E000BF48F28041C0F60101B5
:103EA00020468022FCF7BDFD42F62560C6F2316057
:103EB00048F20451C9F800000025C0F6010112E0E3
:103EC00048F2D831C0F6010120468022FCF7A9FD56
:103ED00042F62560C6F2316048F25C41C9F8000044
:103EE0000025C0F6010140462022C9F80450C9F857
:103EF0000850C9F80C50FCF794FD4FF47A70C4E9EF
:103F00003250FF2040B201B0BDE8F08348F23031BA
:103F1000C0F6010120468022FCF783FD42F62561B0
:103F20005F20C6F2306128600020C9F8001048F216
:103F3000B4316860A860E860C9F80400C9F80800F6
:103F4000C9F80C00C0F601013EE000BF48F288212C
:103F5000C0F6010120468022FCF763FD42F6256190
:103F60005F20C6F2306128600020C9F8001048F2D6
:103F70000C316860A860E860C9F80400C9F808005E
:103F8000C9F80C00C0F601011EE000BF48F2E011C4
:103F9000C0F6010120468022FCF743FD42F6256170
:103FA0005F20C6F2306128600020C9F8001048F296
:103FB00064216860A860E860C9F80400C9F80800D6
:103FC000C9F80C00C0F6010140462022FCF729FD8B
:103FD0004CF6CD404CF6CD41CBF64C50C3F64C518F
:103FE00013E200BF48F23811C0F6010120468022DA
:103FF000FCF717FD5F20286042F62560C6F23060AE
:1040000048F2BC110026C9F80000C0F6010114E016
:1040100048F29001C0F6010120468022FCF701FD24
:104020005F20286042F62560C6F2306048F2141125
:104030000026C9F80000C0F60101404620226E604B
:10404000AE60EE60C9F80460C9F80860C9F80C6099
:10405000FCF7E7FC4FF0BF40C4E93060FF2040B2FE
:1040600001B0BDE8F08300BF47F6E871C0F601017A
:1040700020468022FCF7D5FC42F625614320C6F29B
:10408000316128600020C9F8001048F26C016860B6
:10409000A860E860C9F80400C9F80800C9F80C0075
:1040A000C0F601015EE000BF47F64071C0F60101B5
:1040B00020468022FCF7B5FC42F625614320C6F27B
:1040C000316128600020C9F8001047F6C4716860AB
:1040D000A860E860C9F80400C9F80800C9F80C0035
:1040E000C0F601013EE000BF47F69861C0F601014D
:1040F00020468022FCF795FC42F625614320C6F25B
:10410000316128600020C9F8001047F61C71686012
:10411000A860E860C9F80400C9F80800C9F80C00F4
:10412000C0F601011EE000BF47F6F051C0F60101E4
:1041300020468022FCF775FC42F625614320C6F23A
:10414000316128600020C9F8001047F6746168608A
:10415000A860E860C9F80400C9F80800C9F80C00B4
:10416000C0F6010140462022FCF75BFC0020002144
:10417000CCF22020C4F2AA2147E100BF47F6485103
:10418000C0F6010120468022FCF74BFC42F6256177
:104190005620C6F2316128600020C9F8001047F6A9
:1041A000CC516860A860E860C9F80400C9F808004C
:1041B000C9F80C00C0F6010152E000BF4144435F62
:1041C00041766750256400004144435F4176672093
:1041D0005F4D6F6E4E2564004144435F4176674EEC
:1041E0002564000047F6A041C0F601012046802268
:1041F000FCF717FC42F625615620C6F231612860B3
:104200000020C9F8001047F624516860A860E860F3
:10421000C9F80400C9F80800C9F80C00C0F601018B
:104220001EE000BF47F6F831C0F6010120468022AB
:10423000FCF7F7FB42F625615620C6F23161286093
:104240000020C9F8001047F67C416860A860E8606B
:10425000C9F80400C9F80800C9F80C00C0F601014B
:1042600040462022FCF7DDFB00200021C4F2E000E4
:10427000C4F21011C9E000BF47F62C31C0F60101AD
:1042800020468022FCF7CDFB42F625615620C6F27F
:10429000316128600020C9F8001047F6D431686009
:1042A000A860E860C9F80400C9F80800C9F80C0063
:1042B000C0F601013EE000BF47F60021C0F6010153
:1042C00020468022FCF7ADFB42F625615620C6F25F
:1042D000316128600020C9F8001047F60831686095
:1042E000A860E860C9F80400C9F80800C9F80C0023
:1042F000C0F601011EE000BF47F6B001C0F60101A3
:1043000020468022FCF78DFB42F625615620C6F23E
:10431000316128600020C9F8001047F6DC116860A0
:10432000A860E860C9F80400C9F80800C9F80C00E2
:10433000C0F6010140462022FCF773FB002000215B
:10434000C4F2D010C4F2F0115FE000BF47F28471F4
:10435000C0F6010120468022FCF763FB562042F69E
:10436000256128600020C6F231616860A860E860BD
:10437000C9F80010C9F80400C9F80800C9F80C0011
:1043800037A136E047F25861C0F60101204680228D
:10439000FCF747FB562042F6256128600020C6F254
:1043A00031616860A860E860C9F80010C9F80400CD
:1043B000C9F80800C9F80C0020A11AE047F22C51F6
:1043C000C0F6010120468022FCF72BFB562042F666
:1043D000256128600020C6F231616860A860E8604D
:1043E000C9F80010C9F80400C9F80800C9F80C00A1
:1043F00009A140462022FCF714FB4CF6CD404CF6B8
:10440000CD41C4F20C00C4F22C01C4E93001FF20FC
:1044100040B201B0BDE8F0834144435F4176675646
:104420006F636D000000000000000000000000004D
:104430000000000000000000000000004144435F55
:104440004D696E566F636D000000000000000000B3
:10445000000000000000000000000000000000005C
:104460004144435F4D6178566F636D00000000006A
:10447000000000000000000000000000000000003C
:104480000000000070B5342800F242800C4615464A
:10449000DFE800F01C241C241C241C241C241C24E5
:1044A0001C241C241C241C241C241C241C241C240C
:1044B0001C241C241C241C241C241C241C241C24FC
:1044C0001C241C241C241C242E0000BF45F00200C8
:1044D000022809D14FF07E5005E000BF45F00200F0
:1044E000022801D100202060FF2040B270BD00BF33
:1044F000681E40F2D0560228C2F200060CD2206894
:10450000C6F8060007F0FAFA012DEDD006E000BF6C
:10451000052040B270BD00BF002DE5D1D6F80600E1
:10452000E1E70000F0B581B0222800F27D800C4662
:104530001546DFE810F07D00230023002300230050
:1045400023002300230023008B002D002D002D00CD
:104550002D002D002D00950035003500350035006B
:10456000350035009D00A500AD00B500BD00490037
:104570004900C500CD00D500DD00E500691E022917
:104580001ED22168B1F1FF3F2EDA4FF0FF312EE04D
:10459000681E02280CD20B2040B201B0F0BD00BF53
:1045A000681E022804D20B2040B201B0F0BD00BF4B
:1045B000002D04BF00202060FF2040B201B0F0BDFC
:1045C0000DBB461E24E000BF691E022980F0A680B4
:1045D0002178A0F11C06F0B201F0BAF907F08EFACA
:1045E000012D10D09FE000BF012901DB00212160D7
:1045F000461E40F2D050C2F200003044817207F0F3
:104600007DFA012D04D1FF2040B201B0F0BD00BF02
:1046100040F2D050C2F20000304490F90A0020600D
:10462000FF2040B201B0F0BD052040B201B0F0BDA6
:10463000681E40F200760228C2F2000678D227688F
:10464000FE2F40F3BF80FE27BFE000BF681E022898
:1046500072D2207807F0A0FA012DD4D06FE000BF0D
:10466000681E02286ED20B2040B201B0F0BD00BF20
:10467000681E02286CD20B2040B201B0F0BD00BF12
:10468000681E02286AD20B2040B201B0F0BD00BF04
:10469000681E022868D20B2040B201B0F0BD00BFF6
:1046A000681E022866D20B2040B201B0F0BD00BFE8
:1046B000681E022864D20B2040B201B0F0BD00BFDA
:1046C000681E022862D20B2040B201B0F0BD00BFCC
:1046D000681E022860D20B2040B201B0F0BD00BFBE
:1046E000681E02285ED20B2040B201B0F0BD00BFB0
:1046F000681E02285CD20B2040B201B0F0BD00BFA2
:10470000681E40F2D0560228C2F2000656D2206837
:1047100000286BD402286BDB012068E0002D7FF4B9
:1047200072AFA0F11C06F0B200F066FF77E700BFA1
:10473000002D55D067E700BF002D7FF464AF02F075
:10474000A7F96CE7002D7FF45EAF02F0CFF966E7C2
:10475000002D7FF458AF02F021FA60E7002D7FF4BE
:1047600052AF02F005F95AE7002D7FF44CAF02F08A
:1047700021FA54E7002D7FF446AF02F02DFA4EE700
:10478000002D7FF440AF02F035FA48E7002D7FF4AA
:104790003AAF02F0C9FA42E7002D7FF434AF02F0DD
:1047A000CBF93CE7002D7FF42EAF02F0BFF936E7DE
:1047B000002D7FF428AF02F0B3F930E7002D7FF42D
:1047C00022AF1BE0002F01DC0127276002F00EF969
:1047D00006EB4000477107F0A3F9012D3FF413AF3A
:1047E00002F004F906EB4000407918E70020206051
:1047F000B07407F083F9012D3FF405AFB07C0EE7EC
:10480000522800F25D8010B50C46B9EE040ADFE8CC
:1048100010F05B005F00630067006B006F007300C7
:1048200077007B007F00830087008B008F00930060
:1048300097009B009F00A3005C015C015C01A50048
:10484000A900AD00AF00B300B700B900BD00C100C2
:10485000C500C900CD00D100D500D900DD00E100C0
:10486000E500E900ED00F100F500F900FD000101AF
:1048700053005300530053005300530053005300A0
:104880005300530053005300530053000501090126
:104890000D011101150119011D01210125012D0134
:1048A0003101350139013D014101450147014B010C
:1048B0004F015101550159019FED870A05E100BFE4
:1048C000052040B2704700BF002005F0EBFCFCE083
:1048D000012005F0E7FCF8E0022005F0E3FCF4E03D
:1048E000032005F0DFFCF0E0042005F0DBFCECE049
:1048F000052005F0D7FCE8E0062005F0D3FCE4E055
:10490000072005F0CFFCE0E0082005F0CBFCDCE060
:10491000092005F0C7FCD8E00A2005F0C3FCD4E06C
:104920000B2005F0BFFCD0E00C2005F0BBFCCCE078
:104930000D2005F0B7FCC8E00E2005F0B3FCC4E084
:104940000F2005F0AFFCC0E0002005F0CBFCBCE080
:10495000002005F0D7FCB8E00020B4E0012005F00D
:10496000C1FCB2E0012005F0CDFCAEE00120AAE0E0
:10497000032005F0B7FCA8E0032005F0C3FCA4E089
:104980000320A0E0002005F07DFC9EE09FED530A8F
:104990009BE000BF08F0E8FD97E000BFB7EE000A1B
:1049A00093E000BF02F0CEF85AE000BF02F0B0F88A
:1049B00056E000BF082002F0A1F886E0062002F0D1
:1049C0009DF882E0072002F099F87EE0052002F0D1
:1049D00095F87AE0032002F091F876E0042002F0E6
:1049E0008DF872E00E2002F089F86EE00C2002F0E3
:1049F00085F86AE00D2002F081F866E00B2002F0F5
:104A00007DF862E0092002F079F85EE00A2002F009
:104A100075F85AE0122002F071F856E002F0BEF884
:104A20001EE000BF01F0A4FF1AE000BF002002F06A
:104A300007F84AE0012002F003F846E002F0C6F869
:104A40000EE000BF02F0D0F80AE000BF02F0DAF892
:104A500006E000BF03F072FE02E000BF03F098FE24
:104A600000EE100AB8EE400A2FE000BF012000F06F
:104A70000FFE2AE0002000F00BFE26E0002000F0F0
:104A800025FE22E0012000F021FE1EE0022005F0BC
:104A900029FC1AE0022005F035FC16E0022012E0A5
:104AA000042005F01FFC10E0042005F02BFC0CE0B6
:104AB000042008E0052005F015FC06E0052005F0BF
:104AC00021FC02E0052005F0FDFB84ED000AFF203B
:104AD000BDE8104040B270470000000000004844AC
:104AE000B0B500294FF6FF7351D04A1E4CF2CC45A9
:104AF00001F0030C032AC0F6010529D321F00301BC
:104B0000494200BF10F8042B043182EA0302D2B2FA
:104B100035F8122010F8034C82EA132383EA0403C9
:104B2000DBB235F8133010F8024C83EA122282EA25
:104B30000402D2B235F8122010F8014C82EA132395
:104B400083EA0403DBB235F8133083EA1223D9D1A8
:104B5000BCF1000F1BD001789AB25940C9B235F8A8
:104B60001110BCF1010F81EA122310D04278DBB2A0
:104B70005A4035F812E0BCF1020F8EEA112306D03C
:104B80008078D9B2484035F8100080EA1E2398B2E8
:104B9000B0BD0000F0B54FF0FF3259B1012901F06E
:104BA000010C0BD100214FF0FF34BCF1000F00F0DD
:104BB000B4807DE04FF0FF34A0B2F0BD21F00101E0
:104BC000C1F1000E6FF0010141F221034FF0FF34FB
:104BD0004518AE78ED7884EA062426B283EA4407C5
:104BE0009642C8BF67003CB283EA47069442C8BFFA
:104BF0007E0034B283EA46079442C8BF77003CB2D5
:104C000083EA47069442C8BF7E0034B283EA46076F
:104C10009442C8BF77003CB283EA47069442C8BFBB
:104C20007E0034B283EA46079442C8BF77003CB2A4
:104C300083EA47069442C8BF7E0086EA052425B26F
:104C400083EA44069542C8BF660034B283EA46054B
:104C50009442C8BF75002CB283EA45069442C8BF8F
:104C60006E0034B283EA46059442C8BF75002CB288
:104C700083EA45069442C8BF6E0034B283EA460513
:104C80009442C8BF75002CB283EA45069442C8BF5F
:104C90006E0035B2023183EA460495420EEB0105FF
:104CA000C8BF7400023593D10231BCF1000F34D07B
:104CB000405C84EA002141F221000BB280EA410706
:104CC0009342C8BF4F0039B280EA47039142C8BF40
:104CD0007B0019B280EA43079142C8BF5F0039B236
:104CE00080EA47039142C8BF7B0019B280EA4307BC
:104CF0009142C8BF5F0039B280EA47039142C8BF02
:104D00007B0019B280EA43079142C8BF5F0039B205
:104D100080EA47049142C8BF7C00A0B2F0BD000009
:104D2000002904BF002070474BF2354C0246014475
:104D30000020C0F6010C0EE012F8013B58401CF8B0
:104D400000008A4228BF704712F8013B58401CF807
:104D500000008A420ED212F8013BC0B258401CF843
:104D600000008A4206D212F8013B58401CF80000AD
:104D70008A42E1D370470000B0B584B003281FD247
:104D80004BF2F051C0F6010151F82050684601F095
:104D9000F5FF40F23C719DE81D00C2F2000141F8B0
:104DA000030F4A604FF0FF301022CC608B6010F090
:104DB00017FA2946102210F013FAC04304B0B0BD10
:104DC0004BF65A004BF64601C0F60100C0F6010151
:104DD000A722FBF77DFD000081B12DE9F0474A1EB7
:104DE000032A01F0030C0DD200220021BCF1000FB8
:104DF00051D1C843BDE8F047C0B27047FF20C0B2F0
:104E0000704700BF21F00301C1F1000E00F101085D
:104E100000216FF003034FF0010900BF08EB030509
:104E2000EE782F7931446A7995F806A0CCB259FA18
:104E300081F58EB2FF2C08BF0125FF2E98BF0D46CD
:104E4000E919CDB259FA81F68CB2FF2D08BF0126BF
:104E5000FF2C98BF0E46B118CCB259FA81F58AB230
:104E6000FF2C08BF0125FF2A98BF0D4605EB0A025B
:104E7000D5B259FA82F194B2FF2D08BF0121043353
:104E8000FF2C98BF11460EEB03020432C6D11A1D47
:104E9000BCF1000FADD0835CCF18FDB20123BEB2D0
:104EA00053FA87F1FF2D08BF0121FF2E98BF394625
:104EB000BCF1010F9DD0104442780A44D6B297B29B
:104EC00053FA82F1FF2E08BF0121FF2F98BF114630
:104ED000BCF1020F8DD08078014488B2B0F5807F9C
:104EE00087D3C8B20131FF2808BF0121C843BDE8FC
:104EF000F047C0B270470000B0B52DED048B40F212
:104F0000A035C2F20005287800287DD0D5E902013D
:104F100001F07EFA002873D001F014FE044601F07F
:104F2000B7FD844203D0686840F001006860042047
:104F300001F0E4FDB3EE0D8AB4EE480AF1EE10FA8A
:104F400020DCB3EE039AB4EE490AF1EE10FA19DB55
:104F5000032001F0D3FDB4EE480AF1EE10FA11DCA3
:104F6000B4EE490AF1EE10FA0CDB052001F0C6FDA3
:104F7000B4EE480AF1EE10FA04DCB4EE490AF1EEA0
:104F800010FA03DA686840F004006860002000F05E
:104F90009DFB10EE100A00F0FF40B0F1FF4F0BD068
:104FA0009FED1F1AB4EE410AF1EE10FA1ADCB5EECD
:104FB000400AF1EE10FA15DB012000F087FB10EE3D
:104FC000100A00F0FF40B0F1FF4F0FD09FED141A10
:104FD000B4EE410AF1EE10FA04DCB5EE400AF1EE4F
:104FE00010FA03DA686840F020006860686800F032
:104FF000250068604FF4027006F00AFEC5E9020160
:10500000BDEC048BB0BD00BF43F6982006F000FE57
:10501000C5E9020101202870BDEC048BB0BD00BFC2
:105020000000B44270B592B040F20076C2F20006C1
:10503000706A07A9069006A8FBF7BCFD40B1DDE940
:105040000B01032801F26C7304D21CA514E000BF0D
:10505000002418E0C11E032902D219A50CE000BFEC
:10506000811F032902D217A506E000BF093817A542
:1050700015A1032838BF0D4603AC15A220460C210C
:105080000095FBF76FFAB08D4BF22861C0F6010175
:105090004BF23466CDE900014AF2C8204BF28F7220
:1050A000C0F60106C2F20000C0F6010280212346CC
:1050B0000296FBF757FA12B070BD00BF490000001E
:1050C0004949000049494900495600005F00000075
:1050D0002564202573000000F0B589B00E4649789C
:1050E0001446A1F143020546BC2A4FF0040000F229
:1050F000DF80DFE812F0CD00CD00CD00CD008401CF
:105100008401840184018401840184018401840177
:105110008401840184018401840184018401840167
:105120008401840184018401840184018401840157
:105130008401840184018401840184018401840147
:105140008401840184018401840184018401840137
:105150008401840184018401840184018401840127
:105160008401840184018401840184018401840117
:105170008401840184018401840184018401840107
:1051800084018401840184018401840184018401F7
:1051900084018401840184018401840184018401E7
:1051A00084018401840184018401840184018401D7
:1051B00084018401840184018401840184018401C7
:1051C00084018401840184018401840184018401B7
:1051D00084018401840184018401840184018401A7
:1051E0008401840184018401840184018401840197
:1051F0008401840184018401840184018401840187
:105200008401840184018401840184018401840176
:105210008401840184018401840184018401840166
:105220008401840184018401840184018401840156
:10523000EB00BD00C500D500BD00C500D500BD0018
:10524000C500D500BD00C500BD00C50084018401B6
:105250008401840184018401840184018401840126
:1052600084018401FF00390113018401840161017B
:10527000B21C2846234601F071FA09B0F0BD00BF08
:10528000B21C2846234602F075FC09B0F0BD00BFF1
:10529000B21C2846234601F083F909B0F0BD00BFD7
:1052A000B21C2846234606F023FF09B0F0BD00BF1C
:1052B000072900F0A780062940F0A180216802207C
:1052C000122908BF0B2009B0F0BD00BF20680228DA
:1052D00040F0B480B01C352104F06AF9B01D2321E0
:1052E00004F066F906F10A00532104F061F90E207A
:1052F0009FE000BF2068062840F0A080B01C04F0AA
:105300004BF941F23421C5F2AA51884250D1022012
:105310002060284603F0FCFA8CE000BF20680A28D1
:1053200040F08C80B01C04F037F945F27861C1F28E
:10533000342101F1113188423AD1B01D04F02CF929
:105340000021B1EB104F33D1FF2181EA1022C1B20D
:105350008A422DD100294FF0050050D0FF294ED0B0
:10536000284606F0EFFB65E020680A2866D1B01CED
:1053700004F012F945F27861C1F23421884217D164
:10538000B01D04F009F901460020B0EB114F0FD118
:1053900001F0FE0009284FF0050030D8FF2282EA14
:1053A0001122C9B28A422AD1284606F0CFFC41E038
:1053B000052009B0F0BD00BF206802283ED142F2AE
:1053C0000300C0F20100C6F8020040F21000C2F271
:1053D0000000056806362846FBF704FB0746421C1A
:1053E00030462946FBF71DFB062010FA87F02060A7
:1053F0004AF2C800C2F2000001210170FF2009B08A
:10540000F0BD00BF2068022818D101A801F0B6FC49
:1054100001AB0BCB049A0DF1140C8CE80B00C6F811
:10542000020012200892C6F80E20C6F80A30C6F80C
:1054300006102060FF2009B0F0BD00BF022009B0B7
:10544000F0BD0000811E0A2910D80FF20600DFE827
:1054500001F007111309070B110911070B0000BF19
:10546000032070470220704706207047FF2804BFC2
:10547000FF207047042070470120704710B546F2A6
:105480000044C4F2020420460121202207F05AFE03
:10549000012816D120460121202207F03DFE20469A
:1054A000012108F059F840F6885140F64862C2F2EE
:1054B0000001C2F20002002808BF1146084600F0B1
:1054C00079FD20460121012207F03CFE012818BF8A
:1054D00010BD204601210122BDE8104007F01CBE8E
:1054E00010B546F20044C4F2020406F05BFB20460D
:1054F0000221202207F026FE012816D12046022193
:10550000202207F009FE2046022108F025F840F687
:10551000081140F60832C2F20001C2F2000200286F
:1055200008BF1146084600F075FB20460221012203
:1055300007F008FE012804D120460221012207F0CD
:10554000EBFDBDE8104004F091BE000010B546F23E
:105550000044C4F2020420460421202207F0F2FD98
:10556000012816D120460421202207F0D5FD20462F
:10557000042107F0F1FF40F6880140F6C802C2F2AC
:105580000001C2F20002002808BF1146084600F0E0
:105590001DFA20460421012207F0D4FD012818BF7E
:1055A00010BD204604210122BDE8104007F0B4BD23
:1055B00001280DD840F2484100EB8002C2F2000100
:1055C00001EBC202126902F0FF42B2F1FF4F01D1BA
:1055D0000020704700EB800001EBC000007E142823
:1055E0008FBF01204FF6FC71C0F20F0121FA00F0CD
:1055F00098BF00F001007047012884BF0020704769
:1056000040F2D051C2F20001084400797047000016
:1056100040F24840C2F20000017E9FED1C0A0129C1
:1056200017D0142915D090ED041A9FED180A11EE29
:10563000101A01F0FF41B1F1FF4FB0EE402AB4EE75
:10564000401A18BFB0EE412AF1EE10FAC8BFB0EE12
:10565000420A90F84010012916D0142908BF70475B
:1056600090ED0E1AB0EE402A11EE100A00F0FF4045
:10567000B0F1FF4FB4EE401A18BFB0EE412AF1EE80
:1056800010FAC8BFB0EE420A704700BF000080FFAA
:1056900040F2D051C2F200010A79824202D10020C8
:1056A00007E000BF497981421CBF9FED070A7047A0
:1056B000012040F2484100EB8000C2F2000101EB02
:1056C000C00090ED040A7047EC9188C340F2484155
:1056D00000EB8000C2F2000101EBC000017E012955
:1056E00006D014290CBF9FED050A90ED040A7047FF
:1056F0009FED010A704700BF000080FF0000807F1F
:10570000F0B581B040F24846C2F20006307800EBB6
:10571000800006EBC004274617F8180F023812283D
:1057200000F20A81A7F11005DFE810F0F000220076
:105730001400140030003400480054005E0068007B
:1057400076008A008E009600A400BA00C400CE0045
:10575000EA0000BF0DF1030003F064FB002800F035
:105760009D809DF8030000280CBF14201020D8E075
:105770000DF1030003F056FB002800F08F809DF828
:105780000300002800F0BA800720CAE003F0B0FD53
:105790000420C6E0552004F8210F54F8080C54F8F2
:1057A000041CC4F80100C4F805102046092103F0C8
:1057B000D7FC0221002818BF12216EE0442004F813
:1057C000210F2046012103F0CBFC0221002818BF45
:1057D000092162E004F12100002103F013FA0028FE
:1057E0005CD040F28A2097E0D5E9000100F010FE7D
:1057F000002853D003F070FD0B2092E00DF1020061
:1058000003F0ECFA002849D09DF80200002800F0CF
:105810008180062085E000BFBE2004F8210F4FF0F4
:10582000FF30C4F80100C4F80500607220460A2168
:1058300003F096FC0221002818BF0E212DE000BFC6
:1058400003F04AFD0F206CE004F121000A2103F06F
:10585000D9F918B3132064E00DF1020003F0BEFA89
:10586000E0B19DF8020000285ED003F041FD052064
:1058700057E000BF552004F8210F54F8080C54F8E5
:10588000041CC4F80100C4F805102046092103F0E7
:1058900067FC0221002818BF1121397030784EE0D2
:1058A00004F12100002103F0ADF90028F6D00C200E
:1058B00037E000BF04F12100002103F0A3F9002824
:1058C000ECD008202DE000BF04F122052846082175
:1058D00003F06EFD94F82A1088422BD194F823002F
:1058E00029789FED1A1A41EA002000B200EE100A52
:1058F000B8EEC00A20EE010A84ED040A02201AE084
:1059000060694FF0FF410130C4E9041003F0F0FC7E
:10591000032006E04FF4AF7006F07AF9C5E9000104
:105920000A20387030780AE0D5E9000100F070FDF7
:105930000028B3D014203870307801303070C0B2F5
:10594000022824BF0020307001B0F0BD0000803D6F
:10595000012888BF704740F2D052C2F200021044C2
:1059600001717047B0B503F09FFD40F24845C2F2A7
:10597000000500202C46002244F8190F0121CFF623
:10598000807204F8011C606044F8092C84F8271028
:10599000E062A062C4F81F2003F068FA204603F01A
:1059A0006FFA90B1687E282804BF0220287605F19E
:1059B000410003F065FA002808BFB0BD95F841002A
:1059C000282804BF022085F84000B0BD2DE9F04F23
:1059D00089B040F2A04500230121C2F2000500BFBA
:1059E00005EB430430F81320278943F01C06BA4224
:1059F00084BF22811746089105EB8301B4F810C0DB
:105A00000791896B624505913CBF2282944643F021
:105A1000020130F81110B94284BF21810F4661455F
:105A20003CBF21828C46049143F0040130F81110F0
:105A3000B94284BF21810F4661453CBF21828C461B
:105A4000039143F0060130F81110B94284BF21815F
:105A50000F4661453CBF21828C46029143F008010C
:105A600030F81110B94284BF21810F4661453CBF17
:105A700021828C46019143F00A0130F81110B9429D
:105A800084BF21810F4661453CBF21828C46009135
:105A900043F00C0130F8118043F00E01B84584BF8B
:105AA000A4F808804746E0453CBFA4F81080C446EF
:105AB00030F811E043F01001BE4584BFA4F808E0BF
:105AC0007746E6453CBFA4F810E0F44630F8119064
:105AD00043F01201B94584BFA4F808904F46E14550
