:020000040800F2
:1000000098D40020110300081D0300081F030008F6
:100010002103000823030008250300080000000056
:10002000000000000000000000000000270300089E
:1000300029030008000000002B030008512B0008D2
:100040002F0300082F0300082F0300082F030008C8
:100050002F0300082F0300082F0300082F030008B8
:100060002F0300082F0300082F0300082F030008A8
:100070002F0300082F0300082F0300082F03000898
:100080002F0300082F0300082F0300082F03000888
:100090002F0300082F0300082F0300082F03000878
:1000A0002F0300082F0300082F0300082F03000868
:1000B0002F0300082F0300082F0300082F03000858
:1000C0002F0300082F0300082F0300082F03000848
:1000D0002F0300082F0300081B2D00082F03000822
:1000E0002F0300082F0300082F0300082F03000828
:1000F0002F0300082F0300082F0300082F03000818
:100100002F0300082F0300082F0300082F03000807
:100110002F0300082F0300082F0300082F030008F7
:100120002F0300082F0300082F0300082F030008E7
:100130002F0300082F0300082F0300082F030008D7
:100140002F0300082F0300082F0300082F030008C7
:100150002F0300082F0300082F030008212D00089B
:100160002F0300082F0300082F0300082F030008A7
:100170002F0300082F0300082F03000800000000D1
:100180002F0300082F0300082F030008152D000877
:100190002F0300082F0300082F03000800000000B1
:1001A0002F0300082F0300082F03000800F002F8B7
:1001B00000F09EF80AA090E8000C82448344AAF163
:1001C0000107DA4501D100F093F8AFF2090EBAE861
:1001D0000F0013F0010F18BFFB1A43F0010318477B
:1001E000B0AC0000D0AC0000103A24BF78C878C191
:1001F000FAD8520724BF30C830C144BF04680C602D
:10020000704700000023002400250026103A28BF74
:1002100078C1FBD8520728BF30C148BF0B60704778
:100220006E2900F09084702900F00F82662909F091
:100230000283652909F0FF82672909F0FC826129A0
:1002400009F0FB8203681B0A28BF41F0800169297D
:1002500000F08081642900F07D81752900F07A81A9
:100260006F2900F09185782900F0DB81E92900F001
:100270002B85E42900F02885F52900F02585EF2954
:1002800000F08E85F82900F0DA810368DB0928BFC9
:1002900041F08001632900F09A84732900F09F8463
:1002A000E32901F00B82F32901F01082002070474E
:1002B0001FB509F0B3FA9DE8030000F0A3FB00F0BE
:1002C00003FE04000020002109F04CFA401C60608D
:1002D0000020002109F05CFAE060AFF30080AFF38A
:1002E000008001F0FBF91FBD10B501F060FA10BDF0
:1002F00001F0C2FA1146FFF7DBFF06F0B5FD01F091
:1003000045FD03B4FFF7F0FF03BC02F01FFD000042
:100310000A4880470A4880470A480047FEE7FEE748
:10032000FEE7FEE7FEE7FEE7FEE7FEE7FEE7FEE7A5
:1003300005480649064A074B70470000652B000830
:100340003D290008AD0100089890002098D40020B5
:100350009894002098940020704770B5064600F0ED
:1003600035FB056806F10B0020F00704B4429CBF82
:10037000002070BD2B466A68BAB11068A04210D345
:1003800004F1080188423CBF5068586007D35168A7
:10039000101941601168091B016058601460101D3C
:1003A00070BD13465268002AE7D12146284600F066
:1003B00015FB0028DED170BD70B50446051F00F0A6
:1003C00005FB0068002C14BF446870BD002C18BFEA
:1003D000AC423CBF20466468F8D301680A18AA42C0
:1003E00018BF456003D12A6805461144016028689A
:1003F0004119A1421CBF6C6070BD616869602168D1
:100400000844286070BD10B5044600F0D7FA0068B3
:10041000005D000704D5DF2C02D0A4F1200010BD40
:10042000204610BD0A46014900F0DEBBBC0000209A
:100430000FB4044910B503AA029800F0D5FB10BC14
:100440005DF814FBBC0000200FB41CB5084B06AAD5
:100450007B4469460090059800F08FFB044600201D
:10046000694600F09DFB20461CBC5DF814FB0000B3
:100470004D0700000FB41CB50C0007AA009007D070
:100480004142A14202D32044401E01E04FF0FF3020
:10049000074B7B4469460190069800F06EFB0021F3
:1004A000002C01D0009A11701CBC5DF814FB0000F8
:1004B0001507000070B5044685690068C10601D5BE
:1004C000302600E02026C00707D070BDD4E9012106
:1004D00030469047206A401C20626D1EF6D570BDE4
:1004E00070B5044685690078C00707D170BDD4E9AE
:1004F000012120209047206A401C20626D1EF6D505
:1005000070BD70B50C460546012A05D028788006D6
:1005100000D5EA69002302E0012305E05B1C934259
:1005200002D2E05C0028F9D1A869E618C01AA861D7
:10053000286A184428622846FFF7BCFF04E0D5E982
:10054000012114F8010B9047B442F8D32846FFF775
:10055000C7FF70BD2DE9F0410646002410687529DB
:10056000314616A510D000F083FA002802DA404286
:1005700013A507E031688A0701D512A502E04907F3
:1005800004D511A5012401E000F07BFA00210A2224
:1005900006F1240709E0B0FBF2FCB0FBF2F302FB2A
:1005A0001C00303078541846491C0028F3D12346EB
:1005B0002A463046BDE8F04100F06CBA0000000069
:1005C0002D0000002B00000020000000F0B40D46BC
:1005D0000188090502D5214C7C4402E01F4C7C4473
:1005E0000E34002100F1240608E002F00F07120982
:1005F000E75D42EA03721B097754491C52EA03077C
:10060000F3D102780023120704D5702D06D009B16A
:10061000022311342246F0BC00F03CBA012310340E
:10062000F8E770B504460D462146106800F029FA37
:10063000024629462046BDE870400023C6E7D21D89
:1006400022F00703D3E90023C0E70368126843F0F0
:10065000200303600823C3610023B7E76292000010
:100660002DE9F05F894604464FF0000ADFF874B1C7
:10067000FB44C0F820A02046E1688847002874D0D9
:10068000252806D0D4E901219047206A401C206229
:10069000F1E700265F462046E168884720280546A6
:1006A00007DB312D05D2781910F8200C08B106436C
:1006B000F1E7B00701D526F00406C4F81CA0002716
:1006C000C4F818A02A2D09D0284609F035F838B307
:1006D00004EB8708303DC8F8185019E059F8041B9E
:1006E000204604EB87029161E1688847012F0546A7
:1006F00018D1E069002820DA26F020061DE0D8F89D
:10070000180000EB800005EB40003038C8F81800F6
:100710002046E1688847054609F00EF80028EED12A
:10072000012F0AD02E2D08D12046E16888477F1C72
:100730000546022F46F02006C4DBA069002803DA34
:10074000404246F00106A061F00701D026F01006F5
:100750006C2D0BD0682D09D04C2D39D06A2D35D099
:10076000742D35D07A2D33D016E038E0E1682F466D
:1007700020468847B842054609D16C2F26D04FF451
:100780008060E168064320468847054604E06C2FF8
:100790001AD04FF4807006430DB3A5F1410019281B
:1007A00002D8203546F400664A462946204626608F
:1007B0004E46FFF735FD80B101280BD0F61D26F01F
:1007C000070000F1080956E74020E4E78020D8E759
:1007D0000020D6E706F104094DE7284652E7206AD3
:1007E000BDE8F09FF29100000EB5054614460E4696
:1007F00013A001F093FC284601F090FC16A001F034
:100800008DFC304601F08AFC15A001F087FC002128
:100810008DF80B100A210DF10A008DF80A1008E07E
:1008200094FBF1F201FB124294FBF1F4303200F838
:10083000012D002CF4DC01F071FC00F0BBFA00008B
:100840002A2A2A20617373657274696F6E2066614B
:10085000696C65643A2000002C2066696C65200094
:100860002C206C696E65200030B503461D781DB1E3
:100870000A4603E0AC4201D1181A30BD12F8014B10
:10088000002CF7D15B1CF1E730B503461D783DB174
:100890000A4612F8014B1CB1AC42FAD15B1CF5E7D9
:1008A000181A30BD40EA010310B59B070FD1042A86
:1008B0000DD310C808C9121F9C42F8D020BA19BA2B
:1008C000884201D9012010BD4FF0FF3010BD1AB190
:1008D000D30703D0521C07E0002010BD10F8013BE5
:1008E00011F8014B1B1B07D110F8013B11F8014B0C
:1008F0001B1B01D1921EF1D1184610BD70B50C46DC
:10090000016800204A1C3ED03C22B1FBF2F302FBFE
:100910001313B1FBF2F12360B1FBF2F302FB1313EB
:10092000B1FBF2F118226360B1FBF2F302FB131387
:10093000B1FBF2F146F2E0320A440721A360B2FBB8
:10094000F1F301FB132140F2B553B2FBF3F5A161C2
:10095000B2FBF3F103FB15228900B2F5B77F08D390
:100960009B10521EB2FBF3F52944B2FBF3F503FBD7
:1009700015220F4BE261616189077B440CD03B2A51
:100980000AD3521C08E02C21204600F072FA012004
:10099000E0600AE0521A401C195C9142FAD9521CDC
:1009A000C4E903204FF0FF302062204670BD0000F4
:1009B000028F0000704770477047704710B500F015
:1009C00083FA001D10BD00BF9D8D000000487047D8
:1009D0006C010020704770477047704738B5044677
:1009E0000A4600206946AFF30080002808BF38BDE2
:1009F00002460099204600F06BFA012038BD012024
:100A000000F033BFF8B5AFF30080054600200C4678
:100A1000102000BF0646A819A0420DD932466946EB
:100A20000020AFF30080070008BF00F01EFF009811
:100A3000A04218BF0546C419FFF7C8FF0560074666
:100A4000F01D20F007004619284600F00AF8B442CD
:100A500008BFF8BDA21B31463868BDE8F84000F079
:100A600037BA00210160C0E90110704710207047BB
:100A700009684A0501D540B27047C905FCD500B2E6
:100A8000704709684A0501D5C0B27047C905FCD551
:100A900080B270472DE9F0470D46994692460446CC
:100AA00000F124080168880604D5E06921F01001EE
:100AB000216000E00120A84201DD471B00E0002783
:100AC000A1697A1902EB0900081AA0612078C00612
:100AD00002D42046FFF7EEFC002608E0D4E901210D
:100AE0001AF806009047206A401C761C20624E458A
:100AF000F4DB2078C0060AD52046FFF7DBFC06E0D1
:100B0000D4E9012130209047206A401C2062381E21
:100B1000A7F10107F4DC07E0D4E9012118F805008A
:100B20009047206A401C2062281EA5F10105F3DCD5
:100B30002046FFF7D5FC2078000602D50220BDE84C
:100B4000F0870120FBE711680268006A530501D5B0
:100B500008700AE0D30501D5088006E0130603D526
:100B6000C217C1E9000200E00860012070470000E0
:100B700001694A1C02610878704700B58FB0CDE961
:100B800001310021059105497944CDE90310114651
:100B90006846FFF765FD0FB000BD0000E5FFFFFFF1
:100BA0000A6802F8010B0A607047D1E900239A42F3
:100BB00002D2531C0B601070704710B5436913B11B
:100BC000AFF3008001E0FFF79CFC012010BD12781C
:100BD00000F124010A7000224A700122EDE7116839
:100BE0004FF0FF32E9E70000074B70B50D467B443C
:100BF000FFF7C3FF0446284600F06CFD10B14FF02C
:100C0000FF3070BD204670BD558B00002DE9FF5FA1
:100C100015468A460446DFF8AC80F8440027D8E938
:100C200000103E46CDE9001010E03AF816106A4672
:100C300002A800F0EFFD411C07D02178890603D5FA
:100C4000E269391891420DD80744761C2078800655
:100C500002D5E069B84205DDAE42E6DB3AF816009F
:100C60000028E2D1A069C01BA0612046FFF722FC4A
:100C7000D8E90010CDE90010002017E03AF818106C
:100C80006A4602A800F0C6FDB0F1FF3F81460BD0D6
:100C900000250DF1080B05E0D4E901211BF8050042
:100CA00090476D1C4D45F7D308F10100B0428046D6
:100CB000E4DB206A384420622046FFF711FCBDE8DF
:100CC000FF9F00005A8C00002DE9F0418046D21DA4
:100CD00022F007020025D2E90002F52915A614D05A
:100CE000011E72F1000106DA0023D0EB030063EB72
:100CF000020211A608E0D8F800108B0701D50FA654
:100D000002E0490701D50EA601251146002408F18D
:100D1000240704E000F0F6F830323A55641C50EA3B
:100D20000102F7D12B46324621464046BDE8F0414C
:100D3000FFF7B0BE000000002D0000002B000000F7
:100D40002000000030B4002100F1240408E002F08B
:100D50000705D208303542EA4372DB086554491C66
:100D600052EA0305F3D10468002310A2250708D531
:100D700004F020040C4304D0C46901230CA2641EB7
:100D8000C46130BCFFF786BE10B50446214610682A
:100D9000FFF777FE02462046BDE810400023D1E76A
:100DA000D21D22F00701D1E90023CBE700000000AB
:100DB0003000000010B5002000F050FDFFF794FA5D
:100DC000BDE81040012001F0C1BF10B5203AC0F0CD
:100DD0000B80B1E81850A0E81850B1E81850A0E80E
:100DE0001850203ABFF4F5AF5FEA027C24BFB1E8A7
:100DF0001850A0E8185044BF18C918C0BDE81040EA
:100E00005FEA827C24BF51F8043B40F8043B08BFF2
:100E10007047D20728BF31F8023B48BF11F8012BB9
:100E200028BF20F8023B48BF00F8012B70474FF065
:100E300000020429C0F0128010F0030C00F01B80A7
:100E4000CCF1040CBCF1020F18BF00F8012BA8BFB5
:100E500020F8022BA1EB0C0100F00DB85FEAC17C79
:100E600024BF00F8012B00F8012B48BF00F8012B2C
:100E700070474FF0000200B513469446964620395D
:100E800022BFA0E80C50A0E80C50B1F12001BFF443
:100E9000F7AF090728BFA0E80C5048BF0CC05DF8A9
:100EA00004EB890028BF40F8042B08BF704748BFF7
:100EB00020F8022B11F0804F18BF00F8012B70476B
:100EC00000487047640100200048704784010020FA
:100ED000034640688C46002818BF88423CBF034642
:100EE0004068F8D318681844884207D00CF1030012
:100EF00020F00700001D411A521A0146081D0A6021
:100F0000FFF75ABA30B5B0F10A0271F100034FEAA7
:100F1000900E4EEA817EB0EB0E0061EB91014FEA3C
:100F2000101E4EEA017E10EB0E0041EB11114FEA4C
:100F3000102E4EEA016E10EB0E0041EB11214FEA2C
:100F4000104E4EEA014E10EB0E0041EB11414018DD
:100F500041F100014FEAD00040EA41704FEAD1016F
:100F60004FEA810444EA907410EB800544EB0104DD
:100F70006D1944EB0404521BA3414FF0000348BF1A
:100F80000A3200D530BD401C41F1000130BD2DE9D1
:100F9000FF4F0C461E464FF0FF378BB0D2E90001E1
:100FA000DDF860800A908A46C1F30A5505B93D46CE
:100FB000002108464FF00000BAF1000F00F4400095
:100FC00005DA00EB80004FF4400101EA50004FEADF
:100FD0009059B9F1010F00DDB9460A9850EA4A006C
:100FE0000ED044F61050A5F2FF3545432F14B8F14A
:100FF000000F1ED07542291E1EDDC9F100021CE043
:10100000B8F1010F4FF0000001D0302103E0F243AE
:1010100005E02154401CB042FBDB30460022002199
:1010200021540B99C1F80880C1E900200FB0BDE838
:10103000F08FBD1B6D1CDEE74A4600DA694206A848
:1010400000F080FC06AB93E8070003AB83E80700E1
:1010500050460A9907F090FF8DE80700A0F5005070
:101060001F3800900398002D0ADD42F21F014A4606
:101070000844002303A90390684608F0F9F909E041
:10108000A0F500504A461F38002303A90390684684
:1010900008F003FA8DE807000004000C03D04FF0BD
:1010A000FF30410800E01046B8F1000F03D00022E5
:1010B000009215461EE0751E05D4FFF723FF30325F
:1010C00062556D1EF9D5B3460122084302D00022B5
:1010D0007F1C04E02078302801D100227F1E002AE6
:1010E000099784D01DE0112D07DAFFF70BFF30328E
:1010F00062556D1C50EA0102F5D1084302D00098F8
:10110000C8B10EE00021681E05E0235C625C6354F8
:101110002254401E491C8142F7DBAB46A81B401EEF
:101120000990002004F80B000B98099AC0F8088079
:10113000C0E9002B7AE711264FF0000857E72DE9A8
:10114000F04F88460446D21D22F0070191B0D1E944
:101150000001CDE90A0108F0D7FA02460B98C00F4A
:1011600001D02D2007E02068810701D52B2002E067
:10117000202101EAC000032A099001D0072A05DBDB
:1011800003464146204600F09DFB0BE12078800697
:1011900001D5E06900E00620B8F1650F814606D070
:1011A000B8F1660F18D0B8F1670F70D131E00020A8
:1011B000B9F1110F009001DB112301E009F10103E6
:1011C0000AAA01A90CA8FFF7E2FEDDE90C700026CF
:1011D00009F10105834647E001204B4600904FF09E
:1011E00000470AAA01A90CA8FFF7D1FEDDE90DB05E
:1011F0000C995D46002610B909F101000D18B9EBF4
:10120000050003D4C0F1FF3609F10105A5EB090083
:101210002BE0B9F1010F01DA4FF001090020B9F11B
:10122000110F0090484601DD112300E003460AAA91
:1012300001A90CA8FFF7ABFEDDE90C704D460026B6
:101240008346207800070AD4AB4500DA5D4601A842
:10125000012D04DD411911F8011C302907D04F453B
:1012600002DA17F1040F04DA012082460FE06D1E46
:10127000EEE7002F02DCED1B3E4403E0781CA842A1
:1012800000DD7D1CB81B00F1010A4FF000472078FB
:10129000000703D4AA4501DB4FF0FF3A0021B7F164
:1012A000004F0DF143088DF8431024D002202B236A
:1012B000002F01DA7F422D230A21021EA0F1010036
:1012C00000DC5FB197FBF1FC97FBF1F201FB1C7CAA
:1012D00017460CF1300C08F801CDEEE7A8F101003B
:1012E00003702188090501D5452100E06521A0F1A1
:1012F000010800F8011C09980FA9A1EB0807FF1DC0
:1013000000B10120411901EBEA70A1693844081AC3
:10131000401EA0612078C00602D42046FFF7CAF81C
:10132000099828B1D4E901219047206A401C206225
:101330002078C00622D52046FFF7BCF81EE0002E1C
:1013400004DBB34502DD01A8805D00E03020D4E974
:1013500001219047206A401C2062761CAAF10100FE
:101360005FEA000A0AD1FFF7AFFDC0680168405C80
:10137000D4E901219047206A401C2062281EA5F173
:101380000105DCDC07E0D4E9012118F8010B9047E6
:10139000206A401C2062381EA7F10107F3DC2046BA
:1013A000FFF79EF8032011B041E600002DE9F04F51
:1013B00004460D46D21D22F0070089B0D0E90097FF
:1013C0004846394608F0A0F90246F80F01D02D230F
:1013D00007E02068810701D52B2302E0202101EAE4
:1013E000C0038DF820300BB1012000E00020032A5B
:1013F000824601D0072A04DB2946204600F062FA23
:101400003FE12078800601D40D2500E0E569C7F3AF
:101410000A560D2D49DA00214FEA175B08464FF0B6
:101420000000002F00F4400007DA00EB80004FF4CA
:10143000400100EBD07001EA60008115012901DD57
:101440004FF0FF3100224FEA850CBCF1180F06D394
:101450001346ACF118004FF08052C24003E04FF445
:10146000801323FA0CF30CF10C0CBCF1200F04D305
:10147000ACF1200C09FA0CF001E007FA0CF000299D
:101480004FF0004801DD18B90FE00ED140450CD3F4
:1014900019EB02095F4121B9404502D19F4329EA76
:1014A0000209BBEB175F00D0761C2088000502D52F
:1014B0007B48784402E07A487844193808AA3023F7
:1014C00002F80A30037C0AF10101002E0AF1020A37
:1014D00053546A4602DC4FF0300101E04FF0310115
:1014E0004FF001088DF8001002D0A6F2FF3603E09D
:1014F00059EA470100D06B4E002D02DC2178090724
:1015000004D54FF002082E218DF80110C4460021A9
:101510000BE0C7F303433F01C35C491C6D1E02F897
:101520000830052908F1010801DA002DF1DC00215D
:101530000CE000EB1973491C1B786D1E082902F89A
:1015400008304FEA091908F1010801DA002DF0DC32
:1015500021688B0602D516E0A8F10108E04505DDFB
:1015600002EB080313F8013C302BF5D0B8F1000F63
:1015700009DD02EB080313F8013C2E2B03D1090708
:1015800001D4A8F10108002D05DD3E2102F8081064
:101590006D1E08F10108407C002E02F8080008F1D9
:1015A000010804DA2D20764202F8080002E02B2020
:1015B00002F808000A214FF47A70864208F1010807
:1015C0000BDB96FBF0F3303302F8083096FBF0F3B8
:1015D00008F1010800FB136601E0642E0CDB6420B7
:1015E00096FBF0F3303302F8083096FBF0F308F185
:1015F000010800FB136601E00A2E06DB96FBF1F002
:10160000303002F8080008F1010896FBF1F001FB08
:101610001060303002F80800A16908F1010808EBF9
:10162000050202EB0A00081AA0612078C00602D465
:101630002046FEF73FFF216A08AE01EB0A00206258
:1016400004E0D4E9012116F8010B9047BAF1010A30
:10165000F7D22078C00602D52046FEF72BFF6E4653
:1016600009E016F8010B3E280FD0D4E9012190477C
:10167000206A401C2062B8F10108F2D22046FEF731
:101680002FFF09B00320BDE8F08F206A28442062B4
:1016900003E0D4E90121302090476D1EEBD3F8E739
:1016A000E983000002FCFFFF10B5436913B1AFF3FB
:1016B000008001E0FFF7AAFA012010BD128800F1B6
:1016C000240182840022C2840122EDE711684FF0D8
:1016D000FF32E9E7007B00F08000704710B5424818
:1016E0005421FFF7C6FB41485421FFF7C2FB404895
:1016F0005421FFF7BEFB3F493B483C4A3F4B086043
:101700003D490A603A491960531C0365481C10653D
:10171000012008653B48344A39A1784400F098FA22
:1017200020B9384878440A3800F056FB37482F4A29
:1017300035A1784400F08CFA20B9344878440A384E
:1017400000F04AFB32482A4A2FA1784400F080FA80
:1017500020B92F4878440A3800F03EFB4023224845
:10176000DC000021224600F050FA20B125487844E0
:10177000543800F031FB1D4822464023002100F080
:1017800044FA20B121487844543800F025FB184829
:1017900022461023002100F038FA002806D01C4809
:1017A0007844BDE81040563800F016BB10BD104814
:1017B00070B5006D20F001040B4800F0C1FA0B4831
:1017C00000F0BEFA0A4800F0BBFA09E0206D20F0F4
:1017D0000105204600F0B4FA2046FEF7EDFD2C4648
:1017E000002CF3D170BD000068000020BC00002078
:1017F000100100200000002004000020080000204C
:101800007200000092820000770000007E820000DB
:101810005E8200002DE9F04116460C460546FFF7B2
:10182000CDF8036893F80101012807D0FF2C12D8E6
:10183000185D80B101202C70BDE8F081D3F807015C
:101840003246214603F20713C7182846BC46BDE8B6
:10185000F041002360474FF0FF30EDE710B500F096
:10186000A3FABDE8104000F09ABA10B500F0BCFA37
:10187000BDE8104000F093BA7546FFF721FBAE4675
:1018800005006946534620F00700854618B020B58C
:10189000FEF74EFDBDE820404FF000064FF0000778
:1018A0004FF000084FF0000BAC46ACE8C009ACE8C4
:1018B000C009ACE8C009ACE8C00921F007018D46B9
:1018C000704700002DE9F0411F46044603260168D9
:1018D000072A01F4006004DB08B116A505E016A58F
:1018E00003E008B115A500E015A521F01000206067
:1018F000A069C01EA0610FB1401EA0612046FEF786
:10190000D9FD4FB1D4E9012138469047206A401CE7
:101910002062C01C206206E0206AFAE7D4E90121B7
:1019200015F8010B9047761EF8D22046FEF7D8FD39
:10193000BDE8F0814E414E006E616E00494E46009A
:10194000696E66002DE9F047814616468AB0354833
:1019500078440DC88DE80D0032487844801C03ACF3
:101960000DC884E80D0041F69B300844372190FBF8
:10197000F1F290FBF1F5A5F1800501FB12041B3C8F
:1019800002D56442012000E00020DFF898A08046E4
:101990000027FA44AAF1BE0A0EE0E0070AD0324658
:1019A000684607EB470101230AEB810107F075FD4B
:1019B0008DE8070064107F1C002CEED1194F7F4486
:1019C000AE3F19E0E80715D007EB04100DF1180A37
:1019D00090E80E008AE80E00C068F04201D1981924
:1019E00008903246012306A903A807F056FD03AB71
:1019F00083E807006D10641C002DE3D14FF0010354
:101A000032466946B8F1000F03A802D007F030FD56
:101A100001E007F042FDC9E90001C9F808200AB059
:101A2000BDE8F087DC7F00002DE9F05F0546174632
:101A30000C46C86820F4201040F48000C86080067E
:101A400002D5084600F015FBE06841F282014FF034
:101A5000FF3A0140022903D0204600F0A7FAB9E07E
:101A600000F42041B1F5004F0FD1C00306D56168E5
:101A7000E06A884200D80846606006E02069E062BB
:101A8000606060694FF0FF30A061A0680022EEB294
:101A900000280DDAE1688B050AD4C043A06041F448
:101AA00090302260E0606068411C61600670AAE0CE
:101AB000E0689146226040F40050E060206978BB05
:101AC0006069002000BF04F124054FF00108A8B1AF
:101AD000A08910F4407F08D0E069FEF73EFC206149
:101AE00018B1E06840F4006017E0C4F81C8025617C
:101AF000E06820F4407040F480600EE0E069FEF79A
:101B00002CFC00282061F0D0E06840F4006010F464
:101B1000407FE06002D140F48070E0602069606046
:101B2000E06825696FF0010BC1051ED56168E06AA8
:101B3000884200D80846411B04D02246284600F0BF
:101B40003FFAE8BB1FB1E562C4E9015959E0681CDE
:101B5000E0626060E069401EA060E06840F48030B0
:101B6000E06030462E70BDE8F09F17B100F480327F
:101B70000AE06068411C61600670E0680A2E40F46B
:101B80008030E06006D00022E16A6068814203D9BB
:101B90000B4602E00122F7E70346B4F80CC05B1BDA
:101BA0005FEA4C5C04D4D4F81CC09C4500DD02B351
:101BB000814200D80146002BA1EB0008E56200E05D
:101BC00008E0C4E9015907DD22461946284600F01D
:101BD000F7F908B15046C6E7B8F1000F09D0A1697E
:101BE000E5626560A1EB0800A061E06840F01000CC
:101BF000E06047B16168A069E562491B084465601F
:101C0000A0615846AFE73046ADE770B5C468A50798
:101C100013D0650211D4B2F5807F09D0B2F5007FF0
:101C200006D0B2F5806F08D1012300F1240106E04F
:101C30005D1E6FF07F46B54201D3012070BD01618A
:101C4000C361416024F470611143C160002070BD24
:101C50002DE9F0410C461646070047D0104600F02B
:101C60006FF82078611C61280AD0722802D077288A
:101C70003CD102E00125002405E00225042402E015
:101C8000082448F2020511F8010B2B2806D062281F
:101C900009D011F8010C74280AD00BE045F00305B7
:101CA00044F00204EFE745F0040544F00104EAE7DC
:101CB00044F0100438462146012000BF411C15D0D5
:101CC0000021316171604FF40071F560F161706164
:101CD000200704D530460222002100F0EBF8306DD9
:101CE00040F0010030653046BDE8F0810020FBE7A0
:101CF0002DE9F0410D460646104C206DC10704D079
:101D0000410804D020F00104F7E722460EE05420F9
:101D1000FEF723FB07000ED0206D47F001010843BA
:101D2000542120653846FFF7A4F83A462946304644
:101D3000BDE8F0418CE70020D6E7000068000020F5
:101D40002DE9F04704464FF0FF380026C568D4E976
:101D50000497A80718D0204600F068F938460020FC
:101D600000BF002800DA4646280502D54846FEF79F
:101D700023FB4C212046FFF77CF8206D20F001006A
:101D800020653046BDE8F0874046FBE710B50446C5
:101D9000AFF300802046BDE81040FEF7B2BA00283D
:101DA00001D000F0D3BF704710B5002102A000F0B1
:101DB00081F9012010BD0000534947414252543A75
:101DC0002041626E6F726D616C207465726D696E18
:101DD0006174696F6E00000010B500F085F9BDE810
:101DE0001040FFF7DCBF000010B5012805D000212E
:101DF00003A000F05FF9012010BD09A1F8E7000081
:101E000053494752544D454D3A204F7574206F66E3
:101E10002068656170206D656D6F7279000000004B
:101E20003A2048656170206D656D6F727920636F2F
:101E3000727275707465640030B44FF0013C50F8F4
:101E4000042B51F8043BCCFA52F4D51A20D1FCB93A
:101E500050F8042B51F8043BCCFA52F4D51A17D1A0
:101E6000B4B950F8042B51F8043BCCFA52F4D51A0B
:101E70000ED16CB950F8042B51F8043BCCFA52F453
:101E8000D51A05D1002CDAD030BC4FF000007047D5
:101E900029BAB1FA81F111F01801D1F12000844082
:101EA000F2D1CA40CB4012F0FF0213F0FF0330BC66
:101EB000D01A70472DE9F041044616460D46476991
:101EC000007B80072ED03846002000BF50BB3EB3B9
:101ED000012E02D0022E25D104E0204600F06DF93B
:101EE00005441DE038464FF0FF30E168002841F01E
:101EF0001001E16005DA204600F058F80120BDE845
:101F0000F081C9030BD56268E16A914200D811469D
:101F1000A26911442269891A814200DD08460544FC
:101F2000002D01DA0220EAE7E16A6068E268814296
:101F300006D29103E06203D522F4003141F0100291
:101F4000A6690027AE4213DCE16A814201D90B4643
:101F500000E0034603EB060C2369ACEB030CAC4535
:101F600006DD814201D98C4600E084469C4505D1BE
:101F7000A760276042F02000A5620DE0AD1BE66976
:101F8000AE1B8142A66000D90846C01A281A2060FC
:101F90005819606022F0200003490840E0600020EA
:101FA00084F84870ABE70000BFCFD7FFC16821F4C9
:101FB000001141F08001C160002181600160704723
:101FC0002DE9F74F15460C464FF0FF3B3848D768D0
:101FD000D2F814A0074209D05046A9694FF0FF304B
:101FE000002819DB3248C0430740EF604FF000493A
:101FF0006FF000484C4501D3464600E02646009964
:102000003B4650463246002000BFA96920F00042FE
:10201000B21A1144A96128B12846FFF7C7FF5846F4
:10202000BDE8FE8FA41BE5D10020F9E770B504469A
:102030000569C06A6168884200D80846E16821F4F1
:102040002011E160C90312D5A84208D02246411BE5
:102050002846FFF7B5FF10B14FF0FF3070BD0020EC
:10206000E562C4E90150E06820F48030E0600020BF
:1020700070BD10B50446C06820F02000E060A16A81
:10208000A06988420DD02046FFF7D0FFE06820F419
:10209000405040F01000E060A06AA0612069E0625A
:1020A000606044F24001E0688843E06010BD0000D9
:1020B0001000020070B505460C460A2000E06D1CB9
:1020C000AFF3008035B128780028F8D102E0641C15
:1020D000AFF3008014B120780028F8D1BDE870403B
:1020E0000A2000F034BE000010B5014602A0FFF740
:1020F000E1FF012010BD00005349475254524544AE
:102100003A2052656469726563743A2063616E2790
:1021100074206F70656E3A200000000010B504490D
:1021200000F03AF8BDE81040014800F01EB8000089
:102130001001002070B50446C068810713D08006E6
:1021400001D5A56A04E0A169606808442169451ABF
:102150002046FFF76BFF0022064629462046FFF780
:10216000A9FE304670BD002070BD70B510B1BDE84D
:102170007040DFE70025074C6E1E07E02046FFF7A2
:10218000D9FF00B13546206D20F00104002CF5D1B7
:10219000284670BD6800002070B50D46044604E076
:1021A000294607F0D0FA401C04D014F8010B00288F
:1021B000F6D170BD4FF0FF3070BD10B50146C2685A
:1021C000900703D0900607D5886A0AE000F05CF813
:1021D00001210160881E10BD8B69486818440B6995
:1021E000C01A91F848301BB191F84910401A10BD3F
:1021F0001103FCD50028FADD401E10BD032A40F271
:10220000308010F0030C00F0158011F8013BBCF198
:10221000020F624498BF11F801CB00F8013B38BFB0
:1022200011F8013BA2F1040298BF00F801CB38BFBE
:1022300000F8013B11F003033EF4C7AD083AC0F0CB
:10224000088051F8043B083A51F804CBA0E8081084
:10225000F5E7121D5CBF51F8043B40F8043BAFF3B7
:102260000080D20724BF11F8013B11F801CB48BF11
:1022700011F8012B24BF00F8013B00F801CB48BF47
:1022800000F8012B704700000048704764010020EF
:1022900053EA020C00F069802DE9F04B4FF0000684
:1022A000002B1FBFB3FA83F503FA05F424FA05F6F1
:1022B0005E4012BF1643B2FA82F502FA05F4C5F188
:1022C00020051EBF22FA05FC44EA0C04203556EA1C
:1022D000044C4FEA144418BF641C4FF000084FF040
:1022E0000009904271EB030C39D3002919BFB1FAF0
:1022F00081F701FA07F6B0FA80F700FA07F6C7F19E
:1023000020071EBF20FA07FC46EA0C062037B6FB62
:10231000F4FCA7EB0507103F07F01F0BCBF12006DD
:102320002CFA06F60CFA0BFB44BFB3460026202F0E
:10233000A4BF5E464FF0000B5BEA060C08BF4FF0EF
:10234000010B19EB0B0948EB0608ABFB027C06FB03
:1023500002CC0BFB03CCC01B71EB0C01C1E70B469D
:10236000024641464846BDE8F08B13B5084318BF06
:102370004FF0FF300146AFF30080BDE81C407047CE
:1023800002F0FF0343EA032242EA0242FEF751BD94
:1023900070B50A2800F26C800C461546DFE800F0A4
:1023A0000E0606222D353D456A4D5900681E02284D
:1023B0005CD3002D40F08480002080E0681E02285D
:1023C0006AD22168B1FA81F040090029BB490FBFE8
:1023D00001220022C1E90C22C1E90E22012D0A705E
:1023E0005DD16DE0681E022840D3002D68D15648AB
:1023F0003C214068B0FBF1F061E0681E022835D353
:10240000002D5DD15048408859E0681E02282DD328
:10241000002D55D14C48008951E0681E022825D373
:10242000002D4DD1A548406A49E0681E02281DD301
:10243000002D45D1A148807F41E0681E022831D29D
:102440009E48807F90B120684349C217C1E91602B7
:1024500009E0681E022829D29848807F30B12068A0
:102460003D49A1F8600000F03BFB29E00B2028E08B
:10247000052026E0681E02281DD22668022031466B
:1024800000F0C4F88D4988773348C0F86A6000F0DE
:1024900027FB012D10D113E095B98848007880F012
:1024A00001000CE065B92C48806D08E045B92A4868
:1024B000B0F8600003E01DB92748D0F86A0020603A
:1024C000FF2040B270BD00BF08B1052018E010B574
:1024D0002DED028B0C4600F0D5F807F06FF908EEF1
:1024E000100A00F0CBFB00EE100AFF20B8EE400A05
:1024F00088EE000A84ED000ABDEC028BBDE81040B6
:1025000040B27047D0F800D0D0F804F0F0B54FF6E4
:10251000FF73002241F221048A4204BF98B2F0BD49
:10252000855C83EA0523082545B11EB25F00002EB5
:1025300048BF84EA43073B46013DF5E70132EBE73C
:1025400001480A21FFF7E2BF4002002002483A2179
:102550003430FFF7DBBF00BF90020020BFB5044658
:10256000684600F0BBF807499DE82D0081E82D0082
:102570004FF0FF3006F0E0FC214606F0DDFCC043E2
:1025800004B0B0BDB48E0020B0B5002201230024F9
:102590008C4209D0055D2A44B2F5807F02D353FAFC
:1025A00082F2F9E70134F3E7D043C0B2B0BD0000D6
:1025B00010B50C46FDF727FF3038172803D206491F
:1025C000C140C90705D1207840F001002070FF20EC
:1025D00010BD02A1085C10BDFF037E0000010203D4
:1025E000040506070809000000000000000A0B0CA3
:1025F0000D0E0F00044B01F00F0209099A5C595CA3
:1026000042700170704700BFE099000810B50C4699
:10261000044951F82000FFF7A1FF001BB0FA80F039
:10262000400910BD80990008002221B110F8013B3B
:1026300001391A44F9E7D0B270470000B0B500F094
:1026400021F804460D4600F019FB0649B0FBF1F0F5
:10265000241845F100052046294600F005F800B988
:10266000F9E7B0BD40420F0070B50C4605460026A4
:1026700000F008F8281A74EB010038BF0126304634
:1026800070BD000070B50C4A0C48D0E914145368B2
:10269000D0E9145666404D403543F6D115681268AE
:1026A000D21A01356C430132E1FB0524D0E9160151
:1026B0008018614170BD00BF14E000E0C801002037
:1026C0000146F64849B1012905D0022904BF00F5A9
:1026D00060507047FEE700F55040704707490A68B0
:1026E00012BAC2604A6812BA8260896809BA416047
:1026F0000349096809BA0160704700BF107AFF1FDB
:1027000000ED00E0F8B50646FFF7DAFF3B4D044662
:1027100005F5003106F022FCB8B139484FF40771D5
:10272000626816FB0100014651F8103FFE2B0CD8E1
:102730004369034483F81C210A6801320A60416935
:10274000013141614169C9B241612E4F204607F113
:10275000011106F003FCF0B129484FF4077116FB94
:102760000100014651F8042F6AB1C2680244127F89
:1027700062600A68013A0A60C1680131C160C168DB
:10278000C9B2C16007E0E06820F08000E060E06866
:1027900040F04000E0602046394606F0DFFB10B311
:1027A000E0684FF4077120F04000E060144816FB29
:1027B0000100406820B1E06840F08000E06012E075
:1027C0004EB1012E0BD0022E04D10F480421C0F8C7
:1027D000001C08E0FEE70C484FF4005102E00A48F4
:1027E0004FF4805101602046294606F0B7FB18B12E
:1027F000206820F008002060F8BD00BF050303003A
:1028000060880020060306002804024069682878D2
:10281000AA7806F0E5BADBE91001FFF725BF0390BF
:10282000504600F07BBDFF22896AFFF7A9BD41EA4F
:1028300080232846594601F075BD01224FF400530C
:102840007047002100F06ABD294602F0FBBC4DF83C
:1028500008ED04F055FA00285DF808EB70472846AB
:102860000221012240233847012100F54445284632
:1028700038475A460294CDE90005584600F0F1BEAB
:1028800007B0BDE8F08FDBE91201FFF7EDBED9F824
:1028900004000130C9F8040000F0FCB90468C06904
:1028A0001D46049B00FB012120462A46704720223A
:1028B000FFF7A4BCA06E81691498B0FBF1F202FB93
:1028C0001101002970470297CDE900B0204602F0BF
:1028D000CDBA00220021042A04BF08467047835C59
:1028E000013243EA0121F6E700220021042A04BF55
:1028F00008467047835C013243EA0121F6E710EE97
:10290000101A0022042A08BF704781540132090AB4
:10291000F8E7032253B2002B04D4D3B2013AC154D6
:102920000912F7E77047032253B2002B04D4D3B245
:10293000013AC1540021F7E7704700002DE9F84340
:102940002A4D2B4CDFF8AC80002100224FF400739D
:102950004FF40076286840F0020028602046C04707
:10296000254F2046012100224FF40073B847A6618D
:102970000121012240234FF04009286840F0100057
:102980002860286840F010002860286840F00400A3
:10299000286004F540652846C047284601210022EA
:1029A0004023B847154E2846012101222023C6F8AE
:1029B00000904FF02009C047284601210022202323
:1029C000B84704F580650121FFF737FFC6F800908E
:1029D0004FF400562846C0472846012100224FF4F4
:1029E0000053B847C4F82864BDE8F8833038024083
:1029F00000040240312E00087F2E000828100240FB
:102A0000B0B50446C0680D461D4920F40050E06092
:102A100003208C4215D01B498C4211D01A498C429C
:102A20000ED01A498C420BD019498C4208D0194952
:102A30008C4205D018498C4203D0184884421CD1DE
:102A4000022006F05BF9E168090405D400EB5500AB
:102A5000B0FBF5F080B20AE040004FF6F07100EBF9
:102A60005500B0FBF5F00140C0F342000844A060FF
:102A7000E06840F40050E060B0BD0020E3E700BF34
:102A80000014014000480040004C0040005000404D
:102A900000780040007C00400010014000440040ED
:102AA0000648074A4FF4007301780029B1FA81F112
:102AB00008BF10321360490901707047848F0020ED
:102AC0001804024005490A689207FCD54860086866
:102AD0000006FCD44868C0B2704700BF08500140EF
:102AE00010B5894C207D012807D14FF47A7000F091
:102AF00005F8C4E91C010120607510BD70B50446DD
:102B0000FFF7C0FD05460E4600F0B8F8A0FB040133
:102B10004FF47A720023FFF7BBFB4019714170BD7F
:102B20007CB5054600200DF107060C468DF8070020
:102B300028783146FFF73CFD000131462070687867
:102B4000FFF736FD2178084320709DF907007CBD12
:102B50006D48D0E91412013142F10002C0E91412AB
:102B6000704700BF18B53F48016841F4700101602B
:102B70003D48016841F00101016001688907FCD509
:102B8000816841F0800181600021009100994F2906
:102B900002D800990131F8E7816841F09001816025
:102BA0000021009100994F2902D800990131F8E7DE
:102BB00081682E4A21F003018160016811400160A3
:102BC000016821F480210160002181608268284A27
:102BD0004260C160026842F4803202604FF6FE72C9
:102BE0000468013A41F10003A40301D4002BF7D19A
:102BF0000168890300D4FEE7016C41F08051016453
:102C00001C490A6842F440420A6082688260826815
:102C100042F400428260826842F4A0528260164A06
:102C20004260026842F08072026002689201FCD544
:102C30000A6842F480320A604A68D203FCD50A6806
:102C400042F400320A604A689203FCD5816821F0A0
:102C500003018160816841F0020181608168090798
:102C6000FCD518BD88ED00E000380240FFFFF6FEFD
:102C700010300024007000400814400A80B5012084
:102C800006F03CF802490968490758BFC00880BDF2
:102C900010E000E070B5AAB01B4E707C10B16FF070
:102CA00002002EE00020194A40F2031319901AA9DD
:102CB000CDE91710B06A17A9009102A902F0ACFD86
:102CC000002817D4124C05202070FFF739FC6081D2
:102CD000B06A02AD22460C23294603F045F90446AA
:102CE000B06AFFF7B1FD0C2C07D1B0F1FF3F04DD56
:102CF000002006E04FF0FF3003E0012070746FF019
:102D000001002AB070BD00BFC8010020E6A1000884
:102D1000400200200220FFF7F5BC0020FFF7F2BCC4
:102D20000120FFF7EFBC00000648BFF34F8F064AB3
:102D3000016801F4E06111430160BFF34F8F00BFF0
:102D4000FDE700BF0CED00E00400FA05FEE7704768
:102D500010B50446407818B908484FF40061016185
:102D60002078062106F036F8607818B903484FF449
:102D700000610160BDE81040FFF760BC1810024020
:102D800010B51149114A06231068C4030CD4C405B8
:102D90000CD404060CD444060CD4C4065ABF8007D5
:102DA00003EAE070052006E0012004E0022002E0D2
:102DB000032000E004200131012801D10029E3D1E2
:102DC000002908BF072010BD010000B00C3C0240E4
:102DD000F0B5D0F820E0446A00254FF00F0C002732
:102DE000082F0ED022FA07F6F60707D00CFA05F3E3
:102DF00001FA05F62EEA030343EA060E043501370D
:102E0000EEE7082500264FF00F0C102D0CD022FA0B
:102E100005F3DB0705D00CFA06F701FA06F3BC430D
:102E20001C4304360135F0E7C0F820E04462F0BDF1
:102E30002DE9F043D0F800E0D0F80C8000264FF0E8
:102E4000030C0027102F14D023FA07F4E4070DD049
:102E50000CFA06F502FA06F928EA05042EEA050539
:102E600044EA090801FA06F445EA040E023601377D
:102E7000E8E7C0F800E0C0F80C80BDE8F083F0B5EA
:102E8000012941684FF0030C14BF99431943416075
:102E9000002400268168102E04BF8160F0BD23FA53
:102EA00006F7FF0705D00CFA04F502FA04F7A94368
:102EB000394302340136EEE72DE9FC41344E0D462C
:102EC00004464FF00008D4E9162191420DD2606EFD
:102ED000CB0801F00707C35CFB40DB072AD0206E5C
:102EE0000131E16501382066EFE7226E636DE06E27
:102EF000EAB31944C4F85C80B1FBF0F303FB101093
:102F00006065D4E91901C96AB2EBC10F88BFCA0074
:102F1000A265FDF78CFF204631462246012303F0CF
:102F2000CDFA0028CFD0E26E0021C4E91611226646
:102F3000BDE8FC81626DE36E1144B1FBF3F202FB6C
:102F4000131104F1580329600ECB0132013B8A4270
:102F5000C4E9172308D2D50802F007060132013B65
:102F6000455DF540ED07F2D10020BDE8FC81094A3E
:102F700019440092B1FBF0F202FB1013D44906A0F1
:102F800040F2BF22FDF754FA6FF01B00BDE8FC8150
:102F9000C12F00088CAA000825733A25643A65728F
:102FA000726F723A204E6F206D6F72652066726587
:102FB00065207370616365203078257825730A0079
:102FC00010B5D0E91523C46E891A2144B1FBF4F27F
:102FD00002FB1411994209D2406E01F0070201234D
:102FE000C90803FA02F2435C1A434254002010BDA0
:102FF0002DE9F04F87B0129F984691468A46834646
:10300000002605ACBE421BD21098BD1BA9EB0603DF
:103010005246082D28BF0825CDE90245304400213D
:10302000CDE90080584600F079F978B911982A4620
:1030300081192046FDF736FC002803D12E44E1E734
:10304000002003E04FF0020048BF0120FFF718BC4A
:103050002DE9F04F87B0DDE9118B049391468A4644
:103060000746002605AC46451CD21098A8EB06057D
:10307000A9EB06035246082D28BF08250499CDE97F
:1030800002453044CDE900103846FFF7DAFB50B96D
:10309000DBF8000021462A4600F044FACBF8000095
:1030A0002E44E0E70020FFF7EBBB000080B5C26EC6
:1030B0008A420BD9806EC26890470128B8BF80BD94
:1030C0003C4883494FF48B72FDF78EFB804902A088
:1030D0004FF48A72FDF788FB626C6F636B203C20B3
:1030E0006C66732D3E626C6F636B5F636F756E749D
:1030F000000000002DE9FF470C46096811F1030F9D
:1031000001D9002016E08246C06E814235D2DAF83D
:1031100068009046D4E901269946E3688569876886
:103120002E44013EB6FBF5F66E430096B8470128E3
:1031300028DA10B104B0BDE8F087B9F1000F13D060
:103140004FF0FF30E1683246C8F80000D4E90030A3
:103150008DE8430050464146FFF74AFF0028E9D476
:1031600002D06FF05300E5E7DAF86810E068FFF787
:103170005AFB4FF0FF302060C3E7E94904A0B322B7
:10318000FDF732FBE548E649B722FDF72DFB00BF0E
:103190007063616368652D3E626C6F636B203C20D9
:1031A0006C66732D3E626C6F636B5F636F756E74DC
:1031B00000000000B49D00082DE9FE4F0C9C07465E
:1031C0000E46CDE90123A01C02D0F86EA0425ED9C4
:1031D000B96EDDF83CB0DDF83480C9690BEB08004E
:1031E00088424FD8DDF838A04FF00009BBF1000F3E
:1031F0003FD03068A04207D17168414504D8BA6E0B
:10320000926A531898450CD3013035D1B86E3460AA
:10321000C6F808908069B8FBF0F14843706020461A
:10322000E8E7A8EB0100F368A1EB08018D1851460F
:10323000AB4538BF5D4618442A46FEF7DFFFD6E9A6
:103240000101A844ABEB050BAA44A8EB00008142A6
:1032500088BF0846B96EB060896A8842C6D1DDE988
:10326000012338463146FFF745FF0028BED0BDE8B0
:10327000FE8F0020BDE8FE8F154916A04FF4837223
:10328000FDF7B2FA12491CA0E922FDF7ADFA104988
:1032900001A0E822FDF7A8FA626C6F636B203D3D48
:1032A0002028286C66735F626C6F636B5F74292DD6
:1032B0003229207C7C20626C6F636B203C206C6622
:1032C000732D3E626C6F636B5F636F756E7400008D
:1032D00092A000087063616368652D3E626C6F6345
:1032E0006B203D3D2028286C66735F626C6F636BBA
:1032F0005F74292D312900006F6666202B207369C9
:103300007A65203C3D206C66732D3E6366672D3EDA
:10331000626C6F636B5F73697A6500002DE9F04F33
:1033200089B005468B46139C159F0893A96E3819E2
:10333000C969884200F2B380E86E129E944610B1CB
:10334000B04240F2AC8008980CF10C01DDF850A0BE
:10335000CDF814B002910BF10C01013801910390EA
:10336000002F00F0A1802044CDF810A0CDE9067018
:10337000BBF1000F38460FD0DBF80000B0423846F2
:103380000AD1DBE9011250188442384604D2081BE6
:103390006ED9874238BF3846DCF80010B1420AD1F6
:1033A000DCE901135A18944205D20A1B47D990420E
:1033B00038BF024600E002460898874208D3A86E4C
:1033C0004169B4FBF1F303FB11430BB98F423ED2C9
:1033D000E86E08B1B0426ED9A86EA946079DA24614
:1033E000CCF80060B6466646F0464169C369D0F83D
:1033F00004B0876A0D44B4FBF1F4B5FBF1F504FBAE
:1034000001F24D43CCF804209D4238BF2B4604FB0B
:103410001131B94238BF0F46DCF80C307146CCF898
:1034200008700097D847012840DADDF814B0069FED
:10343000B44600284D465446464699D031E002EB4A
:103440000309E046484538BF8146029817E0B2FBC1
:10345000F1F2DDF810A0E046D0F804C002FB01F95B
:10346000314622465346CDF80090E04780B118E03F
:1034700000EB0209E0464F4538BFB94601980068A5
:10348000DDF810A0611A4A4601445046FEF7B6FE28
:103490000398A7EB09074C44CA44C44660E76FF0A1
:1034A000530009B0BDE8F08F0020FAE71B481C4923
:1034B0007622FDF799F91A4901A06B22FDF794F9DC
:1034C000216C66732D3E626C6F636B5F636F756E0C
:1034D00074207C7C20626C6F636B203C206C667374
:1034E0002D3E626C6F636B5F636F756E74000000DE
:1034F00010B504464FF0FF30002310602046FFF760
:10350000F9FD20B9A06E01698847012800DA10BDD5
:1035100002480349DD22FDF767F900BFB49D0008AA
:1035200092A00008B0B50B4B9AB111F8014B013ACB
:1035300080EA040505F00F0553F8255085EA1010C0
:1035400000F00F0585EA141453F8244084EA1010A3
:10355000EAE7B0BD189A00082DE9F04F87B00C4695
:1035600011990692ABB30546581E0590A86EC7691F
:1035700005A9384600F03BF8064610A9384600F089
:1035800036F807464FF004090DF1180A4FF0FF3BDB
:10359000BE4223D9F11B96FAA6F20698B1FA81F140
:1035A000B2FA82F82246C1F11F01414538BF884670
:1035B0004FEA88018DE803042846CDF80C900021DD
:1035C0000423FFF7ABFE0BFA08F100280E44DFD00E
:1035D0000BE04FF0FF300860002003E006981199DF
:1035E00008601098129908600020FFF749B9F0B5FB
:1035F0000B68A0F108029A4284BF0020F0BDB3FB23
:10360000F2F04FF055346FF00307013804EA50052B
:10361000401B4FF0333505EA900620F0CC303044A3
:103620004FF0013600EB101020F0F030704307EA45
:103630009050181A0838B0FBF2F004EA500400FB6E
:103640001232041B05EA940524F0CC342C4404EB1C
:10365000141424F0F034744307EA9454121B0A60E3
:10366000F0BD2DE9F04F89B0824612984FF0000B63
:10367000CDE90412A0B30138DDE913451F460890D7
:10368000DAF86800C06908A9FFF7B1FF06462846C6
:103690003946A04718BB3EB306F00109CDE9007BCF
:1036A00006A8DDE90412C9F102084FEA8803CDE952
:1036B00002035046FFF732FE88B989F00107002166
:1036C000B94206D206992846A04701210028F7D022
:1036D00005E006A8A6EB080650F82770D7E7834652
:1036E000584609B0BDE8F08F4FF0000BF8E7000036
:1036F00010B50B4CA06E416B19B9E068FCF75CFE8D
:10370000A06E816B19B9E069FCF756FEA06EC06B24
:1037100000B110BD606EBDE81040FCF74DBE00BFAB
:10372000988F002000207047B0B5FFF7B7F805F07C
:1037300003FA0020B0BDB0B5FFF7B0F805F058F9B6
:10374000002858BF0020B0BD002070477FB50C4650
:1037500005460126032E0AD006F0010004EB800185
:103760002846FFF7A9FB01360028F3D02AE0002005
:10377000264621680422042346F8080FCDE90010EC
:10378000CDE90262284600212A46FFF7C7FD3168CD
:1037900010B110F1540215D1A86E406A012808DB5F
:1037A000013040F0010001440139B1FBF0F1484320
:1037B00030604FF0FF3100200422C4E90321C4E946
:1037C0000501E16104B070BD10B5044600F0F0FEE3
:1037D000002805D405D02046002102F03DFC00B1B0
:1037E00010BD002010BD10B513460A46D0E90041B7
:1037F0002046BDE8104000F010B80A4640F2FF3302
:103800006FF39F229A4208BF013102686FF39F2134
:10381000114404310160002070472DE9F04F87B05A
:10382000064610460C4640F2FF3117466FF39F20C4
:10383000884208BF0137606861696FF39F27384489
:103840000430884202D96FF01B000FE0A06822F01C
:10385000004A994615462146042380EA0A0000BA28
:10386000069006AA304600F01FF908B1FFF708B825
:10387000B5F1FF3F0BDD304621464A463B4600F09E
:1038800013F90028F2D10020C4F808A0EEE70025C3
:103890004FF0010B0DF11708002FF4D0D9E900010A
:1038A00032463B4629448DE803093046FEF7C9FFFE
:1038B0000028DBD1304621464246012300F0F4F8CF
:1038C000013F01350028E7D0D0E700002DE9F04F97
:1038D0008BB00446D1F804900D464FF00008A16E5D
:1038E00009F11400D1E90621884238BF0146881841
:1038F0000138B0FBF2F000FB02F6A6F114000690CE
:1039000004F11000079008A80430049000200590EE
:10391000B14580F0988009F10401FF2040F2FE33A8
:10392000721A8DF82B009A4228BF1A46069F11443E
:10393000B94238BF0F46B14228BF0F46B74238D30D
:10394000A06ED0E90630C01A874201D9FF2030E0CE
:10395000286800212246CDE900070DF12B000290D6
:10396000012003902046FFF7D9FC18B110F1540153
:1039700040F092804FF0FF302B6821460990A06EF6
:1039800082690498029020460892CDE90072FFF700
:103990005FFB10B110F154017ED1414A2046294607
:1039A00008ABFFF73AFF002876D1D5F804909DF8D0
:1039B0002B00A7EB090180F080000DF1200B042201
:1039C000043941EA4030374940EA010AD5E902109A
:1039D00081EA0A0109BA08915946FFF7A3FDE86098
:1039E000099028680799224600238DE8010A0820DB
:1039F00003902046FFF7E0FB00284DD1B8F1000FFF
:103A000004D16868E96800F1040805919DF82B006D
:103A10008021B74221EA00008AEA0060C5E901700E
:103A20004FF0FF30E86005D2A16E6069896A0844F2
:103A3000874206D3079920462246FFF759FD58BB17
:103A40006F68B94664E728694FF0FF312B6808F1C9
:103A500004020891A8EB0001CDE9000108AE204660
:103A600021460296FFF7F4FAB0B908980599884202
:103A700010D12B680420214604220296CDE9008053
:103A80002046FFF7E5FA38B90898002818BF6FF00C
:103A9000530001E06FF053000BB0BDE8F08F00BFA2
:103AA00008FCFF5F00FC0F50F0B585B00D460968BB
:103AB00016461C466A68039300238DE8460000F111
:103AC00010010246FFF778FB074640B9E868314627
:103AD0002246FFF727FDE8606868204468603846A2
:103AE00005B0F0BD2DE9F04F9BB00446806ECDE9E6
:103AF0000A230D46406A00F049FDAA46269E4FF073
:103B000000095AF8081F0131CAF8001068B14FF0D7
:103B100001082846CDE9199819A9FEF798FE06D0A4
:103B20004FF0FF3001272061AEE04FF000084FF06A
:103B3000000BA26E4FF0FF306968CDF85C901690D4
:103B4000CDE91490D06C139100B9D0690838189061
:103B50002046FFF7ABFA10F1540100F084800028F2
:103B600040F0BC8013AF2046524604233946FFF78D
:103B70009BFF10F1540176D0002840F0AF80CDE9D2
:103B8000114711A8259900224FF0FF33079067488D
:103B9000CDE9031606904842249900B20590644886
:103BA00002900B9801900A980090204601F096F937
:103BB00010F1540157D0002840F090802B4653F864
:103BC000180F01300FD0E86901300CD0E87D594959
:103BD00041EA005213A92046FFF71FFE10F15401DD
:103BE00041D000287AD15FEACB704FF000024FF04D
:103BF000000109904FF0000008D104F13807D4E922
:103C00000C12666C89CF7A405940704004F1480725
:103C1000C8CF7840724010900F9281EA030040F2C2
:103C2000FF31884329460E900EAA204600F088FBFB
:103C3000002853D10E98269E18B90F9808B91098ED
:103C400050B13D4A13A90EAB2046FFF7E6FD10F137
:103C5000540108D0002841D113A92046FFF736FEB1
:103C600010F154013DD14FF0FF30012720615FEA90
:103C7000C87009D131486B68324940F63302009070
:103C80002F48FCF7D5FB002701200D9000200C9059
:103C90000CA9284603F034F8291DA0B12046FFF7EF
:103CA0000BF94FF0010B4FF0000800283FF441AF33
:103CB00010F11C0112D14FF0010B4FF00008002F42
:103CC0007FF437AF08E01D480B681E4940F6390203
:103CD00000901DA0FCF7ACFB6FF01B001BB0BDE813
:103CE000F08F0028FAD1FEF7E5FD18D11599C5E946
:103CF00003012598301AA882D5E90001C5E9001012
:103D00000020C4E912002065099828B904F13002A6
:103D100004F13C0307CA07C30BF00100DEE71848B3
:103D2000084940F62102FCF75FFD00BFE7370008B5
:103D300000FC0F4008FC0F600CFCFF7F8CAA000801
:103D4000C89B000892A0000825733A25643A776161
:103D5000726E3A205375706572626C6F636B2030BF
:103D600078257820686173206265636F6D652075C2
:103D70006E7772697461626C6525730A00000000D9
:103D80003B9E00081FB500234FF0FF34CDE90043F0
:103D9000CDE902334FF0FF3300F002F804B010BD5C
:103DA0002DE9F04F9BB08246C06E934648B1DBF8D8
:103DB0000020824280F00682DBF80420824280F0FC
:103DC00001824FF000094FF004080027002400256D
:103DD00004930E91CDE91899022D20D05BF80700CD
:103DE00018A952460423CE190021CDE900095046F6
:103DF000CDE90268FFF792FA10F154010CD00028C7
:103E000040F0E28185F0010018A951F820003168E6
:103E1000081A0028C8BF2C4604370135DCE704EB3C
:103E2000D4700E9D4FF0FF3720F00100211A601C66
:103E30005BF8213000EBD07222F00102801A2B6077
:103E400006905BF8200018AAAB4652F821102A46CB
:103E500042F8081F002142F8040C0892516012AD8C
:103E6000022900F0A681099108994FF0FF394FF01F
:103E7000FF300422CDE91699FFF754FB1390002080
:103E800040F2FF344FF000080C970D9000200B908B
:103E90000020059008F00100CDF81C80C8460A906B
:103EA0004146DAF868006FF39F21A1424146C36999
:103EB000DBF8000008BF01310D9A00266FF39F2147
:103EC0001144524604318DE8230004200D910390E3
:103ED0005046FEF7B6FC002840F029811398294689
:103EE00004225C46FFF71EFB83461390129800BA2B
:103EF00080EA0809B9F1FF3FCDF8489040F32581E9
:103F0000484640F2FF310C9D6FF39F20884248469F
:103F100008BF01300D99DAF868206FF39F200E1D5D
:103F2000D3693118994200F21A8109F0F041B1F1D8
:103F3000A04F41D1206800215246CDE9000611A8CA
:103F400002900420FEF76BFC002840F0F5801198E9
:103F5000834540F0F480DAF82C00129D13A9042266
:103F6000FFF7E0FACAF82C000E980B990E9A40F26F
:103F7000FF34818205F480100A9989EAC0280E98DE
:103F8000C0F810800E98C175DDE9160190610E9899
:103F9000C16128466FF39F20A04208BF0135DDF8BC
:103FA00038B00C976FF39F257019CBF80C004FF0C9
:103FB000FF30139012AD73E7D4F800C0CDE9006074
:103FC00013A81A465146A346029050466346FFF78F
:103FD0003FF8002840F0D780DDF848804FF4E060DB
:103FE0000A9600EA1850B0F5C06F0ED0B0F5806F99
:103FF00023D040F2FF3488BB0B9AC8F3892190B2DA
:10400000814228BF4A1C0B925BE0DAF868005246F6
:1040100000210026C3690E98006800900A9801905C
:1040200016A802900820FEF7FAFB002840F0B280A4
:10403000DDF838B0C8F3005832E00B994FEA185059
:10404000974A40F2FF3441FA80F10B91934939408D
:104050001143884527D147F0004732E0904901F1EC
:10406000405001F1805100EA0800884229D1DAF875
:104070006800DDF838B0002152460026C369DBF83D
:10408000000000900A98019014A802900820FEF702
:10409000C6FBDDF81C80543000F0888001200590BC
:1040A00040F2FF3411E0791C09D0C7F38921C8F32D
:1040B00089228A429CBF000607EBA03701E04FF03F
:1040C000FF37DDF838B0DDF81C8012992498049A87
:1040D0000A9B4840104202D0294612AD25E0DBF889
:1040E00000001093269B0F9027980FAA984700284E
:1040F00058D4DDF848C0294610D06A4B8CEA070234
:1041000012AD1A420DD002280DD1C7F38920CCF38D
:104110008922824298BF4CF0004704E0674612AD06
:1041200001E04FF0FF3740F2FF340C91B2E60C9FF4
:1041300010F1540148D116E010F1540144D1E06867
:104140002F46A34612AD88B170E008F0F0400C9FF6
:10415000A34600F13040B0FA80F0460903E02F4654
:10416000002612ADA346DBF80C0080BBDBE90003A0
:1041700018A9069A51F82210CBE90030CBF80810A4
:10418000099901316CE62F4610F1540112AD1BD193
:104190000026E8E7DDF838B02F4610F1540112ADE3
:1041A00012D1E0E710F154010ED100262F4612ADD6
:1041B000D9E73D4940F26652CDE9000148493BA0AC
:1041C000FCF736F96FF053001BB0BDE8F08F00210B
:1041D0008BF816106EB3DAF868108A69B0FBF2F348
:1041E00003FB12022ABB059A82F00102D20720D1FA
:1041F0004FF0FF32DBF800301292CA6914998DE853
:10420000230050465146FEF723FF10B110F1540130
:1042100007D11599129A511AB1FA81F149098BF80F
:10422000161030B110F1540103D0CDE700208BF807
:1042300016000AF13C055946284602F0E3F940B160
:104240002968C7F38920C1F38921814219D147F038
:1042500000470E9A259B33B1918AC7F38920884283
:1042600038BF01461980B7F1FF3F01DD3846ABE7A3
:10427000918AC7F3892200208A4238BF6FF001007B
:10428000A2E77A1C259B0E9A04D0814238BFA7F57D
:104290008067E0E74FF0FF37DDE700BF00FC0F006D
:1042A0000000F04F00FCFF7F8CAA000825733A2520
:1042B000643A6572726F723A20436F7272757074ED
:1042C0006564206469722070616972206174207B6A
:1042D000307825782C20307825787D25730A0000E9
:1042E00092A000087FB505460C460068D5E9011686
:1042F0006FF39F24A64228BF2646D2E900320296D9
:10430000CDE9002101463246FEF772FE40B9A868A9
:10431000A04201D1002003E04FF0020038BF01208D
:1043200004B070BD1FB51C466FF39F240294069C19
:1043300001940024009400F087F804B010BD000040
:104340007FB5144601AA00920D4A02F10C03FFF753
:10435000E9FF01466FF00100081A18BF084600295E
:1043600000EAE1700AD4023108D094E8070001AEF7
:1043700068CE69407240584007C4002004B070BD48
:104380000000F07F2DE9F04F87B006468A461446BC
:10439000119F139AB16ED019C969884203D96FF081
:1043A0005300FEF76DBA12982649DDF840906FF081
:1043B00001080690581E8B460490002A3FD0C5196C
:1043C00005922068023006D1D4E9010211188F420B
:1043D00001D287421ED2B06EC4F800804169806A63
:1043E0006B18B7FBF1F2B3FBF1F34A435943626038
:1043F0004B46814238BF0846E168A06002903046D3
:10440000CDE9002151465A4600F01EF8B0F1FF3FB9
:10441000D7DCC6E7391AC01BE3688518059819442C
:10442000A84238BF054606982A46FDF7E7FE0698DB
:10443000059A2F442844521B06900498BDE700209B
:10444000AFE700BF00FCF7FF2DE9F04F87B0D1E9DF
:10445000035800F13C0704469A4616460591384633
:10446000CDF8188002F0CEF84649049606EA010914
:10447000A8B1B9F1000F10D03968CAF38920C1F38F
:10448000892181425CD04FF000064FF001093CBF0A
:104490004FF60046CFF6FF7602E04FF00009002607
:1044A000474640F2FF306FF39F278742404608BFE0
:1044B00001306FF39F2000F108018D4240D3059930
:1044C000281A22460423C346051F0968CDE90015B2
:1044D00006A800210290042003902046FEF71EFF4C
:1044E00080BB0698B9F1000F00BA80EA0B0020F0FB
:1044F0000048CDF8188018D00BF0E040B0F1804FA4
:1045000013D1AAEB0600CBF38922C0F389218A429A
:104510000BD81C4908401C490843834510D04BF375
:10452000912040F2FF3188430644AAEB060004992B
:1045300080EA0B000842B3D140F2FF30874203D13A
:104540006FF00100FEF79CB9DDF848801099224613
:10455000474528BF474605982944119D3B460431ED
:104560000068CDE90257CDE900012046FEF769F960
:104570000028E7D1E819A8EB0701FCF758FC06EB87
:104580000B00DFE700FC0F00000010400128BCBF5B
:10459000002070478968013040F001000131B1FB13
:1045A000F0F202FB1010B0FA80F0400970470000F2
:1045B0002DE9F04FA7B000F128061F4691460D46A1
:1045C0008246079636680EB306F10800A842F9D075
:1045D0002946FEF73CF9F5D1B0790128F2D196F8D9
:1045E0003200C006EED5DAF86810F06A896A8842AF
:1045F000E8D95046314601F0D1FB28B95046314642
:1046000000F09CFE0028DDD0804662E1D5E9000183
:104610002022CDE925011DAC29462046FDF7EEFDFF
:1046200015A821462A464B46CDE90070504600F0B9
:1046300097F98046002800F14C8125A92846FEF70D
:1046400006F903D11DA92846FEF731F9B8F1020F8A
:1046500027D10AF1480250462946FFF771FE8046ED
:10466000002840F03681DDE91501CDE9250105F18D
:1046700018009D491490E87D41EA005001211390F3
:104680000020CDE9001015A925AA13AB504600F073
:1046900067F98046002800F11C811DA815A9FEF7C6
:1046A00006F90AF1300008900AF12000069025ADC5
:1046B00000200590B8F1010F40F00781DDE92530B9
:1046C000DDE91D128DE807008A48994940F6AB12D2
:1046D000039089A0FBF7ACFE0699284602F010FB78
:1046E0001D9E00281E9F08BFCAE90867079C246812
:1046F0009CB104F108012846FEF7A9F801D1C4E9EC
:104700000267A0790228F2D104F12C012846FEF7B5
:104710009EF8ECD1C4E90B67E9E715AC5046294691
:10472000224601F0C7FD8146B0F1FF3F03DC19F1DD
:10473000020040F0CD8019F1020B2BD05046012130
:1047400001F05AFE0898214601F05CFF1DAE4FF0C3
:10475000000720B3DAF83000DDE9153140F6D81251
:10476000C0F389246348CDE900147149029071486F
:10477000FBF75EFEDAF830005D49CAE90D770840C4
:10478000CAF83000C9F389208442484638BFA0F5F2
:10479000806007E04FF000081DAE002722E040F2E5
:1047A000FF344846DDE91512CDE90E7040F2FF30C6
:1047B000201ACDE9106112924C4918BF41EA8420B9
:1047C0000D900220CDE9000715AC11AA50460DABA3
:1047D000214600F0C5F88046B0F1FF3F79DDB8F121
:1047E000010F64D050462946224601F0CFFD10B19A
:1047F000811C7FF409AFBBF1000F01D0811C6CD08C
:1048000002303FF457AF08980088800509D06FF058
:104810000100B9EB0001504618BF4FF0FF3101F025
:10482000EBFD0898214601F0EDFEC0B1DAF830004A
:10483000DDE9153140F60C22C0F389242D48CDE97D
:1048400000143B4902903B48FBF7F2FDDAF83000D8
:104850002749CAE90D770840CAF8300001E040F264
:10486000FF34DDE915010A970C962A46CDE92501AA
:104870009DF86B001C4941EA00501C490B9040F226
:10488000FF30201A18BF41EA842009900220CDE9A8
:10489000000715AC504609AB214600F061F8804690
:1048A000002816D430462146FEF701F802E7DDE97C
:1048B00011012022CDE9250130462146FDF79EFC5D
:1048C00003204FF001080590F4E6DDF8148000E0C5
:1048D000C846404627B0BDE8F08F154916A040F6FF
:1048E000F912FBF781FF00BF08FC0F600000F04FDA
:1048F000FF0300808CAA000825733A25643A64659A
:104900006275673A2052656C6F636174696E6720E7
:104910007B307825782C20307825787D202D3E201E
:104920007B307825782C20307825787D25730A0017
:1049300092A00008589A000821286861737061727B
:10494000656E7420262620657272203D3D204C46FF
:10495000535F4552525F4E4F454E542900000000B0
:104960002DE9F04F99B0DDE922989A4608928B46DE
:104970000446002040F2FF4140F201420023484536
:104980002DDA5AF83050C5F30A568E4207D09642B7
:104990000FD1BBF814500135ABF814501DE0BBF833
:1049A0001430002B00F0F781013BABF814300123E9
:1049B00013E005F0E045B5F1C04F0ED10AEBC0059C
:1049C0006D682E68CBF818606D68CBF81C505AF8EB
:1049D0003050C5F300558BF817500130CFE7D8079A
:1049E000CDE90A4B03D0BBF81400002869D09BF82E
:1049F0001600002800F094804FF0FF30DBE903231D
:104A00001690DBF80000179213A90DC1A16EC86CB7
:104A100000B9C86913A9083811941291189011A807
:104A20005946CDE900A90790DFF8900306900020D1
:104A3000CDE90400CDE90200204600F04FFA05461A
:104A4000543018BF15F11C0069D0002D40F053817F
:104A50000A98074657F8302FD7E90113D7E90456CB
:104A6000FC69B846694073404C40396A0F9459401C
:104A700058F80C3F10915A40BB695A4040F2FF333E
:104A80009A430E92AABBA4BB99BB13A9FEF71EFFC3
:104A90000546543018BF15F11C0040D00A9C002D6B
:104AA00040F02981FDF706FF40F08181159900252E
:104AB000CBE90301C4E91255256507CFA8E8070033
:104AC000A9E0B8F1000F00F06C812046594642463B
:104AD00001F05CFC0A9C054602303FF488AF002DD3
:104AE00040F0098198F8170000283FF480AF0225B4
:104AF00091E00EAA5946FFF723FC0A9C05460028C0
:104B000040F0F980AE4A13A90EAB2046FEF785FEB1
:104B10000546543018BF15F11C0040F034810A9C42
:104B20004FF0FF30DFF8A4922061A948BBF8146071
:104B300080460996B7B20026A7EB060BBBF1020F21
:104B400030D30020229AB1B2CDF800A04FF0FF334D
:104B50000E907042CDE9031700B2CDE90128002282
:104B6000CDE905090EA80B990790204600F0B6F98B
:104B7000002849D1A16EC86C00B9C869BBF1FE0F0D
:104B80000DD8896901EB50022838013AB2FBF1F2E5
:104B90005143884238BF01460E98884202D906EB3D
:104BA0005B06C9E7DDF82CB0BEB1B0B2229B594616
:104BB0005246FDF788FE0A9C0028BAD005461C30F4
:104BC00025D1DBE90030834940F68D02CDE90001B3
:104BD0007D4981A0FBF72CFC0A9CA06E5946406AD7
:104BE000FFF7D4FC002800F08A80012000251490F3
:104BF000139513A9584602F083F8DDF88890002831
:104C000000F08F800A9C7DE0DDF82CB00546DDF8D1
:104C10008890002D6FD4089904F12807D1E900018C
:104C2000CDE90C0104F1200009900CAC40F20146E2
:104C30003F68002F5FD007F1080821464046FDF786
:104C400006FEF5D140465946FDF731FE089840F280
:104C5000FF44804530D0002048452DDA5AF8301006
:104C6000C1F30A52B24213D0A24223D1C1F3892226
:104C7000B988914202D1BB79022B17D1914219D93F
:104C80000139B980B979022914D1B96A01390BE027
:104C9000BA88C1F389218A420CD3511CB980B979F1
:104CA000022907D1B96A0131B96203E04FF0FF313F
:104CB000C7E902110130CFE74C4607F1200BBE8B4C
:104CC000B7F80490B14511D3F87F78B109995846E7
:104CD000FDF7BDFD02D0A9EB0600B8800A98414659
:104CE0005A46FFF74FF80028E9D003E0DDF82CB072
:104CF000A1469AE70546284619B0BDE8F08F0A9C00
:104D0000DDF88890099880B2002152464B46CDE9E3
:104D100000B1029020465946FEF7E4FE0A9C054683
:104D200077E70E950EAA0A9C36490023204601F02B
:104D3000C5FB0E9D002818BF0546B5F1FF3FDADD23
:104D4000E06E411BB1EBD00FDCD92248DBF8083014
:104D50001D4940F6A20200902BA0FBF769FB002042
:104D6000594652464B46FDF7AEFD88B10A9C0546B2
:104D70001C307FF44EAF1449164B2FA040F6AC0206
:104D8000FBF756FB3EE70A98002D3FF47EAEB2E7F4
:104D90000A9C0120B7E734480B4940F6C502FBF7EF
:104DA00023FD3048084940F6D202FBF71DFD0548B7
:104DB000054940F61C12FBF717FD00BFE737000856
:104DC0000CFCFF7F3B9E000892A00008FB37000808
:104DD00000FC0F408CAA000825733A25643A7761DD
:104DE000726E3A20556E61626C6520746F2073702C
:104DF0006C6974207B307825782C20307825787D7C
:104E000025730A00B164000825733A25643A646585
:104E10006275673A20457870616E64696E672073C9
:104E200075706572626C6F636B2061742072657659
:104E300020257525730A000025733A25643A7761A9
:104E4000726E3A20556E61626C6520746F206578D1
:104E500070616E64207375706572626C6F636B2530
:104E6000730A0000FCA10008199F00082DE9F04119
:104E70008CB00D4604A91E4617460446FEF766FC94
:104E800048BBEA7D1498DDE912188DF82720D5E992
:104E900006230290CDE900182046CDE90A2304A993
:104EA0003A463346FEF71EFE002814D4DDE90467B7
:104EB000012004F12001E8752846C5E9066701F0E4
:104EC0001FFF01460020B8F1000F08BF002902D1E2
:104ED0000020C4E908670CB0BDE8F0812DE9F04F6F
:104EE000AFB00D903F981E463E9BDDE938B94FF0BC
:104EF000000A14460F464FF00008CDE90EAA0B90A9
:104F0000DDE93C0E08903B9809903A980C900C997A
:104F1000CDE9063ECDF828A0A9480C9101EA000A87
:104F2000304640F2FF316FF39F208842304608BF81
:104F300001306FF39F202044051DF86885421DD283
:104F4000386800210423CDE9000510A80290042050
:104F500003900D980246FEF7E1F9002840F0248105
:104F600010982A1D2C4600BA704040F00040109066
:104F700006463968CDE90E120EAA07E0B9F1010F15
:104F800042DBFBE80202A9F10109109080EA080166
:104F90001AEA010FC4D18949DDF830E01EEA010F99
:104FA00000F0FA800A9B032B80F00181C3EB031110
:104FB00011AD013345F8217005EB8101DDE90EC526
:104FC0000A93C1F81880C1E9049E4FF00008C1E9B6
:104FD0000C2C069A8D634A620B9A8A62079A0A849D
:104FE000089ACA83099A8A830A1D41F82C0F002067
:104FF000079076480B9182E8500800210690002027
:1050000008900020099087E7DDF828A00020BAF179
:10501000000F11AE00F0C880AAF1010ACAEB0A1114
:1050200006EB810356F82170D3E909C0D98B03F14F
:105030002C0503F1040BB3F820E0D3F818800B9093
:1050400035CD0891998BCDE90E459BE85008D3E901
:1050500004951090099159490C950D420DD0099B6A
:10506000C0F389219BB299426346FFF450AF089B7D
:105070009BB299426346BFF44AAFC0F30A516346FC
:1050800000293FF444AF40F20113994235D0B1F505
:10509000817FCDF81CE070D10FFA8EF1101D4FF01A
:1050A000FF35CDF828A0CDF814808902069110991B
:1050B000013500F10C0A0A466FF39F22954216D281
:1050C0003E4AE0461140069A1144D0E9002310F808
:1050D000040C194341EA005040F040510B98E0475E
:1050E000002861D4C446DDF814805046DFD0DDF8D6
:1050F00028A0DDF81CE0634609E734498C450B46DF
:105100003FF405AFCAEB0A1111AB089D0AF1010A81
:1051100043F8217003EB810100231746CD83099DDD
:10512000C1F81090A1F820E0C1F824C0C1E90C3307
:105130008B634FF000098D830D1D85E850080C9C92
:105140004FF0FF364FF0000BC1E905480B9C4FF0C4
:105150000058C1E90A43C0F389216FF39F2000245E
:10516000AEEB0003099003EB010E1449634601F115
:10517000C0410C91411C0891C9E60FFA8EF16546B9
:1051800000EB81210B98E04700280DD4DDF81CE0EE
:105190002B467FF43CAFBAE67546DDF818C0DDF863
:1051A00028A0DDF81CE056E72FB0BDE8F08FA74936
:1051B00004A040F2C232FBF717FB00BF00FC0F0057
:1051C0000000F07F7370203C20330000D1510008B4
:1051D000B0B5194BCA001C4658BFA4F17F640268E1
:1051E00082EA010525420DD0144640F2FF356FF3E7
:1051F0009F24AC4206D0114C114D0B4014402C435F
:10520000A34204D10121002202600846B0BD01F092
:10521000E043B3F1804F05D1C2F38923C1F3892460
:105220009C4201D90021F0E741F3912140F2FF3384
:1052300099430A440021E7E700FCFF7F00FC0F00D0
:105240000000F04FB0B50546806A0C4601F0ECFB5B
:1052500028B128462146BDE8B04000F009B803480F
:105260007A4941F60902FBF7BFFA00BF5F9C0008CC
:10527000F0B587B0054691F832000C46000747D4D8
:105280002846214600F05AF80646206B1EB140F42D
:10529000002020633DE0C1033AD5274657F8081F98
:1052A000013135D0E168013132D0C10208D405F1B5
:1052B000100128462A46FEF71BF9064648BB206B1C
:1052C000C00206D4D4E90A01CDE904011A4804A9B0
:1052D00003E0E06A974AE16C10430191A188022340
:1052E00040EA81200090206DD0E9012040EA812031
:1052F00003926A46394640F0815002902846FEF7F4
:1053000063FA0646206B002EC1D120F48030206362
:10531000002605F128000146006818B1A042FAD124
:1053200020680860206D006810B9E06CFBF744F855
:10533000304607B0F0BD00BF080020202DE9F0473F
:1053400098B00546086B0C46410307D5C10220F40E
:1053500080205CBF4FF0FF312164206381034BD577
:10536000D4F83490C1023BD40DF10C080027202161
:1053700008F108008DF81270ADF810700397FBF774
:1053800078FD4FF0FF3695E80E1001201297CDE919
:10539000109717972E600F90D4E90A70CDE90D7021
:1053A00013AF87E80E100DF10B074946814227D253
:1053B000284641463A46012300F04AF800281CD40A
:1053C000284621463A46012300F0B6F8002814D4B6
:1053D000286801301CBF2E601396E06A616BE5E718
:1053E000E16A894588BF4946012262F31140A26BF8
:1053F000C4E90C09C4E90A21002018B0BDE8F0870F
:10540000DFF868AEDFF85C8B104F04F140062846E9
:1054100031462A460123FDF76DFE10F154010FD1EC
:10542000A36B4046394640F64E52CDF800A0FAF73D
:10543000FFFF2846214600F007FD0028E7D0DCE703
:105440000028DAD1D4E90C01CEE700BF92A0000811
:105450002DE9F04F87B00D460646C96A686B814258
:1054600063D9A1EB0009144605F13C0A05F1380B9C
:1054700005F1080105F140074B4538BF99460691F3
:10548000CDF81490B9F1000F51D0296B4A0305D51E
:10549000B36EDAF80020DB699A421BD1CA020DD440
:1054A000D5E90A23CDE9000B30463946CDF808A0EE
:1054B000FEF752F8E0BB296BE86B05E06FF00102E4
:1054C000CAF80000CBF80020B26E41F480212963B5
:1054D000D36900E01046A3EB0008C14538BFC846B9
:1054E000C9020AD4DBF800103A46CDE90248CDE9FA
:1054F00000103046FDF7A5F90CE0A9880D4ACDE96A
:10550000024842EA81213A46CDE900100699304628
:10551000FEF738FF60B9686BE96BA9EB08094444F2
:10552000404441446863E963ACE7002000E005982B
:10553000FDF7A6B9000010202DE9F04F93B0074603
:1055400091F83200994616460C46C00610D5616B9C
:10555000E06A4944814288BF0846F96F884207D90A
:105560003846214600F01AFC8046002840F044816D
:1055700004F1380004F1400A0DF1400B4A4609904D
:10558000002A00F04181206B81031CD4C0022AD480
:10559000606B089268B30138D4E90A235146009041
:1055A000099801900FA802903846FDF7D5FF002812
:1055B00040F02181B96EE06CFDF735F9089A4FF0A3
:1055C000FF30206407E0B96EE56BC9698D4240F099
:1055D000E180C00207D420465C460892CDE9046908
:1055E000456B07900AE0656B6FF00100C4E90E059A
:1055F000CAE007945C46CDE904690025F86ECDF851
:1056000034A00A953866681E0B90099800680C90C3
:10561000384612A9FDF750FC002840F0EB801299A3
:1056200038460E91FDF742FD10F1540100F08C80D8
:10563000002840F0A080002D00F0D8800B98119039
:10564000B86EC66911A93046FDF7D1FF119901F175
:105650000109B1452FD101300C994FF0000A90FAA1
:10566000A0F01091B0FA80F0042101EB80054FEA20
:105670008009554555D00E980D9904263A460123C8
:10568000CDE90246CDE9000A3846FDF795FDC8BBD5
:10569000D1450DD0109800213A4604230294CDE95B
:1056A000000A042003903846FDF738FE002844D154
:1056B0000AF1040ADDE70025CDF81890B9F1000FD2
:1056C00050D00C98012600213A464B46A346CDE91E
:1056D0000246CDE900053846FDF720FE48BB0E988E
:1056E00051463A4601235C46CDF808B0CDE90005A5
:1056F000012003903846FDF75FFD50B9A9F101097B
:105700000135DBE7DDF834A00A9D10F1540119D012
:1057100005E00A9D10F1540101D1042612E0012692
:1057200009E007980E994FF000080126C0E90E1510
:1057300005E00A9D5C46804604E001268046DDF8CF
:1057400034A00A9D042E17D1304832490E9B40F6F2
:10575000C33200902E48FAF76BFE4FF0FF30CAF8C4
:10576000000055E7079C0E99069DA163DDE90469D9
:10577000089AE56308E08046DDE90469079CB8F112
:10578000000F39D1E56B089A206B40F4003020639C
:10579000B86EC1694D1B9346AA4238BF1546D4E97D
:1057A0000E013A46012303958DE8430038465146E1
:1057B000FDF702FD8046543006D13846214600F000
:1057C00043FB0028EBD016E0B8F1000F14D1F86EBF
:1057D0005A462E44ABEB05020DF1400B3866606B68
:1057E000E16B284460634819E063C9E6079C0E99A1
:1057F0000025BAE7079C8046206B40F40020206318
:10580000404613B0BDE8F08FC846F9E78CAA0008FF
:10581000C89B000892A000082DE9F04F9DB00546F6
:10582000806A1E4691468A4601F0FEF8002840F044
:105830005C82B00700F1B680269800215446069697
:10584000CAF83C10CAE90C61CAE91310286A44F886
:10585000200F686AA4F1180B6060A4F11C000C9082
:1058600099F80000002800F02781DB48DFF8146574
:10587000CDF81490CDF828A0CDE908B500F50017B3
:10588000D64838400B90B0F5001F04D14846314649
:10589000FAF7FAFF814448463146FAF7E5FF8046B9
:1058A00002280AD0B8F1010F0ED199F800002E2875
:1058B0000AD10B9809F10109E5E7B9F8000042F6B1
:1058C0002E61884200F0F48009EB08054FF0010BCF
:1058D000079528463146FAF7D7FF05EB000A31460F
:1058E0005046FAF7C1FF01280DD0022801D070B947
:1058F00018E0BAF8001042F62E62914207D1BBF1CF
:10590000010B06D108E09AF800102E2901D00BF106
:10591000010B0AEB0005DCE70AF10209DDE9095A8F
:105920000B98B0E799F80000002800F0B4800B98BD
:10593000DDF828A0DDE908B5B0F5001F40F0B5801E
:10594000C7F3892040F2FF31884207D0A449A54A15
:105950000094FCF76CFF002800F14F810C98CDF803
:105960005C80CDE91559CDF80080594622464FF0AC
:10597000F0430190DFF81804029015A80390284620
:10598000FEF70EFA0746002800F1988004D19AF835
:105990001F000028E2D176E0CDF81490DDF81C90CD
:1059A0008E486EE795F83100800742D4E86B10F01E
:1059B000E04F36D02C46D34AC0F3892054F8403FFC
:1059C0006168029241F25F32CDE90010DB49DEA04E
:1059D000FAF72EFD54F8040C8049084082498842A9
:1059E00040F08981884615A928462246FEF7CAF963
:1059F000002846D10020EA6B296B0123C5E90D0080
:105A00001090DF486FF39E211040296340EA0800A0
:105A10000F9015A90FAA2846FDF7D6FE07460028C5
:105A200066D12846012100F017FB074600285FD108
:105A300002E7686AB3492C4641F2363254F8203FF7
:105A4000CDE90001BD49B0A0FAF7F2FC15A928463E
:105A50002246FEF797F9A0B9B94805F168040F90FE
:105A60000FA80E901FCC11AF1EC7B6490123C06905
:105A7000183110900D9115A90DAA2846FDF7A4FE26
:105A800020B1074634E06FF0010717E0286B20F4DF
:105A9000007028638AE7DDF828A0DDE908B5DDF8A5
:105AA0001490B7F1FF3F27DC08E06FF0130705E023
:105AB000DDF820B0DDF814906FF01507B81C0DD19B
:105AC000484601F02DF9AF4904464844FAF7DCFE98
:105AD00020446FF0010719F8000068B1DAF83000CF
